:020000040800F2
:10000000F0FF01204D69060855F200083DDA0408AA
:10001000C5690608C5690608C5690608000000002C
:1000200000000000000000000000000051F2000885
:100030004DF200080000000049F2000841A2040847
:10004000C5690608C5690608C5690608C5690608C0
:10005000C5690608C569060839E6040865E70408A5
:1000600029E70408EDE60408B1E60408894D06080E
:10007000794D0608694D0608594D0608454D060894
:10008000314D06081D4D0608C56906080000000030
:1000900000000000000000000000000075E60408F9
:1000A000618B0408B18B0408518B0408D98B0408B8
:1000B000A18B0408918B0408818B0408455806081D
:1000C0004D5806083958060841580608C5690608FB
:1000D000C56906081DA4040861A304080000000007
:1000E000FDE50408C5690608710901080000000063
:1000F000000000000000000000000000094D06089C
:10010000000000003D280608718B0408C569060838
:1001100000000000000000000000000000000000DF
:10012000F54C0608E14C0608CD4C0608B94C06080B
:10013000A54C0608000000000000000000000000C0
:10014000000000000000000000000000D9EB0008E3
:10015000914C06087D4C0608694C0608A5A20408C7
:100160002D58060835580608000000000000000061
:10017000000000000000000000000000000000007F
:1001800000000000C5690608000000000000000033
:08019000C5690608C5690608EF
:08019800EC6406000100000008
:1001A0000E02010002000000706B0020D06B0020E6
:1001B00000000000F809000814020100050000001A
:1001C000B43E0020D46B002000000000FA090008B3
:1001D0001302010004000000CC240020DC6B00208E
:1001E00000000000000A00080D1001004C00000093
:1001F000F0680020E06B00200000000055FE0308BE
:100200000400080080000000306800202C6C0020F2
:1002100000000000000000000902010001000000D1
:10022000D8670020AC6C002000000000040A000821
:10023000FD010100240000007C670020B06C00205C
:1002400000000000236B0408FB0101000100000016
:10025000F0650020D46C0020000000004D7F0508F0
:10026000FC01010009000000BC640020D86C0020E3
:1002700000000000557F0508F7010100060000009E
:10028000B0640020E46C002000000000060A0008B2
:10029000F901010004000000AC640020EC6C0020B7
:1002A00000000000CD6B0408160215003F0000009E
:1002B00054320020F06C002000000000397F050857
:1002C0003400010010000000A0630020306D002009
:1002D000000000004995020811020100080000001A
:1002E00078630020406D0020000000000C0A000828
:1002F000121201000400000070630020486D00200D
:1003000000000000140A000818200100320000005C
:100310003C6300204C6D0020000000004988050867
:1003200012200100110000005C620020806D00209E
:1003300000000000180A0008000201000B00000085
:10034000985F0020946D0020000000000000000075
:10035000FF11010006000000445F0020A06D002096
:10036000000000003D7F0508081203000F00000098
:10037000505F0020A86D002000000000CD7F050820
:10038000FA010100030000003C590020B86D002074
:10039000000000007D7F05080A80010028000000A1
:1003A0001C510020BC6D002000000000FD1302085D
:1003B000061001001C00000078310020E46D0020D0
:1003C000000000004980050802020100030000004F
:1003D000B4280020006E0020000000000000000093
:1003E0000C0201000400000094280020046E00208C
:1003F00000000000BD7F0508110001000C00000096
:1004000072450020086E002000000000D5F20308AD
:10041000FE01010014000000E43F0020146E0020E3
:1004200000000000A57F0508FD0701007600000020
:1004300058C00020D0C00020000000003979010819
:10044000261001000E00000058C1002048C1002005
:1004500000000000151C01080B3001001A0000000C
:1004600024BA002098C10020000000002C0A0008D7
:100470001F3001002400000060B90020B4C100203A
:1004800000000000480A0008050201000400000006
:1004900054BC0020D8C10020000000006C0A0008F5
:1004A000030101000A000000A4B90020DCC1002003
:1004B00000000000BD160108220201001C0100001E
:1004C0006CD9002020DC0020000000000188050815
:1004D0000C200600CC000000D8D700203CDD002016
:1004E00000000000E9F00308010201000B00000019
:1004F0007CD7002008DE002000000000957F050862
:100500001B0201001000000050D7002014DE002064
:1005100000000000358005081B1001000C000000E1
:10052000CCD8002024DE0020000000001D7F010840
:1005300021020100F000000060C2002030DE002037
:1005400000000000CDA001082312010010000000EF
:1005500058D4002020DF002000000000700A0008AE
:10056000371001002E000000C0D6002030DF002030
:1005700000000000800A00081610010006000000BC
:1005800050D4002060DF002000000000AE0A000808
:100590002F10010022000000FCDB002068DF00209B
:1005A00000000000B40A00081E000100090000005D
:1005B00048D300208CDF002000000000D60A00088D
:1005C0000510010006000000BCD3002098DF0020C9
:1005D00000000000E00A0008F5810100680000004A
:1005E000F0C10020A0DF00200000000051910108B0
:1005F0002320010010000000FCD3002008E00020B0
:100600000000000011150208F62101000C00000096
:1006100060EC002018EE002000000000E80A00084E
:100620001C0202001C00000004EC002068EE002008
:10063000000000003589050828200100180000008E
:1006400020EC002084EE0020000000000D310208A4
:100650000412010002000000D8ED00209CEE0020F2
:1006600000000000F40A00080F0201000100000071
:10067000D4ED0020A0EE002000000000F60A0008E3
:100680001400010004000000FCEB0020A4EE002098
:1006900000000000F80A0008012001000C00000022
:1006A00028E30020A8EE002000000000FC0A00085B
:1006B0000EF003009E01000010E10020B4EE0020C7
:1006C00000000000919502081300010004000000E2
:1006D00044E7002054F0002000000000080B000850
:1006E00001010100040000005CE0002058F000203F
:1006F00000000000000000000001010004000000F4
:1007000054E000205CF00020000000000C0B00080A
:10071000020101000300000050E0002060F0002012
:100720000000000025F10308190001000500000089
:10073000DCFD0020A8FE002000000000100B0008D7
:100740001A0001000E00000038FD0020B0FE00205D
:1007500000000000160B0008203201000A00000013
:10076000D0FB0020C0FE0020000000006D950208B4
:100770001500100070000000A8F50020CCFE00203D
:1007800000000000000000002A00080060000000D7
:1007900024FE00203CFF00200000000021950208FC
:1007A0002C00040010000000ACFF00209CFF002083
:1007B00000000000F99202082B0012002400000043
:1007C000E0FF0020BCFF002000000000CD920208E6
:1007D000292014007800000048F3002004000120C4
:1007E00000000000000000001902010010000000DD
:1007F0007CF200207C00012000000000857F0508BD
:1008000003000100010000008C150120101C0120D4
:100810000000000000000000031201003D00000085
:10082000D01B0120141C012000000000240B000834
:1008300025201E002C01000038190120541C012025
:100840000000000000000000101001000200000085
:1008500098180120801D012000000000620B000894
:10086000F82101000600000068150120841D012008
:1008700000000000640B0008020001000C000000F2
:10088000E02501208026012000000000000000007B
:100890002902010040000000342501208C2601209F
:1008A000000000006A0B00080A02010014000000AA
:1008B000481F0120EC26012000000000B5F00308CD
:1008C00028020400040000004C30012020320120E6
:1008D0000000000031800508270204000400000029
:1008E0004830012024320120000000002580050846
:1008F0001F02080010000000A42D01202832012052
:1009000000000000157F05081A0201003C000000ED
:10091000482901203832012000000000B98805086C
:10092000381001000100000020270120743201204E
:1009300000000000AA0B00082700010004000000CE
:10094000303301203833012000000000AC0B0008D8
:100950000B1201003C000000F0340120B8470120D8
:1009600000000000B00B00080D1201001400000090
:10097000A4410120F447012000000000EC0B000816
:100980000702010002000000A047012008480120E2
:1009900000000000000C00081D020200060000001C
:1009A000684701200C480120000000000000000002
:1009B000060203000C00000074470120944C012043
:1009C00000000000C1890508390001000500000091
:1009D00080470120A04C0120000000006D7F050829
:1009E00010020100010000007480012070800120CD
:0809F00000000000020C0008E9
:1009F8000000000000FF00000000010000000000EF
:100A0800010000000000000001010101FFFFFFFFDD
:100A180000000001000105533431310000000002DC
:100A280000000000AE014A015E012C0164000200D2
:100A3800000001000A019A01001E0A0000020000DD
:100A48000000000000010000000500000102030092
:100A5800000000000000000000000000000000008E
:100A680000800700000000000000000000000000F7
:100A7800000000000000000020003200C800D0077D
:100A880096001400320028004C044006000550006F
:100A980014000F00080064000100010005000A00AE
:100AA8000000F4019600C4090000190000000000CD
:100AB800000000000000000000000000000000002E
:100AC8000000000000000000000000000000000519
:100AD80001000000000000002000030100000000E9
:100AE80000000000010000000202000000000000F9
:100AF80003000023E8036400040A000114001E0038
:100B080000204030900100000000280100007E0510
:100B1800EA05B4053200E803D00700000000000031
:100B280000000000000000000000000000000000BD
:100B380000000000000000000000000000000000AD
:100B4800000000000000000000000000000000009D
:100B58000000000000000000010000050201F4018F
:100B68001400000000000000000000000000000069
:100B7800000000000000000000000000000000006D
:100B8800000000000000000000000000000000005D
:100B9800000000000000000000000000000000004D
:100BA800000000002003000000000000000000001A
:100BB800000000000000000000000000000000002D
:100BC800000000000000000000000000000000001D
:100BD800000000000000000000000000000000000D
:100BE80001000000000000000000000000000000FC
:0B0BF8000000000000000000003C00B6
:100C03000403090412010002EF0201408304563277
:100C1300000201020301000012010002020200406F
:100C2300830440570002010203010800FFFFFFFF96
:100C3300006002401060024000000000000000005D
:100C4300000B000000000000000000000000000096
:100C53000060024028600240010000000000000024
:100C6300060C00000000000000000000000000006F
:100C730000600240406002400200000000000000EB
:100C8300100D000000000000000000000000000044
:100C930000600240586002400300000000000000B2
:100CA300160E00000000000000000000000000001D
:100CB3000060024070600240040000000000000079
:100CC300200F0000000000000000000000000000F2
:100CD3000060024088600240050000000000000040
:100CE30026100000000000000000000000000000CB
:100CF30000600240A0600240060000000000000007
:100D0300301100000000000000000000000000009F
:100D130000600240B86002400700000000000000CD
:100D2300362F00000000000000000000000000005B
:100D33000064024010640240000000000000000054
:100D43000038000000000000000000000000000068
:100D5300006402402864024001000000000000001B
:100D63000639000000000000000000000000000041
:100D730000640240406402400200000000000000E2
:100D8300103A000000000000000000000000000016
:100D930000640240586402400300000000000000A9
:100DA300163B0000000000000000000000000000EF
:100DB3000064024070640240040000000000000070
:100DC300203C0000000000000000000000000000C4
:100DD3000064024088640240050000000000000037
:100DE3002644000000000000000000000000000096
:100DF30000640240A06402400600000000000000FE
:100E0300304500000000000000000000000000006A
:100E130000640240B86402400700000000000000C4
:100E23003646000000000000000000000000000043
:100E33007D000000010000001583000811830008F5
:100E43000D83000801830008FD8200080983000860
:100E530005830008000000003D8F000841A300083F
:100E6300018F000895A400082190000885830008DD
:100E73007183000855830008C99C0008B1880008E5
:100E830099D5000811D6000891D6000841D800086A
:100E9300490F01085D8300084D830008010000002D
:100EA3000000803FF9390108FD3E0108753A010849
:100EB300E50F0108C9110108F50F01081110010818
:100EC300BD0F0108AD0F0108000000000000000085
:100ED30009022000010104C03209040000020806CF
:100EE300500507058102400000070501024000008C
:100EF30009026400030100C0320904000001030079
:100F030000000921110100012226000705830308BF
:100F1300000A080B01020202010009040100010298
:100F2300020100052400100105240100020424022B
:100F3300020524060102070582030800FF090402D3
:100F430000020A00000007050102400000070581B6
:100F53000240000009024300020100C032090400FC
:100F63000001020201000524001001052401000113
:100F7300042402020524060001070582030800FF7A
:100F830009040100020A00000007050102400000F5
:100F93000705810240000000FF00000000FF000081
:100FA300000000000000AA550701000001AA550532
:100FB30001000008B0A10608FF1FFF1F0501090576
:100FC300A101A100050109300931093209330935AD
:100FD3000934094009381581257F75089508810270
:100FE300C0C0000009022200010100E03209040030
:100FF300000103010200092111010001222600075B
:1010030005830308000A0000000000000102030436
:1010130001020304060708092D202D2D202D2D2D57
:101023002D202D2D2D2D00000000000000000000BC
:1010330000000000000000AA550B010000AA55059E
:10104300010000AA550902000000AA5503009F00F1
:1010530001000000C012000090C100200000000049
:1010630068C1002000000000010000001C260708E2
:10107300242607080000000095F10308A08601005C
:101083000400000000000000000000000000000059
:10109300000000000000000000000000000000004D
:1010A3000000000000000000000000001C260708EC
:1010B3002C26070800000000A57E0408E8030000B2
:1010C3000400000000000000000000000000000019
:1010D300000000000000000000000000000000000D
:1010E3000000000000000000000000003426070894
:1010F3000000000000000000ED8F03087D000000E9
:10110300FF000000000000000000000000000000DD
:1011130000000000000000000000000000000000CC
:10112300000000000000000000000000D05D070880
:101133000000000000000000F1AA03087D00000089
:10114300FF0000000000000000000000000000009D
:10115300000000000000000000000000000000008C
:10116300000000000000000000000000DC3A070857
:101173000000000000000000715C03087D00000017
:10118300FF0000000000000000000000000000005D
:10119300000000000000000000000000000000004C
:1011A3000000000000000000000000003C260708CB
:1011B300000000000000000009750408E8030000B7
:1011C3000300000000000000000000000000000019
:1011D300000000000000000000000000000000000C
:1011E3000000000000000000000000004026070887
:1011F3000000000000000000FD230308102700008A
:1012030003000000000000000000000000000000D8
:1012130000000000000000000000000000000000CB
:10122300000000000000000000000000E45907086F
:1012330000000000E98E0208F1DA04085F7600007E
:101243000500000000000000000000000000000096
:10125300000000000000000000000000000000008B
:10126300000000000000000000000000745D07089B
:101273000000000000000000E9FF04081027000040
:10128300010000000000000000000000000000005A
:10129300000000000000000000000000000000004B
:1012A3000000000000000000000000004C260708BA
:1012B3000000000000000000BD670408E803000010
:1012C3000500000000000000000000000000000016
:1012D300000000000000000000000000000000000B
:1012E300000000000000000000000000582607086E
:1012F3000000000000000000BDFC0308204E0000B9
:1013030003000000000000000000000000000000D7
:1013130000000000000000000000000000000000CA
:10132300000000000000000000000000682607081D
:1013330000000000000000008DFA0308204E0000AA
:101343000300000000000000000000000000000097
:10135300000000000000000000000000000000008A
:1013630000000000000000000000000078260708CD
:1013730000000000000000001D7B0408400D030076
:101383000300000000000000000000000000000057
:10139300000000000000000000000000000000004A
:1013A300000000000000000000000000882607087D
:1013B3000000000000000000213004081027000096
:1013C3000100000000000000000000000000000019
:1013D300000000000000000000000000000000000A
:1013E3000000000000000000000000009026070835
:1013F300000000000000000061AD0108102700009C
:1014030003000000000000000000000000000000D6
:1014130000000000000000000000000000000000C9
:1014230000000000000000000000000094260708F0
:10143300000000000000000015720208A0860100F1
:101443000100000000000000000000000000000098
:101453000000000000000000000000000000000089
:101463000000000000000000000000009C260708A8
:1014730000000000000000008973040850C300004E
:101483000100000000000000000000000000000058
:101493000000000000000000000000000000000049
:1014A300000000000000000000000000A426070860
:1014B300000000000000000059710408A08601002C
:1014C3000000000000000000000000000000000019
:1014D3000000000000000000000000000000000009
:1014E300000000000000000000000000B026070814
:1014F3000000000000000000416E0408A861000025
:1015030001000000000000000000000000000000D7
:1015130000000000000000000000000000000000C8
:10152300000000000000000000000000BC260708C7
:10153300000000000000000095060208A0860100DC
:101543000100000000000000000000000000000097
:101553000000000000000000000000000000000088
:10156300000000000000000000000000C82607087B
:1015730000000000000000004DA90408A00F0000B7
:101583000100000000000000000000000000000057
:101593000000000000000000000000000000000048
:1015A300000000000000000000000000D42607082F
:1015B30000000000000000007D0102081027000069
:1015C3000100000000000000000000000000000017
:1015D3000000000000000000000000000000000008
:1015E300000000000000000000000000E0260708E3
:1015F300000000000000000029F20308A00F000013
:1016030001000000000000000000000000000000D6
:1016130000000000000000000000000000000000C7
:10162300000000000000000000000000EC26070896
:101633000000000000000000C5DC01081A410000A2
:101643000100000000000000000000000000000096
:101653000000000000000000000000000000000087
:10166300000000000000000000000000F026070852
:101673000000000000000000F11601081027000020
:101683000100000000000000000000000000000056
:101693000000000000000000000000000000000047
:1016A300000000000000000000000000FC26070806
:1016B3000000000000000000194D020850C30000A4
:1016C3000100000000000000000000000000000016
:1016D3000000000000000000000000000000000007
:1016E30000000000000000000000000000270708C1
:1016F30000000000000000002D200108400D030041
:1017030000000000000000000000000000000000D6
:1017130000000000000000000000000000000000C6
:101723000000000000000000000000000827070878
:101733000000000000000000F5F20308400D030064
:101743000000000000000000000000000000000096
:101753000000000000000000000000000000000086
:101763000000000000000000000000001027070830
:10177300000000000000000025EB010850C300003A
:101783000300000000000000000000000000000053
:101793000000000000000000000000000000000046
:1017A3000000000000000000000000001C270708E4
:1017B3000000000000000000390A040840420F0046
:1017C3000000000000000000000000000000000016
:1017D3000000000000000000000000000000000006
:1017E3000000000000000000000000002827070898
:1017F30000000000000000002900040850C300009E
:1018030000000000000000000000000000000000D5
:1018130000000000000000000000000000000000C5
:1018230000000000000000000000000001000000B4
:1018330000000100E0010000FFFFFFFF01017EFF48
:10184300FFFFFFFF080000004257020000000106EF
:10185300425702000000010601FF0101FF000000E2
:10186300FFFFFFFF150A0208000000000000000050
:10187300ECAB0608D0E4002024E500203D26020856
:10188300AD2502080000000054C40608A5F90108AC
:101893000000000000000000B8C30608DD260208AF
:1018A300000000000000000070C3060800000000F4
:1018B300000000000000000020C206080000000035
:1018C3000000000000000000D8C20608000000006D
:1018D300000000000000000084C2060800000000B1
:1018E30000000000F122020809E70020D601FF2DC5
:1018F300202D2D202D2D2D2D202D2D2D00000000F0
:1019030000000000000000000000000000000000D4
:10191300FFFFFFFFCD2902080000000000000000C8
:10192300B0C1060801000000FA0000000100000039
:10193300010000000101000000010101000000009E
:1019430022E300200000F4010100000020E3002056
:101953000000F401010000001EE300200000F40178
:10196300010000001CE300200000F401010000005E
:101973001AE300200000F4010100000018E3002036
:101983000000F4010100000016E300200000F40150
:10199300010000004D1202081112020800000000AD
:1019A30030AE060806E300200532010014E30020F0
:1019B3006400F4010100000012E300206400C40984
:1019C3000100000004E30020E803D0070100000049
:1019D30002E30020E803D0070100000000E3002039
:1019E300E803D00701000000FEE200201E00B80B50
:1019F300010000000CE3002005000F0001000000BF
:101A03000EE3002003000A0001000000FCE20020B6
:101A13001E00F4010100000010E30020020000009A
:101A2300BCAE0608FAE200201400640001000000C6
:101A330008E300203200E80301000000F8E2002080
:101A43000000C80001000000D1E2002000C801002E
:101A5300D0E2002000500100CFE20020005A010034
:101A6300CDE2002002000000C8AE060824320708B9
:101A73002C320708AA6A00200100C40900000000F4
:101A8300A86A00200100C40900000000A66A002023
:101A93000100C40900000000A46A00200100C40979
:101AA30000000000A06A00200100C409000000003B
:101AB300A26A00200100C409000000009E6A002001
:101AC3000100C409000000009C6A00200100C40951
:101AD300000000007BE0002000C801007AE0002045
:101AE30000C8010078E000200000FFFF0A000000AA
:101AF30076E000200100C8000100000074E000202F
:101B0300320030753200000072E0002005820500CB
:101B130070E0002005002C01050000006EE00020AD
:101B2300055A05006BE0002000FF01006DE0002076
:101B3300020000000410002069E000200300000000
:101B4300D0A306086AE0002000FF01006CE000203B
:101B5300020000000410002068E0002003000000E1
:101B6300D0A30608A11102083111020800000000E9
:101B7300D4AE060838E30020EE02CA0801000000D4
:101B830036E3002000C801006400000035E30020B4
:101B930000C801006400000034E3002002000000DC
:101BA300E0AF060862E000200000803E0500000070
:101BB30060E0002080C1803E050000005AE0002064
:101BC3000083007D0500000058E0002080C1803EB6
:101BD3000500000053E0002000FF01004EE000205C
:101BE3006400F401010000004CE000200400000048
:101BF300ECAF06084BE000200200000000B006082E
:101C030001E100200D0000000CB00608FEE00020FA
:101C130000640100FCE00020320010270A000000ED
:101C2300FAE000200D0000000CB00608F9E00020E7
:101C33000D0000000CB00608F8E0002002000000D0
:101C430044B006080000000000000000000000008F
:101C530050B006083EE300203E00000088B00608AE
:101C63003CE300200100FF7F010000003BE3002074
:101C73000200000084B1060803E100200300000015
:101C830094B1060802E100200300000094B10608A5
:101C9300BEE20020000A0100BCE200200000E803CD
:101CA30001000000BAE200200000E8030100000088
:101CB300B8E200200000E80301000000B6E20020C3
:101CC3000000E80301000000AEE200200000E8038A
:101CD30001000000B4E200200000E803010000005E
:101CE300B2E200200000E80301000000B0E200209F
:101CF30000140100CCE2002002000000A4B1060899
:101D0300CAE200200000F40101000000C8E2002044
:101D13000000F40101000000C6E200200000F4010D
:101D230001000000C4E200200000F40101000000F3
:101D3300C2E200200000A00F01000000C0E200206A
:101D43000000A00F01000000E5E20020196401007B
:101D5300E4E2002002000000B0B10608E2E2002045
:101D6300E803D0070A000000E0E20020006401005D
:101D73000A000000D5E2002000640100D4E2002044
:101D830000640100DCE20020006401000A0000009E
:101D9300DBE20020006401000A000000DAE2002018
:101DA300006401000A000000DFE2002000FF0100E0
:101DB3000A000000DEE2002000FF01000A0000002C
:101DC300DDE2002000FF01000A000000D9E200204C
:101DD30001FF01000A000000D8E2002001FF01001A
:101DE3000A000000D7E2002001FF01000A00000002
:101DF3000CE100200000F401010000000AE10020D2
:101E03000000A00F0100000008E100200000A00F67
:101E13000100000006E100200000A00F0100000007
:101E230004E100200000A00F0100000059E700209A
:101E330000C8010058E700200064010057E70020B4
:101E43000064010056E700200064010055E700200C
:101E53000064010054E70020FF08010053E700205D
:101E630001640100991002085D10020800000000DF
:101E7300BCB106085CE70020013201005BE70020EB
:101E8300010000002CB206085AE7002004000000FD
:101E930034B2060852E700200064010050E7002036
:101EA3001400E803010000004EE70020E80330754A
:101EB3000A0000004CE7002000C801004BE70020A7
:101EC30000C801004AE7002000C8010049E70020DC
:101ED300003201005EE70020004B01005DE70020B7
:101EE3000400000048B2060848E70020006401002F
:101EF3000A0000006CE700200000D007010000008A
:101F030067E7002000C8010066E7002000C8010061
:101F130065E7002000C801006AE700200000D00741
:101F23000100000064E7002000C8010063E700200F
:101F330000C8010062E7002000C8010068E7002034
:101F43000000D0070100000061E7002000C8010085
:101F530060E7002000C801005FE7002000C801001F
:101F6300510E0208390E0208000000005CB2060898
:101F7300F5E00020005A0100F4E0002000C8010051
:101F8300F2E00020E803D007010000000000000099
:101F93000000000031230208F8B2060853544D3301
:101FA300324634313100000067E0002000030100B5
:101FB30066E0002000030100750D0208290D0208E8
:101FC300000000004CB30608E90C0208A10C02084B
:101FD30000000000E8B30608C10D0208B129020899
:101FE3000000000068B4060864E00020010301005B
:101FF30029130208FD12020800000000C0B70608FA
:102003002D0C0208E90B02080000000030B8060896
:10201300610E0208052B020800000000CCB8060878
:10202300CD2E0208551302080000000074B90608FB
:10203300B10E0208000000000000000000BA06080C
:102043008D0F0208350F02080000000064BA06086D
:1020530021100208E50F0208000000000CBB06086F
:10206300BD8C0208D51002080000000098BB0608CA
:10207300F7E2002001060100F90E0208C50E02086E
:102083000000000094BC0608F18B0208D12B020863
:102093000000000004BD0608058D0208992C020803
:1020A3000000000054BE0608F6E200200103010010
:1020B300090E0208D90D02080000000028BF060817
:1020C3005D8D020800000000000000008CBF0608C0
:1020D300710C020899290208000000000CC00608D0
:1020E30000000000000000000000000098C0060887
:1020F30009110208112D02080000000008C106089A
:1021030000000000000000000000000020C30608DB
:1021130000BC00209CFF2C010000000088DB002095
:10212300E0150C1700000000A4D8002002000000F6
:1021330058C3060847E000200200000064C30608F5
:1021430042E0002088136F170100000044E00020E4
:1021530088136F1700000000EE6A002000000000E3
:1021630000000000EC6A00200000000000000000F6
:10217300EA6A00200000000000000000E86A002076
:102183000000000000000000E66A002000000000DC
:1021930000000000E46A00200000000000000000CE
:1021A300EC050020000000000000000018E0002003
:1021B30003000000B8C4060840E0002088136F172E
:1021C300010000004ABC002088136F1700000000C4
:1021D300CD0A02080000000000000000C8C4060881
:1021E3004DE60020010000001CC506084CBC002081
:1021F3000100000028C5060842BC002002000000C0
:1022030030C50608000000000000000000000000C8
:102213003CC50608B90A02080000000000000000DF
:10222300D8C5060800000000000000000000000000
:102233002CC606080000000000000000000000009B
:102243009CC6060846E0002002000000D4C606082B
:1022530046BC0020E0150C1700000000010100003F
:102263008C000120FFFFFFFF0000803F0000000003
:10227300000000000000000000000000000000005B
:10228300000000000000000000000000000000004B
:102293000000803F0000000000000000000000007C
:1022A3000000803F0000000000000000000000006C
:1022B3000000803F0000000000000000000000005C
:1022C300010000000000FA430000FA430000803FD1
:1022D300FFFFFFFFFF00000000000000DC260120DD
:1022E3000800000000000000CC26012008000000C8
:1022F3002000000051390108D9100108E93801080C
:1023030000000000A90F0108D14101083938010874
:10231300853401080000000000000000690F010877
:102323002583000819830008858E0008A18E000804
:10233300698E00084D8E0008318E000809390108A6
:10234300B51001083D38010800000000810F0108A5
:10235300893401080D380108E53301080000000045
:1023630000000000750F0108592D0408000000004B
:102373000000000000000000685E0C00FFFFFFFF8C
:1023830002010000A00F0000B80B000002FFFF01D4
:10239300D8590708000008020503030000000000E5
:1023A300E0590708010008020504030000000000CB
:1023B300EC4F07080200FE010110030000000000BB
:1023C3008C3507080300140200030000000000001E
:1023D300E859070804001F0202000800000000007B
:1023E300F059070805001F02020108000000000061
:1023F300FFFF0000FFFFFFFF1A03000000000000C3
:1024030000000000000000000000000000000000C9
:102413000000000004030904120100020000004050
:10242300830420570002010203010B01E990050810
:10243300BD90050861900508FD8005087D9005089D
:1024430021900508F9800508E41A0020D9910508B0
:10245300F9910508C9910508DD80050885910508EE
:102463003D910508CD800508C01A0020FD890508A7
:10247300E5800508E1800508D9800508458B050836
:10248300D5800508D1800508701907086D4101083A
:10249300951001084D4001080000000000000000F5
:1024A300E5370108F53601080000000000000000D0
:1024B300000000005D0F010885810508798105088A
:1024C3004992050865920508318105082D92050892
:1024D30011920508FFFFFFFF0100000050C3000039
:1024E300010100001F0000001C0000001F0000008D
:1024F3001E0000001F0000001E0000001F0000005F
:102503001F0000001E0000001F0000001E0000004E
:102513001F0000000068214C01250000B4160708C5
:1025230010230708081B0020008002021F00000080
:1025330053544D202020202050726F647574202046
:102543002020202020202020302E30310080020245
:102553001F00000053544D202020202050726F6430
:10256300757420202020202020202020302E303180
:10257300BB160108B7160108AF1601089914010824
:10258300951F0108C11F0108F11E0108A5160108C6
:10259300951601088516010875160108911401089E
:1025A300FF010000F4010000FF000000000004012F
:1025B30000000000000000021000000007000000FF
:1025C30000000000000000000102030406070809E0
:1025D30001000000701B002000000000000000004C
:1025E30000000000000000000000000000000000E8
:1025F30000000000000000000000000000000000D8
:1026030000000000000000000000000000000000C7
:1026130000000000000000000000000000000000B7
:1026230000000000000000000000000000000000A7
:0826330000000000000000009F
:08280000082800080040000850
:10800000F0B401292A4C2B4D23684FF0000694BF91
:1080100000270127EE626662A6626763676B47EA24
:1080200042076763EE63EC6B002A38D144F4957421
:10803000EC631C6824F001041C601C68E407FCD499
:10804000490289085960D8601968EAB921F04001ED
:10805000196019498B421DD018494FF47410C8603B
:10806000196841F01E011960596941F08001596198
:10807000196841F00101196022B90E4AD36A43F030
:108080000803D362F0BC704741F0400119600A490F
:108090008B42E1D14FF0746041F8500CE0E744F0BE
:1080A0001A04EC63EC6A44F00804EC62C1E700BF18
:1080B000D01B0020002C01405864024000640240A4
:1080C0001148002302461178032902F1060216D056
:1080D0000133062BF7D10D4AD36D052B0ED0591C59
:1080E00003EB4303D16500EB4303032040F2EB3184
:1080F00040F2FF32187059809A807047704703EB46
:10810000430300EB4303F0E7081C0020D01B0020D2
:1081100070B4C3080D4CE25C00F00706B24004EBFB
:10812000D004D2B20020C6F108038B4228BF0B4610
:10813000C3F108052A419840C91A40EA02004FF0ED
:10814000000614F8012FEED170BC7047701C00209F
:10815000084AD2E9343199420AD0D118013391F852
:10816000D8100170C3F30A03C2F8D0300120704761
:1081700000207047D01B0020064AD2F8D838D2F829
:10818000DC28934294BF4FF400600020013B9B1A0F
:1081900018447047D01B0020012380F851307047ED
:1081A00007B501A8FFF7D4FF0028FAD09DF8040016
:1081B00003B05DF804FB044BD3E93403984288BF55
:1081C00003F50063181A7047D01B00200120704788
:1081D000024BC3F8E028C3F8E4187047D01B002016
:1081E000024BC3F8E828C3F8EC187047D01B0020F6
:1081F0007047704730B4134DD5E934239A4286BF97
:1082000003F50064A21A9A1A0A44B2F5006F13D853
:10821000A9B101444A1E013810F8014FE918824201
:1082200003F1010381F8D840C3F30A03F4D1C5F880
:10823000D430002030BC7047022030BC7047084664
:10824000F8E700BFD01B0020212838B50C4605D028
:1082500022282ED0202813D0002038BD0029FBD0A2
:10826000072AF9D11A4BD3F8F00893F8F41893F8C9
:10827000F52893F8F638206021716271A371EBE75D
:108280000029E9D0072AE7D1114DD5F8E4381BB110
:108290000968D5F8E0089847206821796279A379C0
:1082A000C5F8F00885F8F41885F8F52885F8F6384B
:1082B000D2E70029D0D0022ACED1054AD2F8EC3834
:1082C000002BC9D00988D2F8E8089847C4E700BF56
:1082D000D01B0020024B0020C3F8F808704700BFF5
:1082E000D01B0020044B00200522C3F8F828C3F857
:1082F000EC08C3F8E4087047D01B0020704700BFAB
:10830000704700BF704700BF704700BF704700BF95
:10831000704700BF704700BF042301480B807047BF
:108320009801002010B4074A074B92F8FC08122469
:1083300003F114020C8001280CBF184610465DF8AA
:10834000044B7047D01B00209C0100200048704760
:10835000581C002000487047581C0020034B93F81D
:108360008400032894BF002001207047D01B002008
:10837000034B93F88400032894BF0020012070472A
:10838000D01B0020034B93F88400003818BF012055
:10839000704700BFD01B0020A0B182680D4B12B106
:1083A00007229A7070471978DA6003294FF00400A9
:1083B0000CBF80214FF48071C3E901111A611A7555
:1083C00098707047034B41F2E47101225A545A707D
:1083D000704700BF289E00200378022B10D0006950
:1083E00008B9012070470C4B1B78032B0EBF0B4BB9
:1083F00080B24FF6F773984294BF00200120704777
:108400000549436841F650028A58B3EB422F2CBF0E
:1084100001200020704700BF289E0020F7FFFF0FBB
:108420000378022B14D030B4104A4368006941F637
:10843000480402F5C2511559096841F63C042B4025
:1084400012595B0A023801FB0030104430BC7047FF
:10845000064B426841F6340141F63000595818582D
:1084600000EB410000EB5220704700BF289E002027
:108470002DE9F041684C00234FF4F07220210646AC
:1084800004F6041084F8003961F095F804F6E4204D
:108490004FF4F072202161F08EF894F8C50C10B101
:1084A00094F8C62C1AB900252846BDE8F08144F09E
:1084B000B7FF0746C4F8D00C45F086FA05460028F9
:1084C000F1D00FB12323FB800921384641F0CAF8CF
:1084D000D4F8D00C514F45F089FA94F8C60C013805
:1084E00040B246F0D9FD0223102184F8C83CC4F8FC
:1084F000CC0C59F043F8798D494846F019FCD4F872
:10850000D00C45F06DFAFF218C2059F0AFF9804670
:10851000D4F8D00C45F06AFAD4F8CC0C042159F008
:108520002DF8B8F11B0F05D0D4F8D00C202141F064
:1085300099F8B8E7D4F8D03C012284F800290BB1AF
:108540002322DA80798D364846F0F2FBD4F8D00C3D
:1085500045F046FA40210A2059F088F9FF218A2087
:1085600059F084F9C0F38013D4F8D00C84F8D43CCB
:1085700045F03CFAD4F8CC0C042158F0FFFF94F8F5
:10858000C43C012B3FD0022B37D0CBB394F8D53C61
:10859000182B08D194F8D42C7B8DA4F8D86CA4F8AF
:1085A000DA2CA4F8DC3C798D1D4846F0C1FB798DAE
:1085B0001B4846F0BDFBD4F8D00C45F011FA02215F
:1085C000002059F053F9D4F8D00C45F00FFA0421EB
:1085D000D4F8CC0C58F0D2FF94F8E52C94F8E63C93
:1085E00094F8E41C84F8E01CC2F12002C3F11003EB
:1085F00084F8E72C84F8E83C56E708237B85C5E738
:1086000010237B85C2E7002EF7D094F8D43C002BD2
:1086100014BF08231023F1E7D01B0020980100208D
:10862000982800202DE9F84F564B984210D003F5BA
:1086300068530833984267D0534B0020A3F8440D89
:10864000A3F8500DC3F8480DC3F84C0DBDE8F88FE2
:108650004D4C4E4E02224FF0000BC4F8EC2C04F5AA
:108660004F65D9464FF4007A4FF48078F26A0127BB
:108670005A455946BB4403D0D4F8600D53F070FE00
:1086800094F8642D85F82420D4F8600DA5F804A092
:108690004FF000724FF48031A960EA60A5F81080B5
:1086A00085F81290A5F806802F762862B72154F03D
:1086B0004DF8D4F8EC2C364B6F76934545F8283BB3
:1086C000D4DB84F8529DD4F8EC1CB4F8F42CD4F824
:1086D000FC3CD4F8F80CB4F8005DC4F8683D12FB1B
:1086E00001F203FB01F3A4F8442DB4F8F61C294A67
:1086F000C4F8480DC4F84C3DA4F8505DA4F8461DDC
:10870000C4F8402D0120A1E71F4C204E0223C4F8DD
:10871000EC3C04F54F654FF0000B4FF4806A4FF0CE
:1087200040094FF40068F26A01275A455946BB4494
:1087300003D0D4F8600D53F013FED4F8601D94F804
:10874000642D296285F824204FF400314FF0006237
:10875000C5E90212A5F804A0A5F81090A5F80680B6
:10876000AF74FFF7ADFC28466F7653F041FFD4F8A5
:10877000EC2C094B45F8283B9345D4DB84F8527D1B
:10878000A1E700BF1971EF00D01B00209801002065
:1087900058960608B096060884960608F8B51A4C4E
:1087A00094F86C3D002BFBD159B301444E1E451E7D
:1087B000D4F8DC28D4F8D81815F8017F531CC3F37B
:1087C0000A038B422CBF4FF400600020C91A2244D8
:1087D0000144012982F8707DC4F8DC380FD10120F2
:1087E00041F08EFCD4F8D838D4F8DC188B4294BF12
:1087F0004FF4006200225B1A1344012BEFD0B54204
:10880000D6D10020F8BD00BFD01B00200A4B08467F
:10881000D3F8F81810B569B1D3F8F838052B09D199
:10882000064C002AD4F8783404DD1146FFF7B6FF71
:10883000D4F8783410BD00BFD01B0020C82C002015
:1088400010B590F85010002380F8503089B10C4CCE
:10885000D4F8F8287AB1D4F8F828052A0DD1094CB3
:108860003C30D4F87834FFF799FFD4F878340120FD
:1088700010BD0120FCE71046FAE71846F8E700BFF4
:10888000D01B0020C82C0020002280F85120D7E700
:1088900090F85020531C0244DBB280F8503082F82C
:1088A0003C1090F851200AB1132B00D9C8E770474B
:1088B0002DE9F04143794F4C002B14BF01220022D7
:1088C00084F8B02003D184F88430BDE8F08190F8BA
:1088D000018008F1FF3676B2054630460F4646F075
:1088E000DBFB0223C4F8BC0084F8B8302B78002BE3
:1088F0005CD1ED78002D4DD14FF48071D4F8BC00DF
:10890000C4F8C05058F03AFE4FF47A7041F0F8FBCA
:10891000D4F8C00045F06AF8D4F8BC000A26838970
:108920004FF6FF714FF47A73FF27028995071AD526
:1089300087814FF47A730289D20703F1FF3525D579
:10894000013E8289F1D12C4B0289920714D502890C
:1089500012F0800210D1294B84F87820D3F87834B3
:1089600063670123AFE7013B9BB28B42DDD146F049
:1089700029FAD4F8BC00E6E7013BE5D194F8782069
:1089800084F88430531C84F878309EE7ABB28B4275
:10899000D1D1ECE7284644F043FD054608B11E233B
:1089A000C3800921284640F05DFEA5E706EB860658
:1089B0003E44414696F90320002041F015FF06464B
:1089C00030B140685AF008FEB36884F8CE3018B968
:1089D000002384F8C4308CE7094A431E02EB43139A
:1089E00017210022C4F8C8305AF008FE012384F889
:1089F000C4307EE7D01B0020A1860100C82C0020D7
:108A0000C80100202DE9F04FCF4ED04D86468C4650
:108A100017460FCE05F27C442DED068B0FC40FCE0A
:108A20000FC496E807008BB095F8B234059784E838
:108A30000700CDE906EC042B00F24981DFE813F0D2
:108A4000A801470142010500B8019FEDC18ADFED91
:108A5000C18AC149C5F89814C049C14BC14AC5F87B
:108A600094140599002918BF134638EE887AF5EE5C
:108A7000006AC6EE879ABC4EC5F8A034A6F115036D
:108A8000039306F1C0080027DFEDBF7A9FEDB79A88
:108A900028EE278AB0EE67AA079BBB4200F00C8144
:108AA000039B13F8014B039307F1010B5FFA8BF360
:108AB000002C00F08081002203E00132152A00F032
:108AC0007A8102EB42014FEA420918F80100A04204
:108AD000F3D12944049391F88D15002900F0738196
:108AE000204640F0C3FA8246006840F063FA9AF8E4
:108AF000051040F0DBFB90F800C0BCF1000F40F027
:108B00005A8105EB09014FEA141909F1FF39049B59
:108B100081F8CD350322B9F1040F81F8CC2504F09A
:108B20000F0000F2FF80924C04EB4901B1F8B0C095
:108B30004CFA00F111F0010100F02881012101FA45
:108B400000F0013800EA0C00A14404935DF086FDBA
:108B500099F8BCC0DFF82CE2049B60440EEBC00C1B
:108B600003228CF807308CF806205EF83000C6F837
:108B700014C000F13F4303F57E0304EB932401216D
:108B800094F8C4309AF8082003F01F045B09032B03
:108B900001FA04F100F0D380042B00F0CB80022B0B
:108BA00000F0C380BCF804300893B3FA83F3C3F138
:108BB0001F03C3F3CC0100EB810103F007030C6A30
:108BC0009B004FF00F0C0CFA03FC24EA0C040C621F
:108BD0000C6A02FA03F323430B62022308A90993E8
:108BE0000BF006FE059B002B76D0B5F8B034D5F817
:108BF000781807EE903AF8EEE77AFCEEE77A17EE8F
:108C0000900AB1FBF0F202F57F42FF32120CB1FB89
:108C1000F2F295F8B214B2FBF0F0042983B272D0EC
:108C200007EE902AF8EE676A66EE887A29EE677A90
:108C300095F8B30406990091A8EEA67A01905146E2
:108C40003046C6ED027A86ED037A37F0A1FA002F9E
:108C500064DD7368D5F8D024934261D0012F5DD0D4
:108C6000D5F8E82493425BD0022F57D0D5F80025E1
:108C7000934255D0032F51D0D5F8182593424FD0A9
:108C8000042F4BD0D5F83025934249D0052F45D03D
:108C9000D5F84825934243D0062F3FD0D5F860251C
:108CA000D31A18BF01235F460122082F3374727450
:108CB00006F118067FF4F0AE2E480BB0BDEC068B23
:108CC000BDE8F08F9FED2C8AF0EE488AC1E69FED5B
:108CD0002B8AF0EE488ABCE6B0EE690A5EF0F8FD39
:108CE000FCEEC07A4FF6FF7317EE902AD5F878188D
:108CF000B1FBF2F21A44120CB1FBF2F295F8B21485
:108D0000042918468CD107EE900A07EE102AF8EED7
:108D1000677AF8EE476A67EE8A7A87E70123C2E747
:108D20000023C0E7C6F814C05CE7154B5C6C214318
:108D3000596437E7124B1C6B2143196332E7104B20
:108D40001C6C214319642DE7DC960608C82C002012
:108D5000ACC5A737ACC5A73661FA0308B96B0408E0
:108D600039EE0308AD6B04089431002000007A440A
:108D70005896060844310020282930386F120339EC
:108D800000380240C03200206F12833A716129E737
:108D90001FED038A0D4A0E4BC5F89824C5F894348C
:108DA00000220123CDE90532F0EE488A094B5CE64A
:108DB0009FED098AEEE7094A064BC5F89824C5F8E5
:108DC000A034002079E70B68FFDE00BF61FA0308DA
:108DD000B96B0408AD6B04080000000089EF0308BC
:108DE000104B70B5D3F87848054600680E46640805
:108DF0000BF002FCB4FBF6F1B1F5803F03D3012C7C
:108E0000FAD96408F6E72246284689B23FF0CCFF3B
:108E10000549064B0B6028460022BDE870403FF034
:108E2000E3BE00BFC82C0020A83D002041FD010882
:108E300010B5044C04480A4621460AF057FA204669
:108E400010BD00BFB03D00203425070810B5044C0C
:108E500004480A4621460AF049FA204610BD00BFE0
:108E6000B03D00204425070810B5044C04480A46CC
:108E700021460AF03BFA204610BD00BFB03D00205D
:108E80005025070810B5044C04480A4621460AF04C
:108E90002DFA204610BD00BFB03D00205C2507081C
:108EA00010B5044C04480A4621460AF01FFA204631
:108EB00010BD00BFB03D00206825070810B50D4C5F
:108EC00094F8CD200023C4F8803012B10A4AC2F8C9
:108ED000F03059F013FD20B10423022084F88430CF
:108EE00010BD064BD3F878346367092384F88430C7
:108EF00010BD00BFD01B0020C03D0020C82C0020AA
:108F000070B50D4D95F88430042B04460E460AD0FA
:108F1000082B06D1EB6F83420CD0FFF7CFFF02285E
:108F200001D0012070BD0823C5E91F4685F88430B3
:108F3000022070BD022070BDD01B002070B54379A7
:108F4000234C002B14BF0123002384F8B03003D13D
:108F5000002384F8843070BD1E4D002195F9F72060
:108F6000032041F041FC0028F2D0466830465AF018
:108F700033FB84F8CC000028EAD095F8F530003BAC
:108F800018BF0123304684F8CD305AF005FC0AF0B2
:108F90005DF938B994F8783084F88400013384F8A6
:108FA000783070BD59F094FD40B194F878300022CB
:108FB000013384F8783084F8842070BD064B84F83F
:108FC0007800D3F878346367012384F8843070BD67
:108FD000D01B0020C03D0020C82C002010B559F047
:108FE00077FD58B10C4C94F878300133DBB2072B85
:108FF00084F8783003D9002384F8843010BD0AF057
:1090000025F90028F7D0054A0123D2F878246267B1
:1090100084F8843010BD00BFD01B0020C82C002075
:109020002DE9F041894C94F8B050002D00F0FB8000
:1090300094F88420864E874F531E082B42D8DFE8D1
:1090400003F0373AA1416B521541050059F056FC27
:10905000002840F0EF80636FD6F87824FA3393420B
:109060002DD2FFF7BBFF94F88420E5E759F046FCCA
:109070000028F0D0D4F880300022012B84F878202A
:1090800040F2DC80E16F94F8CD00013B0131C4E98E
:109090001F1310B16F4BC3F8F020082284F884200E
:1090A000A2F10805B5FA85F56D092846BDE8F081FD
:1090B000022384F8843059F021FC002843D194F82D
:1090C0008420531EDBB2022B0AD8614B616FD3F8A8
:1090D00078345B1AC82BE3D9FFF780FF94F884201B
:1090E000042ADDD1E1E7236B002BD9D1584BE66E82
:1090F000D3F878346367072284F88420002ECFD019
:10910000D4E91821236F0120B047D8E7636FD6F860
:10911000781464338B42C3D2D4F82C80B8F1000F9A
:10912000F4D159F0EBFB00289DD0E66E84F87880EE
:10913000042384F88430002E7AD0D4E91821236FD8
:109140004046B047BBE759F07FF80028B7D197F801
:10915000F930002BA3F10203B3FA83F314BF022208
:1091600001225B0984F8792084F87A3059F06CF890
:1091700000287FF476AFD7F84831C4F8883003234D
:1091800084F8843059F060F8002898D1314BC4F845
:10919000800093F82C61B3F82E01D3F830E1D3F8B6
:1091A00030C1D3F83071D3F8302184F88E6093F851
:1091B0003411A4F88C0093F8356184F8922093F868
:1091C0003501D3F83821C4F89420B3F83E81B3F8C0
:1091D0003E2184F89310B3F83E11C2F30B1343EA17
:1091E000182303F00F0301F00F024FEA1E6E4FEA3F
:1091F0001C4C3F0A360900F00F0003F5FA63042106
:1092000084F8990084F88FE084F890C084F8917015
:1092100084F89860A4F89A3084F89C2084F884102C
:109220002846BDE8F08184F884502846BDE8F081E6
:1092300005463AE7042384F8843036E7FAD1FFF78D
:109240003DFE94F88420531E3CE700BFD01B002055
:10925000C82C0020C03D00202DE9F84FCB4C94F8DD
:1092600058110546C1F34001D4F8600144F0C4FB35
:1092700094F85811D4F85C01C94301F0010144F09D
:10928000BBFB002D00F0E78005F1FF39C04EC14F58
:10929000C14D5FFA89F94FF01008D4F8603133B14D
:1092A0001A689B8851690B4214BF53831383D4F807
:1092B0005C3133B11A689B8851690B4214BF5383E8
:1092C0001383B4F86831002B40F0578194F86A1189
:1092D000D4F86C0144F090FBFA204FF47A714FF00F
:1092E000010C7B68C3F30803002B40F01981EFF3F6
:1092F0001183002B40F01481D6F87824D5F808E0CB
:10930000D6F878349A42F7D1D4F890319E45F3D804
:10931000D4F88CA101FB0AF3A3EB0E03B3FBFAF321
:1093200001FB02327B68C3F30803002B40F0B680D8
:10933000EFF31183002B40F0B180D6F87834D5F8E4
:1093400008B0D6F878E47345F7D1D4F890E1F34546
:10935000F3D8D4F88CA101FB0AFEAEEB0B0EBEFBDA
:10936000FAFE01FB03E39B1AB3F57A7FDAD30138E7
:10937000B7D1D4F8603133B11A689B8851690B4278
:1093800014BF53831383D4F85C3133B11A689B88BC
:1093900051690B4214BF53831383B4F86831002B17
:1093A00040F0DF8094F86A11D4F86C0181F001017B
:1093B00044F022FBFA204FF47A714FF0010C7B68E5
:1093C000C3F30803002B40F08A80EFF31183002BD6
:1093D00040F08580D6F87824D5F808E0D6F87834BF
:1093E0009A42F7D1D4F890319E45F3D8D4F88CA1A5
:1093F00001FB0AF3A3EB0E03B3FBFAF301FB02320A
:109400007B68C3F3080343BBEFF311832BBBD6F890
:109410007834D5F808B0D6F878E47345F7D1D4F8A5
:1094200090E1F345F3D8D4F88CA101FB0AFEAEEB32
:109430000B0EBEFBFAFE01FB03E39B1AB3F57A7F2A
:10944000DED30138BBD109F1FF395FFA89F9B9F1EF
:10945000FF0F7FF422AFBDE8F88FEFF3118A88F396
:109460001288D5F808B02B68DB0344BFC4F888C164
:10947000D5F808B0D6F87834D4F888E15FFA8AFADB
:109480008AF31188D4F88CA1734401FB0AFEAEEB79
:109490000B0EBEFBFAFE01FB03E3CEE7EFF3118AEE
:1094A00088F31288D5F808B02B68DB0344BFC4F8F2
:1094B00088C1D5F808B0D6F87834D4F888E15FFAD6
:1094C0008AFA8AF31188D4F88CA1734401FB0AFE4E
:1094D000AEEB0B0EBEFBFAFE01FB03E343E7EFF33B
:1094E000118E88F31288D5F808A02B68DA0344BFE0
:1094F000C4F888C1D5F808A0D6F87834D4F8882103
:109500005FFA8EFE8EF31188D4F88CE11A4401FBC9
:109510000EF3A3EB0A03B3FBFEF301FB02326FE78A
:10952000EFF3118E88F31288D5F808A02B68DA03C0
:1095300044BFC4F888C1D5F808A0D6F87834D4F868
:1095400088215FFA8EFE8EF31188D4F88CE11A44DC
:1095500001FB0EF3A3EB0A03B3FBFEF301FB0232A4
:10956000E0E6D4F88431002B3FF424AFD4F8702126
:109570000023136084F881311CE7D4F88431002B78
:109580003FF4AAAE40F07CFEA6E600BFC03D00203E
:10959000C82C002000ED00E010E000E02DE9F04FC5
:1095A000CA4CCB4E94F85811D4F86001DFF82883E8
:1095B000C84D83B0C1F3400144F01EFA94F858112D
:1095C000D4F85C01C94301F0010144F015FA052308
:1095D00001934FF01009D4F8603133B11A689B88B9
:1095E00051690B4214BF53831383D4F85C3133B1F8
:1095F0001A689B8851690B4214BF53831383B4F8D4
:109600006831002B40F0598194F86A11D4F86C014C
:1096100044F0F2F932204FF47A710127D8F804307F
:10962000C3F30803002B40F01B81EFF31183002BE1
:1096300040F01681D6F87824D5F808E0D6F87834CA
:109640009A42F7D1D4F890319E45F3D8D4F88CA142
:1096500001FB0AF3A3EB0E03B3FBFAF301FB0232A7
:10966000D8F80430C3F30803002B40F0B780EFF3C1
:109670001183002B40F0B280D6F87834D5F808B0CA
:10968000D6F878E47345F7D1D4F890E1F345F3D8F0
:10969000D4F88CA101FB0AFEAEEB0B0EBEFBFAFE6A
:1096A00001FB03E39B1AB3F57A7FD9D30138B5D117
:1096B000D4F8603133B11A689B8851690B4214BFEA
:1096C00053831383D4F85C3133B11A689B88516992
:1096D0000B4214BF53831383B4F86831002B40F05E
:1096E000E08094F86A11D4F86C0181F0010144F033
:1096F00083F932204FF47A710127D8F80430C3F38C
:109700000803002B40F08B80EFF31183002B40F017
:109710008680D6F87824D5F808E0D6F878349A42CE
:10972000F7D1D4F890319E45F3D8D4F88CA101FB41
:109730000AF3A3EB0E03B3FBFAF301FB0232D8F8F2
:109740000430C3F3080343BBEFF311832BBBD6F8FC
:109750007834D5F808B0D6F878E47345F7D1D4F862
:1097600090E1F345F3D8D4F88CA101FB0AFEAEEBEF
:109770000B0EBEFBFAFE01FB03E39B1AB3F57A7FE7
:10978000DDD30138B9D1019B5F1E17F0FF030193B0
:109790007FF421AF03B0BDE8F08FEFF3118A89F3B6
:1097A0001288D5F808B02B68DB0344BFC4F8887171
:1097B000D5F808B0D6F87834D4F888E15FFA8AFA98
:1097C0008AF31188D4F88CA1734401FB0AFEAEEB36
:1097D0000B0EBEFBFAFE01FB03E3CEE7EFF3118AAB
:1097E00089F31288D5F808B02B68DB0344BFC4F8AE
:1097F0008871D5F808B0D6F87834D4F888E15FFAE3
:109800008AFA8AF31188D4F88CA1734401FB0AFE0A
:10981000AEEB0B0EBEFBFAFE01FB03E342E7EFF3F8
:10982000118E89F31288D5F808A02B68DA0344BF9B
:10983000C4F88871D5F808A0D6F87834D4F888210F
:109840005FFA8EFE8EF31188D4F88CE11A4401FB86
:109850000EF3A3EB0A03B3FBFEF301FB02326EE748
:10986000EFF3118E89F31288D5F808A02B68DA037C
:1098700044BFC4F88871D5F808A0D6F87834D4F875
:1098800088215FFA8EFE8EF31188D4F88CE11A4499
:1098900001FB0EF3A3EB0A03B3FBFEF301FB023261
:1098A000DEE6D4F88431002B3FF423AFD4F87021E6
:1098B0000023136084F881311BE7D4F88431002B36
:1098C0003FF4A8AE40F0DCFCA4E600BFC03D0020A1
:1098D000C82C002010E000E000ED00E00E4B30B49A
:1098E000DB68427801780D4CDB43C3F30223C3F1FC
:1098F0000403DBB202FA03F360181B0101F01F0539
:109900000122490903F0F003AA4080F8003344F82B
:10991000212030BC704700BF00ED00E000E100E016
:1099200000F01F0240090123032803FA02F304D0C8
:1099300004280CD0022805D07047074A116C0B434D
:1099400013647047044A516C0B4353647047024AD6
:10995000116B0B43136370470038024000285FD03F
:109960000368374A2DE9F04103F13F4404F57E04D2
:1099700002EB9422012492F8C42002F01F05520940
:10998000032A04FA05F456D0042A4FD0022A48D0FC
:109990008588B5FA85F0C0F11F00C0F3CC0603EB53
:1099A000860600F0070082000F24306A944020EA07
:1099B00004003062306A01FA02F20243002132628E
:1099C0004FF0010E0A464FF0030C02270EFA02F880
:1099D00038EA050002F101021CD118680CFA01F402
:1099E00020EA04001860186807FA01F606431E60B2
:1099F0009E6826EA04069E6098689860586820EA87
:109A00000800586058685860D86820EA0400D86098
:109A1000D868D860102A01F10201D7D1BDE8F081E1
:109A20007047084A556C2C435464B1E7054A156BDE
:109A30002C431463ACE7034A156C2C431464A7E76A
:109A40005896060800380240002861D00368384A5A
:109A500003F13F4101F57E0102EB91222DE9F04136
:109A600092F8C42002F01F0452090121032A01FACE
:109A700004F158D0042A51D0022A4AD08588B5FA78
:109A800085F2C2F11F02C2F3CC0403EB840402F09E
:109A90000702216A92000F20904021EA0001216212
:109AA000206A0C2101FA02F20243002122620846D8
:109AB0004FF0010E4FF0030C02270EFA00F838EABF
:109AC000050200F101001DD11C680CFA01F224EA24
:109AD00002041C601E6807FA01F434431C609E688F
:109AE00026EA02069E609E6816439E605C6824EA31
:109AF00008045C605C685C60DC6824EA0202DA608E
:109B0000DA68DA60102801F10201D6D1BDE8F081EF
:109B10007047084A546C21435164AFE7054A146BFF
:109B200021431163AAE7034A146C21431164A5E79A
:109B3000589606080038024058B183884FF000421A
:109B4000B3FA83F332FA03F303D002490A681343EA
:109B50000B607047003C0140134B0268196821EA12
:109B600002011960596821EA0201596019680A4323
:109B70001A609968026821EA02019960D96821EAAD
:109B80000201D9604179102907D001F1804303F522
:109B90009E3319680A431A607047996811439960A7
:109BA000D9680A43DA607047003C0140002864D05D
:109BB000F0B58388B3FA83F3202B0A4685B00446B8
:109BC000C3F11F0143D02D4D2D4E05EB81037718B6
:109BD000C3F89421002197F8CC703FF043FDB4F80E
:109BE00004C02268274CBCFA8CFCCCF11F0303F0A4
:109BF000FC0101F1804101F59C3103F00303980061
:109C00004FF00F0E02F13F438A680EFA00FE22EA7F
:109C10000E0203F57E038A60C3F3872383408868BE
:109C20004FF0004222FA0CF203433D448B6002A83D
:109C3000626101234FF400618DF80E300292ADF89D
:109C40000C10FFF789FF95F8D431F02B01D805B03F
:109C5000F0BD3E44F02196F8DC308DF8043003224C
:109C60004FF4807301A885F8D4118DF80520ADF864
:109C70000630FFF733FE05B0F0BD7047C03D002051
:109C800058960608003C014010B4B8B10D4CD4F809
:109C9000DC31102B05D15DF8044B052100203FF08D
:109CA000C9BF03EB4302224482F8E11101210B44B6
:109CB00082F8E00182F8E211C4F8DC315DF8044B6F
:109CC000704700BFC03D0020C0782021DCE700BF06
:109CD0002DE9F04FDFF87CA32DED028B9AF82412CA
:109CE0000022CAE98522CAE9872297B0CAF8102261
:109CF00019B19AF825228AF810229AF826221AB168
:109D00009AF827228AF81F229AF82A221AB19AF87A
:109D10002B228AF81A229AF828221AB19AF82922B4
:109D20008AF815229AF82C3205935A1ED3B257B2EC
:109D300004937B1C00F0AA80BC4ABD4E52F83780C9
:109D4000029602EBC70200231279019308EE102A53
:109D50001D463446994626783946304645F036FC4D
:109D600083463046BBF1000F1ED043F059FBEA1D7D
:109D70001321D2B220B14FF0000E827180F807E0BB
:109D80003FF070FC207845F04BFC4FF0070309F1E1
:109D9000010223714FF0010384F802906070CDF846
:109DA00004B05FFA82F9E3700135042D04F1050473
:109DB000D1D118EE100A029ECDF80C90FFF7B0FD3D
:109DC0009C499D4A4868024042F440324A600FB9BB
:109DD000019B5BB9994C4820FFF7A2FD2046022168
:109DE0005BF046FDA26842F00102A2609148934AEE
:109DF0004168BAF82E4241F400014160516821F4F3
:109E000080515160916B21F4401141F480119163B4
:109E1000D16841F46001D160956B85F44011C1F3C4
:109E2000015101EB81011F2000FA01FC25EA0C0C15
:109E3000112505FA01F141EA0C019163D16841F065
:109E4000E061D160956BC5F30151C1F10401C9B264
:109E500001EB810188404FF0120C25EA00000CFA5A
:109E600001F108439063E4B1BAF83012CAF83842FD
:109E7000A1B1BAF83222CAF83C1262B1019B704813
:109E8000521A90FBF2F2CAF840226BB917B0BDEC3F
:109E9000028BBDE8F08F6B4A1288EFE76A4A11889F
:109EA000E7E76A4A1488DFE7404603995BF0E0FC85
:109EB0005F4B012003F114090723F278441CE4B23C
:109EC00052B375783279A5F10A0101EB410105EB36
:109ED000450C092D03FA01FE03FA0CFB02FA01F10D
:109EE00040F28E80D8F80C2022EA0E0E41EA0E01D4
:109EF000C8F80C10421E02EB82021F21062801FA4C
:109F000002FC05FA02F261D8D8F8341021EA0C01FB
:109F10000A432046C8F834200536B145CDD1D8F8DB
:109F20000820049942F40072C8F80820D8F80820E4
:109F300042F48072C8F80820D8F80820574442F04C
:109F40000102C8F8082097F93422022040F04CFCA6
:109F5000044600289AD0406859F03EFB059A062135
:109F600059F04CFB60680AF08FFA07A80AF04EFA25
:109F7000039EA368364A0793012E8CBF4FF480607E
:109F8000002000230D9008F14C054FF40060089567
:109F900009920A934FF480720C930E904FF40033A1
:109FA00060680B9607A94FF40055CDE90F52119345
:109FB0000AF03EFA6268136843F001031360D8F8B0
:109FC000083043F08043C8F808305FE7C11FA0F1B4
:109FD0000D0201EB81014FF01F0E02EB82020C28F3
:109FE0000EFA01FC0EFA02F005FA01F113D8D8F8C6
:109FF000302022EA0C0211432046C8F830108BE7CB
:10A00000D8F8101002FA0CF221EA0B0B42EA0B020C
:10A01000C8F810206EE7D8F82C1005FA02F221EAF1
:10A0200000010A432046C8F82C2075E73C97060833
:10A03000D03F002000230140E030FCFF0020014021
:10A04000803801002E7AFF1F2C7AFF1F2A7AFF1F0B
:10A0500004400020C03D0020F8B5264E00EBC004AF
:10A0600006EB8404D4F85052002D36D094F861C227
:10A070000CF0FF07BCF1000F2FD149004FF0010C8D
:10A08000C9B284F8621284F8632284F865C284F845
:10A09000667284F864C284F861C284F86072AA8827
:10A0A000C4E99A33940502D501273846F8BD2B88B8
:10A0B000D9050CD44FF4805301E0013B10D02A881D
:10A0C0009205FAD42B889BB243F480732B80AB8823
:10A0D0009BB243F44073AB80E6E700273846F8BDF7
:10A0E000B6F8B83201339BB2A6F8B8325AF076FF10
:10A0F000DBE700BFC03D002070B44D4A92F8BA3291
:10A1000003EB430002EBC000590090F8BC020328A7
:10A110001DD8DFE800F00E1F024FC81802EBC00088
:10A12000D0F8C04204B3013CC0F8C042002070BC6B
:10A13000704792F84863002E63D03E4C002001E047
:10A1400086425ED0258801308C34002DF8D0012065
:10A1500070BC7047C81802EBC000D0F8C042002C99
:10A16000E1D1022480F8BC42194402EBC10191F80C
:10A17000C8020138C0B281F8C802B0BB2E4892F8BC
:10A18000B057D0F83002D1F8C442013303F00303D2
:10A19000421E0326AB42224481F8BC62B2FBF0F4BB
:10A1A000C1F8C042D3D090429CBF04F1FF34C1F843
:10A1B000C042CCE7194402EBC101D1F8C00290BB08
:10A1C00092F8B0178B42C2D0013303F00304A142CE
:10A1D00082F8BA42BBD004EB440302EBC302022371
:10A1E000C2F8C00282F8BC32B2E7134BD3F8302277
:10A1F000012002F2E73370BCB3FBF2F3C1F8C032C6
:10A2000070470D480B44D0F8301202EBC302012016
:10A2100001F51C530F3370BCB3FBF1F382F8BC02A1
:10A22000C2F8C03270470138C1F8C00200208FE781
:10A23000C03D00201041002098010020064B93F8FB
:10A24000B127002AFBD141F2143204499B5801F195
:10A250000C001B68184700BFC03D0020744500205B
:10A260002DE9F84F3249DFF8D4B091F8F910012404
:10A270000229074619461046CBF82C404FF0000241
:10A280002C4C1D4618BF7F02FDF7BAFE2A4B6362B5
:10A290006B02A362E36A40F2FF5943F093034FF469
:10A2A00000704FF48A62E3620121C4F83890A06024
:10A2B0001020E26058F014F9012D40F251434E464F
:10A2C000C4F83890CA4640F252488EBF4FF0120987
:10A2D00098464FF011090A25C4F838A00121A7605B
:10A2E0004846C4F80C8058F0FBF803464FF0000CC9
:10A2F00040F2774201213720A6632BB9002318468C
:10A30000CBF82830BDE8F88FA663C4F808C0E26037
:10A3100058F0E6F8013DA6630028EFD015F0FF05E0
:10A32000DAD10346CBF82C50CBF82830BDE8F88FB3
:10A33000C03D0020002C014000E1F505D01B0020AD
:10A340002DE9F843DFF8748098F88450042D044612
:10A35000894617461E4608D0082D02D00020BDE8C9
:10A36000F883FEF7ABFD0228F8D101234A462046C8
:10A370000021FFF775FF68B1FEF730FED8F86C409A
:10A38000002CEBD00022D8F87030D8F864101046BA
:10A39000A047E3E7084BC8F86090D3F87824C8F8E2
:10A3A00064400523C8E91B76C8F8742088F8843017
:10A3B0000120BDE8F88300BFC82C0020D01B00207E
:10A3C0002DE9F84F2F49DFF8C49091F8F9101E4697
:10A3D00002292D4B07464FF0010418BF4702012EFA
:10A3E00040F259481C6398BF4FF48B683B46934634
:10A3F000474640F2FF55B0468CBF4FF0190A4FF068
:10A40000180A0A241E4640F2FF53C9F838300121C9
:10A41000C9F808605046C9F80C7058F061F8034656
:10A420004FF0000C40F2774201213720C9F8385034
:10A43000A3B9584641460122FDF7E2FD4646134ABC
:10A44000134B536276029662D36A43F09103D36250
:10A450000D4B002108469962BDE8F88FC9F83850C5
:10A46000C9F808C0C9F80C2058F03AF8013CC9F8FE
:10A4700038500028DDD014F0FF04C4D1024B1C6317
:10A48000BDE8F88FC03D0020D01B0020002C01400B
:10A4900000E1F5052DE9F047374C82B005460E4640
:10A4A0001746984694F8840004280CD0082806D152
:10A4B000E36FAB4207D0FEF701FD0228F2D0012086
:10A4C00002B0BDE8F087DFF8B8A02666DAF8F090B1
:10A4D0006566C9F34F210F294FEA592223D8D4F8D2
:10A4E00080300193FBB194F8CD00E0B1B9F5005F85
:10A4F00013D0224831464FF4007248445EF0FAFF10
:10A5000009F50072C2F34F211029CAF8F0204FEA72
:10A51000522202D0019B012B21D192B2013A174E57
:10A52000AD1A0B4600E001233246284606260125D7
:10A530000021E766C4F8708084F8685084F884606D
:10A54000FFF73EFF0028BBD0FEF748FDE66E86B160
:10A550002846236F616E0022B0470320B0E7E26F08
:10A56000013B01320421C4E91F2384F88410022036
:10A57000A6E70320A4E700BFD01B0020286E002020
:10A58000C03D002070B52E4D95F82042022C84B0BD
:10A590001AD0012C02D0002004B070BD95F92442DD
:10A5A000631CF8D0032CF6DC0091134695F82512B5
:10A5B000024620465AF0A6FE0028ECD0204604B001
:10A5C000BDE870405AF06ABFD5F8283213B11C6854
:10A5D0009B886383D5F82462B38940F2E9343389D8
:10A5E000013C13F0020FA4B219D084B2B48140F23E
:10A5F000E9343389013C13F0010FA4B21BD0B389B5
:10A60000134630460A4600215AF0C6FBD5F82832D8
:10A61000A3B11A689B881383012004B070BD002C7D
:10A62000DDD13046CDE9021244F0CCFBDDE9021267
:10A63000D5F82462E4E7002CDBD1F2E70120ABE798
:10A64000B84E002010B50278022A044613D0012A21
:10A6500001D0002010BD2D4B90F9040083F860223A
:10A66000421CF6D00328F4DC0A4603F5187361791E
:10A67000BDE81040F0E4836813B11A689B885383E7
:10A680006368988940F2E9321889013A10F0020FA4
:10A6900092B225D089B2998140F2E9321989013A02
:10A6A00011F0010F92B22BD09A899A8940F2E932C7
:10A6B0001989013A11F0020F92B21ED001229A813B
:10A6C00040F2E9321989013A11F0010F92B20ED02D
:10A6D0009B89A368BBB11A689B881383012010BDB6
:10A6E000002AD1D1184644F06DFB6368DDE7002AEB
:10A6F000E8D1184644F066FBEBE7002AD8D1F8E72A
:10A70000002ACBD1EEE7012010BD00BFB84E0020DB
:10A7100010B50C4C94F82032022B11D1D4F8280239
:10A7200043F064F9D4F8280208B12123C380012141
:10A730003EF098FFBDE810400348082144F0F8BA05
:10A7400010BD00BFB84E0020D850002073B50D4E8C
:10A7500005460C46FF230A46014630468DF8073071
:10A7600044F018FC01230DF1070245F0800130464A
:10A7700044F0D4FB9DF80700031B5842584102B037
:10A7800070BD00BFD8500020094B93F8B234042BA1
:10A7900008D9053B032B08D801231A4600B10370E2
:10A7A0001046704700230122F8E700231A46F5E718
:10A7B000C82C0020F0B40D6800240CE0BCF1050F9B
:10A7C00018D8A0F137030A2B14D104EB840415F830
:10A7D000010B03EB4404A0F13003DEB2092EA0F11B
:10A7E0006107A0F1410CF0D9052FE7D8A0F157037C
:10A7F0000A2BEAD00D601460F0BC70479FED737AAD
:10A8000007EE901A20EE070AF8EE677A27EE800A24
:10A81000FDEEC07A17EE903A2033402B00F2C7804D
:10A82000DFED6B7AB4EEE70AF1EE10FAF0EE407A63
:10A830000CDD9FED686ADFED686AB0EE677AB4EE12
:10A84000E67AF1EE10FA77EEC67AF6DC9FED637ADF
:10A85000F4EEC77AF1EE10FA0CD59FED5E6ADFEDEB
:10A86000606AB0EE677AB4EEE67AF1EE10FA77EE4F
:10A87000867AF6D49FED5B7AF4EEC77AF1EE10FAA1
:10A8800000F38D809FED587AF4EEC77AF1EE10FA5E
:10A8900044BF9FED527A77EE677A27EEA76ADFED25
:10A8A000535A9FED537ADFED536AA6EE257A67EE91
:10A8B000865AE6EE076AB6EE007AE5EEA67A27EE4D
:10A8C000877ADFED486A70EE267ABDEEE76A16EE0B
:10A8D000103A2033402B67D8B4EEE60AF1EE10FAB6
:10A8E0000CDDDFED3C5A9FED3C6AF0EE676AF4EE5A
:10A8F000C66AF1EE10FA77EEE57AF6DCDFED376A3C
:10A90000F4EEE67AF1EE10FA0CD5DFED325A9FED57
:10A91000346AF0EE676AF4EEC66AF1EE10FA77EE8A
:10A92000A57AF6D4DFED2F6AF4EEE67AF1EE10FAAE
:10A9300040DDDFED276A76EEE77A67EEA75A9FEDF6
:10A940002B5A9FED2B6ADFED2B6AA5EE856A27EE69
:10A95000A55AE5EE866AB8EE006AE5EE267A67EE5D
:10A96000867AC7EE206A0023836143610362C36174
:10A97000B7EE006A76EE865A76EE666A86EE257A3D
:10A9800067EE277A66EE876AC0ED017AC0ED037A3A
:10A9900080ED007A80ED027AC0ED046A70479FED89
:10A9A0000C7A77EE677A78E7DFED137AD9E79FEDD7
:10A9B000127A86E7DFED0C6AF4EEE67AF1EE10FA31
:10A9C00044BFDFED066A76EEE77AB6E727D4D236E3
:10A9D000DB0F4940DB0FC940E4CB1641DB0F49C018
:10A9E000E4CB16C1DB0FC93FDB0FC9BF92E741B90A
:10A9F0009730083C15A82ABE000000002DE9F04160
:10AA00008C4C82B094F861320190002B40F00C81A4
:10AA100094F88432B4F88622DFED876AB4F888822D
:10AA2000A4F8988207EE103A07EE902AB8EEC76AAB
:10AA3000B7EE007AB4F88222F0EE475A4FEA4805A2
:10AA4000E6EE665A9542B8BF1546A6EE267AAEB235
:10AA50000122F8EEE77AA4F89A6267EEA67AC4EDCE
:10AA6000A35A84EDA47AC4EDA57A84F86122002B60
:10AA700000F0D680DDED017A9FED700AF8EE677A7E
:10AA8000ADB280EE270A5CF069FF6D00B0FBF5F512
:10AA9000012DB8BF0125EDB2B0FBF5F39BB207461F
:10AAA00084F89C5200EE103ABBEEED0A84EDA80A41
:10AAB0005CF054FF624BDFED636AB8FBF0F0A3FB80
:10AAC0000737FF0807EE907AF8EEE77A022886EE5D
:10AAD000A77AB8BF02205C4984F8A40200239FED46
:10AAE0005B1A9FED5B6ADFED5B1ADFED5B5A9FED52
:10AAF0005B2ADFED5B2A9FED5B3ADFED5B3A9FED72
:10AB00005B4A84EDAA7A07EE903AB8EEE77AF0EE67
:10AB1000467AE7EE017AFDEEE76A16EE902A2032D9
:10AB2000402A7AD8B4EEE17AF1EE10FA0CDDDFEDCE
:10AB3000506A9FED507AB0EE675AB4EEC75AF1EE04
:10AB400010FA77EEE67AF6DCF4EEE57AF1EE10FA3A
:10AB50000CD5DFED476A9FED487AB0EE675AB4EE48
:10AB6000C75AF1EE10FA77EEA67AF6D4F4EEC67A6A
:10AB7000F1EE10FA49DD74EE677A67EEA76AF0EE3F
:10AB8000624AE6EE824AF0EE430AE6EEA40AB7EE27
:10AB9000007A27EEE65A77EE677AB6EE007AE5EEAF
:10ABA000207A67EE877A0133202BE1EC017AAAD173
:10ABB00007EE905AF8EEE77AF7EE006A86EEA77A8B
:10ABC0002E4B2F4AC4F8483903F12801A833C4F8A2
:10ABD00044191020C4F854392021142384F8A557AF
:10ABE000A4F84009A4F8501907EE906AF8EE677AC5
:10ABF000A4F84C3982ED007AC2EDAC7AC2EDAD7AA0
:10AC0000C2EDAE7A02B0BDE8F081F4EEE37AF1EE87
:10AC100010FA48BF75EEE77AAFE7F6EE007AC2E7C2
:10AC2000184A82F8343225E794F89C52B4F89A62B4
:10AC3000BEE700BFB84E00200AD7233C0024744969
:10AC4000ABAAAAAADB0FC941645100203C8C4F3E3D
:10AC5000DB0FC93F0100F840DB0F49C092E741B963
:10AC60009730083C15A82ABEDB0FC9BFDB0F49404F
:10AC7000DB0FC940E4CB1641E4CB16C1449706086C
:10AC800060560020980100200848002302461178F1
:10AC9000022902F1060204D00133062BF7D100206D
:10ACA000704703EB430300EB43007047081C002090
:10ACB00010B50021094C82B00846C4F8741A35F06A
:10ACC00049FA074B0193042304F678200DEB0302A5
:10ACD000062144F0E9F802B010BD00BFB84E0020D4
:10ACE0005475C52A70B5461E00F13105344614F876
:10ACF000011F601E801BFF29C0B201D035F02AFA67
:10AD0000AC42F4D1A02052F019F90121022035F013
:10AD100021FA0E4D40F2E93401E0013C05D0422118
:10AD2000284644F073F80028F7D16221074844F020
:10AD30006DF81321242035F00DFA2520092135F076
:10AD400009FABDE87040A02052F0F8B83059002050
:10AD50002DE9F04F2DED108B034697B0043315937A
:10AD6000DFEDCACA149002238A4613928B461293CF
:10AD7000149C4FEADB0604EB461202EB061031018D
:10AD8000A6EB86034FEAC60806EB4605CDE90001AF
:10AD900000EBC303043108F1040011962044214460
:10ADA0002C01C6EBC60C0394EC00119D04944FEAF1
:10ADB000CC0405946C0106EB860E0294159D009C54
:10ADC00003EB46174FEACE0E02EBC6064FEACB095D
:10ADD0004FF0000C51ED01AAD3ED001A92ED007A6C
:10ADE00094ED005A96ED004AD7ED007A15ED012A50
:10ADF00050ED016A32EE07BA76EE840A7AEE855A91
:10AE000031EEA70A3BEE256A70EE804A76EEC46A00
:10AE100036EE244A36EE646A05ED014A82ED006A98
:10AE2000D0ED00BAD6ED012AD3ED019A95ED00AA36
:10AE300092ED016A97ED013A91ED00CAD4ED014A15
:10AE40007BEEE23A36EEE19A32EE472A73EEE98A79
:10AE50003AEE464A39EE279A78EE838AB0EE428A75
:10AE6000A9EE6C8ADC44E24573EEC33AB0EE441AB4
:10AE7000A8EEEC1A76EEE77A33EEA97A7CEE643A25
:10AE800077EEA17A3AEE066A7AEEC51A3CEE24AA6B
:10AE900074EECC4A39EE833A35EE6A5AF0EE639A94
:10AEA000F0EE48AAE7EE2C9AA8EEAC4AE7EE2C4A60
:10AEB000E7EE6CAAF0EE418AB0EE427AB0EE612A7B
:10AEC0007BEE656A7BEEA22A76EE4A5AA9EE2C7AD0
:10AED000A7EEAC2AA7EEAC5AE7EEEC8A32EE83BAC4
:10AEE00076EEC3BA35EEE09A75EEC07A36EE0A6AAF
:10AEF00076EEE26A36EE0BAA76EE836A77EEA07AF9
:10AF000034EE423A77EE290A36EE4B6A7BEEA22AFD
:10AF100039EE000A73EEAA3A78EE244A37EE697ADF
:10AF200031EE055A71EEA85A32EE044A85ED00AAB8
:10AF300082ED016A4D4441ED012A4A44C4ED006AA4
:10AF400081ED000AC4ED017A494440ED010A4C4408
:10AF500087ED007AC6ED003AC3ED004A80ED003A75
:10AF600087ED014A484486ED015A4F44C3ED015A2A
:10AF70004E444B443FF62EAF119B072B40F2C78146
:10AF8000029D149E019B03980499059A0835751932
:10AF90000C330E95354608F108080EF10804EB183D
:10AFA00008300831083246442C1928186918AA18A4
:10AFB000079305F10C030D960C940B900A910992DE
:10AFC00008934FF001084FF0000E129B9E44139B14
:10AFD00003EBCE0303EBCE02109302EBCE0303EBA5
:10AFE000CE01029101EBCE0101EBCE0505EBCE06C1
:10AFF000D6ED007A0F93AEEB8E03019106EB0313AF
:10B0000003EBCE07D3ED01AACDED067A019BD5ED7A
:10B01000007A97ED01BACDED057AD3ED007A029B67
:10B02000CDED047AD3ED007A0F9BCDED037A07EBDB
:10B03000CE0CD3ED007ADCED01BACDED027A0CEB4B
:10B04000CE01D2ED007A109A009101EBCE000146BC
:10B0500091ED01DACDED017A0099D2ED007A91ED12
:10B0600001CA00EBCE0000EBCE0494ED01EAD0ED76
:10B0700001DACDED007ADDE90776DDE90954DDE995
:10B080000B01DDE90D23C44602E000BFF304353FA8
:10B0900094ED009A90ED00FA91ED006AD5ED007AFA
:10B0A000D3ED006A57ED014A92ED005A56ED013A90
:10B0B00096ED00AA35EE060A73EEA65A39EE278AF7
:10B0C00034EE8F7A70EE082A75EE87EA35EE465A2E
:10B0D0003EEEA26A73EEE63A06ED016AD1ED019A00
:10B0E000D2ED01FAD4ED016AD3ED011A95ED013AE2
:10B0F000D0ED018A97ED004A3FEEE96A35EE491A34
:10B1000076EE660A31EE271A3AEE612A75EE677A14
:10B1100070EE830A3FEEA95A74EECF9A77EE897AE1
:10B120007AEE211AB0EE42AA74EE68FAA0EEECAA0A
:10B13000DC44E24535EEC77AB0EE639A74EE285AE5
:10B1400038EEC44AF0EE698AA1EE6C9AE7EEAC8A5A
:10B1500036EE436A7FEE644A36EE266AA0EEAC2AEB
:10B16000F0EE4A0AE7EEEC0AE7EEAC4AF0EE687A57
:10B17000F0EE498A36EE833AE6EE6C8AE1EE2C3A3E
:10B18000B0EE6F1AA6EE2C1A71EEE56AA6EE2C4A06
:10B1900071EEA55A75EE031A7EEEE22A37EE43FAF7
:10B1A00075EEE1EAB0EE686A76EEC08A39EE044ADE
:10B1B0007FEE86FA76EEC86A33EE816A38EE888AC8
:10B1C00073EEC13A37EE457A2CEE2E1A3FEE055A51
:10B1D00022EECC9A9DED03FA70EE266A33EE077AE2
:10B1E000AFEE221AAFEE2E9A7AEE244A9DED01FAC6
:10B1F00079EEA09A25EE4BAA72EE670A37EE822A04
:10B200006BEE087AAFEE08AAEFEE057A2DEEA63ABD
:10B210009DED05FA67EE6D8AAFEE073AEFEE268AEE
:10B2200066EE6A2A9DED00FA2AEEA00AEFEE202AC9
:10B230006EEE02EADDED060A23EECE5AE0EEA3EA58
:10B240002BEEA98ADDED023AAFEE060AA3EE848A60
:10B2500024EE6B7A6DEE246A9DED044A2FEECD6AE2
:10B26000A0EE825AA3EEA97AE4EE2F6AA4EE246A35
:10B2700075EEA15AC6ED005A83ED001A83ED019ACE
:10B280004E4447ED017A87ED00AA4B4480ED003A29
:10B29000C0ED018A4F4482ED000A4844C2ED012A04
:10B2A000C5ED00EA85ED015A4A44C1ED006A81ED21
:10B2B000016A4D4484ED008A84ED017A49444C448E
:10B2C0003FF6E6AE0E9B08330E930D9B08330D93AD
:10B2D0000C9B08330C930B9B08330B930A9B08338E
:10B2E0000A93099B08330993089B08330893079B2B
:10B2F00008330793119B08F1010843457FF465AEBD
:10B30000129BDDF844B0DB009BB2129330E517B01E
:10B31000BDEC108BBDE8F08F30B5044683B000BFA4
:10B32000806842F05DFB4CF2050301AA6946ADF866
:10B3300000306068032300258DF8025059F02CFD81
:10B34000A06842F053FB00BF9DF8060003B030BD7B
:10B35000F0B5BE4FBE4885B0242200215EF02BF927
:10B3600097F8856A002E3AD1BA4C3546D4F8403D5C
:10B370005BB39B6A4BB3B848984783682BB3038889
:10B38000DFF8CCC2013B9BB26046664600213778AD
:10B39000032F06F106061BD001310629F7D1002242
:10B3A0000178022900F1060000F0A5800132062A8A
:10B3B000F6D1E16D052908D0481C02FB01C2E06509
:10B3C00002200021938010705180284605B0F0BD06
:10B3D000062303FB01414B8F013B9BB2DFE797F84C
:10B3E000840A07F68C23C7F8883A10B9994C0025CF
:10B3F000BCE742F015F80446C7F8940A42F0E4FAB4
:10B4000005460028F2D0013E022370B287F88C3A3C
:10B4100043F042FE0028E9D0C7F8900A0CB120237F
:10B42000E380204609213EF01DF9D7F8883A894C7F
:10B43000986842F0DBFAD7F8883A1021586856F03D
:10B440009DF8864BD7F8882AC4F8602D93E803004E
:10B450000123009032208DF8041084F8643D00260A
:10B460003EF04EFE052302AA6946D7F8880A8DF8F9
:10B470000A608DF8096043F093FC9DF80A009DF87E
:10B4800009109DF80B20764B000240EA0140104362
