:100000000C94AD000C94D5000C94D5000C94D50044
:100010000C94D5000C94D5000C94D5000C94D5000C
:100020000C94D5000C94D5000C94D5000C94D500FC
:100030000C94D5000C94D5000C94D5000C94D500EC
:100040000C94B2070C94D5000C944A030C9424032E
:100050000C94D5000C94D5000C94D5000C94D500CC
:100060000C947C030C94D500D60E830FB10E320F86
:100070009510F310C41024114F11E60F0763423698
:10008000B79BD8A71A39685618AEBAAB558C1D3C29
:10009000B7CC5763BD6DEDFD753EF6177231BF00ED
:1000A0000000803F08000000BE922449123EABAA27
:1000B000AA2ABECDCCCC4C3E00000080BEABAAAA82
:1000C000AA3E00000000BF000000803F00000000CA
:1000D00000084178D3BB4387D1133D190E3CC3BD03
:1000E0004282AD2B3E68EC8276BED98FE1A93E4CB0
:1000F00080EFFFBE01C4FF7F3F0000000000000052
:100100000000240027002A0000000000250028002D
:100110002B00000000002300260029000404040432
:1001200004040404020202020202030303030303A1
:10013000010204081020408001020408102001027E
:10014000040810200000000800020100000304075A
:1001500000000000000000002B1211241FBECFEF92
:10016000D8E0DEBFCDBF11E0A0E0B1E0EAE0F3E30C
:1001700002C005900D92A638B107D9F723E0A6E892
:10018000B1E001C01D92A032B207E1F710E0CDEA64
:10019000D0E004C02197FE010E947A16CC3AD10724
:1001A000C9F70E94FC070C9483190C940000CF92AD
:1001B000DF92EF92FF920F931F93CF93DF936C0127
:1001C0007A018B01C0E0D0E0CE15DF0581F0D801C7
:1001D0006D918D01D601ED91FC910190F081E02DA2
:1001E000C6010995892B11F02196EECF7E01C7013A
:1001F000DF91CF911F910F91FF90EF90DF90CF9003
:100200000895FC01538D448D252F30E0842F90E01C
:10021000821B930B541710F0CF9608950197089501
:10022000FC01918D828D981761F0828DDF01A80FFE
:10023000B11D5D968C91928D9F5F9F73928F90E020
:1002400008958FEF9FEF0895FC01918D828D98178F
:1002500031F0828DE80FF11D858D90E008958FEFCC
:100260009FEF0895FC01918D228D892F90E0805C95
:100270009F4F821B91098F739927089581E692E021
:100280000E94320121E0892B09F420E0822F089599
:10029000FC01848DDF01A80FB11DA35ABF4F2C9123
:1002A000848D90E001968F739927848FA689B789F2
:1002B0002C93A089B1898C91837080648C93938DE9
:1002C000848D981306C00288F389E02D80818F7D8C
:1002D00080830895EF92FF920F931F93CF93DF9344
:1002E000EC0181E0888F9B8D8C8D981305C0E88987
:1002F000F989808185FD26C0F62E0B8D10E00F5FF9
:100300001F4F0F731127E02E8C8DE8120CC00FB613
:1003100007FCFACFE889F989808185FFF5CFCE0106
:100320000E944801F1CF8B8DFE01E80FF11DE35AC9
:10033000FF4FF0829FB7F8940B8FEA89FB89808189
:1003400080620AC09FB7F894EE89FF896083E889CC
:10035000F98980818370806480839FBF81E090E011
:10036000DF91CF911F910F91FF90EF900895CF9360
:10037000DF93EC01888D8823C9F0EA89FB898081AD
:1003800085FD05C0A889B9898C9186FD0FC00FB67F
:1003900007FCF5CF808185FFF2CFA889B9898C91C0
:1003A00085FFEDCFCE010E944801E7CFDF91CF91CD
:1003B000089580E090E0892B29F00E943E01811190
:1003C0000C940000089585ED8093BC008091BC00E2
:1003D00084FDFCCF1092CB0108954091A701262FF8
:1003E00030E0240F311D21323105DCF42091CB01A6
:1003F0002430C9F4FC0180E090E0861758F4309175
:10040000A7012191DC01A957BE4FA30FB11D2C9369
:100410000196F3CF8091A701680F6093A70180E058
:10042000089581E0089582E0089508958FEF9FEF89
:1004300008958FEF9FEF08958091860190E0919548
:10044000819591090895CF93DF93CB01EA01642F41
:100450000E94ED01CE01DF91CF910895CF93DF93FC
:100460001F92CDB7DEB7698361E0CE0101960E948D
:10047000ED0181E090E00F90DF91CF910895089514
:1004800080E090E00895EF92FF921F93CF93DF9367
:10049000182F9B01FA018FE38383EA0124968AE0F7
:1004A000E82EF12CC901B7010E944416DC01A55FBA
:1004B000BE4F8C918A932A30310524F09B01CE17D0
:1004C000DF0781F711111083DF91CF911F91FF900A
:1004D000EF90089561E086E00E941B0560E870E0FF
:1004E0008AE00E941E0660E870E085E00E941E0619
:1004F00060E870E083E00C941E060E94A60728ECDA
:1005000030E040E050E00E945816653671058105E4
:10051000910510F00C946A020C947D06EF92FF9204
:100520000F931F93CF93DF93CDB7DEB7C054D1099C
:100530000FB6F894DEBF0FBECDBF8C0180911202C2
:10054000909113028017910709F11F930F939F93C6
:100550008F938FE391E09F938F93CE0101967C015F
:100560009F938F930E949916F70101900020E9F75D
:100570003197AF014E195F09B70181E692E00E9401
:10058000D7000FB6F894DEBF0FBECDBF1093130295
:1005900000931202C05CDF4F0FB6F894DEBF0FBEAF
:1005A000CDBFDF91CF911F910F91FF90EF900895F4
:1005B0000E9494168F929F92AF92BF92FF920F93D8
:1005C0001F93CF93DF93F82E4A015B01E901B90134
:1005D000330F880B990B0E949D139B01AC0160E0C7
:1005E00070E080E291E40E94BF14A50194010E9492
:1005F00052140E946513C430D10578F0A8018F2DE4
:100600000E944302C430D105A8F40C1B1D0BF80155
:1006100033968081806880830DC0F801349640E075
:1006200050E022912F6320834F5F5F4FC417D5079F
:10063000C4F7E4CFDF91CF911F910F91FF90BF904E
:10064000AF909F908F9008951F920F920FB60F92C8
:1006500011242F933F934F935F936F937F938F93C7
:100660009F93AF93BF93EF93FF9381E692E00E9435
:100670004801FF91EF91BF91AF919F918F917F9131
:100680006F915F914F913F912F910F900FBE0F90FF
:100690001F9018951F920F920FB60F9211242F934F
:1006A0008F939F93EF93FF93E0917102F091720209
:1006B0008081E0917702F091780282FD12C09081F2
:1006C00080917A028F5F8F7320917B02821751F0A5
:1006D000E0917A02F0E0EF59FD4F958F80937A0216
:1006E00001C08081FF91EF919F918F912F910F9089
:1006F0000FBE0F901F9018951F920F920FB60F927A
:1007000011242F933F934F935F936F937F938F9316
:100710009F93AF93BF93EF93FF938091B900887F2E
:10072000803609F49CC068F5883209F45BC090F407
:10073000803109F454C038F4882309F4F2C08830B9
:1007400009F44DC0F2C0883109F44CC0803209F47C
:100750005DC0EBC0803409F468C048F4803309F40C
:1007600055C0883309F0E1C08093CA01D4C08035F8
:1007700009F44FC0883509F45DC0883409F0D5C04C
:10078000D2C0883909F4C3C0A8F4883709F467C017
:1007900038F4883609F463C0803709F460C0C5C0F6
:1007A000883809F4B4C0803909F45FC0803809F092
:1007B000BCC05BC0803B09F484C038F4803A09F4C3
:1007C00066C0883A09F47DC0B0C0803C09F4A3C07B
:1007D000883C09F4A0C0883B09F486C0A6C080917B
:1007E000F00110C09091EF018091EE01981770F523
:1007F000E091EF0181E08E0F8093EF01F0E0E25392
:10080000FE4F80818093BB0085EC82C08093CA013B
:100810008AC0E091EF0181E08E0F8093EF0180911B
:10082000BB00F0E0E253FE4F80839091EF01809196
:10083000EE016AC0E091EF0181E08E0F8093EF013D
:100840008091BB00F0E0E253FE4F80838091CD01A8
:10085000811169C081E08093CC0184EA5DC083E0AE
:100860008093CB011092C901CFCF8091C901803212
:1008700008F04DC0E091C90181E08E0F8093C9015D
:100880008091BB00F0E0E755FE4F8083BDCF85EC43
:100890008093BC001092CB018091C901803230F46A
:1008A000E091C901F0E0E755FE4F10826091C90167
:1008B00070E089EA91E0E0E0F0E009951092C9016A
:1008C00034C084E08093CB011092A8011092A7015C
:1008D000E0E0F0E009958091A701811105C081E079
:1008E0008093A70110928701E091A80181E08E0F0B
:1008F0008093A801F0E0E957FE4F80818093BB0010
:100900009091A8018091A701981708F47DCF85E800
:100910008093BC000AC085EC8093BC001092CB0190
:1009200004C01092CA010E94E301FF91EF91BF91B0
:10093000AF919F918F917F916F915F914F913F9177
:100940002F910F900FBE0F901F901895809101036B
:10095000909102038230910538F0880F991F880F1B
:10096000991F05970197F1F70895833081F028F4D6
:10097000813099F08230A1F008958730A9F0883055
:10098000B9F08430D1F4809180008F7D03C08091D4
:1009900080008F7780938000089584B58F7702C0A0
:1009A00084B58F7D84BD08958091B0008F7703C09A
:1009B0008091B0008F7D8093B0000895E9E3F2E06C
:1009C000119222E0E136F207D9F7ADE3B2E0FC0183
:1009D0009F01281B390B261737071CF421912D93F3
:1009E000F7CF0895CF93DF93282F30E0F901EC5B28
:1009F000FE4F8491F901E05DFE4FD491F901E45E70
:100A0000FE4FC491CC2391F081110E94B504EC2FCC
:100A1000F0E0EE0FFF1FEE5EFE4FA591B491EC915A
:100A2000ED2381E090E021F480E002C080E090E0DE
:100A3000DF91CF9108951F93CF93DF93282F30E05C
:100A4000F901EC5BFE4F8491F901E05DFE4FD4911A
:100A5000F901E45EFE4FC491CC23C1F0162F811141
:100A60000E94B504EC2FF0E0EE0FFF1FE85FFE4F91
:100A7000A591B4919FB7F894111104C08C91D095B1
:100A8000D82302C0EC91DE2BDC939FBFDF91CF9186
:100A90001F910895CF93DF9390E0FC01E05DFE4F3E
:100AA0002491FC01E45EFE4F8491882361F190E083
:100AB000880F991FFC01E250FF4FC591D491FC01B2
:100AC000E85FFE4FA591B491611109C09FB7F894FA
:100AD0008881209582238883EC912E230BC062307D
:100AE00061F49FB7F8948881322F309583238883EF
:100AF000EC912E2B2C939FBF06C08FB7F894E88102
:100B00002E2B28838FBFDF91CF910895CF93DF9352
:100B1000CEEFD2E061E089810E944A050E94A604DE
:100B200060E088810E944A050E94A60460E08981F5
:100B30000E944A05DF91CF910C94A604CF93DF93D6
:100B4000D82FC8E061E08091FE020E944A050E9411
:100B5000A604D0FF02C060E001C061E08091FF0206
:100B60000E944A050E94A60460E08091FE020E9455
:100B70004A050E94A604D695C15021F761E08091F4
:100B8000FE020E944A0560E08091FF020E944A0531
:100B90000E94A60460E08091FE020E944A050E9425
:100BA000A6048091FF020E94F204C82F811105C0A3
:100BB00061E08091FF020E944A050E94A60461E064
:100BC0008091FE020E944A050E94A60481E0C111A4
:100BD00001C080E0DF91CF91089561E08091FF0234
:100BE0000E944A050C94A6040F931F93CF93DF93A2
:100BF0008C010E94ED0580E40E949E050E948605FE
:100C00000E94ED0580EC0E949E05E8010C5F1F4FDD
:100C100089910E949E05C017D107D1F70E948605D1
:100C20000E94ED05809100038F7080580E949E0500
:100C3000DF91CF911F910F910C9486051F93CF9355
:100C4000DF93182FEB0161E00E944A05209711F411
:100C500060E004C0CF3FD10539F461E0812FDF911E
:100C6000CF911F910C941B05E12FF0E0EC5BFE4F40
:100C7000E491E330F9F048F4E130B9F0E230A1F565
:100C800084B5806284BDC8BD34C0E730E9F0E83087
:100C900019F1E43049F580918000806280938000F2
:100CA000D0938B00C0938A0024C084B5806884BD33
:100CB000C7BD1FC080918000806880938000D09362
:100CC0008900C093880015C08091B000806880932F
:100CD000B000C093B3000DC08091B00080628093DB
:100CE000B000C093B40005C0C038D1050CF0B5CF3A
:100CF000AFCFDF91CF911F91089560E086E00E9411
:100D00001B0560E070E085E00E941E0660E070E078
:100D10008AE00E941E0660E070E083E00C941E06EC
:100D200060E086E00E941B0560E070E085E00E94C4
:100D30001E0660E070E08AE00E941E0660E070E03F
:100D400083E00C941E068E3008F08E5020910A012C
:100D500090E4299F900111248770822B80937C005E
:100D600080917A00806480937A0080917A0086FD79
:100D7000FCCF809178002091790090E0922B08952B
:100D80004F925F926F927F928F929F92AF92BF929B
:100D9000CF92DF92EF92FF9280E10E94A306BC0106
:100DA000990F880B990B0E949D1320E030E040E0E2
:100DB0005FE30E94821220E030E040EA50E40E94AB
:100DC000521420E030E040E85AE30E94521423E33A
:100DD00033E343E050E40E9452146B017C0124EAA7
:100DE00030E74DE75FE360910C0370910D03809154
:100DF0000E0390910F030E9452144B015C0185E198
:100E00000E94A306BC01990F880B990B0E949D13A9
:100E10002AE037ED43E25CE30E945214A5019401FD
:100E20000E94821260930C0370930D0380930E0353
:100E300090930F0320E030E040E05FE30E948212D5
:100E400020E030E040E85AE30E94521420E030E015
:100E500040E05FE30E9481122DEC3CEC4CEC5DE342
:100E60000E945214A70196010E9482122B013C019C
:100E700080913802882349F09AE0C92E97EDD92E47
:100E800093EAE92E9CE3F92E07C08DECC82E8CEC7A
:100E9000D82EED2C8DE3F82EA701960160E070E0CE
:100EA00080E89FE30E94811220911003309111038A
:100EB00040911203509113030E9452144B015C01A4
:100EC000A7019601C301B2010E9452149B01AC011B
:100ED000C501B4010E948212609310037093110344
:100EE0008093120390931303FF90EF90DF90CF90C5
:100EF000BF90AF909F908F907F906F905F904F903A
:100F000008953FB7F8948091080390910903A09148
:100F10000A03B0910B0326B5A89B05C02F3F19F01B
:100F20000196A11DB11D3FBFBA2FA92F982F882769
:100F3000820F911DA11DB11DBC01CD0142E0660FC4
:100F4000771F881F991F4A95D1F708952FB7F894F6
:100F5000609104037091050380910603909107034B
:100F60002FBF08951F920F920FB60F9211242F9347
:100F70003F938F939F93AF93BF938091040390917E
:100F80000503A0910603B09107033091030323E00A
:100F9000230F2D3720F40196A11DB11D05C026E8B1
:100FA000230F0296A11DB11D209303038093040318
:100FB00090930503A0930603B09307038091080361
:100FC00090910903A0910A03B0910B030196A11D12
:100FD000B11D8093080390930903A0930A03B09373
:100FE0000B03BF91AF919F918F913F912F910F90E4
:100FF0000FBE0F901F901895CF93DF93CDB7DEB73C
:10100000CA55D1090FB6F894DEBF0FBECDBF789494
:1010100084B5826084BD84B5816084BD85B58260FD
:1010200085BD85B5816085BD80916E0081608093AE
:101030006E00109281008091810082608093810017
:101040008091810081608093810080918000816027
:10105000809380008091B10084608093B100809182
:10106000B00081608093B00080917A0084608093AA
:101070007A0080917A00826080937A0080917A0071
:10108000816080937A0080917A00806880937A00F2
:101090001092C100E0917102F091720282E08083AF
:1010A000E0916D02F0916E021082E0916F02F0917A
:1010B000700280E1808310927902E0917502F091D4
:1010C000760286E08083E0917302F0917402808161
:1010D00080618083E0917302F09174028081886066
:1010E0008083E0917302F091740280818068808334
:1010F000E0917302F091740280818F7D8083109261
:101100000A0161E08BE00E944A0561E08AE00E94EA
:101110004A0561E084E00E944A0561E085E00E94A2
:101120004A0561E08CE00E944A0561E08AE00E9485
:101130004A0561E083E00E944A0561E086E00E9482
:101140004A0560E08EE00E944A0560E080E10E946E
:101150004A0560E082E10E944A0560E083E10E9466
:101160004A0582E10E94A306892B41F483E10E9493
:10117000A3068F3F934011F40C94E9118FE0809304
:1011800000030E94C00682E090E0909313028093D7
:101190001202109206021092070210920802109298
:1011A000090260E082E10E944A0560E083E10E945A
:1011B0004A0560E082E10E941B0560E083E10E9435
:1011C0001B0582E18093FE0283E18093FF0284E6A7
:1011D00090E0909302038093010360E084E00E941A
:1011E0001B0560E08CE00E941B0560E070E085E07C
:1011F0000E941E0680918100887F8260809381001A
:1012000083E393E3A3E5B0E48093F3019093F401C7
:10121000A093F501B093F60100E010E0580181E0E1
:10122000A822BB246A2D8AE00E941B050E94810728
:101230002B013C015AE0C52ED12CE12CF12C0E944F
:101240008107DC01CB0184199509A609B709883EFD
:101250009340A105B10598F391E0C91AD108E108BE
:10126000F108A8EE4A0EA3E05A1E611C711CC114BD
:10127000D104E104F10419F789E00E94F204A816F0
:10128000B90689F40F5F1F4F0A30110539F683EC58
:1012900095EFA8EABEE38093F3019093F401A09345
:1012A000F501B093F60120E030E040E251E46091B6
:1012B000F3017091F4018091F5019091F6010E9483
:1012C00052140E9465137F936F9385E691E09F937C
:1012D0008F938E010F5F1F4F1F930F930E949916DC
:1012E000F80101900020E9F73197AF01401B510B45
:1012F000B80181E692E00E94D7000F900F900F9006
:101300000F900F900F9048EB442E4BE0542E612C21
:10131000712C18010E94C0060E94A6070091340299
:1013200010913502209136023091370206171707C7
:101330002807390708F071C10E94A6070E949B1375
:101340004B015C0180911202909113028230910551
:1013500009F4EEC08530910509F427C1019709F021
:101360004AC1C0900601D0900701E0900801F090BA
:10137000090120E030E040EA50E4C701B6010E94D4
:10138000EE1287FF05C08DEC9CECACE4BEE30EC012
:1013900020E030E040E051E4C701B6010E94EE12C7
:1013A00087FF0DC086E696E6A6EEBEE38093300288
:1013B00090933102A0933202B093330230C02DECEF
:1013C0003CEC44E051E4C701B6010E94EE1287FFF5
:1013D00005C08DEC9CECACECBEE3E8CF26E636E62F
:1013E00046E051E4C701B6010E94EE1287FF05C036
:1013F0008AE999E9A9E9BEE3D9CF20E030E048E0E5
:1014000051E4C701B6010E94EE1287FDF1CF1092A0
:1014100030021092310210923202109233022DECFF
:101420003CEC4CE45EE360913002709131028091BB
:101430003202909133020E948212609330027093C4
:1014400031028093320290933302209102022223D0
:1014500071F02DEC3CEC4CE45EE30E948212609350
:10146000300270933102809332029093330226E669
:1014700036E646E051E4C701B6010E944D14181645
:1014800044F4109230021092310210923202109203
:10149000330220E030E04EE753E460910A0270919D
:1014A0000B0280910C0290910D020E944D141816AF
:1014B000D4F42DEC3CEC4CE45DE3609106027091B9
:1014C000070280910802909109020E94EE1287FFA4
:1014D0000AC08091F1019091F20101969093F2017E
:1014E0008093F10104C01092F2011092F1012DECF1
:1014F0003CEC4CE450E4C701B6010E94EE1287FDBB
:101500006DC70E94A60720EE3EE240E050E00E9438
:101510005816683E73408105910508F45FC78091B5
:10152000F1019091F201893E93400CF057C763C0DE
:101530001092300210923102109232021092330255
:101540000E94C0066B017C0120E030E0A9010E94EE
:10155000EE12882349F0C0920601D0920701E09272
:101560000801F09209010CC08AE097EDA3E2BCE308
:101570008093060190930701A0930801B09309019D
:101580002DEC3CEC4CE450E46091060170910701B5
:1015900080910801909109010E94EE1287FD2BC0F5
:1015A00085E090E00E948E0225C7109230021092D2
:1015B000310210923202109233020E94C0066093F0
:1015C00006017093070180930801909309012DECA7
:1015D0003CEC4CE450E40E94EE1287FF04C082E031
:1015E00090E00E948E0281E090E00E948E021092B4
:1015F000F2011092F10120E030E040E85FE3C50124
:10160000B4010E9482120E946513609334027093A9
:1016100035028093360290933702809138028823F6
:1016200031F060E070E08BE00E941E0683C1809183
:10163000300290913102A0913202B09133022D9686
:101640008CAF9DAFAEAFBFAF2D97C0900602D090CC
:101650000702E0900802F09009029C01AD01C70169
:10166000B6010E9481129B01AC0160910A02709147
:101670000B0280910C0290910D020E9481124B018D
:101680005C0120E030E04FE753E40E944D1418164F
:101690004CF080920A0290920B02A0920C02B0923F
:1016A0000D020CC080E090E0AFE7B3E480930A0243
:1016B00090930B02A0930C02B0930D0220E030E057
:1016C000A90160910A0270910B0280910C02909125
:1016D0000D020E94EE1287FF08C010920A021092BB
:1016E0000B0210920C0210920D0280900A02909050
:1016F0000B02A0900C02B0900D0220E030E0A90196
:101700002D966CAD7DAD8EAD9FAD2D970E94EE12E6
:10171000882329F0C501B4010E94651302C060E06E
:1017200070E0209100013091010181E090E0821B86
:10173000930B90930101809300018BE00E941E06A1
:101740008EE00E94A306BC01990F880B990B0E94A2
:101750009D1320E030E040E85AE30E94521420E05C
:1017600030E040EA50E40E9452142091F30130919D
:10177000F4014091F5015091F6010E94F3122AE024
:1017800037ED43E25CE30E9452144B015C0124EA12
:1017900030E74DE75FE3C701B6010E9452149B0199
:1017A000AC01C501B4010E9482126B017C016093FF
:1017B000060270930702809308029093090285E164
:1017C0000E94A306813293402CF08091F901882376
:1017D00009F415C685E10E94A306883C910524F40E
:1017E0008091F901811118C68091F7019091F8015B
:1017F00002971CF081E08093380200911202109150
:1018000013020130110591F10E94A607C090FE015C
:10181000D090FF01E0900002F0900102DC01CB01CA
:101820008C199D09AE09BF09893E9340A105B105F8
:1018300008F0FEC50230110509F420C1053011057C
:1018400009F4AFC1012B09F0E4C10E94A60724E608
:1018500030E040E050E00E94581663337105810586
:10186000910508F467C00E946A02D5C10E94A607CC
:101870006093FE017093FF01809300029093010238
:101880000E94A6070091FA011091FB012091FC0132
:101890003091FD01DC01CB01801B910BA20BB30B3E
:1018A000883B9B40A105B10508F4B3C126E636E6A6
:1018B00046E051E4609106017091070180910801B2
:1018C000909109010E94EE1287FF47C02DEC3CEC7D
:1018D0004CE45EE3C701B6010E944D1418166CF18A
:1018E0000091020210E00F5F1F4F000F111F0E94B6
:1018F000A6074B015C0188EB9BE0B8010E944416EF
:101900006B01770FEE08FF08C501B401A70196012E
:101910000E9458164B015C0184E195E0B8010E94D9
:101920004416CB01770FAA0BBB0B88169906AA06A3
:10193000BB0610F50E947D066EC10E94A607A3019A
:1019400092010E94581665357B408105910588F00B
:1019500061E086E00E941B055EC10E94A607A3010C
:1019600092010E94581668327A408105910508F06C
:1019700060C00E9490064FC10E94A607A701960171
:101980000E9458164B015C0188E097E0B8010E9464
:101990004416CB01770FAA0BBB0B88169906AA0633
:1019A000BB0608F460CF0E94A607A70196010E941B
:1019B00058164B015C018CE697E0B8010E94441672
:1019C000CB01770FAA0BBB0B88169906AA06BB069C
:1019D00008F4B0CF0E94A607A70196010E945816EE
:1019E0004B015C0180E699E0B8010E944416CB01EE
:1019F000770FAA0BBB0B88169906AA06BB0608F43C
:101A000032CF0E94A607A70196010E9458166B01CB
:101A10007C0184EC99E0B8010E944416CB01770F59
:101A2000AA0BBB0BC816D906EA06FB0608F01BCFAB
:101A300081CF0E94A607A30192010E9458166C381C
:101A40007A408105910508F483CF0E94A607A3017F
:101A500092010E945816603F7A408105910508F472
:101A600088CF0E94A607A30192010E9458166435F0
:101A70007B408105910508F0CEC06ACF0E94A60781
:101A8000DC01CB018C199D09AE09BF09009102024E
:101A900010E00F5F1F4F000F111F81329E44A10500
:101AA000B105B0F00E94A6076B017C0188EB9BE0BA
:101AB000B8010E9444169B01770F440B550BC701D8
:101AC000B6010E9458166B017C0188EC90E093C02F
:101AD0000E94A6074B015C0188EB9BE0B8010E94C5
:101AE00044166B01770FEE08FF08C501B401A7018A
:101AF00096010E9458164B015C0188E998E0B801F4
:101B00000E944416CB01770FAA0BBB0B88169906CF
:101B1000AA06BB0608F40ECF0E94A607A7019601ED
:101B20000E9458164B015C018CEF98E0B8010E94AE
:101B30004416CB01770FAA0BBB0B88169906AA0691
:101B4000BB0608F490CE0E94A607A70196010E944A
:101B500058164B015C0188E29AE0B8010E944416D5
:101B6000CB01770FAA0BBB0B88169906AA06BB06FA
:101B700008F4E0CE0E94A607A70196010E9458161D
:101B80006B017C018CE89AE0B8010E944416CB01FD
:101B9000770FAA0BBB0BC816D906EA06FB06D8F5C9
:101BA00062CE0E94A607DC01CB018C199D09AE090B
:101BB000BF09893E9340A105B10508F4BBCE009151
:101BC000020210E00F5F1F4F000F111F0E94A607B7
:101BD0006B017C0188E592E0B8010E9444169B01EC
:101BE000770F440B550BC701B6010E9458166B01C5
:101BF0007C018CE291E0B8010E944416CB01770F82
:101C0000AA0BBB0B8C159D05AE05BF0508F092CE47
:101C10002ACE0E947D028090200290902102A09006
:101C20002202B09023020E94C00620E030E040E093
:101C30005FE30E9452146B017C0120E030E040E041
:101C40005FE3C501B4010E9452149B01AC01C701BE
:101C5000B6010E9482126093200270932102809349
:101C600022029093230229961CAE1DAE1EAE1FAE1B
:101C700029978091180281110DC00E94A6076093D8
:101C8000140270931502809316029093170281E05C
:101C90008093180200911202109113020E94A6076D
:101CA000C0900E02D0900F02E0901002F09011024E
:101CB000C616D706E806F90608F042C060910A0287
:101CC00070910B0280910C0290910D020E9465139D
:101CD0006B967FAF6EAF6B97809106019091070175
:101CE000A0910801B091090165968CAF9DAFAEAF90
:101CF000BFAF65970E94C00661966CAF7DAF8EAF97
:101D00009FAF61978091060290910702A09108020F
:101D1000B091090269968CAF9DAFAEAFBFAF699726
:101D20000E94A607DC01CB0188539F4FAF4FBF4FE6
:101D300080930E0290930F02A0931002B0931102B1
:101D400080913802811113C2E09105028E2F90E03C
:101D50008A30910508F0D3C2FC01EC5CFF4F0C9473
:101D60007A1685E1D1011D928A95E9F788E7898382
:101D70008CE18A8380E58B838CE78C838CE58D8373
:101D80008E838F839FE3988789878A879B878C8739
:101D90008D879E879F87888B898B8A8B8B8B65E14C
:101DA00070E0C1010E94DE0483E03BC08CE0F101E1
:101DB00011928A95E9F78CE1898389E78A8380E526
:101DC0008B8384E48C8380E18D838CE58E8384E532
:101DD0008F8325961CAE1DAE1EAE1FAE25978E01BD
:101DE0000F5B1F4F21E030E043E353E363E37FE306
:101DF0008CE10E94DA0222968FAD22978987239682
:101E00008FAD23978A8724968FAD24978B8725964D
:101E10008FAD25978C876CE070E0C1010E94DE04D5
:101E200081E0809305020E94A607609314027093DC
:101E300015028093160290931702109204021092DA
:101E400003020E94A607DC01CB01845D9E4FAF4FC9
:101E5000BF4F8093020190930301A0930401B093BC
:101E600005014DC20E94A6070091020110910301D5
:101E7000209104013091050106171707280739073B
:101E800008F50E94A607DC01CB01C296A11DB11D79
:101E90008093020190930301A0930401B093050184
:101EA000E9E3F2E085E592E0218121938E179F0717
:101EB000D9F7809103029091040201969093040255
:101EC000809303028091390226968FAF26978091E6
:101ED0003A0227968FAF279780913B0228968FAFC3
:101EE000289780913C0229968FAF299789E392E049
:101EF0000E94F40580910302909104024D970CF426
:101F0000FEC184E056C00E94A60700910201109114
:101F100003012091040130910501061717072807D6
:101F2000390738F50E94A607DC01CB018C599F4F79
:101F3000AF4FBF4F8093020190930301A093040120
:101F4000B093050180910302909104028C309105B9
:101F500034F0019690930402809303020AC0E9E3EF
:101F6000F2E025E532E0418141932E173F07D9F792
:101F7000F0CF8091390226968FAF269780913A0252
:101F800027968FAF279780913B0228968FAF28978F
:101F900080913C0229968FAF299789E392E00E94B5
:101FA000F405809103029091040281970CF4A7C17B
:101FB00089E0809305020E94A60760931402709343
:101FC0001502809316029093170299C10E94A607EA
:101FD00000911402109115022091160230911702FF
:101FE000DC01CB01801B910BA20BB30B8539914116
:101FF000A105B10568F084E0809305020E94A60760
:102000006093140270931502809316029093170246
:102010000E94A607C0901402D0901502E09016020C
:10202000F0901702DC01CB018C199D09AE09BF09A4
:102030008C3D9540A105B10570F48EE326968FAFD7
:1020400026978CE527968FAF279788E328968FAF42
:10205000289788E766C00E94A607DC01CB018C198F
:102060009D09AE09BF09883B9B40A105B10550F40D
:1020700088E326968FAF269789E727968FAF279715
:102080009CE14CC00E94A607DC01CB018C199D0984
:10209000AE09BF0984399141A105B10568F489E30E
:1020A00026968FAF26978CE127968FAF279780E5EE
:1020B00028968FAF289735C00E94A607DC01CB0178
:1020C0008C199D09AE09BF0980379741A105B1055B
:1020D00070F48CE526968FAF26978CE127968FAF0C
:1020E000279788E728968FAF289783E71AC00E9422
:1020F000A607DC01CB018C199D09AE09BF098C3400
:102100009D41A105B10508F0FAC08DE226968FAF7A
:10211000269788E727968FAF279797E728969FAF50
:10212000289729968FAF2997EAC00E94A6070091A9
:102130001402109115022091160230911702DC0151
:10214000CB01801B910BA20BB30B893B9B40A105DC
:10215000B10568F086E0809305020E94A6076093AF
:1021600014027093150280931602909317028E0149
:102170000B5B1F4F22E030E061964CAD5DAD6EAD64
:102180007FAD61978EE35DC00E94A60700911402A7
:10219000109115022091160230911702DC01CB013B
:1021A000801B910BA20BB30B893B9B40A105B10592
:1021B00068F085E0809305020E94A60760931402F0
:1021C0007093150280931602909317028E010B5B99
:1021D0001F4F22E030E065964CAD5DAD6EAD7FAD3A
:1021E000659788E32EC00E94A60700911402109103
:1021F00015022091160230911702DC01CB01801BE1
:10220000910BA20BB30B893B9B40A105B10568F074
:1022100087E0809305020E94A607609314027093E2
:10222000150280931602909317028E010B5B1F4FCD
:1022300023E030E069964CAD5DAD6EAD7FAD699742
:1022400089E30E94DA025BC00E94A6070091140293
:10225000109115022091160230911702DC01CB017A
:10226000801B910BA20BB30B893B9B40A105B105D1
:1022700068F088E0809305020E94A607609314022C
:10228000709315028093160290931702AE014B5B78
:102290005F4F6B966EAD7FAD6B978CE52EC00E9445
:1022A000A607C0901402D0901502E0901602F0909C
:1022B0001702DC01CB018C199D09AE09BF09893BCE
:1022C0009B40A105B105A0F084E0809305028091B8
:1022D0000202882319F082E0809305020E94A6077B
:1022E0006093140270931502809316029093170264
:1022F000AE014B5B5F4FB8018DE20E9443028091BB
:102300000202882371F00E94A60724E630E040E034
:1023100050E00E945816633371058105910508F05D
:1023200092C0CE018B5B9F4F0E94F4050E94A607CE
:10233000009114021091150220911602309117029B
:10234000601771078207930750F40E94A6076093F5
:1023500014027093150280931602909317028091D5
:10236000280281110DC00E94A60760932402709379
:102370002502809326029093270281E08093280211
:10238000C0902402D0902502E0902602F09027020F
:102390008AE0C80ED11CE11CF11C0E94A607C61AD7
:1023A000D70AE80AF90A9BE0C916D104E104F1044E
:1023B00010F40E94A6070E94A6076093240270935F
:1023C000250280932602909327020E94D9010C9443
:1023D0008A0981E0809302020C94BE0882E090E0BA
:1023E0000E948E021092300210923102109232023C
:1023F0001092330220E030E046E953E400C98091B6
:10240000F7019091F80101969093F8018093F701FC
:1024100081E08093F901DEC98091F7019091F80184
:1024200001969093F8018093F7011092F901DCC9AD
:102430000E94A6076093FA017093FB018093FC0150
:102440009093FD01F7C929968FAD29978068299649
:102450008FAF299766CFCF93DF93E1E6F2E0138247
:10246000128288EE93E0A0E0B0E084839583A68397
:10247000B7832FE131E03183208325EC30E03587CD
:10248000248724EC30E03787268720EC30E0318B3E
:10249000208B21EC30E0338B228B22EC30E0358B2B
:1024A000248B26EC30E0378B268B118E128E138E08
:1024B000148EE4E1F3E01382128284839583A68371
:1024C000B78381E391E091838083CEEFD2E082E114
:1024D000888383E1898384E690E09C838B8360E03A
:1024E00082E10E944A0560E089810E944A0560E01D
:1024F00088810E941B0560E08981DF91CF910C9457
:102500001B055058BB27AA270E9499120C9413143C
:102510000E94051438F00E940C1420F039F49F3FFB
:1025200019F426F40C9402140EF4E095E7FB0C94D5
:10253000FC13E92F0E94241458F3BA17620773079B
:102540008407950720F079F4A6F50C9446140EF450
:10255000E0950B2EBA2FA02D0B01B90190010C01B3
:10256000CA01A0011124FF27591B99F0593F50F4CB
:10257000503E68F11A16F040A22F232F342F442723
:10258000585FF3CF469537952795A795F04053951B
:10259000C9F77EF41F16BA0B620B730B840BBAF0EB
:1025A0009150A1F0FF0FBB1F661F771F881FC2F756
:1025B0000EC0BA0F621F731F841F48F4879577956A
:1025C0006795B795F7959E3F08F0B0CF9395880F24
:1025D00008F09927EE0F9795879508950E94D813D4
:1025E00008F481E008950E9407130C9413140E94CC
:1025F0000C1458F00E94051440F029F45F3F29F0B4
:102600000C94FC1351110C9447140C9402140E9466
:10261000241468F39923B1F3552391F3951B550BBB
:10262000BB27AA2762177307840738F09F5F5F4FA5
:10263000220F331F441FAA1FA9F335D00E2E3AF0E4
:10264000E0E832D091505040E695001CCAF72BD0FC
:10265000FE2F29D0660F771F881FBB1F261737074D
:102660004807AB07B0E809F0BB0B802DBF01FF277F
:1026700093585F4F3AF09E3F510578F00C94FC134D
:102680000C9447145F3FE4F3983ED4F38695779516
:102690006795B795F7959F5FC9F7880F911D969538
:1026A000879597F90895E1E0660F771F881FBB1F94
:1026B000621773078407BA0720F0621B730B840B41
:1026C000BA0BEE1F88F7E09508950E946C1368948A
:1026D000B1110C94471408950E942C1488F09F5750
:1026E00098F0B92F9927B751B0F0E1F0660F771F36
:1026F000881F991F1AF0BA95C9F714C0B13091F02C
:102700000E944614B1E008950C944614672F782F68
:102710008827B85F39F0B93FCCF3869577956795F0
:10272000B395D9F73EF490958095709561957F4F5C
:102730008F4F9F4F0895E89409C097FB3EF4909502
:102740008095709561957F4F8F4F9F4F9923A9F08A
:10275000F92F96E9BB279395F69587957795679519
:10276000B795F111F8CFFAF4BB0F11F460FF1BC05D
:102770006F5F7F4F8F4F9F4F16C0882311F096E9F0
:1027800011C0772321F09EE8872F762F05C066239E
:1027900071F096E8862F70E060E02AF09A95660F57
:1027A000771F881FDAF7880F9695879597F9089510
:1027B000990F0008550FAA0BE0E8FEEF1616170652
:1027C000E807F907C0F012161306E407F50798F0BA
:1027D000621B730B840B950B39F40A2661F0232BD3
:1027E000242B252B21F408950A2609F4A140A6954F
:1027F0008FEF811D811D089597F99F6780E870E034
:1028000060E008959FEF80EC089500240A94161666
:10281000170618060906089500240A9412161306CE
:10282000140605060895092E0394000C11F488235C
:1028300052F0BB0F40F4BF2B11F460FF04C06F5F78
:102840007F4F8F4F9F4F089557FD9058440F551F4E
:1028500059F05F3F71F04795880F97FB991F61F022
:102860009F3F79F087950895121613061406551F99
:10287000F2CF4695F1DF08C0161617061806991F05
:10288000F1CF86957105610508940895E894BB27FA
:1028900066277727CB0197F908950E94D81308F48B
:1028A0008FEF08950E9465140C9413140E94051470
:1028B00038F00E940C1420F0952311F00C94FC13B6
:1028C0000C94021411240C9447140E94241470F3E5
:1028D000959FC1F3950F50E0551F629FF001729FC5
:1028E000BB27F00DB11D639FAA27F00DB11DAA1FD4
:1028F000649F6627B00DA11D661F829F2227B00D21
:10290000A11D621F739FB00DA11D621F839FA00DAB
:10291000611D221F749F3327A00D611D231F849FFB
:10292000600D211D822F762F6A2F11249F57504052
:102930009AF0F1F088234AF0EE0FFF1FBB1F661FCD
:10294000771F881F91505040A9F79E3F510580F096
:102950000C94FC130C9447145F3FE4F3983ED4F3BB
:10296000869577956795B795F795E7959F5FC1F73A
:10297000FE2B880F911D9695879597F90895FA017A
:10298000EE0FFF1F309621053105A1F1611571058C
:1029900061F48038BFE39B0749F168949038810562
:1029A00061F08038BFEF9B0741F099234AF5FF3F64
:1029B000E1053105210519F1E8940894E795D9015D
:1029C000AA2329F4AB2FBE2FF85FD0F310C0FF5F0E
:1029D00070F4A695E0F7F73950F019F0FF3A38F4A3
:1029E0009F779F930DD00F9007FC9058089546F065
:1029F0000C94021460E070E080E89FE308954FE7D4
:102A00009F775F934F933F932F930E94BA152F9117
:102A10003F914F915F910E9452140C94171529F425
:102A200016F00C94FC130C9446140C9402140E949F
:102A30002C14A8F39638A0F707F80F92E8942BE32C
:102A40003AEA48EB5FE70E9468140F920F920F92E8
:102A50004DB75EB70F920E940216ECE7F0E00E94BD
:102A600049154F915F91EF91FF91E595EE1FFF1F83
:102A700049F0FE57E0684427EE0F441FFA95E1F74E
:102A80004195550B0E947C150F9007FE0C94701514
:102A90000895DF93CF931F930F93FF92EF92DF92EE
:102AA0007B018C01689406C0DA2EEF010E94651448
:102AB000FE01E894A5912591359145915591A6F394
:102AC000EF010E949912FE019701A801DA9469F7BB
:102AD000DF90EF90FF900F911F91CF91DF910895BC
:102AE0009B01AC0160E070E080E89FE30C94F3127E
:102AF0000C94FC130C9436160E942C14D8F39923D2
:102B0000C9F3940F511DA3F39150504094F059F024
:102B1000882332F0660F771F881F91505040C1F70D
:102B20009E3F51052CF7880F911D9695879597F933
:102B300008955F3FACF0983E9CF0BB278695779553
:102B40006795B79508F4B1609395C1F7BB0F58F737
:102B500011F460FFE8CF6F5F7F4F8F4F9F4FE3CF40
:102B60000C94471416F00C9436160C9402146894C6
:102B70000C94FC130E942C14A8F39923C1F3AEF318
:102B8000DF93CF931F930F93FF92C92FDD278823E5
:102B90002AF02197660F771F881FDAF720E030E0D0
:102BA00040E85FEB9FE3883920F0803E38F02196C3
:102BB0008F770E948212E4EAF0E004C00E94821241
:102BC000E1EDF0E00E9449158B01BE01EC01FB2E06
:102BD0006F5771097595771F880B990B0E949D138C
:102BE00028E132E741E35FE30E946514AF2D9801CD
:102BF000AE01FF900F911F91CF91DF910E9499122A
:102C00000C941314FA01DC01AA0FBB1F9B01AC0149
:102C1000BF5728F4222733274427507820C0B751C4
:102C200090F4AB2F0024469537952795011CA3956A
:102C3000D2F3002071F0220F331F441FB395DAF353
:102C40000ED00C94811261307105A0E88A07B94654
:102C500030F49B01AC01662777278827907830965F
:102C600021F0208331834283538308959F3F31F0C5
:102C7000915020F4879577956795B795880F911DAA
:102C80009695879597F9089597FB072E16F400946B
:102C900007D077FD09D00E94801607FC05D03EF4CE
:102CA000909581959F4F0895709561957F4F0895F8
:102CB000A1E21A2EAA1BBB1BFD010DC0AA1FBB1F40
:102CC000EE1FFF1FA217B307E407F50720F0A21BB2
:102CD000B30BE40BF50B661F771F881F991F1A941F
:102CE00069F760957095809590959B01AC01BD0149
:102CF000CF010895EE0FFF1F0590F491E02D099488
:102D0000AA1BBB1B51E107C0AA1FBB1FA617B70711
:102D100010F0A61BB70B881F991F5A95A9F780952D
:102D20009095BC01CD01089581E090E0F8940C9459
:102D30008319AEE0B0E0EFE9F6E10C945A190D8981
:102D40001E8986E08C831A8309838FEF9FE79E8319
:102D50008D83AE01475E5F4F6F89788DCE010196FE
:102D60000E94BB16EF81F885E00FF11F10822E96AE
:102D7000E4E00C947619ABE0B0E0E1ECF6E10C9401
:102D80004C196C017B018A01FC0117821682838138
:102D900081FFCCC1CE0101963C01F6019381F70180
:102DA00093FD859193FF81917F01882309F4BAC136
:102DB000853239F493FD859193FF81917F018532AE
:102DC00029F4B60190E00E94B218E7CF912C212C93
:102DD000312CFFE1F315D8F08B3279F038F48032E2
:102DE00079F08332A1F4232D20611DC08D3261F072
:102DF000803369F4232D216016C0832D8260382E24
:102E0000E32DE4603E2E2AC0F32DF8601DC037FC90
:102E10002DC020ED280F2A3040F08E32B9F436FC58
:102E200081C1232D2064322E19C036FE06C08AE0EF
:102E3000989E200D1124922E11C0EAE02E9E200DA6
:102E40001124222EF32DF0623F2E08C08C3621F47F
:102E5000832D8068382E02C0883641F4F70193FD37
:102E6000859193FF81917F018111B3CF982F9F7D31
:102E70009554933028F40C5F1F4F9FE399830DC046
:102E8000833631F0833771F0833509F059C021C0A2
:102E9000F801808189830E5F1F4F88248394912CD1
:102EA000530113C02801F2E04F0E511CF801A0801D
:102EB000B18036FE03C0692D70E002C06FEF7FEF76
:102EC000C5010E94A7184C018201F32DFF773F2E08
:102ED00016C0280122E0420E511CF801A080B180EA
:102EE00036FE03C0692D70E002C06FEF7FEFC501B1
:102EF0000E949C184C01F32DF0683F2E820133FC98
:102F00001BC0822D90E088169906B0F4B60180E2CD
:102F100090E00E94B2182A94F4CFF50137FC859115
:102F200037FE81915F01B60190E00E94B218211036
:102F30002A9421E0821A91088114910471F7E8C063
:102F4000843611F0893641F5F80137FE07C06081FB
:102F50007181828193810C5F1F4F08C060817181F4
:102F6000072E000C880B990B0E5F1F4FF32DFF7679
:102F70003F2E97FF09C090958095709561957F4F82
:102F80008F4F9F4FF0683F2E2AE030E0A3010E9450
:102F9000EE18882E861845C0853731F4232D2F7EF4
:102FA000B22E2AE030E025C0932D997FB92E8F36BE
:102FB000C1F018F4883579F0B5C0803719F088373A
:102FC00021F0B0C0E92FE061BE2EB4FE0DC0FB2D94
:102FD000F460BF2E09C034FE0AC0292F2660B22E2D
:102FE00006C028E030E005C020E130E002C020E16A
:102FF00032E0F801B7FE07C0608171818281938160
:103000000C5F1F4F06C06081718180E090E00E5F11
:103010001F4FA3010E94EE18882E8618FB2DFF7704
:103020003F2E36FE0DC0232D2E7FA22E891458F47C
:1030300034FE0BC032FC09C0832D8E7EA82E05C045
:10304000B82CA32C03C0B82C01C0B92CA4FE0FC00F
:10305000FE01E80DF11D8081803321F49A2D997EC7
:10306000A92E09C0A2FE06C0B394B39404C08A2D51
:10307000867809F0B394A3FC11C0A0FE06C0B21478
:1030800088F4280C922C9B180EC0B21460F4B60180
:1030900080E290E00E94B218B394F7CFB21418F413
:1030A0002B1802C0982C212CA4FE10C0B60180E37E
:1030B00090E00E94B218A2FE17C0A1FC03C088E7EE
:1030C00090E002C088E590E0B6010CC08A2D8678B9
:1030D00059F0A1FE02C08BE201C080E2A7FC8DE2A4
:1030E000B60190E00E94B218891438F4B60180E36A
:1030F00090E00E94B2189A94F7CF8A94F301E80DF9
:10310000F11D8081B60190E00E94B2188110F5CFC8
:10311000222009F442CEB60180E290E00E94B2186B
:103120002A94F6CFF6018681978102C08FEF9FEF38
:103130002B96E2E10C946819FC01059061507040F7
:103140000110D8F7809590958E0F9F1F0895FC0170
:103150006150704001900110D8F7809590958E0FC6
:103160009F1F08950F931F93CF93DF93FB0123813C
:1031700021FD03C08FEF9FEF2CC022FF16C04681B8
:103180005781248135814217530744F4A081B181CE
:103190009D012F5F3F4F318320838C9326813781A0
:1031A0002F5F3F4F3783268314C08B01EC01FB0157
:1031B0000084F185E02D0995892BE1F6D80116965A
:1031C0008D919C911797019617969C938E931697C5
:1031D000CE01DF91CF911F910F910895FA01AA2797
:1031E000283051F1203181F1E8946F936E7F6E5F4A
:1031F0007F4F8F4F9F4FAF4FB1E03ED0B4E03CD0F8
:10320000670F781F891F9A1FA11D680F791F8A1FDA
:10321000911DA11D6A0F711D811D911DA11D20D041
:1032200009F468943F912AE0269F11243019305DFB
:103230003193DEF6CF010895462F4770405D4193EC
:10324000B3E00FD0C9F7F6CF462F4F70405D4A3339
:1032500018F0495D31FD4052419302D0A9F7EACF01
:10326000B4E0A6959795879577956795BA95C9F730
:1032700000976105710508959B01AC010A2E069423
:103280005795479537952795BA95C9F7620F731FDC
:10329000841F951FA01D08952F923F924F925F9219
:1032A0006F927F928F929F92AF92BF92CF92DF9256
:1032B000EF92FF920F931F93CF93DF93CDB7DEB7BB
:1032C000CA1BDB0B0FB6F894DEBF0FBECDBF09944F
:1032D0002A88398848885F846E847D848C849B84A6
:1032E000AA84B984C884DF80EE80FD800C811B81B4
:1032F000AA81B981CE0FD11D0FB6F894DEBF0FBEE3
:0A330000CDBFED010895F894FFCF52
:10330A000100F401000017B7D138013F065B4F6690
:10331A006D7D077F6F777C395E7971000000006AE6
:10332A0001D7000101B70132011001240100000098
:10333A00002E022302400215021C02190216027311
:10334A007769746368696E6720666F726D2073743B
:10335A0061746520256420746F207374617465201C
:10336A0025640D0A0063757272656E745F6D65611E
:10337A007375726D656E745F7265736973746F725B
:06338A002025640D0A007D
:00000001FF
