:100000000C94AD000C94D5000C94D5000C94D50044
:100010000C94D5000C94D5000C94D5000C94D5000C
:100020000C94D5000C94D5000C94D5000C94D500FC
:100030000C94D5000C94D5000C94D5000C94D500EC
:100040000C94C1060C94D5000C9426030C94000368
:100050000C94D5000C94D5000C94D5000C94D500CC
:100060000C9458030C94D500350CD20C0C0C890C54
:10007000BD0D1F0EF20D4E0E770E2C0D076342368E
:10008000B79BD8A71A39685618AEBAAB558C1D3C29
:10009000B7CC5763BD6DEDFD753EF6177231BF00ED
:1000A0000000803F08000000BE922449123EABAA27
:1000B000AA2ABECDCCCC4C3E00000080BEABAAAA82
:1000C000AA3E00000000BF000000803F00000000CA
:1000D00000084178D3BB4387D1133D190E3CC3BD03
:1000E0004282AD2B3E68EC8276BED98FE1A93E4CB0
:1000F00080EFFFBE01C4FF7F3F0000000000000052
:100100000000240027002A0000000000250028002D
:100110002B00000000002300260029000404040432
:1001200004040404020202020202030303030303A1
:10013000010204081020408001020408102001027E
:10014000040810200000000800020100000304075A
:1001500000000000000000003F0F11241FBECFEF81
:10016000D8E0DEBFCDBF11E0A0E0B1E0E2E3FDE208
:1001700002C005900D92A636B107D9F722E0A6E697
:10018000B1E001C01D92A43FB207E1F710E0CDEA53
:10019000D0E004C02197FE010E948E13CC3AD10713
:1001A000C9F70E940B070C9497160C940000CF928D
:1001B000DF92EF92FF920F931F93CF93DF936C0127
:1001C0007A018B01C0E0D0E0CE15DF0581F0D801C7
:1001D0006D918D01D601ED91FC910190F081E02DA2
:1001E000C6010995892B11F02196EECF7E01C7013A
:1001F000DF91CF911F910F91FF90EF90DF90CF9003
:100200000895FC01538D448D252F30E0842F90E01C
:10021000821B930B541710F0CF9608950197089501
:10022000FC01918D828D981761F0828DDF01A80FFE
:10023000B11D5D968C91928D9F5F9F73928F90E020
:1002400008958FEF9FEF0895FC01918D828D98178F
:1002500031F0828DE80FF11D858D90E008958FEFCC
:100260009FEF0895FC01918D228D892F90E0805C95
:100270009F4F821B91098F739927089585E392E020
:100280000E94320121E0892B09F420E0822F089599
:10029000FC01848DDF01A80FB11DA35ABF4F2C9123
:1002A000848D90E001968F739927848FA689B789F2
:1002B0002C93A089B1898C91837080648C93938DE9
:1002C000848D981306C00288F389E02D80818F7D8C
:1002D00080830895EF92FF920F931F93CF93DF9344
:1002E000EC0181E0888F9B8D8C8D981305C0E88987
:1002F000F989808185FD26C0F62E0B8D10E00F5FF9
:100300001F4F0F731127E02E8C8DE8120CC00FB613
:1003100007FCFACFE889F989808185FFF5CFCE0106
:100320000E944801F1CF8B8DFE01E80FF11DE35AC9
:10033000FF4FF0829FB7F8940B8FEA89FB89808189
:1003400080620AC09FB7F894EE89FF896083E889CC
:10035000F98980818370806480839FBF81E090E011
:10036000DF91CF911F910F91FF90EF900895CF9360
:10037000DF93EC01888D8823C9F0EA89FB898081AD
:1003800085FD05C0A889B9898C9186FD0FC00FB67F
:1003900007FCF5CF808185FFF2CFA889B9898C91C0
:1003A00085FFEDCFCE010E944801E7CFDF91CF91CD
:1003B000089580E090E0892B29F00E943E01811190
:1003C0000C940000089585ED8093BC008091BC00E2
:1003D00084FDFCCF1092AB01089540918701262F38
:1003E00030E0240F311D21323105DCF42091AB01C6
:1003F0002430C9F4FC0180E090E0861758F4309175
:1004000087012191DC01A959BE4FA30FB11D2C9387
:100410000196F3CF80918701680F6093870180E098
:10042000089581E0089582E0089508958FEF9FEF89
:1004300008958FEF9FEF08958091660190E0919568
:10044000819591090895CF93DF93CB01EA01642F41
:100450000E94ED01CE01DF91CF910895CF93DF93FC
:100460001F92CDB7DEB7698361E0CE0101960E948D
:10047000ED0181E090E00F90DF91CF910895089514
:1004800080E090E00895EF92FF921F93CF93DF9367
:10049000182F9B01FA018FE38383EA0124968AE0F7
:1004A000E82EF12CC901B7010E945813DC01A55FA9
:1004B000BE4F8C918A932A30310524F09B01CE17D0
:1004C000DF0781F711111083DF91CF911F91FF900A
:1004D000EF9008950E94A813EF92FF920F931F933D
:1004E000CF93DF93CDB7DEB7C054D1090FB6F894E0
:1004F000DEBF0FBECDBF8C018091E6019091E70178
:100500008017910709F11F930F939F938F938FE3A8
:1005100091E09F938F93CE0101967C019F938F93DF
:100520000E94AD13F70101900020E9F73197AF0168
:100530004E195F09B70185E392E00E94D7000FB61C
:10054000F894DEBF0FBECDBF1093E7010093E60124
:10055000C05CDF4F0FB6F894DEBF0FBECDBFDF919A
:10056000CF911F910F91FF90EF9008958F929F92DE
:10057000AF92BF92FF920F931F93CF93DF93F82E0A
:100580004A015B01E901B901330F880B990B0E9405
:10059000B1109B01AC0160E070E080E291E40E9448
:1005A000D311A50194010E9466110E947910C430F4
:1005B000D10578F0A8018F2D0E944302C430D105E7
:1005C000A8F40C1B1D0BF801339680818068808392
:1005D0000DC0F801349640E050E022912F63208353
:1005E0004F5F5F4FC417D507C4F7E4CFDF91CF91BA
:1005F0001F910F91FF90BF90AF909F908F900895A3
:100600001F920F920FB60F9211242F933F934F9387
:100610005F936F937F938F939F93AF93BF93EF936A
:10062000FF9385E392E00E944801FF91EF91BF9113
:10063000AF919F918F917F916F915F914F913F917A
:100640002F910F900FBE0F901F9018951F920F9231
:100650000FB60F9211242F938F939F93EF93FF93D5
:10066000E0914502F09146028081E0914B02F091C9
:100670004C0282FD12C0908180914E028F5F8F7379
:1006800020914F02821751F0E0914E02F0E0EB5CB6
:10069000FD4F958F80934E0201C08081FF91EF91B5
:1006A0009F918F912F910F900FBE0F901F901895D3
:1006B0001F920F920FB60F9211242F933F934F93D7
:1006C0005F936F937F938F939F93AF93BF93EF93BA
:1006D000FF938091B900887F803609F49CC068F54B
:1006E000883209F45BC090F4803109F454C038F4C6
:1006F000882309F4F2C0883009F44DC0F2C0883173
:1007000009F44CC0803209F45DC0EBC0803409F4B8
:1007100068C048F4803309F455C0883309F0E1C05B
:100720008093AA01D4C0803509F44FC0883509F4FC
:100730005DC0883409F0D5C0D2C0883909F4C3C07F
:10074000A8F4883709F467C038F4883609F463C020
:10075000803709F460C0C5C0883809F4B4C0803956
:1007600009F45FC0803809F0BCC05BC0803B09F46D
:1007700084C038F4803A09F466C0883A09F47DC030
:10078000B0C0803C09F4A3C0883C09F4A0C0883BF9
:1007900009F486C0A6C08091D00110C09091CF010D
:1007A0008091CE01981770F5E091CF0181E08E0F16
:1007B0008093CF01F0E0E255FE4F80818093BB0033
:1007C00085EC82C08093AA018AC0E091CF0181E0CC
:1007D0008E0F8093CF018091BB00F0E0E255FE4F79
:1007E00080839091CF018091CE016AC0E091CF01CA
:1007F00081E08E0F8093CF018091BB00F0E0E25545
:10080000FE4F80838091AD01811169C081E08093AA
:10081000AC0184EA5DC083E08093AB011092A90132
:10082000CFCF8091A901803208F04DC0E091A9019D
:1008300081E08E0F8093A9018091BB00F0E0E75723
:10084000FE4F8083BDCF85EC8093BC001092AB013E
:100850008091A901803230F4E091A901F0E0E757DE
:10086000FE4F10826091A90170E089E891E0E0E01C
:10087000F0E009951092A90134C084E08093AB01A7
:100880001092880110928701E0E0F0E009958091D4
:100890008701811105C081E0809387011092670173
:1008A000E091880181E08E0F80938801F0E0E959A2
:1008B000FE4F80818093BB009091880180918701D9
:1008C000981708F47DCF85E88093BC000AC085ECBA
:1008D0008093BC001092AB0104C01092AA010E9448
:1008E000E301FF91EF91BF91AF919F918F917F9124
:1008F0006F915F914F913F912F910F900FBE0F908D
:100900001F9018958091D5029091D6028230910562
:1009100038F0880F991F880F991F05970197F1F7F5
:100920000895833081F028F4813099F08230A1F06D
:1009300008958730A9F08830B9F08430D1F48091DF
:1009400080008F7D03C0809180008F77809380002E
:10095000089584B58F7702C084B58F7D84BD0895D6
:100960008091B0008F7703C08091B0008F7D80931D
:10097000B0000895EDE0F2E0119222E0E533F207D5
:10098000D9F7A1E1B2E0FC019F01281B390B261722
:1009900037071CF421912D93F7CF08951F93CF9320
:1009A000DF93282F30E0F901EC5BFE4F8491F901D1
:1009B000E05DFE4FD491F901E45EFE4FC491CC237B
:1009C000C1F0162F81110E949104EC2FF0E0EE0F80
:1009D000FF1FE85FFE4FA591B4919FB7F8941111E6
:1009E00004C08C91D095D82302C0EC91DE2BDC930F
:1009F0009FBFDF91CF911F910895CF93DF9390E038
:100A0000FC01E05DFE4F2491FC01E45EFE4F849109
:100A1000882361F190E0880F991FFC01E250FF4F9D
:100A2000C591D491FC01E85FFE4FA591B49161118D
:100A300009C09FB7F8948881209582238883EC9120
:100A40002E230BC0623061F49FB7F8948881322F57
:100A5000309583238883EC912E2B2C939FBF06C067
:100A60008FB7F894E8812E2B28838FBFDF91CF9129
:100A70000895CF93DF93C2EDD2E061E089810E94B7
:100A8000FD040E94820460E088810E94FD040E94AF
:100A9000820460E089810E94FD04DF91CF910C9473
:100AA0008204CF93DF93D82FC8E061E08091D20217
:100AB0000E94FD040E948204D0FF02C060E001C0D9
:100AC00061E08091D3020E94FD040E94820460E0F4
:100AD0008091D2020E94FD040E948204D695C150EA
:100AE00021F761E08091D2020E94FD0460E08091D4
:100AF000D3020E94FD040E94820460E08091D20231
:100B00000E94FD040E9482042091D30230E0F9018A
:100B1000EC5BFE4F8491F901E05DFE4FD491F90149
:100B2000E45EFE4FC491CC2399F081110E949104A0
:100B3000EC2FF0E0EE0FFF1FEE5EFE4FA591B4919B
:100B4000EC91ED23C1E009F4C0E0C11107C001C080
:100B5000C0E061E08091D3020E94FD040E94820403
:100B600061E08091D2020E94FD040E9482048C2FD9
:100B70008170DF91CF91089561E08091D3020E944E
:100B8000FD040C9482040F931F93CF93DF938C0189
:100B90000E94BC0580E40E9451050E9439050E9414
:100BA000BC0580EC0E945105E8010C5F1F4F899144
:100BB0000E945105C017D107D1F70E9439050E9444
:100BC000BC058091D4028F7080580E945105DF913E
:100BD000CF911F910F910C9439058E3008F08E50F3
:100BE00020910A0190E4299F900111248770822BA3
:100BF00080937C0080917A00806480937A00809159
:100C00007A0086FDFCCF809178002091790090E0F9
:100C1000922B08954F925F926F927F928F929F9244
:100C2000AF92BF92CF92DF92EF92FF9280E10E944B
:100C3000ED05BC01990F880B990B0E94B11020E0C3
:100C400030E040E05FE30E94960F20E030E040EAB1
:100C500050E40E94661120E030E040E85AE30E9430
:100C6000661123E333E343E050E40E9466116B0115
:100C70007C0124EA30E74DE75FE36091E002709188
:100C8000E1028091E2029091E3020E9466114B0121
:100C90005C0185E10E94ED05BC01990F880B990B61
:100CA0000E94B1102AE037ED43E25CE30E94661136
:100CB000A50194010E94960F6093E0027093E102F7
:100CC0008093E2029093E30220E030E040E05FE3B3
:100CD0000E94960F20E030E040E85AE30E9466113F
:100CE00020E030E040E05FE30E94950F2B013C01E3
:100CF00026E636E646E65FE36091E4027091E5029F
:100D00008091E6029091E7020E9466114B015C011E
:100D10002DEC3CEC4CEC5DE3C301B2010E9466118A
:100D2000A70196010E94960F2DEC3CEC4CEC5DE384
:100D30000E9466119B01AC01C501B4010E94960F8F
:100D40006093E4027093E5028093E6029093E702D9
:100D5000FF90EF90DF90CF90BF90AF909F908F90DB
:100D60007F906F905F904F9008952FB7F8946091A7
:100D7000DC027091DD028091DE029091DF022FBFD4
:100D800008951F920F920FB60F9211242F933F9345
:100D90008F939F93AF93BF938091DC029091DD027C
:100DA000A091DE02B091DF023091DB0223E0230F3D
:100DB0002D3720F40196A11DB11D05C026E8230F93
:100DC0000296A11DB11D2093DB028093DC0290935B
:100DD000DD02A093DE02B093DF028091D7029091F2
:100DE000D802A091D902B091DA020196A11DB11DDD
:100DF0008093D7029093D802A093D902B093DA02DD
:100E0000BF91AF919F918F913F912F910F900FBE06
:100E10000F901F901895CF93DF93CDB7DEB7AD97A6
:100E20000FB6F894DEBF0FBECDBF789484B5826054
:100E300084BD84B5816084BD85B5826085BD85B57E
:100E4000816085BD80916E00816080936E001092FC
:100E50008100809181008260809381008091810077
:100E60008160809381008091800081608093800008
:100E70008091B10084608093B1008091B000816066
:100E80008093B00080917A00846080937A00809192
:100E90007A00826080937A0080917A0081608093EA
:100EA0007A0080917A00806880937A001092C10065
:100EB000E0914502F091460282E08083E091410298
:100EC000F09142021082E0914302F091440280E1ED
:100ED000808310924D02E0914902F0914A0286E02F
:100EE0008083E0914702F091480280818061808395
:100EF000E0914702F0914802808188608083E09110
:100F00004702F0914802808180688083E091470227
:100F1000F091480280818F7D808310920A0161E008
:100F20008BE00E94FD0461E08AE00E94FD0461E024
:100F300086E00E94FD0460E08EE00E94FD0460E017
:100F400080E10E94FD0460E082E10E94FD0460E017
:100F500083E10E94FD0482E10E94ED05892B39F4B2
:100F600083E10E94ED058F3F934009F456C78FE05F
:100F70008093D4020E940A0682E090E09093E701F9
:100F80008093E6011092DA011092DB011092DC01ED
:100F90001092DD0160E082E10E94FD0460E083E1E7
:100FA0000E94FD0460E082E10E94CE0460E083E1E3
:100FB0000E94CE0482E18093D20283E18093D30227
:100FC00084E690E09093D6028093D50298EB292E88
:100FD0009BE0392E24E6822E912CA12CB12CCE013F
:100FE00001969F8F8E8F8091DA019091DB01A09105
:100FF000DC01B091DD0188A399A3AAA3BBA38EE075
:101000000E94ED05BC01990F880B990B0E94B1104D
:1010100020E030E040E85AE30E94661120E030E032
:1010200040EA50E40E9466112DEC3CEC4CE450E4A4
:101030000E9407102AE037ED43E25CE30E9466114C
:101040006B017C0124EA30E74DE75FE368A179A1F9
:101050008AA19BA10E9466119B01AC01C701B60148
:101060000E94960F68A379A38AA39BA36093DA01D9
:101070007093DB018093DC019093DD0185E10E9498
:10108000ED05813293402CF08091D301882309F43F
:10109000C8C685E10E94ED05883C910524F4809145
:1010A000D3018111CBC68091D1019091D2010297D9
:1010B0001CF0B1E0B0930802E090D601F12CEFEF04
:1010C000EE1AFE0AEE0CFF1C8091E6019091E701FA
:1010D00081309105B1F03CF08230910509F49CC05B
:1010E000059709F466C00E94B506A50194010E9407
:1010F0006C13633371058105910508F443C061E009
:1011000042C026E636E646E051E460910601709161
:10111000070180910801909109010E94021087FF48
:1011200062C02DEC3CEC4CEC5DE368A179A18AA196
:101130009BA10E9461111816E4F50E94B50668A3F0
:1011400079A38AA39BA3C101B7010E9458139B01F5
:10115000770F440B550B68A179A18AA19BA10E942E
:101160006C138B019C018CED95E0B7010E94581324
:10117000CB01770FAA0BBB0B80179107A207B30710
:1011800008F4BDCF60E086E00E94CE040E940A060B
:101190000E94B5060091090210910A0220910B02EB
:1011A00030910C02061717072807390708F0B3C15A
:1011B0004CC00E94B50668A379A38AA39BA388E5C7
:1011C00092E0B7010E9458139B01770F440B550B17
:1011D00068A179A18AA19BA10E946C138B019C013B
:1011E0008CE291E0C2CF0E94B50668A379A38AA3DE
:1011F0009BA3C101B7010E9458139B01770F440BB9
:10120000550B68A179A18AA19BA10E946C138B0147
:101210009C0188EC90E0A9CF0E94B50668A379A351
:101220008AA39BA3C101B7010E9458139B01770FAA
:10123000440B550B68A179A18AA19BA10E946C1354
:101240008B019C0188E69BE090CF0E94B5060E942E
:10125000AF1068A379A38AA39BA38091E601909124
:10126000E7018230910509F4DFC08530910509F46A
:1012700018C1019709F03BC1C0900601D090070149
:10128000E0900801F090090120E030E040EA50E4ED
:10129000C701B6010E94021087FF05C08DEC9CECCF
:1012A000ACE4BEE30EC020E030E040E051E4C70112
:1012B000B6010E94021087FF0DC086E696E6A6EEF4
:1012C000BEE38093040290930502A0930602B093BC
:1012D000070221C02DEC3CEC44E051E4C701B6010B
:1012E0000E94021087FF05C08DEC9CECACECBEE3C5
:1012F000E8CF23E333E347E051E4C701B6010E949E
:10130000021087FDCBCF10920402109205021092BA
:101310000602109207022DEC3CEC4CE45EE3609177
:1013200004027091050280910602909107020E94CA
:10133000960F6093040270930502809306029093C7
:1013400007022091D601222371F02DEC3CEC4CE4F5
:101350005EE30E94960F60930402709305028093EF
:1013600006029093070220E030E048E051E4C70114
:10137000B6010E946111181644F4109204021092F2
:101380000502109206021092070220E030E04EE7BC
:1013900053E46091DE017091DF018091E001909152
:1013A000E1010E9461111816D4F42AE037ED43E2FE
:1013B0005CE36091DA017091DB018091DC01909136
:1013C000DD010E94021087FF0AC08091D401909134
:1013D000D50101969093D5018093D40104C0109259
:1013E000D5011092D4012DEC3CEC4CE450E4C70143
:1013F000B6010E94021087FD2DC50E94B50620ECA3
:1014000034ED41E050E00E946C13683E734081056A
:10141000910508F41FC58091D4019091D501893EB2
:1014200093400CF017C563C010920402109205029D
:1014300010920602109207020E940A066B017C01BC
:1014400020E030E0A9010E940210882349F0C092F8
:101450000601D0920701E0920801F09209010CC048
:101460008AE097EDA3E2BCE3809306019093070125
:10147000A0930801B09309012DEC3CEC4CE450E43E
:101480006091060170910701809108019091090116
:101490000E94021087FD2BC085E090E00E946C0244
:1014A000E5C41092040210920502109206021092F6
:1014B00007020E940A066093060170930701809359
:1014C0000801909309012DEC3CEC4CE450E40E949F
:1014D000021087FF04C082E090E00E946C0281E06D
:1014E00090E00E946C021092D5011092D40120E08D
:1014F00030E040E85FE368A179A18AA19BA10E9446
:10150000960F0E9479106093090270930A028093EB
:101510000B0290930C0280910802882341F061E055
:101520008BE00E94FD0460E08BE00E94CE04C0903E
:101530000402D0900502E0900602F090070220E03D
:1015400030E0A901C701B6010E940210882309F109
:10155000A70196016091DA017091DB018091DC01B5
:101560009091DD010E94950F9B01AC016091DE011D
:101570007091DF018091E0019091E1010E94950F4F
:101580006093DE017093DF018093E0019093E101AD
:1015900008C01092DE011092DF011092E00110925B
:1015A000E10120E030E04FE753E46091DE0170910B
:1015B000DF018091E0019091E1010E946111181614
:1015C00064F480E090E0AFE7B3E48093DE019093B1
:1015D000DF01A093E001B093E10120E030E0A90138
:1015E0006091DE017091DF018091E0019091E10155
:1015F0000E94021087FF08C01092DE011092DF01E6
:101600001092E0011092E10120910001309101015E
:1016100081E090E0821B930B909301018093000185
:101620006091DE017091DF018091E0019091E10114
:101630000E9479106B017C018B0161E08BE00E94BC
:10164000FD04C114D10411F460E004C00F3F110582
:1016500029F461E08BE00E94CE0443C0EFE4F1E0A6
:10166000E491E330F9F048F4E130B9F0E230A1F56B
:1016700084B5806284BDC8BC34C0E730E9F0E8308E
:1016800019F1E43049F580918000806280938000F8
:10169000D0928B00C0928A0024C084B5806884BD3B
:1016A000C7BC1FC080918000806880938000D0926A
:1016B0008900C092880015C08091B0008068809336
:1016C000B000C092B3000DC08091B00080628093E2
:1016D000B000C092B40005C0003811050CF0B9CFBD
:1016E000B3CF8091F4019091F501A091F601B091F2
:1016F000F70188A399A3AAA3BBA30E940A0620E02E
:1017000030E040E05FE30E9466116B017C0120E065
:1017100030E040E05FE368A179A18AA19BA10E942B
:1017200066119B01AC01C701B6010E94960F609340
:10173000F4017093F5018093F6019093F7011A8EEE
:101740001B8E1C8E1D8E8091EC0181110DC00E949C
:10175000B5066093E8017093E9018093EA019093E4
:10176000EB0191E09093EC01E090E601F090E7014D
:101770000E94B5060091E2011091E3012091E4017D
:101780003091E5010617170728073907C0F5609162
:10179000DE017091DF018091E0019091E1010E94F2
:1017A00079107DA76CA78091060190910701A09107
:1017B0000801B09109018CA39DA3AEA3BFA30E9411
:1017C0000A062B013C018091DA019091DB01A09186
:1017D000DC01B091DD0188A799A7AAA7BBA70E9449
:1017E000B506DC01CB0188539F4FAF4FBF4F8093AD
:1017F000E2019093E301A093E401B093E501E0914D
:10180000D9018E2F90E08A30910508F0A0C2FC012A
:10181000EC5CFF4F0C948E1385E1AE8DBF8D1D9255
:101820008A95E9F788E789838CE18A8380E58B8351
:101830008CE78C838CE58D838E838F839FE39887E1
:1018400089878A879B878C878D879E879F87888BD0
:10185000898B8A8B8B8B65E170E0CE0101960E94AB
:10186000BA0483E08093D90135C08CE0EE8DFF8D02
:1018700011928A95E9F78CE1898389E78A8380E56B
:101880008B8384E48C8380E18D838CE58E8384E577
:101890008F831E8A1F8A188E198E8E010A5E1F4F33
:1018A00021E030E04DEC5CEC6CEC7EE38CE10E94DE
:1018B000B6028E8989878F898A87888D8B87898DE3
:1018C0008C876CE070E0CE0101960E94BA04F1E0D2
:1018D000F093D9010E94B5066093E8017093E90185
:1018E0008093EA019093EB011092D8011092D701F6
:1018F0000E94B506DC01CB01845D9E4FAF4FBF4F08
:101900008093020190930301A0930401B093050119
:101910001EC20E94B50600910201109103012091A0
:10192000040130910501061717072807390708F544
:101930000E94B506DC01CB01C296A11DB11D8093AA
:10194000020190930301A0930401B0930501EDE01F
:10195000F2E089E292E0218121938E179F07D9F767
:101960008091D7019091D80101969093D8018093EE
:10197000D70180910D028A8F80910E028B8F80910A
:101980000F028C8F809110028D8F8DE092E00E946B
:10199000C3058091D7019091D8014D970CF4D7C120
:1019A00084E04DC00E94B506009102011091030130
:1019B0002091040130910501061717072807390700
:1019C00030F50E94B506DC01CB018C599F4FAF4F1B
:1019D000BF4F8093020190930301A0930401B09341
:1019E00005018091D7019091D8018C30910534F098
:1019F00001969093D8018093D70109C0EDE0F2E001
:101A00002181219322E0E932F207D1F7F1CF8091D1
:101A10000D028A8F80910E028B8F80910F028C8F26
:101A2000809110028D8F8DE092E00E94C30580911D
:101A3000D7019091D80181970CF489C189E08093F6
:101A4000D9010E94B5066093E8017093E901809383
:101A5000EA019093EB017BC10E94B5060091E80179
:101A60001091E9012091EA013091EB01DC01CB01F9
:101A7000801B910BA20BB30B85399141A105B105D8
:101A800068F084E08093D9010E94B5066093E80174
:101A90007093E9018093EA019093EB010E94B506EF
:101AA000C090E801D090E901E090EA01F090EB01EC
:101AB000DC01CB018C199D09AE09BF098C3D954015
:101AC000A105B10540F48EE38A8F8CE58B8F88E306
:101AD0008C8F88E750C00E94B506DC01CB018C19C1
:101AE0009D09AE09BF09883B9B40A105B10530F4B3
:101AF00088E38A8F89E78B8F9CE13CC00E94B50602
:101B0000DC01CB018C199D09AE09BF0984399141D3
:101B1000A105B10538F489E38A8F8CE18B8F80E5CC
:101B20008C8F29C00E94B506DC01CB018C199D0960
:101B3000AE09BF0980379741A105B10540F48CE596
:101B40008A8F8CE18B8F88E78C8F83E714C00E948B
:101B5000B506DC01CB018C199D09AE09BF098C3497
:101B60009D41A105B10508F0F2C08DE28A8F88E79A
:101B70008B8F97E79C8F8D8FEAC00E94B5060091EE
:101B8000E8011091E9012091EA013091EB01DC01BB
:101B9000CB01801B910BA20BB30B893B9B40A10592
:101BA000B10568F086E08093D9010E94B506609384
:101BB000E8017093E9018093EA019093EB01809131
:101BC00008028E01065E1F4F882331F024E030E0CA
:101BD000B301A20180E05FC022E030E0B301A201C6
:101BE0008EE359C00E94B5060091E8011091E90109
:101BF0002091EA013091EB01DC01CB01801B910BBC
:101C0000A20BB30B893B9B40A105B10568F085E0B1
:101C10008093D9010E94B5066093E8017093E901B1
:101C20008093EA019093EB018E01065E1F4F22E044
:101C300030E04CA15DA16EA17FA188E32CC00E9481
:101C4000B5060091E8011091E9012091EA01309177
:101C5000EB01DC01CB01801B910BA20BB30B893B89
:101C60009B40A105B10568F084E08093D9010E94F2
:101C7000B5066093E8017093E9018093EA019093BF
:101C8000EB018E01065E1F4F23E030E048A559A509
:101C90006AA57BA589E30E94B60259C00E94B506D9
:101CA0000091E8011091E9012091EA013091EB01E6
:101CB000DC01CB01801B910BA20BB30B893B9B403A
:101CC000A105B10568F088E08093D9010E94B506AE
:101CD0006093E8017093E9018093EA019093EB012E
:101CE000AE01465E5F4F6CA57DA58CE52EC00E94BF
:101CF000B5060091E8011091E9012091EA013091C7
:101D0000EB01DC01CB01801B910BA20BB30B893BD8
:101D10009B40A105B105A0F084E08093D90180919A
:101D2000D601882319F082E08093D9010E94B5067C
:101D30006093E8017093E9018093EA019093EB01CD
:101D4000AE01465E5F4FB7018DE20E944302809173
:101D5000D601882361F00E94B506A50194010E9476
:101D60006C13633371058105910508F084C0CE01C1
:101D70004A960E94C3050E94B5060091E8011091A1
:101D8000E9012091EA013091EB01601771078207A8
:101D9000930750F40E94B5066093E8017093E9013F
:101DA0008093EA019093EB018091FC0181110DC0B9
:101DB0000E94B5066093F8017093F9018093FA01CF
:101DC0009093FB0121E02093FC01C090F801D0909A
:101DD000F901E090FA01F090FB018AE0C80ED11CF5
:101DE000E11CF11C0E94B506C61AD70AE80AF90AD6
:101DF0009BE0C916D104E104F10410F40E94B50679
:101E00000E94B5066093F8017093F9018093FA017E
:101E10009093FB010E94D901E6C881E08093D6012E
:101E2000A6C88091D1019091D20101969093D201E0
:101E30008093D101A1E0A093D3012BC98091D1015E
:101E40009091D20101969093D2018093D10110928A
:101E5000D30129C982E090E00E946C021092040232
:101E600010920502109206021092070220E030E064
:101E700046E953E440CB8D8D80688D8F78CFCF932A
:101E8000DF93E5E3F2E01382128288EE93E0A0E0B4
:101E9000B0E084839583A683B7832FE131E031835B
:101EA000208325EC30E03587248724EC30E0378729
:101EB000268720EC30E0318B208B21EC30E0338B17
:101EC000228B22EC30E0358B248B26EC30E0378BF4
:101ED000268B118E128E138E148EE8EEF2E0138292
:101EE000128284839583A683B78381E391E09183F3
:101EF0008083C2EDD2E082E1888383E1898384E636
:101F000090E09C838B8360E082E10E94FD0460E0AE
:101F100089810E94FD0460E088810E94CE0460E017
:101F20008981DF91CF910C94CE045058BB27AA270A
:101F30000E94AD0F0C9427110E94191138F00E94D5
:101F4000201120F039F49F3F19F426F40C94161157
:101F50000EF4E095E7FB0C941011E92F0E94381164
:101F600058F3BA17620773078407950720F079F4CE
:101F7000A6F50C945A110EF4E0950B2EBA2FA02D55
:101F80000B01B90190010C01CA01A0011124FF2726
:101F9000591B99F0593F50F4503E68F11A16F04021
:101FA000A22F232F342F4427585FF3CF4695379520
:101FB0002795A795F0405395C9F77EF41F16BA0BE5
:101FC000620B730B840BBAF09150A1F0FF0FBB1F93
:101FD000661F771F881FC2F70EC0BA0F621F731FDC
:101FE000841F48F4879577956795B795F7959E3F39
:101FF00008F0B0CF9395880F08F09927EE0F9795CA
:10200000879508950E94EC1008F481E008950E94DD
:102010001B100C9427110E94201158F00E941911D6
:1020200040F029F45F3F29F00C94101151110C94E9
:102030005B110C9416110E94381168F39923B1F3C7
:10204000552391F3951B550BBB27AA2762177307DE
:10205000840738F09F5F5F4F220F331F441FAA1F72
:10206000A9F335D00E2E3AF0E0E832D0915050402E
:10207000E695001CCAF72BD0FE2F29D0660F771FDC
:10208000881FBB1F261737074807AB07B0E809F0C2
:10209000BB0B802DBF01FF2793585F4F3AF09E3F47
:1020A000510578F00C9410110C945B115F3FE4F330
:1020B000983ED4F3869577956795B795F7959F5F8A
:1020C000C9F7880F911D9695879597F90895E1E0D6
:1020D000660F771F881FBB1F621773078407BA0735
:1020E00020F0621B730B840BBA0BEE1F88F7E09590
:1020F00008950E9480106894B1110C945B110895AA
:102100000E94401188F09F5798F0B92F9927B75136
:10211000B0F0E1F0660F771F881F991F1AF0BA958B
:10212000C9F714C0B13091F00E945A11B1E008957E
:102130000C945A11672F782F8827B85F39F0B93F70
:10214000CCF3869577956795B395D9F73EF490953E
:102150008095709561957F4F8F4F9F4F0895E894BC
:1021600009C097FB3EF490958095709561957F4FDF
:102170008F4F9F4F9923A9F0F92F96E9BB2793958D
:10218000F695879577956795B795F111F8CFFAF49D
:10219000BB0F11F460FF1BC06F5F7F4F8F4F9F4FCE
:1021A00016C0882311F096E911C0772321F09EE82C
:1021B000872F762F05C0662371F096E8862F70E092
:1021C00060E02AF09A95660F771F881FDAF7880F6C
:1021D0009695879597F90895990F0008550FAA0BC2
:1021E000E0E8FEEF16161706E807F907C0F012162A
:1021F0001306E407F50798F0621B730B840B950B2D
:1022000039F40A2661F0232B242B252B21F4089581
:102210000A2609F4A140A6958FEF811D811D08951E
:1022200097F99F6780E870E060E008959FEF80EC89
:10223000089500240A94161617061806090608952C
:1022400000240A9412161306140605060895092E92
:102250000394000C11F4882352F0BB0F40F4BF2B01
:1022600011F460FF04C06F5F7F4F8F4F9F4F089541
:1022700057FD9058440F551F59F05F3F71F0479537
:10228000880F97FB991F61F09F3F79F0879508951C
:10229000121613061406551FF2CF4695F1DF08C03B
:1022A000161617061806991FF1CF86957105610558
:1022B00008940895E894BB2766277727CB0197F900
:1022C00008950E94EC1008F48FEF08950E94791190
:1022D0000C9427110E94191138F00E94201120F04F
:1022E000952311F00C9410110C94161111240C94D8
:1022F0005B110E94381170F3959FC1F3950F50E068
:10230000551F629FF001729FBB27F00DB11D639FA7
:10231000AA27F00DB11DAA1F649F6627B00DA11D4D
:10232000661F829F2227B00DA11D621F739FB00DF3
:10233000A11D621F839FA00D611D221F749F332763
:10234000A00D611D231F849F600D211D822F762FFC
:102350006A2F11249F5750409AF0F1F088234AF0D9
:10236000EE0FFF1FBB1F661F771F881F9150504045
:10237000A9F79E3F510580F00C9410110C945B114D
:102380005F3FE4F3983ED4F3869577956795B795CC
:10239000F795E7959F5FC1F7FE2B880F911D9695E6
:1023A000879597F90895FA01EE0FFF1F30962105E2
:1023B0003105A1F16115710561F48038BFE39B0718
:1023C00049F168949038810561F08038BFEF9B0730
:1023D00041F099234AF5FF3FE1053105210519F147
:1023E000E8940894E795D901AA2329F4AB2FBE2FCE
:1023F000F85FD0F310C0FF5F70F4A695E0F7F739EF
:1024000050F019F0FF3A38F49F779F930DD00F905A
:1024100007FC9058089546F00C94161160E070E0A7
:1024200080E89FE308954FE79F775F934F933F9333
:102430002F930E94CE122F913F914F915F910E9456
:1024400066110C942B1229F416F00C9410110C94B4
:102450005A110C9416110E944011A8F39638A0F757
:1024600007F80F92E8942BE33AEA48EB5FE70E9403
:102470007C110F920F920F924DB75EB70F920E9490
:102480001613ECE7F0E00E945D124F915F91EF911F
:10249000FF91E595EE1FFF1F49F0FE57E0684427C6
:1024A000EE0F441FFA95E1F74195550B0E949012EB
:1024B0000F9007FE0C9484120895DF93CF931F931F
:1024C0000F93FF92EF92DF927B018C01689406C01C
:1024D000DA2EEF010E947911FE01E894A591259171
:1024E000359145915591A6F3EF010E94AD0FFE0184
:1024F0009701A801DA9469F7DF90EF90FF900F91B0
:102500001F91CF91DF9108959B01AC0160E070E0D5
:1025100080E89FE30C9407100C9410110C944A135C
:102520000E944011D8F39923C9F3940F511DA3F3CE
:102530009150504094F059F0882332F0660F771F85
:10254000881F91505040C1F79E3F51052CF7880FCE
:10255000911D9695879597F908955F3FACF0983E49
:102560009CF0BB27869577956795B79508F4B16081
:102570009395C1F7BB0F58F711F460FFE8CF6F5F79
:102580007F4F8F4F9F4FE3CF0C945B1116F00C944D
:102590004A130C94161168940C9410110E94401167
:1025A000A8F39923C1F3AEF3DF93CF931F930F9357
:1025B000FF92C92FDD2788232AF02197660F771F06
:1025C000881FDAF720E030E040E85FEB9FE38839CE
:1025D00020F0803E38F021968F770E94960FE4EA33
:1025E000F0E004C00E94960FE1EDF0E00E945D1261
:1025F0008B01BE01EC01FB2E6F5771097595771F9A
:10260000880B990B0E94B11028E132E741E35FE3A8
:102610000E947911AF2D9801AE01FF900F911F918B
:10262000CF91DF910E94AD0F0C942711FA01DC01CC
:10263000AA0FBB1F9B01AC01BF5728F422273327E9
:102640004427507820C0B75190F4AB2F0024469512
:1026500037952795011CA395D2F3002071F0220F26
:10266000331F441FB395DAF30ED00C94950F6130ED
:102670007105A0E88A07B94630F49B01AC016627D2
:10268000772788279078309621F020833183428302
:10269000538308959F3F31F0915020F487957795AB
:1026A0006795B795880F911D9695879597F9089529
:1026B00097FB072E16F4009407D077FD09D00E94EF
:1026C000941307FC05D03EF4909581959F4F089593
:1026D000709561957F4F0895A1E21A2EAA1BBB1B2E
:1026E000FD010DC0AA1FBB1FEE1FFF1FA217B307DE
:1026F000E407F50720F0A21BB30BE40BF50B661FF4
:10270000771F881F991F1A9469F7609570958095B7
:1027100090959B01AC01BD01CF010895EE0FFF1F05
:102720000590F491E02D0994AA1BBB1B51E107C051
:10273000AA1FBB1FA617B70710F0A61BB70B881F51
:10274000991F5A95A9F780959095BC01CD010895E0
:1027500081E090E0F8940C949716AEE0B0E0E3EBE3
:10276000F3E10C946E160D891E8986E08C831A8322
:1027700009838FEF9FE79E838D83AE01475E5F4F96
:102780006F89788DCE0101960E94CF13EF81F88575
:10279000E00FF11F10822E96E4E00C948A16ABE055
:1027A000B0E0E5EDF3E10C9460166C017B018A0169
:1027B000FC0117821682838181FFCCC1CE01019674
:1027C0003C01F6019381F70193FD859193FF81917F
:1027D0007F01882309F4BAC1853239F493FD8591CC
:1027E00093FF81917F01853229F4B60190E00E9428
:1027F000C615E7CF912C212C312CFFE1F315D8F031
:102800008B3279F038F4803279F08332A1F4232DC1
:1028100020611DC08D3261F0803369F4232D216069
:1028200016C0832D8260382EE32DE4603E2E2AC030
:10283000F32DF8601DC037FC2DC020ED280F2A3085
:1028400040F08E32B9F436FC81C1232D2064322E43
:1028500019C036FE06C08AE0989E200D1124922EE3
:1028600011C0EAE02E9E200D1124222EF32DF062DD
:102870003F2E08C08C3621F4832D8068382E02C08C
:10288000883641F4F70193FD859193FF81917F0193
:102890008111B3CF982F9F7D9554933028F40C5F0E
:1028A0001F4F9FE399830DC0833631F0833771F05A
:1028B000833509F059C021C0F801808189830E5FFA
:1028C0001F4F88248394912C530113C02801F2E0F8
:1028D0004F0E511CF801A080B18036FE03C0692D57
:1028E00070E002C06FEF7FEFC5010E94BB154C0185
:1028F0008201F32DFF773F2E16C0280122E0420E01
:10290000511CF801A080B18036FE03C0692D70E033
:1029100002C06FEF7FEFC5010E94B0154C01F32D8F
:10292000F0683F2E820133FC1BC0822D90E0881698
:102930009906B0F4B60180E290E00E94C6152A9490
:10294000F4CFF50137FC859137FE81915F01B60127
:1029500090E00E94C61521102A9421E0821A910865
:102960008114910471F7E8C0843611F0893641F57D
:10297000F80137FE07C060817181828193810C5F0D
:102980001F4F08C060817181072E000C880B990BC6
:102990000E5F1F4FF32DFF763F2E97FF09C09095D6
:1029A0008095709561957F4F8F4F9F4FF0683F2EB8
:1029B0002AE030E0A3010E940216882E861845C046
:1029C000853731F4232D2F7EB22E2AE030E025C04A
:1029D000932D997FB92E8F36C1F018F4883579F090
:1029E000B5C0803719F0883721F0B0C0E92FE06119
:1029F000BE2EB4FE0DC0FB2DF460BF2E09C034FE08
:102A00000AC0292F2660B22E06C028E030E005C09B
:102A100020E130E002C020E132E0F801B7FE07C05B
:102A200060817181828193810C5F1F4F06C060813C
:102A3000718180E090E00E5F1F4FA3010E9402169B
:102A4000882E8618FB2DFF773F2E36FE0DC0232DD6
:102A50002E7FA22E891458F434FE0BC032FC09C01C
:102A6000832D8E7EA82E05C0B82CA32C03C0B82CB5
:102A700001C0B92CA4FE0FC0FE01E80DF11D80813C
:102A8000803321F49A2D997EA92E09C0A2FE06C09A
:102A9000B394B39404C08A2D867809F0B394A3FC50
:102AA00011C0A0FE06C0B21488F4280C922C9B180A
:102AB0000EC0B21460F4B60180E290E00E94C61528
:102AC000B394F7CFB21418F42B1802C0982C212C11
:102AD000A4FE10C0B60180E390E00E94C615A2FEDD
:102AE00017C0A1FC03C088E790E002C088E590E031
:102AF000B6010CC08A2D867859F0A1FE02C08BE287
:102B000001C080E2A7FC8DE2B60190E00E94C615EC
:102B1000891438F4B60180E390E00E94C6159A94B7
:102B2000F7CF8A94F301E80DF11D8081B60190E0A2
:102B30000E94C6158110F5CF222009F442CEB601BD
:102B400080E290E00E94C6152A94F6CFF6018681B5
:102B5000978102C08FEF9FEF2B96E2E10C947C16D9
:102B6000FC010590615070400110D8F78095909558
:102B70008E0F9F1F0895FC0161507040019001105D
:102B8000D8F7809590958E0F9F1F08950F931F93F0
:102B9000CF93DF93FB01238121FD03C08FEF9FEFD4
:102BA0002CC022FF16C046815781248135814217EF
:102BB000530744F4A081B1819D012F5F3F4F3183C2
:102BC00020838C93268137812F5F3F4F3783268365
:102BD00014C08B01EC01FB010084F185E02D099507
:102BE000892BE1F6D80116968D919C911797019645
:102BF00017969C938E931697CE01DF91CF911F91DC
:102C00000F910895FA01AA27283051F1203181F15E
:102C1000E8946F936E7F6E5F7F4F8F4F9F4FAF4FE4
:102C2000B1E03ED0B4E03CD0670F781F891F9A1FF7
:102C3000A11D680F791F8A1F911DA11D6A0F711DAB
:102C4000811D911DA11D20D009F468943F912AE0B7
:102C5000269F11243019305D3193DEF6CF0108959F
:102C6000462F4770405D4193B3E00FD0C9F7F6CFD0
:102C7000462F4F70405D4A3318F0495D31FD405298
:102C8000419302D0A9F7EACFB4E0A695979587952E
:102C900077956795BA95C9F700976105710508950D
:102CA0009B01AC010A2E06945795479537952795B9
:102CB000BA95C9F7620F731F841F951FA01D089551
:102CC0002F923F924F925F926F927F928F929F923C
:102CD000AF92BF92CF92DF92EF92FF920F931F932A
:102CE000CF93DF93CDB7DEB7CA1BDB0B0FB6F894DB
:102CF000DEBF0FBECDBF09942A88398848885F841B
:102D00006E847D848C849B84AA84B984C884DF808B
:102D1000EE80FD800C811B81AA81B981CE0FD11D6F
:102D20000FB6F894DEBF0FBECDBFED010895F89445
:022D3000FFCFD3
:102D32000100F401000017B7D138013F065B4F666E
:102D42006D7D077F6F777C395E7971000000006AC4
:102D520001D7000101B70132011001240100000076
:102D6200002E022302400215021C021902160273EF
:102D72007769746368696E6720666F726D20737419
:102D820061746520256420746F20737461746520FA
:062D920025640D0A00009B
:00000001FF
