:100000000C9462000C940E150C94E7140C948A0066
:100010000C948A000C948A000C948A000C948A0038
:100020000C948A000C948A000C948A000C948A0028
:100030000C948A000C948A000C948A000C948A0018
:100040000C949D140C948A000C946B140C9445141D
:100050000C948A000C948A000C948A000C948A00F8
:100060000C948A000C948A000000000024002700F1
:100070002A0000000000250028002B0000000000DE
:1000800023002600290004040404040404040202DA
:100090000202020203030303030301020408102007
:1000A0004080010204081020010204081020000012
:1000B0000008000201000003040700000000000027
:1000C0000000351511241FBECFEFD8E0DEBFCDBF35
:1000D00026E0AEE1B4E001C01D92A235B207E1F71F
:1000E00014E0A0E0B1E0E8EFF2E502C005900D9267
:1000F000AE31B107D9F710E0C2E6D0E004C02197D5
:10010000FE010E94AC26C136D107C9F70E944817EC
:100110000C947A290C9400008F929F92AF92BF9218
:10012000CF92DF92EF92FF920F931F93CF93DF93C3
:10013000FC0169017A01E801CC0FDD1FC758DA4FD5
:10014000888199810E9457269983888340918205EE
:100150005091830560918405709185054601570192
:10016000841A950AA60AB70A9C01220F331FE20FD0
:10017000F31F40815181052E000C660B770B48154B
:1001800059056A057B05D0F4019699838883C0924E
:100190008205D0928305E0928405F092850591E076
:1001A00090938105F801EE0FFF1FE00FF11FE15A58
:1001B000FA4F80FF10C016861786108ADF91CF9104
:1001C0001F910F91FF90EF90DF90CF90BF90AF9075
:1001D0009F908F90089584898687858987878689EF
:1001E000808BECCF80E991E00895AF92BF92CF92DF
:1001F000DF92EF92FF920F931F93CF93DF936C01E7
:100200007B018B01040F151FEB015E01AE18BF08C7
:10021000C017D10759F06991D601ED91FC91019079
:10022000F081E02DC6010995892B79F7C501DF9191
:10023000CF911F910F91FF90EF90DF90CF90BF90E3
:10024000AF900895FC01538D448D252F30E0842F0D
:1002500090E0821B930B541710F0CF9608950197EE
:100260000895FC01918D828D981761F0A28DAE0FDB
:10027000BF2FB11D5D968C91928D9F5F9F73928F62
:1002800090E008958FEF9FEF0895FC01918D828D8E
:10029000981731F0828DE80FF11D858D90E008955B
:1002A0008FEF9FEF0895FC01918D228D892F90E0B3
:1002B000805C9F4F821B91098F73992708958DEA67
:1002C00094E00E94530121E0892B09F420E0822F61
:1002D000089580E090E0892B29F00E945F01811150
:1002E0000C9400000895FC01A48DA80FB92FB11D36
:1002F000A35ABF4F2C91848D90E001968F7399275C
:10030000848FA689B7892C93A089B1898C91837039
:1003100080648C93938D848D981306C00288F38932
:10032000E02D80818F7D80830895EF92FF920F935F
:100330001F93CF93DF93EC0181E0888F9B8D8C8D91
:1003400098131AC0E889F989808185FF15C09FB785
:10035000F894EE89FF896083E889F9898081837048
:10036000806480839FBF81E090E0DF91CF911F91F7
:100370000F91FF90EF900895F62E0B8D10E00F5F18
:100380001F4F0F731127E02E8C8D8E110CC00FB6EE
:1003900007FCFACFE889F989808185FFF5CFCE0186
:1003A0000E947301F1CFEB8DEC0FFD2FF11DE35A8D
:1003B000FF4FF0829FB7F8940B8FEA89FB89808109
:1003C0008062CFCFCF93DF93EC01888D8823B9F083
:1003D000AA89BB89E889F9898C9185FD03C0808150
:1003E00086FD0DC00FB607FCF7CF8C9185FFF2CFCD
:1003F000808185FFEDCFCE010E947301E9CFDF91AF
:10040000CF910895833081F028F4813099F08230C3
:10041000A9F008958730A9F08830C9F08430B1F48C
:10042000809180008F7D03C0809180008F778093C2
:100430008000089584B58F7784BD089584B58F7D3D
:10044000FBCF8091B0008F778093B00008958091AA
:10045000B0008F7DF9CFCF93DF93282F30E0F901E3
:10046000E255FF4F8491F901E656FF4FD491F9010F
:10047000EA57FF4FC491CC23A1F081110E940202E0
:10048000EC2FF0E0EE0FFF1FE458FF4FA591B49161
:10049000EC91ED2381E090E009F480E0DF91CF91D1
:1004A000089580E090E0FACF1F93CF93DF93282F39
:1004B00030E0F901E255FF4F8491F901E656FF4F14
:1004C000D491F901EA57FF4FC491CC23A9F0162F1C
:1004D00081110E940202EC2FF0E0EE0FFF1FEE5898
:1004E000FF4FA591B4918FB7F894EC91111108C00A
:1004F000D095DE23DC938FBFDF91CF911F910895BC
:10050000DE2BF8CFCF93DF9390E0FC01E656FF4F50
:1005100024918A579F4FFC0184918823D1F090E069
:10052000880F991FFC01E859FF4FA591B491FC0178
:10053000EE58FF4FC591D49161110EC09FB7F8944A
:100540008C91E22FE0958E238C932881E223E8831F
:100550009FBFDF91CF9108958FB7F894EC91E22B74
:10056000EC938FBFF6CF1F93CF93DF93182FEB0140
:1005700061E00E948202209739F460E0812FDF91D0
:10058000CF911F910C945402CF3FD10511F461E03B
:10059000F5CFE12FF0E0E255FF4FE491E33031F188
:1005A00040F4E130B1F0E230E1F0C038D1057CF741
:1005B000E4CFE73029F1E83059F1E430B1F7809128
:1005C0008000806280938000D0938B00C0938A006B
:1005D00004C084B5806884BDC7BDDF91CF911F91F1
:1005E000089584B5806284BDC8BDF7CF8091800036
:1005F000806880938000D0938900C0938800EDCFFD
:100600008091B00080688093B000C093B300E5CFC4
:100610008091B00080628093B000C093B400DDCFC1
:100620002091040190E4299F900111248E50822B87
:1006300080937C0080917A00806480937A0080911E
:100640007A0086FDFCCF8091780090917900089522
:100650003FB7F89480913D0490913E04A0913F04EF
:10066000B091400426B5A89B05C02F3F19F0019614
:10067000A11DB11D3FBFBA2FA92F982F8827BC01FC
:10068000CD01620F711D811D911D42E0660F771F24
:10069000881F991F4A95D1F708958F929F92AF9224
:1006A000BF92CF92DF92EF92FF924B015C010E94CA
:1006B00028036B017C010E9428036C197D098E09B7
:1006C0009F09683E734081059105A8F321E0821AD5
:1006D0009108A108B10888EEC80E83E0D81EE11C7D
:1006E000F11C81149104A104B10429F7FF90EF904B
:1006F000DF90CF90BF90AF909F908F9008952FB7CD
:10070000F8946091390470913A0480913B0490917F
:100710003C042FBF0895CF93C82F809196048C1767
:1007200051F00E947F0360934C0670934D068093B6
:100730004E0690934F06C0939604F89480919504CA
:1007400081110CC0CC2369F06091960470E08AE0BE
:100750000E94B30261E089E00E9454027894CF9134
:10076000089570E060E08AE00E94B30261E070E00A
:1007700080E090E00E944D0360E089E00E94540216
:1007800061E070E080E090E00E944D036FEF70E068
:100790008AE00E94B302E2CF8F929F92AF92BF9203
:1007A000CF92DF92EF92FF921092180610921906E4
:1007B00010921A0610921B0683E10E941003BC01DE
:1007C000990F880B990B0E94A42320E030E040E0B1
:1007D0005FE30E94292520E030E040EA50E40E94D7
:1007E000032420E030E040E85AE30E9403246B0138
:1007F0007C0182E10E941003BC01990F880B990BC8
:100800000E94A42320E030E040E05FE30E9429251D
:1008100020E030E040EA50E40E94032420E030E091
:1008200040E85AE30E940324A70196010E9428256C
:1008300020E030E040E850E40E9403244B015C01DA
:10084000AC019B016091FF0570910006809101064B
:10085000909102060E942825609303067093040677
:1008600080930506909306069F7720918605309128
:10087000870540918805509189050E949D23881F16
:100880008827881F809307068092FF0590920006B4
:10089000A0920106B092020620E030E040E850E469
:1008A000C701B6010E9403246093080670930906ED
:1008B00080930A0690930B0610920C0610920D0678
:1008C00010920E0610920F060E947F03C0904406FD
:1008D000D0904506E0904606F09047066C197D09D9
:1008E0008E099F090E94A2236B017C010E947F0355
:1008F000609344067093450680934606909347069E
:1009000020912C0630912D0640912E0650912F06F5
:10091000C701B6010E94032420E030E041E655E41F
:100920000E9495259B01AC016091300670913106C3
:1009300080913206909133060E94282560933006FC
:100940007093310680933206909333061092EE0531
:100950001092EF051092F0051092F10580E0FF90E3
:10096000EF90DF90CF90BF90AF909F908F900C94BE
:100970008B034F925F926F927F928F929F92AF9272
:10098000BF92CF92DF92EF92FF92CF93DF9300D08E
:1009900000D0CDB7DEB77C018EE00E941003BC0111
:1009A000990F880B990B0E94A42320E030E040E8C7
:1009B0005AE30E94032420E030E040EA50E40E9421
:1009C00003242DEC3CEC4CE050E40E9403242091E5
:1009D0009A0530919B0540919C0550919D050E9480
:1009E00095254B015C018092180690921906A09201
:1009F0001A06B0921B0680921C0690921D06A092C9
:100A00001E06B0921F066091920570919305809129
:100A10009405909195052FE030E040E050E00E9471
:100A20006B26CA01B9010E94A2239B01AC0160E0C0
:100A300070E080E090E40E9495252B013C01AC0120
:100A40009B0160E070E080E89FE30E9428252091F0
:100A500020063091210640912206509123060E94E3
:100A6000032469837A838B839C83A3019201C5014C
:100A7000B4010E9403249B01AC0169817A818B81BE
:100A80009C810E9429256093200670932106809303
:100A900022069093230683E10E941003BC01990F64
:100AA000880B990B0E94A42320E030E040E05FE334
:100AB0000E94292520E030E040EA50E40E9403240F
:100AC00020E030E040E85AE30E9403242B013C017F
:100AD00082E10E941003BC01990F880B990B0E94C0
:100AE000A42320E030E040E05FE30E94292520E0DD
:100AF00030E040EA50E40E94032420E030E040E887
:100B00005AE30E940324A30192010E94282520E0B9
:100B100030E040E850E40E9403244B015C01AC014A
:100B20009B0160910C0670910D0680910E069091CC
:100B30000F060E9428256093140670931506809373
:100B400016069093170680920C0690920D06A092BE
:100B50000E06B0920F068092100690921106A09297
:100B60001206B092130620E030E040E850E4C301E2
:100B7000B2010E94032460930806709309068093D3
:100B80000A0690930B060E947F0380904406909083
:100B90004506A0904606B0904706681979098A096B
:100BA0009B090E94A2234B015C010E947F0360937A
:100BB000440670934506809346069093470684E06A
:100BC000E816F10471F120912C0630912D06409128
:100BD0002E0650912F06609118067091190680918B
:100BE0001A0690911B060E942825A50194010E94D7
:100BF000032420E030E041E655E40E949525209151
:100C000030063091310640913206509133060E94F1
:100C100029256093300670933106809332069093B5
:100C20003306609140067091410680914206909192
:100C300043060E94A223A50194010E9429250E9437
:100C40000E2660934006709341068093420690936F
:100C500043068090180690901906A0901A06B0904E
:100C60001B062DEC3CEC4CEC5DE3C501B4010E948D
:100C70003D261816D4F52091FF05309100064091CD
:100C800001065091020660910C0670910D0680914C
:100C90000E0690910F060E942825A50194010E943E
:100CA00095252AE037ED43EA5BE30E9403244B01DC
:100CB0005C0122E538EB4EE75FE36091240670911A
:100CC000250680912606909127060E9403249B0109
:100CD000AC01C501B4010E942925609324067093DC
:100CE0002506809326069093270691E0E916F104E5
:100CF000B1F48091D2050F900F900F900F90DF917B
:100D0000CF91FF90EF90DF90CF90BF90AF909F90EA
:100D10008F907F906F905F904F900C948B03A4E026
:100D2000EA16F10409F4F2C020E030E0A901609174
:100D3000EE057091EF058091F0059091F1050E940C
:100D40003D2618160CF0B6C10E947F030E947F0357
:100D5000609348067093490680934A0690934B0629
:100D60008091EE059091EF05A091F005B091F1050D
:100D700089839A83AB83BC83809018069090190670
:100D8000A0901A06B0901B062091F2053091F30551
:100D90004091F4055091F505BC01CD010E94282534
:100DA0006B017C0120E030E0A9010E943D2618166D
:100DB0000CF0BFC0809196048111BBC02091280621
:100DC0003091290640912A0650912B06C701B601A1
:100DD0000E9428252091E4053091E5054091E60523
:100DE0005091E7050E9403246B017C016091D205BC
:100DF00070E090E080E00E94A4239B01AC01C70159
:100E0000B6010E9429256B017C0120912C063091AE
:100E10002D0640912E0650912F066091D4057091B9
:100E2000D5058091D6059091D7050E9429252B01E3
:100E30003C012DEC3CEC4CE45EE30E9429259B0137
:100E4000AC01C501B4010E943D2618160CF07EC00D
:100E50002091CE053091CF054091D0055091D1051C
:100E60006091FF0570910006809101069091020645
:100E70000E9429259B01AC0160910C0670910D0622
:100E800080910E0690910F060E943D2618160CF0D8
:100E90005DC06091D20570E090E080E00E94A223E6
:100EA0006093F6057093F7058093F8059093F90524
:100EB000C090F605D090F705E090F805F090F905A0
:100EC00020E030E0A901C701B6010E943D2620E0E4
:100ED00030E040E05FE387FDE8C0C701B6010E9453
:100EE00029250E940726862F0E948B038091EE05FC
:100EF0009091EF05A091F005B091F1058093F20576
:100F00009093F305A093F405B093F5050F900F901F
:100F10000F900F90DF91CF91FF90EF90DF90CF90E7
:100F2000BF90AF909F908F907F906F905F904F9009
:100F300008952091E4053091E5054091E605509132
:100F4000E705C701B6010E9403245DCF2DEC3CEC00
:100F50004CEC5DE3C301B2010E9429259B01AC0169
:100F6000C501B4010E943D26181664F52091CE05F6
:100F70003091CF054091D0055091D1056091FF058A
:100F80007091000680910106909102060E94292529
:100F90009B01AC0160910C0670910D0680910E06CC
:100FA00090910F060E943D26181664F46091D205B8
:100FB00070E0660F771F072E000C880B990B0E94BC
:100FC000A4236ECF4090F6055090F7056090F80589
:100FD0007090F905A501940169817A818B819C81CA
:100FE0000E9428252091E0053091E1054091E2051D
:100FF0005091E3050E940324A70196010E94292530
:101000006B017C0120E030E04FE753EC0E949D2310
:1010100087FD40C020E030E040E752E4C701B60160
:101020000E943D26181634F4C12CD12C90E7E92EED
:1010300092E4F92EA7019601C301B2010E9429256D
:101040006B017C0120E030E0A9010E949D2387FD17
:1010500028C0B090D3056B2D70E090E080E00E9436
:10106000A4239B01AC01C701B6010E943D261816BE
:1010700044F46B2D70E090E080E00E94A2236B01AD
:101080007C01C092F605D092F705E092F805F09247
:10109000F9050ECFC12CD12C8FE7E82E83ECF82E6A
:1010A000C9CFC12CD12C7601ECCFC701B6010E946B
:1010B000282517CF80E018CF4F925F926F927F92D2
:1010C0009F92AF92BF92CF92DF92EF92FF920F93D7
:1010D0001F93CF93DF9300D01F92CDB7DEB7D82EEA
:1010E00080914D0590914E05A0914F05B09150050E
:1010F000892B8A2B8B2BD9F00E9428030091910415
:10110000109192042091930430919404601B710B10
:10111000820B930B00914D0510914E0520914F05C8
:10112000309150056017710782079307C8F20E943B
:101130002803609391047093920480939304909396
:101140009404E0915505F0915605309759F040917F
:1011500051055091520560915305709154058D2DA4
:101160000995D82EE0908F04F09090044D2C512CCE
:10117000712C612CE114F10409F459C0D7011C96BB
:10118000CC901C9780914B0590914C05843691052D
:1011900010F41C961C92D701ED91FC91A280B380B3
:1011A00019821A821B82DD2079F1F701369610E050
:1011B00000E02191222319F19280992001F130E081
:1011C00050E040E02F5F3F4F4F4F5F4FC301B201F0
:1011D0000E9447269B01AC01892D90E0B0E0A0E081
:1011E000BC01CD016F5F7F4F8F4F9F4F0E944726FD
:1011F000A1E0B0E0AC0FBD1FA00FB11F8C930F5F3B
:101200001F4F03301105A9F609811A812B81F701BF
:101210004585568562817381C701F5010995D7011E
:101220001C96CC921C971496ED90FC90A3CF8091C5
:101230008D0490918E048C010F5F1F4F10938E04CC
:1012400000938D044997B4F10E947F03C0908904F4
:10125000D0908A04E0908B04F0908C049B01AC0148
:101260002C193D094E095F0921F421E030E040E0EE
:1012700050E088EE93E0089FB001099F700D189F21
:10128000700D1124072E000C880B990B0E946B2601
:1012900030934C0520934B0510928E0410928D04D0
:1012A0000E947F036093890470938A0480938B0467
:1012B00090938C040F900F900F90DF91CF911F911E
:1012C0000F91FF90EF90DF90CF90BF90AF909F90E5
:1012D0007F906F905F904F9008950F931F93CF93DF
:1012E000DF93CDB7DEB72C970FB6F894DEBF0FBEF5
:1012F000CDBFFC01EE0FFF1FE358FA4F0190F081C4
:10130000E02D3197E730F10510F58C01E657F64FE7
:101310000C94AC26BB09B2099109C409CD09D609C0
:10132000E6098091050190910601A0910701B09115
:10133000080189839A83AB83BC830E947F039B014E
:10134000AC0162E070E0CE0101960E948C002C9608
:101350000FB6F894DEBF0FBECDBFDF91CF911F91C6
:101360000F9108958091090190910A01A0910B01BC
:10137000B0910C01DECF80910D0190910E01A091F2
:101380000F01B0911001D5CF809111019091120100
:10139000A0911301B0911401CCCF809115019091CF
:1013A0001601A0911701B0911801C3CF88E0E9E1BF
:1013B000F1E0DE01119601900D928A95E1F70E940D
:1013C0007F039B01AC0164E070E0BDCF8CE0E1E203
:1013D000F1E0DE01119601900D928A95E1F70E94ED
:1013E0007F039B01AC0166E070E0ADCF08950F93E1
:1013F0001F93CF93DF93209137042F5F322F3770E5
:101400003093370420FF2BC020E831FD2064347076
:1014100009F02062205FFC01EC01239600E011E05E
:101420006485662329F070E0C8010E9457266F5F2B
:101430006187322F369F030E30E0311D11243111A8
:1014400010C01682662311F0615061873196EC1747
:10145000FD0731F7DF91CF911F910F91089520E0A3
:10146000D4CF31503683EECF4F925F926F927F92FE
:101470008F92AF92BF92CF92DF92EF920F931F9312
:10148000CF93DF933C01EB010E942803F3012785F2
:101490003089621B730B6A307105B0F3F894E881F0
:1014A000F9817BB174606BB16B7F6BB9CA848F813A
:1014B0002C2D281B822F2F83BF844A805B801D85A3
:1014C0000C85DE841F5F0F5FD3949E813885A984CD
:1014D000EB844181D20120E0C32F522F322F318182
:1014E000442788943111380F08F43FEF8195889490
:1014F00010FD430F4795889411FD430F479588943D
:1015000012FD430F4795889413FD430F4795889428
:1015100014FD430F4795889415FD430F4795889414
:1015200016FD430F4795889417FD430F4795889400
:10153000232F1111242F8C0D422F002C7BB900C0BA
:1015400047FF6BB930812227889400C000C0002C6F
:101550006BB93111390F00C0002C7BB900C046FFB8
:101560006BB908F43FEF9195889400C000C0002C3F
:101570006BB900FD230F00C0002C7BB900C045FFF4
:101580006BB92795889401FD230F00C000C0002C83
:101590006BB92795889400C0002C7BB900C044FF2C
:1015A0006BB902FD230F2795889400C000C0002C62
:1015B0006BB903FD230F00C0002C7BB900C043FFB3
:1015C0006BB92795889404FD230F00C000C0002C40
:1015D0006BB92795889400C0002C7BB900C042FFEE
:1015E0006BB905FD230F2795889400C000C0002C1F
:1015F0006BB906FD230F00C0002C7BB900C041FF72
:101600006BB92795889407FD230F00C000C0002CFC
:101610006BB92795889400C0002C7BB900C040FFAF
:101620006BB9432F0111422F9A0D00C000C0002C4E
:101630006BB900C000C0002C7BB900C047FF6BB97C
:1016400032812227889400C000C0002C6BB9311170
:101650003C0F00C0002C7BB900C046FF6BB908F4FA
:101660003FEFEB0DF11D00C000C0002C6BB9D0FCAA
:10167000230F00C0002C7BB900C045FF6BB9279534
:101680008894D1FC230F00C000C0002C6BB92795B3
:10169000889400C0002C7BB900C044FF6BB9D2FC19
:1016A000230F2795889400C000C0002C6BB9D3FC91
:1016B000230F00C0002C7BB900C043FF6BB92795F6
:1016C0008894D4FC230F00C000C0002C6BB9279570
:1016D000889400C0002C7BB900C042FF6BB9D5FCD8
:1016E000230F2795889400C000C0002C6BB9D6FC4E
:1016F000230F00C0002C7BB900C041FF6BB92795B8
:101700008894D7FC230F00C000C0002C6BB927952C
:10171000889400C0002C7BB900C040FF6BB9432FF8
:10172000D110422FC19500C000C0002C6BB9CE0D66
:1017300000C000C07BB900C047FF6BB931812227D0
:10174000889400C000C0002C6BB93111380F00C064
:10175000002C7BB900C046FF6BB908F43FEF8195C0
:10176000889400C000C0002C6BB910FD230F00C08E
:10177000002C7BB900C045FF6BB92795889411FDFB
:10178000230F00C000C0002C6BB92795889400C0BF
:10179000002C7BB900C044FF6BB912FD230F2795C5
:1017A000889400C000C0002C6BB913FD230F00C04B
:1017B000002C7BB900C043FF6BB92795889414FDBA
:1017C000230F00C000C0002C6BB92795889400C07F
:1017D000002C7BB900C042FF6BB915FD230F279584
:1017E000889400C000C0002C6BB916FD230F00C008
:1017F000002C7BB900C041FF6BB92795889417FD79
:10180000230F00C000C0002C6BB92795889400C03E
:10181000002C7BB900C040FF6BB9432F1111422F40
:101820008C0D00C000C0002C6BB9119709F086CE5A
:1018300020EE31E0D2010E94B226DC01CB01F4E0BF
:10184000B695A79597958795FA95D1F730E020E062
:10185000B901EAE94E9E040C611D5E9E600D711D8A
:101860001124650D711D860F971FA11DB11D893EA5
:1018700043E09407A105B10508F434C0885E9340A5
:10188000A109B10942E0B695A795979587954A9524
:10189000D1F747E0849F080E211D949F200D311D34
:1018A0001124290F311D6091360470E0860F971FB7
:1018B000820F931F4091390450913A0460913B0488
:1018C00070913C04292F3327420F531F611D711D56
:1018D0004093390450933A0460933B0470933C0462
:1018E0008093360478940E942803F301708B6787F5
:1018F000DF91CF911F910F91EF90DF90CF90BF902C
:10190000AF908F907F906F905F904F900895529A14
:101910000895EF92FF920F931F93CF93DF93CDB76C
:10192000DEB762970FB6F894DEBF0FBECDBF7C0165
:10193000DC011C968C917A8369835C834B835E8384
:101940004D830D871E872F87813001F5CE010196CB
:101950000E94F70983E0888B1A8A198AD701ED91D2
:10196000FC910484F585E02DBE016F5F7F4FC701B8
:10197000099562960FB6F894DEBF0FBECDBFDF911A
:10198000CF911F910F91FF90EF9008951C861B86B9
:101990001A86198618861F82DDCFEF92FF920F9369
:1019A0001F93CF93DF93CDB7DEB762970FB6F8944E
:1019B000DEBF0FBECDBF7C01DC011C968C917A830B
:1019C00069835C834B835E834D830D871E872F87DE
:1019D0008130F9F4CE0101960E94F709188A1A8A1B
:1019E000198AD701ED91FC910484F585E02DBE01A3
:1019F0006F5F7F4FC701099562960FB6F894DEBFFF
:101A00000FBECDBFDF91CF911F910F91FF90EF904F
:101A100008951C861B861A86198618861F82DECFBB
:101A200090E080E00895FC018585968508950F93E8
:101A30001F93CF93DF9300D01F92CDB7DEB7AB01DA
:101A400019821A821B82DC01ED91FC910190F081D8
:101A5000E02D00E010E020E0BE016F5F7F4F0995B0
:101A60000F900F900F90DF91CF911F910F910895DC
:101A7000809196048823B9F081E08093950470E00A
:101A800060E08AE00E94B30261E070E080E090E0F4
:101A90000E944D0360E089E00E9454026FEF70E005
:101AA0008AE00C94B3020895FC018081918186172D
:101AB000970721F07183608381E084870895FC019A
:101AC00001900020E9F73197AF01481B590BBC0189
:101AD0008DEA94E00C94F500009711F00C945F0DE2
:101AE00090E080E008958F929F92AF92BF920F9303
:101AF0001F93CF93DF93CDB7DEB7A1970FB6F894BE
:101B0000DEBF0FBECDBF19A2423008F44AE08E01FD
:101B10000F5D1F4F842E912CB12CA12CA501940197
:101B20000E946B26E62FB901CA01EA30D4F4E05DC9
:101B3000D801EE938D01232B242B252B79F7CD0192
:101B40000E946C0DA1960FB6F894DEBF0FBECDBFFC
:101B5000DF91CF911F910F91BF90AF909F908F9089
:101B60000895E95CE5CF0C946C0DCF93DF930E9450
:101B70006C0DEC0186ED93E00E945F0D8C0F9D1FB4
:101B8000DF91CF910895FF920F931F93CF93DF932F
:101B900007E914E0D0E0C0E0F801F1908F01CE0138
:101BA0000E94C124F81621F06F2DCE010E94C92495
:101BB0002196C631D10581F787E994E0DF91CF9175
:101BC0001F910F91FF900895E7E9F4E080819181E2
:101BD000A281B3810196A11DB11D80839183A2834F
:101BE000B3830C94C30D0F931F936093A40470935D
:101BF000A5048093A6049093A7040E947F030091FC
:101C00003204109133042091340430913504601B68
:101C1000710B820B930B613C77428940910560F018
:101C20000E94E40D0E947F0360933204709333049A
:101C300080933404909335041F910F910895CF93AE
:101C4000DF93BC0190E080E04AE00E94730DEC015C
:101C500086ED93E00E945F0D8C0F9D1FDF91CF9169
:101C60000895CF92DF92EF92FF92CF93DF9397FF89
:101C70001BC06B017C016DE28DEA94E00E9495012E
:101C8000EC0166277727CB016C197D098E099F0926
:101C90004AE00E94730D8C0F9D1FDF91CF91FF9042
:101CA000EF90DF90CF9008954AE0DF91CF91FF90C1
:101CB000EF90DF90CF900C94730DCF93DF93BC0126
:101CC000990F880B990B0E94310EEC0186ED93E081
:101CD0000E945F0D8C0F9D1FDF91CF9108954F9251
:101CE0005F926F927F928F929F92AF92BF92CF92AC
:101CF000DF92EF92FF920F931F93CF936B017C01C2
:101D0000742EAC019B010E944226882399F081E643
:101D100091E0CF911F910F91FF90EF90DF90CF90C6
:101D2000BF90AF909F908F907F906F905F904F90FB
:101D30000C945F0D46015701E894B7F82FEF3FEF81
:101D40004FE75FE7C501B4010E94422681110DC033
:101D50002FEF3FEF4FE75FE7C501B4010E949D23DE
:101D600018161CF485E691E0D4CF2FEF3FEF4FE734
:101D70005FE4C701B6010E943D2618161CF489E6EF
:101D800091E0C7CF2FEF3FEF4FE75FECC701B60100
:101D90000E949D2387FDF3CF20E030E0A901C70119
:101DA000B6010E949D2310E000E087FF0AC06DE2AB
:101DB0008DEA94E00E9495018C01F7FAF094F7F80F
:101DC000F094C0E060E070E080E09FE37C1641F0BA
:101DD00020E030E040E251E40E949525CF5FF6CF4D
:101DE000A70196010E9429252B013C010E940E2685
:101DF0004B015C014AE00E94730D7C01E00EF11E74
:101E0000CC23C1F1C501B4010E94A2239B01AC0106
:101E1000C301B2010E9428254B015C016EE28DEAEC
:101E200094E00E949501E80EF91EC15018F120E0DF
:101E300030E040E251E4C501B4010E9403242B01CB
:101E40003C010E940E264B01B12CA12C4AE0C50199
:101E5000B4010E94730DE80EF91EC501B4010E9481
:101E6000A2239B01AC01C301B2010E9428254B01B2
:101E70005C01DBCFC701CF911F910F91FF90EF90D5
:101E8000DF90CF90BF90AF909F908F907F906F909A
:101E90005F904F900895CF93DF9388ED93E00E9479
:101EA000B50D8DE691E00E94B30DC7E9D4E06881DD
:101EB00079818A819B814AE00E94730D86ED93E0CF
:101EC0000E945F0D8CE791E00E94B30D8C8190E041
:101ED0000E945D0E86E991E00E94B30D6D817E81C6
:101EE0008F81988542E00E946F0E86ED93E00E94FC
:101EF0005F0D81EB91E00E94B30D898590E00E9417
:101F00005D0E83EC91E00E94B30D8A8590E00E9403
:101F10005D0E85ED91E00E94B30D8B859C850E943E
:101F20001F0E85EE91E00E94B30D6D857E858F8535
:101F3000988920E83EEE46E350E00E948D26CA01D3
:101F4000B9010E94310E84EF91E00E94B30D6D85BE
:101F50007E858F8598890E94310E88EF91E00E94DE
:101F6000B50D8AEF91E00E94B30D89899A890E948C
:101F70001F0E8FE092E00E94B30D8B899C89DF9148
:101F8000CF910C941F0E0F931F93CF93DF9307E90C
:101F900014E0D0E0C0E0CE010E94C124F80181939A
:101FA0008F012196C631D105B1F70E944B0F809168
:101FB000A00480937C040E947F030091A4041091EC
:101FC000A5042091A6043091A704601B710B820B1D
:101FD000930B6093810470938204809383049093A5
:101FE00084048091A20480936A048091A804909153
:101FF000A90490936904809368048091AA04909145
:10200000AB0490937E0480937D04DF91CF911F9168
:102010000F910895CF92DF92EF92FF921F93CF938B
:10202000DF93CDB7DEB7C054D1090FB6F894DEBF49
:102030000FBECDBF109195041123E1F010929504CD
:1020400065E272E0CE0101960E94D226CE01019691
:102050000E946C0D812FC05CDF4F0FB6F894DEBF7D
:102060000FBECDBFDF91CF911F91FF90EF90DF901A
:10207000CF9008950E947F03C0903C06D0903D060B
:10208000E0903E06F0903F066C197D098E099F098D
:10209000C0909205D0909305E0909405F09095053E
:1020A000C616D706E806F906A0F52091BA053091C4
:1020B000BB054091BC055091BD056091FF05709135
:1020C000000680910106909102060E943D26181696
:1020D000F4F420912C0630912D0640912E0650915B
:1020E0002F06609118067091190680911A0690913A
:1020F0001B060E9428259F772DEC3CEC4CE45DE309
:102100000E949D2387FF03C081E08093FE0511E0BC
:10211000A1CF0E947F03C0903C06D0903D06E09086
:102120003E06F0903F066C197D098E099F09C0900C
:102130009605D0909705E0909805F0909905C61601
:10214000D706E806F90608F085CF2091CA05309138
:10215000CB054091CC055091CD056091180670914A
:10216000190680911A0690911B060E949D2387FFF5
:1021700071CF0E947F03C0904C06D0904D06E09036
:102180004E06F0904F066C197D098E099F09C0908C
:102190009605D0909705E0909805F0909905C616A1
:1021A000D706E806F90608F455CF2091CA05309104
:1021B000CB054091CC055091CD056091EE05709115
:1021C000EF058091F0059091F1050E943D261816CB
:1021D0000CF040CF2091CE053091CF054091D00535
:1021E0005091D1056091FF05709100068091010624
:1021F000909102060E9429259B01AC0160910C067A
:1022000070910D0680910E0690910F060E943D265A
:1022100018160CF01FCF80E00E948B0378CF0E942D
:10222000CD265F926F927F928F929F92AF92BF92D4
:10223000CF92DF92EF92FF920F931F93CF93DF9392
:10224000CDB7DEB7C054D1090FB6F894DEBF0FBECC
:10225000CDBF0FEF1FEF83E0D82E94E0C92E2DE005
:10226000B22E38E0A32E45E0942E56E0852E6CE089
:10227000762E6624639472E0572EE0E1EE2EF12C68
:102280008DEA94E00E945301892B09F450C18DEA34
:1022900094E00E9431012091200430912104F90141
:1022A000EE5DFB4F808390911F04923009F460C073
:1022B00098F4992309F453C0913009F456C08091E1
:1022C0002004909121040196B7010E945726909313
:1022D000210480932004D4CF933009F453C0943068
:1022E00071F72F5F3F4F40911E0450E024173507D0
:1022F00009F083C08A3009F079C010921F0410924F
:102300002104109220040E947F036093570570936C
:1023100058058093590590935A05E0912504E1549E
:10232000E73108F004C1F0E0E856FE4E0C94AC260C
:102330000614971202129712B3136E139712971284
:102340009712971297120A139712A51397129712C2
:1023500097127113971297129712971229138034BC
:1023600009F046C060921F04AACF50921F04A7CF65
:102370002F5D3B4FD9018C91833109F037C0D0924A
:102380001F049DCFC0921F048154873108F02CC0D8
:10239000E82FF0E0E253FE4E0C94AC26E811F41165
:1023A000E511F411EE11E811F411F411F411F41126
:1023B000F411E811F411EB11F411F411F411F1110D
:1023C000F411F411F411F411E81170921E0477CF96
:1023D00080921E0474CF90921E0471CFA0921E04AE
:1023E0006ECFB0921E046BCF10921E0410921F0489
:1023F000109321040093200462CF241735070CF4B6
:102400005ECFF4CF80917F04909180040297029771
:1024100060F01092260460E472E0CE0101960E9402
:10242000D226CE0101960E946C0D8091EC05909110
:10243000ED0520912604222309F4CCC0009701F574
:1024400067E772E0CE0101960E94D226CE01019686
:102450000E946C0D8091A104811105C081E08093E0
:10246000A1040E94E40D81E090E09093ED0580933B
:10247000EC058091EC059091ED05009709F457C0AB
:10248000209127042223E9F10C9709F0BEC0209186
:10249000FF053091000640910106509102066091BF
:1024A00028047091290480912A0490912B040E94A1
:1024B00028256093340670933506809336069093F2
:1024C000370621E020939B0460939C0470939D0445
:1024D00080939E0490939F040E94E40D8CE992E007
:1024E0000E94B30D609134067091350680913606D6
:1024F0009091370642E00E946F0E86ED93E00E94B5
:102500005F0D80912C04882391F010929B040E940F
:10251000E40D8CE090E09093ED058093EC05109233
:1025200034061092350610923606109237060E9435
:102530007F0300915705109158052091590530915E
:102540005A05601B710B820B930B61317742810539
:10255000910548F18091610590916205019741F0E4
:1025600081E090E0909362058093610580936C0513
:1025700080916305882329F01092630581E08093A0
:102580006C0580916505882329F01092650581E02E
:1025900080936C0580916405882329F0109264056E
:1025A00081E080936C05C05CDF4F0FB6F894DEBF0E
:1025B0000FBECDBFDF91CF911F910F91FF90EF9094
:1025C000DF90CF90BF90AF909F908F907F906F9053
:1025D0005F900895892B09F4AACF69E872E0CE01D3
:1025E00001960E94D226CE0101960E946C0D109297
:1025F000ED051092EC058091A104882309F497CF92
:102600001092A1040E94E40D34CF88EB92E00E9466
:10261000B50D77CF80912604882379F069EF72E0B9
:10262000CE0101960E94D226CE0101960E946C0D29
:1026300061E087E00E9454027ACF69E073E0CE0146
:1026400001960E94D226CE0101960E946C0D60E098
:10265000F0CF0E947F0360935B0570935C058093CD
:102660005D0590935E051092790410926B04809141
:10267000AC04882321F01092A0040E94E40D809104
:102680007C04909126049923C1F0811150CF809150
:10269000A004882321F01092A0040E94E40D81E0A0
:1026A00080937C046AE173E0CE0101960E94D226F9
:1026B000CE0101960E946C0D3ACF882309F437CFE2
:1026C0008091A004811105C081E08093A0040E9444
:1026D000E40D10927C046DE273E0E6CF61E473E0F8
:1026E000E3CF8091260490E020916105309162054E
:1026F0008217930739F0909362058093610581E01A
:1027000080936C0580912B0490916305891729F0C3
:102710008093630581E080936C0580912D049091F6
:102720006505891729F08093650581E080936C0524
:1027300080912C0490916405891709F4F8CE809358
:10274000640581E080936C05F2CE6BE673E0CE0108
:1027500001960E94D226CE0101960E946C0D81E066
:1027600080936C04E4CE809126048823B9F068E756
:1027700073E0CE0101960E94D226CE0101960E94FE
:102780006C0DEBE9F4E082E1DF011D928A95E9F737
:102790000E944B0F0E94C30D0E94C30F809128041A
:1027A0008823B9F06BE873E0CE0101960E94D2262F
:1027B000CE0101960E946C0DE0EAF4E08DE0DF01AD
:1027C0001D928A95E9F70E944B0F0E94C30D0E944B
:1027D000C30F80912704882309F4A9CE6EE973E022
:1027E000CE0101960E94D226CE0101960E946C0D68
:1027F00086E1E7E9F4E0DF011D928A95E9F70E949E
:102800004B0F0E94C30D0E94C30F91CE80912604EE
:10281000882321F11092FA051092FB051092FC0515
:102820001092FD058091EC059091ED058D7F892B2F
:1028300009F47DCE8091FA059091FB05A091FC05ED
:10284000B091FD05892B8A2B8B2B09F470CE8BE080
:1028500090E09093ED058093EC0569CE8091FA05A8
:102860009091FB05A091FC05B091FD05892B8A2B69
:102870008B2BC1F60E947F036093FA057093FB05D2
:102880008093FC059093FD05CDCF1F920F920FB65C
:102890000F9211242F933F934F935F936F937F93E6
:1028A0008F939F93AF93BF93EF93FF938DEA94E041
:1028B0000E947301FF91EF91BF91AF919F918F9112
:1028C0007F916F915F914F913F912F910F900FBE2C
:1028D0000F901F9018951F920F920FB60F92112410
:1028E0002F938F939F93EF93FF93E091BD04F0910B
:1028F000BE048081E091C304F091C40482FD1BC03A
:1029000090818091C6048F5F8F732091C7048217D6
:1029100041F0E091C604F0E0E355FB4F958F8093C2
:10292000C604FF91EF919F918F912F910F900FBE51
:102930000F901F9018958081F4CF1F920F920FB6C1
:102940000F9211242F933F938F939F93AF93BF9335
:102950008091390490913A04A0913B04B0913C04D9
:102960003091380423E0230F2D3758F50196A11D2F
:10297000B11D209338048093390490933A04A093B6
:102980003B04B0933C0480913D0490913E04A0919F
:102990003F04B09140040196A11DB11D80933D04F8
:1029A00090933E04A0933F04B0934004BF91AF9135
:1029B0009F918F913F912F910F900FBE0F901F907D
:1029C000189526E8230F0296A11DB11DD2CF1F92A4
:1029D0000F920FB60F9211242F933F934F935F9353
:1029E0006F937F938F939F93AF93BF93EF93FF93D7
:1029F000E0910201F09103010995FF91EF91BF91E0
:102A0000AF919F918F917F916F915F914F913F9186
:102A10002F910F900FBE0F901F9018951F920F923D
:102A20000FB60F9211242F933F934F935F936F93A1
:102A30007F938F939F93AF93BF93EF93FF93E09117
:102A40000001F09101010995FF91EF91BF91AF91C4
:102A50009F918F917F916F915F914F913F912F91B6
:102A60000F900FBE0F901F901895EDEAF4E01382BF
:102A7000128288EE93E0A0E0B0E084839583A68381
:102A8000B78383E591E09183808385EC90E095871F
:102A9000848784EC90E09787868780EC90E0918B28
:102AA000808B81EC90E0938B828B82EC90E0958B15
:102AB000848B86EC90E0978B868B118E128E138E12
:102AC000148EEAE4F5E08FEF80831282118214867F
:102AD00013868FEF9FEFDC0187839087A187B287F2
:102AE000E6E8F5E08DEC9CECACE4BDE380839183FB
:102AF000A283B38340E65AEE60E070E044835583DE
:102B0000668377834CE251E060E070E04087518754
:102B10006287738740E355E760E070E0448755873C
:102B20006687778742EC51E060E070E0408B518B24
:102B3000628B738B40E050E066E973E4408F518F05
:102B4000628F738F40EE53E964E070E0448F558FDD
:102B5000668F778F43E353E363E37FE340A351A39F
:102B600062A373A344A355A366A377A343E353E3EC
:102B700063EB7FE340A751A762A773A740E050E053
:102B800060E670E444A755A766A777A743E353E33D
:102B900063E870E440AB51AB62AB73AB44EA50E71F
:102BA00065E870E444AB55AB66AB77AB4BE754E1FB
:102BB00066E870E440AF51AF62AF73AF46E656E6E9
:102BC00066E870E444AF55AF66AF77AF40E050E0E1
:102BD00068E870E44093C6055093C7056093C80544
:102BE0007093C9058093CA059093CB05A093CC053B
:102BF000B093CD058AE999E9A9E1BFE38093CE05B9
:102C00009093CF05A093D005B093D1052EE02093EB
:102C1000D2052CE32093D3058093D4059093D5055A
:102C2000A093D605B093D7058AE999E9A9E9BEE34F
:102C30008093D8059093D905A093DA05B093DB056E
:102C40008AE999E9A9E1BEE38093DC059093DD056B
:102C5000A093DE05B093DF054DEC5CEC6CE47EE305
:102C60004093E0055093E1056093E2057093E3051E
:102C700040E050E068E472E44093E4055093E505D9
:102C80006093E6057093E7054FE652E163E07AE36F
:102C90004093E8055093E9056093EA057093EB05CE
:102CA0001092ED051092EC051092EE051092EF05D2
:102CB0001092F0051092F1051092F2051092F305B2
:102CC0001092F4051092F5051092F6051092F70592
:102CD0001092F8051092F9051092FA051092FB0572
:102CE0001092FC051092FD051092FE051092FF0552
:102CF000109200061092010610920206109203062E
:102D0000109204061092050610920606109207060D
:102D1000109208061092090610920A0610920B06ED
:102D200010920C0610920D0610920E0610920F06CD
:102D300010921006109211061092120610921306AD
:102D4000109214061092150610921606109217068D
:102D5000109218061092190610921A0610921B066D
:102D600010921C0610921D0610921E0610921F064D
:102D7000109220061092210610922206109223062D
:102D800040E050E060E87FE340932406509325063E
:102D90006093260670932706809328069093290651
:102DA000A0932A06B0932B0680932C0690932D06B1
:102DB000A0932E06B0932F06109230061092310683
:102DC0001092320610923306109234061092350695
:102DD0001092360610923706109238061092390675
:102DE00010923A0610923B0610923C0610923D0655
:102DF00010923E0610923F06109240061092410635
:102E00001092420610924306109244061092450614
:102E100010924606109247061092480610924906F4
:102E200010924A0610924B0610924C0610924D06D4
:102E300010924E0610924F06EFE5F5E011821082D7
:102E40001382128281E084838583168217824087F1
:102E500051876287738715861486848712A213A20E
:102E600014A215A216A20E947F0360935B057093C3
:102E70005C0580935D0590935E050E947F036093DF
:102E80005705709358058093590590935A050895F6
:102E9000CF93DF93CDB7DEB7CD57D1090FB6F894F6
:102EA000DEBF0FBECDBF789484B5826084BD84B58B
:102EB000816084BD85B5826085BD85B5816085BD35
:102EC00080916E00816080936E00109281008091ED
:102ED0008100826080938100809181008160809375
:102EE0008100809180008160809380008091B1009A
:102EF00084608093B1008091B00081608093B000C5
:102F000080917A00846080937A0080917A00826058
:102F100080937A0080917A00816080937A0080911A
:102F20007A00806880937A001092C1000E94C30FDB
:102F300080917D0490917E04019690937E0480930D
:102F40007D0421E030E0892B11F430E020E0809115
:102F5000AA049091AB042817390731F03093AB04E1
:102F60002093AA040E94E40D61E088E00E945402CC
:102F700061E088E00E94820261E088E00E945402E1
:102F800061E085E00E94540261E085E00E948202D7
:102F900061E085E00E94540261E087E00E948202C5
:102FA00061E087E00E94540260E081E10E948202B9
:102FB00060E086E00E94820261E08FE00E9482026F
:102FC00070E060E08FE00E94B30261E070E080E0BA
:102FD00090E00E944D0360E08FE00E948202E09149
:102FE000BD04F091BE0482E08083E091B904F091C9
:102FF000BA041082E091BB04F091BC0480E18083AC
:103000001092C504E091C104F091C20486E080836F
:10301000E091BF04F091C004808180618083E091E1
:10302000BF04F091C004808188608083E091BF0478
:10303000F091C004808180688083E091BF04F091AA
:10304000C00480818F7D808385E090E0A0E0B0E0C7
:103050008093B1049093B204A093B304B093B404EA
:1030600080915404811145C0109246041092450489
:103070008FEF8093490480934A0480934B0480939C
:103080004C0480934D0480934E0481E080934F0460
:103090001092510410925004109248041092470468
:1030A00080918F0490919004892B31F483E494E013
:1030B0009093900480938F04E0914104F091420436
:1030C000309721F083E494E09583848383E494E053
:1030D000909342048093410410925304109252043E
:1030E00081E491E0909344048093430481E08093D1
:1030F0005404529A8DE695E09093460480934504DB
:1031000082E090E0909351048093500480914D05AB
:1031100090914E05A0914F05B0915005843C29E057
:103120009207A105B10520F484EC99E0A0E0B0E09D
:1031300080934D0590934E05A0934F05B093500595
:103140008091610590916205892B39F0109262059A
:103150001092610581E080936C0589E1809373058D
:10316000809374058093750510927605809377059A
:10317000109278058091730590917405A091750562
:1031800080936D0590936E05A0936F0580917605F1
:1031900090917705A09178058093700590937105C3
:1031A000A093720510927E0510927D051092800505
:1031B00010927F0581E090E090937A0580937905E5
:1031C00090937C0580937B0580914A050E945C0862
:1031D0008FE00E9410036AE070E080E090E00E94BF
:1031E0004D038FE00E9410038095909535E09695F1
:1031F00087953A95E1F78F71992710E000E030E06C
:1032000020E0E4E0F0E0AC01022E02C056954795C4
:103210000A94E2F741705527BF01621B730B02C08D
:10322000440F551F6A95E2F7042B152B2F5F3F4F74
:103230002530310541F782EB93E00E94B30DC801C0
:103240000E941F0E1093800400937F040531110526
:1032500031F483E090E09093800480937F04809128
:103260007F04909180042FE535E030935106209340
:10327000500623E0209304018230910509F0A4C098
:103280008CE496EAAAEABEE380939A0590939B05A4
:10329000A0939C05B0939D0561E08AE00E948202A4
:1032A00061E089E00E94820260E080E10E94820287
:1032B00060E08EE00E94820260E083E00E94820271
:1032C00088E39DE09093030180930201809169005F
:1032D000837F886080936900E99A8091A1048823A4
:1032E00009F47AC081E090E09093ED058093EC05BD
:1032F00080918100887F81608093810080E00E94BE
:103300008B0364EC73E0AE014F5F5F4F4A01CA016B
:103310000E94D226C4010E946C0D11E097E0292E74
:10332000312C2AE0A22EB12C8091600481110CC0B6
:103330000E947F0360935C0470935D0480935E043D
:1033400090935F041093600481E10E94100301E0F8
:103350008D3291400CF400E0C0905C04D0905D048C
:10336000E0905E04F0905F040E947F039601215F6D
:103370003F4FD901A61BB70BEC96BFAFAEAFEC9792
:10338000412C512C3201BFE0CB0ED11CE11CF11CB1
:103390000E947F036C157D058E059F0510F581E168
:1033A0000E94100321E08D32E1E09E070CF420E042
:1033B000201771F3FFEF4F1A5F0A6F0A7F0A01E0CF
:1033C000892B31F700E0E4CF039708F465CF83E35E
:1033D00093E3A3E5B0E458CF1092ED051092EC050D
:1033E00087CFA8EEB3E0A30192010E94D724EC9608
:1033F000AEADBFADEC979D01BB0F440B550B0E94CA
:103400006B26CA01B9010E94A2232AE037ED43E2EC
:103410005CE30E9403246B017C0160917A0470914B
:103420007B0490E080E00E94A22324EA30E74DE78D
:103430005FE30E9403249B01AC01C701B6010E9417
:1034400029250E940E2670937B0460937A040E94C3
:103450007F0360935C0470935D0480935E0490939B
:103460005F040E94111180917C04882369F10E94FD
:103470007F03C0908104D0908204E0908304F09098
:1034800084046C197D098E099F0961157447874B67
:10349000914020F480916B04811116C00E947F033B
:1034A000C0905B05D0905C05E0905D05F0905E05F6
:1034B0006C197D098E099F0961387E4E86439105FE
:1034C00008F4E3C010936C048091710481110CC066
:1034D0000E947F0360936D0470936E0480936F0469
:1034E000909370041093710488E00E942B02892B42
:1034F00009F46DC080916C04882309F468C069EDFB
:1035000073E0C4010E94D226C4010E946C0D109287
:103510006C0410936B048091AC04811104C010936F
:10352000A0040E94E40D109279048091660588231E
:1035300021F01092660510936C050E947F03609342
:103540006D0470936E0480936F04909370040E94D6
:103550007F0360938104709382048093830490932B
:1035600084040E947F0360935B0570935C058093E5
:103570005D0590935E0580916A048F5F80936A0475
:1035800021E030E0811102C030E020E08091A2040F
:103590009091A3042817390731F03093A3042093A6
:1035A000A2040E94E40D0E947F03C0908104D09089
:1035B0008204E0908304F09084046C197D098E09E4
:1035C0009F090E94F30D60E088E00E9454020E946F
:1035D0007F03C0906D04D0906E04E0906F04F09073
:1035E00070046C197D098E099F0961337547810547
:1035F000910568F188E00E942B02892B41F568EE65
:1036000073E0C4010E94D226C4010E946C0D809117
:10361000680490916904019690936904809368040A
:1036200021E030E0892B11F430E020E08091A80403
:103630009091A9042817390731F03093A9042093F9
:10364000A8040E94E40D61E088E00E945402809189
:103650006B05882309F459C010927E0510927D05F0
:1036600010938105E0915F05F0916005E730F10569
:1036700008F049C0E25CF44E0C94AC265C1B711B54
:10368000E91B001CD61B131CAF1B0E947F036C1987
:103690007D098E099F096137774C8643910508F4AF
:1036A00013CF109379048091660581110DCF10938B
:1036B000660510936C0508CF20E030E04FE753E437
:1036C00060916705709168058091690590916A0520
:1036D0000E9403240E940E26609373056093740574
:1036E0008CC010927305109274051092750580912C
:1036F000730590917405A091750580936D05909365
:103700006E05A0936F0510926B0580916C05882360
:1037100009F4DFC01092800510927F051093810597
:1037200080916605882331F041E050E050936205B6
:1037300040936105E0916105F0916205E930F10582
:1037400008F0CAC1EA55F44E0C94AC262A1C3F1C62
:10375000A31CCC1C051D1A1D2F1D461D591D20E044
:1037600030E04FE753E46091670570916805809100
:10377000690590916A050E9403240E940E266093B9
:10378000730560937405109275058091730590918F
:103790007405A091750580936D0590936E05A093B7
:1037A0006F0530927E0520927D05ADCF20E030E0A0
:1037B0004FE753E460916705709168058091690552
:1037C00090916A050E9403240E940E26609373055F
:1037D0008ACF20E030E04FE753E4609167057091B5
:1037E00068058091690590916A050E9403240E94F2
:1037F0000E2610927305109274056093750577CFAD
:1038000020E030E04FE753E4609167057091680570
:103810008091690590916A050E9403240E940E26FA
:10382000109273055BCF20E030E04FE753E46091E6
:103830006705709168058091690590916A050E94FD
:1038400003240E940E261092730510927405609353
:1038500075059BCF20E030E04FE753E460916705AA
:10386000709168058091690590916A050E94032412
:103870000E940E26609376051092770504C120E021
:1038800030E04FE753E460916705709168058091DF
:10389000690590916A050E9403240E940E26609398
:1038A00076051092770510927805809176059091B3
:1038B0007705A09178058093700590937105A0938A
:1038C000720582E090E09093800580937F051092CE
:1038D0006C0580916105909162050197029740F017
:1038E000809163058111FBC03092800520927F0595
:1038F00090E080E00E946D0981E090E00E946D09F7
:1039000080918105882331F080914A050E945C08EE
:1039100010928105E091EC05F091ED05ED30F10597
:1039200008F0A8C4EA56F34E0C94AC26861D901DF0
:103930009F1DFF1D651E981EB51EDD1E041F0F1F57
:10394000361F54239A2320E030E04FE753E4609180
:103950006705709168058091690590916A050E94DC
:1039600003240E940E26609376051092770510922C
:1039700078058091760590917705A09178058093E0
:10398000700590937105A0937205A4E0B0E0B09328
:103990008005A0937F059BCFC0906705D0906805F8
:1039A000E0906905F0906A0520E030E04FE753E4CD
:1039B000C701B6010E9403240E940E26609376057B
:1039C00020E030E040EA50E4C701B6010E94032441
:1039D0000E940E266093770520E030E040EA52E432
:1039E000C701B6010E9403240E940E266093780549
:1039F0008091760590917705A09178058093700568
:103A000090937105A093720562CF20E030E04FE7FC
:103A100053E4609167057091680580916905909104
:103A20006A050E9403240E940E2660937605609327
:103A30007705DCCF20E030E04FE753E46091670585
:103A4000709168058091690590916A050E94032430
:103A50000E940E261092760510927705C7CF20E0BF
:103A600030E04FE753E460916705709168058091FD
:103A7000690590916A050E9403240E940E266093B6
:103A800076056093770510927805B2CF20E030E09C
:103A90004FE753E46091670570916805809169056F
:103AA00090916A050E9403240E940E2610927605CA
:103AB000E8CF20E030E04FE753E460916705709174
:103AC00068058091690590916A050E9403240E940F
:103AD0000E2610927605ABCF10927605CDCE809152
:103AE0006405811107C0E6E0F0E0F0938005E09303
:103AF0007F05FECE80916505882309F4F9CE25E087
:103B000030E03093800520937F05F2CE80919604BB
:103B1000882319F080E00E948B0361E070E05BC0B5
:103B200070E060E080915006909151060E94540D23
:103B300042E050E05093ED054093EC059BC30E949A
:103B4000CC031092F6051092F7051092F80510922A
:103B5000F9051092FE051092F2051092F3051092ED
:103B6000F4051092F505109240061092410610924D
:103B700042061092430610923006109231061092BF
:103B80003206109233062091A6053091A705409188
:103B9000A8055091A9056091FF05709100068091DC
:103BA0000106909102060E943D26181694F4809119
:103BB000FA059091FB05A091FC05B091FD05892BBC
:103BC0008A2B8B2B69F08BE090E09093ED0580932E
:103BD000EC0564E070E08091500690915106EAC0D7
:103BE0000E947F03609338067093390680933A06EB
:103BF00090933B06B092ED05A092EC05EACF0E94AF
:103C00007F03C0903C06D0903D06E0903E06F090C9
:103C10003F066C197D098E099F09C0909205D090CE
:103C20009305E0909405F0909505C616D706E80632
:103C3000F90678F40E947F03609338067093390682
:103C400080933A0690933B06B092ED05A092EC0566
:103C500011C32091CA053091CB054091CC055091FC
:103C6000CD05609118067091190680911A06909101
:103C70001B060E943D261816DCF40E947F03C090AC
:103C80003C06D0903D06E0903E06F0903F066C1951
:103C90007D098E099F09C0909605D0909705E09008
:103CA0009805F0909905C616D706E806F90610F2B1
:103CB000109230061092310610923206109233069E
:103CC00081E090E00E94B90484CF0E94CC03C090B0
:103CD000FF05D0900006E0900106F09002062091CA
:103CE000A6053091A7054091A8055091A905C701E7
:103CF000B6010E949D2387FF06C082E090E090936A
:103D0000ED058093EC052091AE053091AF05409113
:103D1000B0055091B105C701B6010E943D261816A5
:103D200024F4B092ED05A092EC0566E070E053CF6C
:103D30000E94CC032091A6053091A7054091A805CB
:103D40005091A9056091FF057091000680910106D0
:103D5000909102060E949D2387FFE7CFA2E0B0E08A
:103D6000B093ED05A093EC05E0CF0E940A108111FD
:103D700061CF83E090E00E94B9042091CA053091A0
:103D8000CB054091CC055091CD05609118067091FE
:103D9000190680911A0690911B060E949D2320917E
:103DA00050063091510664E070E087FD02C062E089
:103DB00070E0C9010E94540D5DC20E940A10811179
:103DC00039CF60919E0570919F058091A0059091DB
:103DD000A1059B01AC010E9429259B01AC016091CA
:103DE00030067091310680913206909133060E9420
:103DF0003D26181634F4E5E0F0E0F093ED05E0938D
:103E0000EC0582E090E0B7CF0E940A10811112CF3A
:103E100084E090E00E94B90463E070E0DCCE0E9490
:103E2000CC032091C2053091C3054091C405509147
:103E3000C5056091FF057091000680910106909183
:103E400002060E949D2387FF0EC00E947F0360939D
:103E500038067093390680933A0690933B06B092E9
:103E6000ED05A092EC0565E070E0B5CE0E94CC03B4
:103E700080910706882309F4FDC10E947F03C0904A
:103E80003806D0903906E0903A06F0903B066C195F
:103E90007D098E099F09C0908E05D0908F05E09016
:103EA0009005F0909105C616D706E806F90608F0C9
:103EB000E1C10E947F0360933C0670933D068093AE
:103EC0003E0690933F06C090FF05D0900006E0901C
:103ED0000106F09002062091C6053091C705409179
:103EE000C8055091C905C701B6010E943D261816A4
:103EF0003CF5C0902806D0902906E0902A06F09064
:103F00002B06A701960160912C0670912D068091D9
:103F10002E0690912F060E943D26181644F4C0925A
:103F20002C06D0922D06E0922E06F0922F0689E004
:103F300090E09093ED058093EC051092FE059AC1F8
:103F400020911C0630911D0640911E0650911F06BF
:103F5000EE962CAF3DAF4EAF5FAFEE974090CA05E7
:103F60005090CB056090CC057090CD05A3019201D7
:103F7000EE966CAD7DAD8EAD9FADEE970E949D230C
:103F800087FF2FC02091F2053091F3054091F40591
:103F90005091F505C301B2010E949D2387FF21C006
:103FA00020E030E040E451E4609110067091110689
:103FB00080911206909113060E943D2618168CF4EB
:103FC0002091A6053091A7054091A8055091A9051B
:103FD000C701B6010E943D2687FD03C083E090E043
:103FE000A8CF8091FE05811123C02091BE0530919C
:103FF000BF054091C0055091C105C701B6010E949F
:104000003D2687FD84C280912C0690912D06A091BB
:104010002E06B0912F068093EE059093EF05A093A6
:10402000F005B093F1053092ED052092EC0522C128
:104030002091BA053091BB054091BC055091BD055A
:10404000C701B6010E943D2687FD61C22091C205CD
:104050003091C3054091C4055091C505C701B60113
:104060000E9428259F772AE037ED43EA5BE30E9410
:104070009D2387FF64C060910306709104068091C0
:104080000506909106069F772AE037ED43EA5BE349
:104090000E949D2387FF53C0A3019201EE966CAD51
:1040A0007DAD8EAD9FADEE970E943D2618160CF0AB
:1040B00046C02FE832EC45EF5CE36091200670913A
:1040C000210680912206909123060E9403246B0111
:1040D0007C012CEE31E548E75FE360912C0670919E
:1040E0002D0680912E0690912F060E9403249B019D
:1040F000AC01C701B6010E9429256B017C0120E0BB
:1041000030E0A9010E949D2387FDF4C12AE939E925
:1041100049E95EE3C701B6010E943D2618163CF44A
:104120008AE9C82E89E9D82EED2C8EE3F82EC092AC
:104130002C06D0922D06E0922E06F0922F060E94B9
:104140007F03C0904806D0904906E0904A06F09060
:104150004B066C197D098E099F090E94A2236B01F1
:104160007C010E947F036093480670934906809308
:104170004A0690934B062091FF053091000640912E
:104180000106509102066091C2057091C3058091AD
:10419000C4059091C5050E9428252091E80530911D
:1041A000E9054091EA055091EB050E940324A7011F
:1041B00096010E9403242091F6053091F705409165
:1041C000F8055091F9050E9429256B017C0120E03A
:1041D00030E0A9010E949D2387FD90C10091D30585
:1041E000602F70E090E080E00E94A4239B01AC016E
:1041F000C701B6010E943D26181644F4602F70E0F6
:1042000090E080E00E94A2236B017C01C092F60541
:10421000D092F705E092F805F092F90520E030E041
:10422000A901C701B6010E943D2620E030E040E030
:104230005FE387FD67C1C701B6010E9429250E947F
:104240000726862F0E948B0380912C0690912D06C5
:10425000A0912E06B0912F068093EE059093EF0566
:10426000A093F005B093F10588E090E09093ED0500
:104270008093EC050E947F03C0908504D090860453
:10428000E0908704F09088046C197D098E099F09DD
:10429000643F71408105910508F41CC10E947F03B1
:1042A00060938504709386048093870490938804B8
:1042B000C0908104D0908204E0908304F090840444
:1042C0006C197D098E099F090E94F30D80E42296E6
:1042D0008FAF229783E190E024969FAF8EAF249713
:1042E00080E525968FAF25978AE0EA968FAFEA970B
:1042F00080917F049091800427969FAF8EAF27977F
:1043000080917D0490917E0429969FAF8EAF29976E
:1043100087E00E942B0260968FAF609780917C04AB
:1043200061968FAF61970E947F032F966CAF7DAF30
:104330008EAF9FAF2F9780917A0490917B04E9967E
:104340009FAF8EAFE9978091EC0562968FAF629731
:104350008091FF0590910006A0910106B0910206A0
:1043600066968CAF9DAFAEAFBFAF669780910C06DF
:1043700090910D06A0910E06B0910F066A968CAF33
:104380009DAFAEAFBFAF6A978091080690910906C6
:10439000A0910A06B0910B066E968CAF9DAFAEAFA2
:1043A000BFAF6E978091180690911906A0911A06DA
:1043B000B0911B06A2968CAF9DAFAEAFBFAFA297D8
:1043C0008091EE059091EF05A091F005B091F10577
:1043D000A6968CAF9DAFAEAFBFAFA69780913006CB
:1043E00090913106A0913206B0913306AA968CAF17
:1043F0009DAFAEAFBFAFAA978091240690912506DE
:10440000A0912606B0912706AE968CAF9DAFAEAFB9
:10441000BFAFAE9780912C0690912D06A0912E06ED
:10442000B0912F06E2968CAF9DAFAEAFBFAFE297D3
:1044300080919604E3968FAFE39780914006909128
:104440004106A0914206B0914306E7968CAF9DAF1E
:10445000AEAFBFAFE79749E350E0BE016F5B7F4F60
:104460008DEA94E00E94F50080917904882391F10F
:10447000C0905B05D0905C05E0905D05F0905E0516
:104480000E947F03E0E8CE0EEEEEDE1EE6E3EE1EB7
:10449000F11CA7019601261B370B480B590BCA01CB
:1044A000B90128EE33E040E050E00E946B263F93D4
:1044B0002F9386EF93E09F938F939F928F920E940A
:1044C000D926C4010E946C0D0F900F900F900F9091
:1044D0000F900F9080E090E0892B11F40C949419C8
:1044E0000E945F01882311F40C948E190E94000031
:1044F0000C948E19C12CD12C760119CEC12CD12C43
:10450000760184CEC701B6010E94282598CE20915D
:10451000B6053091B7054091B8055091B905C7016E
:10452000B6010E943D2687FD1BC020912C063091CC
:104530002D0640912E0650912F066091DC0570915A
:10454000DD058091DE059091DF050E9429256093AD
:10455000EE057093EF058093F0059093F10563CD20
:104560002091AE053091AF054091B0055091B10555
:10457000C701B6010E943D2687FD3CC02091B205CF
:104580003091B3054091B4055091B505C701B6010E
:104590000E949D2387FF1DC02091D8053091D90529
:1045A0004091DA055091DB0560912C0670912D0643
:1045B00080912E0690912F060E9429256093EE058A
:1045C0007093EF058093F0059093F1051092FE052E
:1045D0002ACD20912C0630912D0640912E06509127
:1045E0002F066091D4057091D5058091D6059091E4
:1045F000D705E2CF2091AA053091AB054091AC05DB
:104600005091AD05C701B6010E943D2687FF1BC032
:104610002091A6053091A7054091A8055091A905C4
:104620006091FF057091000680910106909102064D
:104630000E943D261816ACF1A2E0B0E0B093ED0563
:10464000A093EC057ACC0E947F03C0908A05D0909D
:104650008B05E0908C05F0908D056C157D058E0521
:104660009F05B0F620912C0630912D0640912E0624
:1046700050912F066091D8057091D9058091DA0587
:104680009091DB050E9429256093EE057093EF055C
:104690008093F0059093F1051092FE0546E050E0FE
:1046A00049CA84E090E045CC0E94CC0310923006C9
:1046B0001092310610923206109233061092FE05C7
:1046C00061E070E080915006909151060E94540D77
:1046D0008091FA059091FB05A091FC05B091FD0534
:1046E000892B8A2B8B2B09F4AFCA0E947F03C090C1
:1046F000FA05D090FB05E090FC05F090FD056C19E3
:104700007D098E099F09C090A205D090A305E09075
:10471000A405F090A505C616D706E806F90608F028
:10472000A9CD1092FA051092FB051092FC0510928B
:10473000FD05A0CD0E94CC03F0C90E94DF2308F440
:1047400081E00895E89409C097FB3EF49095809528
:10475000709561957F4F8F4F9F4F9923A9F0F92F47
:1047600096E9BB279395F695879577956795B795C5
:10477000F111F8CFFAF4BB0F11F460FF1BC06F5FAB
:104780007F4F8F4F9F4F16C0882311F096E911C0BD
:10479000772321F09EE8872F762F05C0662371F0DE
:1047A00096E8862F70E060E02AF09A95660F771FF2
:1047B000881FDAF7880F9695879597F90895990FCE
:1047C0000008550FAA0BE0E8FEEF16161706E807DB
:1047D000F907C0F012161306E407F50798F0621BFC
:1047E000730B840B950B39F40A2661F0232B242BD1
:1047F000252B21F408950A2609F4A140A6958FEFF0
:10480000811D811D08950E9416240C9487240E9406
:10481000792438F00E94802420F0952311F00C9424
:1048200070240C94762411240C94BB240E949824A8
:1048300070F3959FC1F3950F50E0551F629FF001F3
:10484000729FBB27F00DB11D639FAA27F00DB11D0C
:10485000AA1F649F6627B00DA11D661F829F222795
:10486000B00DA11D621F739FB00DA11D621F839F1C
:10487000A00D611D221F749F3327A00D611D231FF2
:10488000849F600D211D822F762F6A2F11249F5740
:1048900050409AF0F1F088234AF0EE0FFF1FBB1F43
:1048A000661F771F881F91505040A9F79E3F510502
:1048B00080F00C9470240C94BB245F3FE4F3983E8A
:1048C000D4F3869577956795B795F795E7959F5FAC
:1048D000C1F7FE2B880F911D9695879597F908953E
:1048E00097F99F6780E870E060E008959FEF80ECA3
:1048F000089500240A941616170618060906089546
:1049000000240A9412161306140605060895092EAB
:104910000394000C11F4882352F0BB0F40F4BF2B1A
:1049200011F460FF04C06F5F7F4F8F4F9F4F08955A
:1049300057FD9058440F551F59F05F3F71F0479550
:10494000880F97FB991F61F09F3F79F08795089535
:10495000121613061406551FF2CF4695F1DF08C054
:10496000161617061806991FF1CF86957105610571
:1049700008940895E894BB2766277727CB0197F919
:104980000895F999FECF92BD81BDF89A992780B517
:104990000895262FF999FECF1FBA92BD81BD20BD83
:1049A0000FB6F894FA9AF99A0FBE019608950E94EC
:1049B0001925A59F900DB49F900DA49F800D911D6A
:1049C000112408952F923F924F925F926F927F929F
:1049D0008F929F92AF92BF92CF92DF92EF92FF920F
:1049E0000F931F93CF93DF93CDB7DEB7CA1BDB0BBB
:1049F0000FB6F894DEBF0FBECDBF09942A88398860
:104A000048885F846E847D848C849B84AA84B98466
:104A1000C884DF80EE80FD800C811B81AA81B98172
:104A2000CE0FD11D0FB6F894DEBF0FBECDBFED0186
:104A30000895A29FB001B39FC001A39F700D811D77
:104A40001124911DB29F700D811D1124911D089597
:104A50005058BB27AA270E9440250C9487240E9407
:104A6000792438F00E94802420F039F49F3F19F413
:104A700026F40C9476240EF4E095E7FB0C94702455
:104A8000E92F0E94982458F3BA1762077307840726
:104A9000950720F079F4A6F50C94BA240EF4E0956D
:104AA0000B2EBA2FA02D0B01B90190010C01CA01E8
:104AB000A0011124FF27591B99F0593F50F4503E93
:104AC00068F11A16F040A22F232F342F4427585F85
:104AD000F3CF469537952795A795F0405395C9F79D
:104AE0007EF41F16BA0B620B730B840BBAF0915055
:104AF000A1F0FF0FBB1F661F771F881FC2F70EC0F4
:104B0000BA0F621F731F841F48F4879577956795C6
:104B1000B795F7959E3F08F0B0CF9395880F08F0B2
:104B20009927EE0F9795879508950E94A9250C94D3
:104B300087240E94802458F00E94792440F029F4B0
:104B40005F3F29F00C94702451110C94BB240C94F9
:104B500076240E94982468F39923B1F3552391F3A6
:104B6000951B550BBB27AA2762177307840738F0DC
:104B70009F5F5F4F220F331F441FAA1FA9F335D039
:104B80000E2E3AF0E0E832D091505040E695001CED
:104B9000CAF72BD0FE2F29D0660F771F881FBB1FA7
:104BA000261737074807AB07B0E809F0BB0B802D85
:104BB000BF01FF2793585F4F3AF09E3F510578F0B1
:104BC0000C9470240C94BB245F3FE4F3983ED4F320
:104BD000869577956795B795F7959F5FC9F7880F85
:104BE000911D9695879597F90895E1E0660F771FD7
:104BF000881FBB1F621773078407BA0720F0621B68
:104C0000730B840BBA0BEE1F88F7E09508950E9492
:104C10000E266894B1110C94BB2408950E94A02420
:104C200088F09F5798F0B92F9927B751B0F0E1F06D
:104C3000660F771F881F991F1AF0BA95C9F714C01D
:104C4000B13091F00E94BA24B1E008950C94BA24D6
:104C5000672F782F8827B85F39F0B93FCCF3869556
:104C600077956795B395D9F73EF4909580957095B3
:104C700061957F4F8F4F9F4F08950E94DF2308F467
:104C80008FEF08950E94DF23880B990B0895DB01B5
:104C90008F939F930E94D724BF91AF91A29F800DC5
:104CA000911DA39F900DB29F900D1124089597FB25
:104CB000072E16F4009407D077FD09D00E94B9267C
:104CC00007FC05D03EF4909581959F4F089570950F
:104CD00061957F4F0895A1E21A2EAA1BBB1BFD010F
:104CE0000DC0AA1FBB1FEE1FFF1FA217B307E407CB
:104CF000F50720F0A21BB30BE40BF50B661F771F23
:104D0000881F991F1A9469F7609570958095909502
:104D10009B01AC01BD01CF010895052E97FB1EF448
:104D200000940E94A42657FD07D00E946B2607FC22
:104D300003D04EF40C94A4265095409530952195BF
:104D40003F4F4F4F5F4F08959095809570956195B7
:104D50007F4F8F4F9F4F0895EE0FFF1F0590F491E7
:104D6000E02D09940E941925B7FF0895821B930B2B
:104D70000895AA1BBB1B51E107C0AA1FBB1FA617A2
:104D8000B70710F0A61BB70B881F991F5A95A9F7F4
:104D900080959095BC01CD01089581E090E0F89454
:104DA0000C947A29FB01DC0101900D920020E1F7BF
:104DB0000895AEE0B0E0EFEDF6E20C94F0240D893A
:104DC0001E8986E08C831A8309838FEF9FE79E8379
:104DD0008D83AE01475E5F4F6F89788DCE0101965E
:104DE0000E94FC262F813885020F131FF8011082C4
:104DF0002E96E4E00C940C25ABE0B0E0E2E0F7E2A4
:104E00000C94E2247C013B018A01FC01178216828A
:104E1000838181FFC8C1CE0101965C01F7019381B6
:104E2000F30193FD859193FF81913F01882309F45C
:104E300053C1853239F493FD859193FF81913F01F0
:104E4000853229F4B70190E00E94EC28E7CF912C3D
:104E5000212C312CFFE1F31538F08B3211F190F455
:104E6000803209F1833229F137FC3CC020ED280F54
:104E70002A3050F536FE20C08AE0989E200D11247D
:104E8000922E06C08D3291F0803371F7689430F81D
:104E9000F30193FD859193FF81913F018111DACF59
:104EA00021C0689431F8689432F8F2CF689433F8EE
:104EB000EFCF689434F8ECCFEAE02E9E200D112459
:104EC000222E689435F8E4CF8E3229F436FC04C1E2
:104ED000689436F8DDCF8C3619F4689437F8D8CF5B
:104EE0008836B1F2982F9F7D95549330E0F0833649
:104EF000A1F18337C1F1833509F063C02801F2E0E5
:104F00004F0E511CF801C080D180692D70E036FC35
:104F100002C06FEF7FEFC6010E94D6284C01689453
:104F200037F882010AC00C5F1F4FFFE3F983882422
:104F30008394912C6501E89437F833FE2DC0522CF0
:104F40008114910471F5552009F468CFB70180E20E
:104F500090E00E94EC285A94F6CFF8018081898372
:104F60000E5F1F4FE4CF2801F2E04F0E511CF801F5
:104F7000C080D180692D70E036FC02C06FEF7FEFFA
:104F8000C6010E94E1284C018201D5CFB70180E221
:104F900090E00E94EC282A942814190409F0B0F734
:104FA000CECFF60137FC859137FE81916F01B701B5
:104FB00090E00E94EC2851105A94F1E08F1A910869
:104FC000BFCF843619F0893609F077C0F80137FE73
:104FD0006BC060817181828193810C5F1F4FF32DC3
:104FE000FF763F2E97FF09C090958095709561954B
:104FF0007F4F8F4F9F4F689437F82AE030E0A5012C
:105000000E941C29C82ECA188C2C432C36FE0CC0BA
:10501000E89440F8C91440F434FE05C032FC03C0E3
:10502000F32DFE7E4F2E892C44FE95C0FE01EC0D23
:10503000F11D8081803309F087C0242D297E422E06
:10504000842D8870582E43FC95C040FE8FC09C2C48
:10505000821418F42C0C922C981844FE91C0B701BD
:1050600080E390E00E94EC2842FE09C088E790E0CF
:1050700041FE02C088E590E0B7010E94EC28C91407
:1050800008F48AC0CA94D12C9FEFC91AD90ACA0C55
:10509000DB1CF60182916F01B70190E00E94EC28C1
:1050A000AC14BD04B1F74FCF60817181072E000CA5
:1050B000880B990B0E5F1F4F92CFD32CE894D4F836
:1050C0002AE030E0853739F1232D297FD22E8F3623
:1050D00001F148F48835A9F0F701868197812B9674
:1050E000E2E10C94FE24803749F08837A9F7D4FE1A
:1050F00002C06894D2F820E130E00DC06894D4F882
:10510000F6CF34FE03C0822F8660D82E20E132E035
:1051100002C028E030E0F801D7FE0FC06081718145
:10512000828193810C5F1F4FA5010E941C29C82E0C
:10513000CA183D2CE89437F867CF6081718190E000
:1051400080E00E5F1F4FF0CF42FC02C0839478CF07
:105150008394839475CF842D867809F471CFF6CF2C
:10516000B70180E290E00E94EC2883948214C0F39F
:10517000512C73CF522C5818821408F46ECFF8CFEC
:10518000842D867809F47BCF8BE241FE80E247FCD8
:105190008DE2B70190E071CFB70180E390E00E940B
:1051A000EC289A946CCF8FEF9FEF99CFFC0105907C
:1051B000615070400110D8F7809590958E0F9F1F19
:1051C0000895FC016150704001900110D8F780955E
:1051D00090958E0F9F1F08950F931F93CF93DF938A
:1051E000182F092FEB018B8181FD09C01FEF0FEFF5
:1051F000812F902FDF91CF911F910F91089582FF02
:1052000014C02E813F818C819D81281739073CF481
:10521000E881F981CF0101969983888310838E817B
:105220009F8101969F838E83E3CFE885F985812F47
:105230000995892BA1F3DACFFA01AA27283051F179
:10524000203181F1E8946F936E7F6E5F7F4F8F4FB7
:105250009F4FAF4FB1E03ED0B4E03CD0670F781F16
:10526000891F9A1FA11D680F791F8A1F911DA11DFB
:105270006A0F711D811D911DA11D20D009F4689434
:105280003F912AE0269F11243019305D3193DEF6DC
:10529000CF010895462F4770405D4193B3E00FD092
:1052A000C9F7F6CF462F4F70405D4A3318F0495D7D
:1052B00031FD4052419302D0A9F7EACFB4E0A69560
:1052C0009795879577956795BA95C9F70097610582
:1052D000710508959B01AC010A2E069457954795D8
:1052E00037952795BA95C9F7620F731F841F951FCD
:0852F000A01D0895F894FFCF02
:1052F800F609F60901E803E803F401F401C800C857
:10530800006400E803E8036400960096009600E84D
:105318000396009600960096009600E803000000A9
:10532800000F110F110F11170D130D100D000000B4
:1053380000CD0C890C870C170D130DF200340A00F0
:105348000000009501F5002201E2015301310145F9
:10535800016E616E00696E66006F76660065657045
:10536800726F6D5F7772697465732000766F6C7405
:105378006167655F63616C6962726174696F6E5FB2
:10538800646F6E652000766F6C746167655F63613A
:105398006C6962726174696F6E5F76616C756520A5
:1053A800007761746368646F675F656E61626C65DE
:1053B8006420006368617267696E675F656E616229
:1053C8006C656420007761746368646F675F636FFE
:1053D800756E7420007761746368646F675F7469C1
:1053E8006D6520004820280029007761746368648F
:1053F8006F675F626F6F745F636F756E74200062B2
:10540800617365626F6172645F626F6F745F636F0F
:10541800756E74200073746F705F6368617267697A
:105428006E675F696E74657272757074210D0A001B
:105438005741524E494E473A2048415244574152EB
:105448004520524556204D49534D41544348202D3F
:105458002D3E2044495341424C4544204348415243
:1054680047494E470D0A00456E61626C65206368C6
:10547800617267696E670D0A0044697361626C65E1
:10548800206368617267696E670D0A00766F6C74D5
:105498006167655F63616C6962726174696F6E5F91
:1054A80076616C75653A20004572726F723A2063B6
:1054B800616C696272617465207061636B616765B4
:1054C800207265636569766564207768696C652014
:1054D8006E6F7420696E2063616C696272617469B1
:1054E8006E67206D6F64652100456E61626C652092
:1054F8004952204C45440D0A0044697361626C6549
:10550800204952204C45440D0A0057617463686471
:105518006F6720656E61626C65640D0A005761747F
:105528006368646F672064697361626C65640D0AFF
:10553800005761726E696E672066616E20706163E4
:105548006B616765206E6F742079657420696D7072
:105558006C656D656E7465640D0A005265626F6FE7
:1055680074204E55430D0A00636C65617220636FA9
:105578006E66696720616C6C0D0A00636C65617208
:1055880020636F6E666967206C6F670D0A00636C35
:1055980065617220636F6E66696720686172640D69
:1055A8000A00486172647761726520766572736972
:1055B8006F6E200042617365626F6172642073745C
:1055C8006172746564210D0A005475726E206F66ED
:1055D80066204E55430D0A005475726E206F6E207A
:1055E8004E55430D0A005761746368646F672077EE
:1055F800696C6C207472696767657220696E202512
:0E56080064207365636F6E6473210D0A0000E9
:00000001FF
