:100000000C9462000C9495120C946E120C948A005D
:100010000C948A000C948A000C948A000C948A0038
:100020000C948A000C948A000C948A000C948A0028
:100030000C948A000C948A000C948A000C948A0018
:100040000C9424120C948A000C94E2120C94BC12AE
:100050000C948A000C948A000C948A000C948A00F8
:100060000C948A000C948A000000000024002700F1
:100070002A0000000000250028002B0000000000DE
:1000800023002600290004040404040404040202DA
:100090000202020203030303030301020408102007
:1000A0004080010204081020010204081020000012
:1000B0000008000201000003040700000000000027
:1000C0000000141311241FBECFEFD8E0DEBFCDBF58
:1000D00026E0AEE1B4E001C01D92A033B207E1F723
:1000E00014E0A0E0B1E0ECECFBE402C005900D925E
:1000F000AE31B107D9F710E0C2E6D0E004C02197D5
:10010000FE010E941623C136D107C9F70E94F714D9
:100110000C94E4250C940000CF92DF92EF92FF92B2
:100120000F931F93FC0189019A01809175059091AD
:1001300076050E94C12290937605809375054091C3
:100140007C0550917D0560917E0570917F05680169
:100150007901C41AD50AE60AF70AAC01440F551F03
:10016000E40FF51F40815181052E000C660B770BC3
:100170004C155D056E057F05C0F4019690937605DC
:100180008093750500937C0510937D0520937E0573
:1001900030937F0591E090937B0580FF0DC0109216
:1001A0006A0510926B0510926C051F910F91FF90DC
:1001B000EF90DF90CF9008958091700580936A054D
:1001C0008091710580936B058091720580936C0519
:1001D000ECCF833081F028F4813099F08230A9F09F
:1001E00008958730A9F08830C9F08430B1F4809147
:1001F00080008F7D03C0809180008F778093800086
:10020000089584B58F7784BD089584B58F7DFBCF25
:100210008091B0008F778093B00008958091B000F6
:100220008F7DF9CFCF93DF93282F30E0F901E2558E
:10023000FF4F8491F901E656FF4FD491F901EA5737
:10024000FF4FC491CC23A1F081110E94E900EC2F53
:10025000F0E0EE0FFF1FE458FF4FA591B491EC9131
:10026000ED2381E090E009F480E0DF91CF910895E3
:1002700080E090E0FACF1F93CF93DF93282F30E0F8
:10028000F901E255FF4F8491F901E656FF4FD491F1
:10029000F901EA57FF4FC491CC23A9F0162F811121
:1002A0000E94E900EC2FF0E0EE0FFF1FEE58FF4F29
:1002B000A591B4918FB7F894EC91111108C0D09525
:1002C000DE23DC938FBFDF91CF911F910895DE2B4A
:1002D000F8CFCF93DF9390E0FC01E656FF4F2491D7
:1002E0008A579F4FFC0184918823D1F090E0880FBA
:1002F000991FFC01E859FF4FA591B491FC01EE58FC
:10030000FF4FC591D49161110EC09FB7F8948C91A5
:10031000E22FE0958E238C932881E223E8839FBF10
:10032000DF91CF9108958FB7F894EC91E22BEC9385
:100330008FBFF6CF1F93CF93DF93182FEB0161E0B0
:100340000E946901209739F460E0812FDF91CF91FD
:100350001F910C943B01CF3FD10511F461E0F5CF23
:10036000E12FF0E0E255FF4FE491E33031F140F44A
:10037000E130B1F0E230E1F0C038D1057CF7E4CFF4
:10038000E73029F1E83059F1E430B1F7809180008D
:10039000806280938000D0938B00C0938A0004C059
:1003A00084B5806884BDC7BDDF91CF911F9108954A
:1003B00084B5806284BDC8BDF7CF8091800080681D
:1003C00080938000D0938900C0938800EDCF809106
:1003D000B00080688093B000C093B300E5CF8091F7
:1003E000B00080628093B000C093B400DDCF209154
:1003F000040190E4299F900111248E50822B809358
:100400007C0080917A00806480937A0080917A00E9
:1004100086FDFCCF809178009091790008953FB7D8
:10042000F8948091830490918404A0918504B09104
:10043000860426B5A89B05C02F3F19F00196A11D83
:10044000B11D3FBFBA2FA92F982F8827BC01CD011E
:10045000620F711D811D911D42E0660F771F881F7D
:10046000991F4A95D1F708958F929F92AF92BF92AC
:10047000CF92DF92EF92FF924B015C010E940F023C
:100480006B017C010E940F026C197D098E099F0986
:10049000683E734081059105A8F321E0821A910816
:1004A000A108B10888EEC80E83E0D81EE11CF11C3B
:1004B00081149104A104B10429F7FF90EF90DF901B
:1004C000CF90BF90AF909F908F90089580939404A9
:1004D000F8949091930491110CC0882361F060917D
:1004E000940470E08AE00E949A0161E089E00E9431
:1004F0003B017894089570E060E08AE00E949A01E0
:1005000061E070E080E090E00E94340260E089E009
:100510000E943B0161E070E080E090E00E943402C4
:100520006FEF70E08AE00E949A01E3CF2FB7F89452
:1005300060917F0470918004809181049091820485
:100540002FBF08958F929F92AF92BF92CF92DF926A
:10055000EF92FF9210920206109203061092040688
:100560001092050683E10E94F701BC01990F880BE8
:10057000990B0E940E2020E030E040E05FE30E94F3
:10058000932120E030E040EA50E40E946D2020E01A
:1005900030E040E85AE30E946D206B017C0182E16B
:1005A0000E94F701BC01990F880B990B0E940E2045
:1005B00020E030E040E05FE30E94932120E030E063
:1005C00040EA50E40E946D2020E030E040E85AE329
:1005D0000E946D20A70196010E94922120E030E048
:1005E00040E850E40E946D204B015C01AC019B018E
:1005F0006091ED057091EE058091EF059091F00509
:100600000E9492216093F1057093F2058093F305A7
:100610009093F4059F77209180053091810540915A
:100620008205509183050E940720881F8827881F14
:100630008093F5058092ED059092EE05A092EF056E
:10064000B092F00520E030E040E850E4C701B60188
:100650000E946D206093F6057093F7058093F8056E
:100660009093F9051092FA051092FB051092FC0583
:100670001092FD050E949602C0902606D090270693
:10068000E0902806F09029066C197D098E099F09D3
:100690000E940C206B017C010E949602609326064A
:1006A00070932706809328069093290620910E06C2
:1006B00030910F064091100650911106C701B60106
:1006C0000E946D2020E030E041E655E40E94FF21C9
:1006D0009B01AC0160911206709113068091140683
:1006E000909115060E949221609312067093130652
:1006F00080931406909315061092E0051092E10580
:100700001092E2051092E30580E0FF90EF90DF90F9
:10071000CF90BF90AF909F908F900C9466024F92B5
:100720005F926F927F928F929F92AF92BF92CF9281
:10073000DF92EF92FF92CF93DF9300D000D0CDB73E
:10074000DEB75C018EE00E94F701BC01990F880BB7
:10075000990B0E940E2020E030E040E85AE30E940E
:100760006D2020E030E040EA50E40E946D202DEC46
:100770003CEC4CE050E40E946D20209194053091B7
:10078000950540919605509197050E94FF216B01B8
:100790007C012DEC3CEC4CE45DE30E946D202B01D0
:1007A0003C0123E333E343E75FE3C701B6010E9463
:1007B0006D209B01AC01C301B2010E9493216093A3
:1007C000020670930306809304069093050683E166
:1007D0000E94F701BC01990F880B990B0E940E2013
:1007E00020E030E040E05FE30E94932120E030E031
:1007F00040EA50E40E946D2020E030E040E85AE3F7
:100800000E946D206B017C0182E10E94F701BC0116
:10081000990F880B990B0E940E2020E030E040E0F9
:100820005FE30E94932120E030E040EA50E40E9420
:100830006D2020E030E040E85AE30E946D20A701DF
:1008400096010E94922120E030E040E850E40E94AE
:100850006D202B013C01AC019B016091FA05709168
:10086000FB058091FC059091FD050E94922160930B
:10087000FE057093FF058093000690930106409259
:10088000FA055092FB056092FC057092FD0520E090
:1008900030E040E850E4C701B6010E946D2060934B
:1008A000F6057093F7058093F8059093F9050E947B
:1008B0009602C0902606D0902706E0902806F09079
:1008C00029066C197D098E099F090E940C202B01B5
:1008D0003C010E949602609326067093270680933F
:1008E000280690932906C0900206D0900306E09057
:1008F0000406F090050620910E0630910F064091F7
:10090000100650911106C701B6010E949221A30161
:1009100092010E946D2020E030E041E655E40E9403
:10092000FF21209112063091130640911406509138
:1009300015060E949321609312067093130680930C
:1009400014069093150660912206709123068091FB
:100950002406909125060E940C20A30192010E947A
:1009600093210E947822609322067093230680933D
:100970002406909325062DEC3CEC4CEC5DE3C7017E
:10098000B6010E94A7221816D4F52091ED053091EA
:10099000EE054091EF055091F0056091FA057091D8
:1009A000FB058091FC059091FD050E949221A70115
:1009B00096010E94FF212AE037ED43EA5BE30E94A3
:1009C0006D206B017C0122E538EB4EE75FE360911F
:1009D00006067091070680910806909109060E940C
:1009E0006D209B01AC01C701B6010E949321609369
:1009F000060670930706809308069093090681E027
:100A0000A816B104B1F48091C4050F900F900F9017
:100A10000F90DF91CF91FF90EF90DF90CF90BF903C
:100A2000AF909F908F907F906F905F904F900C94BD
:100A3000660294E0A916B10409F4CAC020E030E0CF
:100A4000A9016091E0057091E1058091E205909126
:100A5000E3050E94A72218160CF080C10E9496029E
:100A60000E94960260932A0670932B0680932C06B0
:100A700090932D064090E0055090E1056090E205CE
:100A80007090E305C0900206D0900306E090040643
:100A9000F09005062091E4053091E5054091E605CA
:100AA0005091E705C301B2010E9492214B015C0104
:100AB00020E030E0A9010E94A72218160CF09BC08C
:100AC00080919404811197C020910A0630910B0601
:100AD00040910C0650910D06C501B4010E9492216F
:100AE0002091D6053091D7054091D8055091D90570
:100AF0000E946D204B015C016091C40570E090E0A4
:100B000080E00E940E209B01AC01C501B4010E944F
:100B100093214B015C0120E030E040E85FE3C70136
:100B2000B6010E94A72218160CF072C02091ED05A4
:100B30003091EE054091EF055091F0056091FA0576
:100B40007091FB058091FC059091FD050E94A72204
:100B500018160CF05DC06091C40570E090E080E074
:100B60000E940C206093E8057093E9058093EA05E4
:100B70009093EB05C090E805D090E905E090EA0578
:100B8000F090EB0520E030E0A901C701B6010E941A
:100B9000A72220E030E040E05FE387FDDAC0C70134
:100BA000B6010E9493210E947122862F0E94660244
:100BB0008091E0059091E105A091E205B091E305F7
:100BC0008093E4059093E505A093E605B093E705CF
:100BD0000F900F900F900F90DF91CF91FF90EF90BB
:100BE000DF90CF90BF90AF909F908F907F906F904D
:100BF0005F904F9008952091D6053091D705409190
:100C0000D8055091D905C501B4010E946D2081CF4E
:100C100023E333E343E35FE3C701B6010E94A72266
:100C2000181604F52091ED053091EE054091EF0581
:100C30005091F0056091FA057091FB058091FC05DB
:100C40009091FD050E94A722181664F46091C405D6
:100C500070E0660F771F072E000C880B990B0E941F
:100C60000E2080CF8091E8059091E905A091EA05DA
:100C7000B091EB0589839A83AB83BC83A70196016E
:100C8000C301B2010E9492212091D2053091D30577
:100C90004091D4055091D5050E946D20A501940185
:100CA0000E9493216B017C0120E030E04FE753EC80
:100CB0000E94072087FD42C020E030E040E752E478
:100CC000C701B6010E94A722181634F4C12CD12CFA
:100CD00090E7E92E92E4F92EA701960169817A81C5
:100CE0008B819C810E9493216B017C0120E030E08C
:100CF000A9010E94072087FD28C0B090C5056B2D73
:100D000070E090E080E00E940E209B01AC01C701E2
:100D1000B6010E94A722181644F46B2D70E090E0F3
:100D200080E00E940C206B017C01C092E805D0920B
:100D3000E905E092EA05F092EB051CCFC12CD12C1D
:100D40008FE7E82E83ECF82EC7CFC12CD12C76018B
:100D5000ECCFC701B6010E94922125CF80E026CFBB
:100D60004F925F926F927F929F92AF92BF92CF927B
:100D7000DF92EF92FF920F931F93CF93DF9300D0F8
:100D80001F92CDB7DEB7D82E80914B0590914C05C0
:100D9000A0914D05B0914E05892B8A2B8B2BD9F054
:100DA0000E940F0200918F041091900420919104F1
:100DB00030919204601B710B820B930B00914B05D9
:100DC00010914C0520914D0530914E05601771072B
:100DD00082079307C8F20E940F0260938F047093FA
:100DE00090048093910490939204E0915305F091C4
:100DF0005405309759F040914F055091500560913E
:100E00005105709152058D2D0995D82EE0908D04D5
:100E1000F0908E044D2C512C712C612CE114F104B6
:100E200009F459C0D7011C96CC901C9780914905B4
:100E300090914A058436910510F41C961C92D701B6
:100E4000ED91FC91A280B38019821A821B82DD2071
:100E500079F1F701369610E000E02191222319F193
:100E60009280992001F130E050E040E02F5F3F4F49
:100E70004F4F5F4FC301B2010E94B1229B01AC01F1
:100E8000892D90E0B0E0A0E0BC01CD016F5F7F4F05
:100E90008F4F9F4F0E94B122A1E0B0E0AC0FBD1F69
:100EA000A00FB11F8C930F5F1F4F03301105A9F6E0
:100EB00009811A812B81F7014585568562817381ED
:100EC000C701F5010995D7011C96CC921C97149681
:100ED000ED90FC90A3CF80918B0490918C048C01B9
:100EE0000F5F1F4F10938C0400938B044997B4F14C
:100EF0000E949602C0908704D0908804E0908904F4
:100F0000F0908A049B01AC012C193D094E095F0940
:100F100021F421E030E040E050E088EE93E0089FCB
:100F2000B001099F700D189F700D1124072E000C41
:100F3000880B990B0E94D52230934A0520934905CE
:100F400010928C0410928B040E9496026093870486
:100F5000709388048093890490938A040F900F9073
:100F60000F90DF91CF911F910F91FF90EF90DF9045
:100F7000CF90BF90AF909F907F906F905F904F9079
:100F8000089580E991E008950895AF92BF92CF92BD
:100F9000DF92EF92FF920F931F93CF93DF936C0139
:100FA0007B018B01040F151FEB015E01AE18BF081A
:100FB000C017D10759F06991D601ED91FC910190CC
:100FC000F081E02DC6010995892B79F7C501DF91E4
:100FD000CF911F910F91FF90EF90DF90CF90BF9036
:100FE000AF900895FC01538D448D252F30E0842F60
:100FF00090E0821B930B541710F0CF960895019741
:101000000895FC01918D828D981761F0A28DAE0F2D
:10101000BF2FB11D5D968C91928D9F5F9F73928FB4
:1010200090E008958FEF9FEF0895FC01918D828DE0
:10103000981731F0828DE80FF11D858D90E00895AD
:101040008FEF9FEF0895FC01918D228D892F90E005
:10105000805C9F4F821B91098F73992708958BEABB
:1010600094E00E94230821E0892B09F420E0822FDC
:10107000089580E090E0892B29F00E942F088111CB
:101080000C9400000895FC01A48DA80FB92FB11D88
:10109000A35ABF4F2C91848D90E001968F739927AE
:1010A000848FA689B7892C93A089B1898C9183708C
:1010B00080648C93938D848D981306C00288F38985
:1010C000E02D80818F7D80830895EF92FF920F93B2
:1010D0001F93CF93DF93EC0181E0888F9B8D8C8DE4
:1010E00098131AC0E889F989808185FF15C09FB7D8
:1010F000F894EE89FF896083E889F989808183709B
:10110000806480839FBF81E090E0DF91CF911F9149
:101110000F91FF90EF900895F62E0B8D10E00F5F6A
:101120001F4F0F731127E02E8C8D8E110CC00FB640
:1011300007FCFACFE889F989808185FFF5CFCE01D8
:101140000E944308F1CFEB8DEC0FFD2FF11DE35A08
:10115000FF4FF0829FB7F8940B8FEA89FB8980815B
:101160008062CFCFCF93DF93EC01888D8823B9F0D5
:10117000AA89BB89E889F9898C9185FD03C08081A2
:1011800086FD0DC00FB607FCF7CF8C9185FFF2CF1F
:10119000808185FFEDCFCE010E944308E9CFDF912A
:1011A000CF9108950F931F93CF93DF932091350430
:1011B0002F5F322F37703093350420FF2BC020E88B
:1011C00031FD2064347009F02062205FFC01EC01E5
:1011D000239600E011E06485662329F070E0C801E1
:1011E0000E94C1226F5F6187322F369F030E30E06D
:1011F000311D1124311110C01682662311F0615087
:1012000061873196EC17FD0731F7DF91CF911F9180
:101210000F91089520E0D4CF31503683EECF4F9216
:101220005F926F927F928F92AF92BF92CF92DF9236
:10123000EF920F931F93CF93DF933C01EB010E943A
:101240000F02F30127853089621B730B6A30710529
:10125000B0F3F894E881F9817BB174606BB16B7F76
:101260006BB9CA848F812C2D281B822F2F83BF84BA
:101270004A805B801D850C85DE841F5F0F5FD394E1
:101280009E813885A984EB844181D20120E0C32F5F
:10129000522F322F3181442788943111380F08F4AE
:1012A0003FEF8195889410FD430F4795889411FD79
:1012B000430F4795889412FD430F4795889413FD7B
:1012C000430F4795889414FD430F4795889415FD67
:1012D000430F4795889416FD430F4795889417FD53
:1012E000430F47958894232F1111242F8C0D422FE3
:1012F000002C7BB900C047FF6BB93081222788944E
:1013000000C000C0002C6BB93111390F00C0002C97
:101310007BB900C046FF6BB908F43FEF9195889404
:1013200000C000C0002C6BB900FD230F00C0002CD2
:101330007BB900C045FF6BB92795889401FD230F49
:1013400000C000C0002C6BB92795889400C0002C09
:101350007BB900C044FF6BB902FD230F2795889429
:1013600000C000C0002C6BB903FD230F00C0002C8F
:101370007BB900C043FF6BB92795889404FD230F08
:1013800000C000C0002C6BB92795889400C0002CC9
:101390007BB900C042FF6BB905FD230F27958894E8
:1013A00000C000C0002C6BB906FD230F00C0002C4C
:1013B0007BB900C041FF6BB92795889407FD230FC7
:1013C00000C000C0002C6BB92795889400C0002C89
:1013D0007BB900C040FF6BB9432F0111422F9A0D1A
:1013E00000C000C0002C6BB900C000C0002C7BB94D
:1013F00000C047FF6BB932812227889400C000C02B
:10140000002C6BB931113C0F00C0002C7BB900C01F
:1014100046FF6BB908F43FEFEB0DF11D00C000C0B3
:10142000002C6BB9D0FC230F00C0002C7BB900C08E
:1014300045FF6BB927958894D1FC230F00C000C0ED
:10144000002C6BB92795889400C0002C7BB900C094
:1014500044FF6BB9D2FC230F2795889400C000C0CD
:10146000002C6BB9D3FC230F00C0002C7BB900C04B
:1014700043FF6BB927958894D4FC230F00C000C0AC
:10148000002C6BB92795889400C0002C7BB900C054
:1014900042FF6BB9D5FC230F2795889400C000C08C
:1014A000002C6BB9D6FC230F00C0002C7BB900C008
:1014B00041FF6BB927958894D7FC230F00C000C06B
:1014C000002C6BB92795889400C0002C7BB900C014
:1014D00040FF6BB9432FD110422FC19500C000C00F
:1014E000002C6BB9CE0D00C000C07BB900C047FF17
:1014F0006BB931812227889400C000C0002C6BB9E1
:101500003111380F00C0002C7BB900C046FF6BB909
:1015100008F43FEF8195889400C000C0002C6BB99F
:1015200010FD230F00C0002C7BB900C045FF6BB934
:101530002795889411FD230F00C000C0002C6BB9C3
:101540002795889400C0002C7BB900C044FF6BB97C
:1015500012FD230F2795889400C000C0002C6BB9A2
:1015600013FD230F00C0002C7BB900C043FF6BB9F3
:101570002795889414FD230F00C000C0002C6BB980
:101580002795889400C0002C7BB900C042FF6BB93E
:1015900015FD230F2795889400C000C0002C6BB95F
:1015A00016FD230F00C0002C7BB900C041FF6BB9B2
:1015B0002795889417FD230F00C000C0002C6BB93D
:1015C0002795889400C0002C7BB900C040FF6BB900
:1015D000432F1111422F8C0D00C000C0002C6BB99D
:1015E000119709F086CE20EE31E0D2010E941C2333
:1015F000DC01CB01F4E0B695A79597958795FA9510
:10160000D1F730E020E0B901EAE94E9E040C611DFB
:101610005E9E600D711D1124650D711D860F971F53
:10162000A11DB11D893E43E09407A105B10508F451
:1016300034C0885E9340A109B10942E0B695A795F0
:10164000979587954A95D1F747E0849F080E211D0D
:10165000949F200D311D1124290F311D60913404F8
:1016600070E0860F971F820F931F40917F04509167
:1016700080046091810470918204292F3327420FE6
:10168000531F611D711D40937F045093800460932C
:101690008104709382048093340478940E940F0232
:1016A000F301708B6787DF91CF911F910F91EF90BE
:1016B000DF90CF90BF90AF908F907F906F905F90B2
:1016C0004F900895529A0895EF92FF920F931F93AF
:1016D000CF93DF93CDB7DEB762970FB6F894DEBF36
:1016E0000FBECDBF7C01DC011C968C917A8369838F
:1016F0005C834B835E834D830D871E872F878130EC
:1017000001F5CE0101960E94D20883E0888B1A8AE7
:10171000198AD701ED91FC910484F585E02DBE0175
:101720006F5F7F4FC701099562960FB6F894DEBFD1
:101730000FBECDBFDF91CF911F910F91FF90EF9022
:1017400008951C861B861A86198618861F82DDCF8F
:10175000EF92FF920F931F93CF93DF93CDB7DEB736
:1017600062970FB6F894DEBF0FBECDBF7C01DC01DF
:101770001C968C917A8369835C834B835E834D8353
:101780000D871E872F878130F9F4CE0101960E94C4
:10179000D208188A1A8A198AD701ED91FC9104841B
:1017A000F585E02DBE016F5F7F4FC70109956296F9
:1017B0000FB6F894DEBF0FBECDBFDF91CF911F9162
:1017C0000F91FF90EF9008951C861B861A8619864C
:1017D00018861F82DECF90E080E00895FC018585A9
:1017E000968508950F931F93CF93DF9300D01F9298
:1017F000CDB7DEB7AB0119821A821B82DC01ED91F5
:10180000FC910190F081E02D00E010E020E0BE01AD
:101810006F5F7F4F09950F900F900F90DF91CF91E1
:101820001F910F910895809194048823B9F081E06D
:101830008093930470E060E08AE00E949A0161E086
:1018400070E080E090E00E94340260E089E00E9455
:101850003B016FEF70E08AE00C949A010895FC015F
:10186000808191818617970721F07183608381E0E1
:1018700080870895FC0101900020E9F73197AF01BE
:10188000481B590BBC018BEA94E00C94C5070097E8
:1018900011F00C943A0C90E080E008958F929F92A2
:1018A000AF92BF920F931F93CF93DF93CDB7DEB765
:1018B000A1970FB6F894DEBF0FBECDBF19A242307C
:1018C00008F44AE08E010F5D1F4F842E912CB12C3D
:1018D000A12CA50194010E94D522E62FB901CA01CD
:1018E000EA30D4F4E05DD801EE938D01232B242B54
:1018F000252B79F7CD010E94470CA1960FB6F894DD
:10190000DEBF0FBECDBFDF91CF911F910F91BF9072
:10191000AF909F908F900895E95CE5CF0C94470CB1
:10192000CF93DF930E94470CEC0186ED93E00E9479
:101930003A0C8C0F9D1FDF91CF910895FF920F936A
:101940001F93CF93DF9305E914E0D0E0C0E0F801E6
:10195000F1908F01CE010E942B21F81621F06F2DFE
:10196000CE010E9433212196C631D10581F785E948
:1019700094E0DF91CF911F910F91FF900895E5E9D9
:10198000F4E080819181A281B3810196A11DB11DF6
:1019900080839183A283B3830C949E0C0F931F9337
:1019A0006093A2047093A3048093A4049093A5046D
:1019B0000E9496020091300410913104209132046B
:1019C00030913304601B710B820B930B613C7742A7
:1019D0008940910560F00E94BF0C0E9496026093BE
:1019E00030047093310480933204909333041F9138
:1019F0000F910895CF93DF93BC0190E080E04AE01F
:101A00000E944E0CEC0186ED93E00E943A0C8C0F84
:101A10009D1FDF91CF910895CF92DF92EF92FF92B9
:101A2000CF93DF9397FF1BC06B017C016DE28BEAC4
:101A300094E00E946508EC0166277727CB016C19BA
:101A40007D098E099F094AE00E944E0C8C0F9D1F54
:101A5000DF91CF91FF90EF90DF90CF9008954AE013
:101A6000DF91CF91FF90EF90DF90CF900C944E0CD0
:101A7000CF93DF93BC01990F880B990B0E940C0D3B
:101A8000EC0186ED93E00E943A0C8C0F9D1FDF91D4
:101A9000CF9108954F925F926F927F928F929F9213
:101AA000AF92BF92CF92DF92EF92FF920F931F936C
:101AB000CF936B017C01742EAC019B010E94AC2280
:101AC000882399F081E691E0CF911F910F91FF90CB
:101AD000EF90DF90CF90BF90AF909F908F907F90CE
:101AE0006F905F904F900C943A0C46015701E89428
:101AF000B7F82FEF3FEF4FE75FE7C501B4010E9452
:101B0000AC2281110DC02FEF3FEF4FE75FE7C5011A
:101B1000B4010E94072018161CF485E691E0D4CF8A
:101B20002FEF3FEF4FE75FE4C701B6010E94A72206
:101B300018161CF489E691E0C7CF2FEF3FEF4FE76F
:101B40005FECC701B6010E94072087FDF3CF20E0BC
:101B500030E0A901C701B6010E94072010E000E0B3
:101B600087FF0AC06DE28BEA94E00E9465088C0151
:101B7000F7FAF094F7F8F094C0E060E070E080E0ED
:101B80009FE37C1641F020E030E040E251E40E9407
:101B9000FF21CF5FF6CFA70196010E9493212B0171
:101BA0003C010E9478224B015C014AE00E944E0CED
:101BB0007C01E00EF11ECC23C1F1C501B4010E94ED
:101BC0000C209B01AC01C301B2010E9492214B0188
:101BD0005C016EE28BEA94E00E946508E80EF91E53
:101BE000C15018F120E030E040E251E4C501B401F9
:101BF0000E946D202B013C010E9478224B01B12CE8
:101C0000A12C4AE0C501B4010E944E0CE80EF91E59
:101C1000C501B4010E940C209B01AC01C301B201BB
:101C20000E9492214B015C01DBCFC701CF911F9134
:101C30000F91FF90EF90DF90CF90BF90AF909F906B
:101C40008F907F906F905F904F900895CF93DF9328
:101C500088ED93E00E94900C8DE691E00E948E0C3E
:101C6000C5E9D4E0688179818A819B814AE00E943C
:101C70004E0C86ED93E00E943A0C8CE791E00E94B6
:101C80008E0C8C8190E00E94380D86E991E00E94D4
:101C90008E0C6D817E818F81988542E00E944A0D75
:101CA00086ED93E00E943A0C81EB91E00E948E0C4D
:101CB000898590E00E94380D83EC91E00E948E0CA3
:101CC0008A8590E00E94380D85ED91E00E948E0C8F
:101CD0008B859C850E94FA0C85EE91E00E948E0C0B
:101CE0006D857E858F85988920E83EEE46E350E03D
:101CF0000E94F722CA01B9010E940C0D84EF91E005
:101D00000E948E0C6D857E858F8598890E940C0DB2
:101D100088EF91E00E94900C8AEF91E00E948E0C77
:101D200089899A890E94FA0C8FE092E00E948E0CB9
:101D30008B899C89DF91CF910C94FA0C0F931F93A0
:101D4000CF93DF9305E914E0D0E0C0E0CE010E941C
:101D50002B21F80181938F012196C631D105B1F76E
:101D60000E94260E80919E04809371040E94960228
:101D70000091A2041091A3042091A4043091A50421
:101D8000601B710B820B930B609376047093770446
:101D900080937804909379048091A00480935F04E9
:101DA0008091A6049091A70490935E0480935D04B3
:101DB0008091A8049091A904909373048093720475
:101DC000DF91CF911F910F910895CF92DF92EF9203
:101DD000FF921F93CF93DF93CDB7DEB7C054D109E5
:101DE0000FB6F894DEBF0FBECDBF10919304112340
:101DF000E1F01092930465E272E0CE0101960E9438
:101E00003C23CE0101960E94470C812FC05CDF4F1E
:101E10000FB6F894DEBF0FBECDBFDF91CF911F91FB
:101E2000FF90EF90DF90CF9008950E949602C090AF
:101E30001E06D0901F06E0902006F09021066C1937
:101E40007D098E099F09C0908C05D0908D05E0908A
:101E50008E05F0908F05C616D706E806F90608F439
:101E600064C00E949602C0901E06D0901F06E090AB
:101E70002006F09021066C197D098E099F09C090FB
:101E80009005D0909105E0909205F0909305C616CC
:101E9000D706E806F90608F0B8CFC090BC05D09088
:101EA000BD05E090BE05F090BF05A70196016091C9
:101EB00002067091030680910406909105060E9427
:101EC000072087FFA2CF2091E0053091E1054091E6
:101ED000E2055091E305C701B6010E94072087FF84
:101EE00094CF2091C0053091C1054091C205509119
:101EF000C3056091ED057091EE058091EF0590911D
:101F0000F0050E9493219B01AC016091FA0570914C
:101F1000FB058091FC059091FD050E94A7221816F3
:101F20000CF073CF80E00E94660211E06ECF0E9439
:101F300037230F931F93CF93DF93CDB7DEB7C054F2
:101F4000D1090FB6F894DEBF0FBECDBF00911E04BD
:101F500010911F040031110508F069C08BEA94E06C
:101F60000E942308181619069CF48BEA94E00E943C
:101F70000108F801E05EFB4F80838A3009F050C011
:101F800010921F0410921E040430110508F054C072
:101F90000E94960200915505109156052091570513
:101FA00030915805601B710B820B930B61317742A6
:101FB0008105910548F180915F0590916005019739
:101FC00041F081E090E09093600580935F058093FD
:101FD000660580916105882329F01092610581E0F2
:101FE0008093660580916305882329F0109263052C
:101FF00081E08093660580916205882329F0109224
:10200000620581E080936605C05CDF4F0FB6F894EF
:10201000DEBF0FBECDBFDF91CF911F910F9108950D
:102020000F5F1F4F10931F0400931E048FCF109259
:102030001F0410921E04ACCF0E94960260935505B7
:10204000709356058093570590935805809120040E
:10205000803409F09DCF80912104893009F098CF18
:10206000E0912304E154E73108F092CFF0E0E55C21
:10207000FF4E0C9416230C12C80F5210C80FB91142
:102080007411C80FC80FC80FC80FC80F0811C80FA8
:10209000AB11C80FC80FC80F7711C80FC80FC80FF2
:1020A000C80F27118091740490917504029761F014
:1020B0001092240460E472E0CE0101960E943C2359
:1020C000CE0101960E94470C8091DE059091DF05BC
:1020D00020912404222309F47BC0009701F567E7CF
:1020E00072E0CE0101960E943C23CE0101960E942F
:1020F000470C80919F04811105C081E080939F046B
:102100000E94BF0C81E090E09093DF058093DE0594
:102110008091DE059091DF05009709F439CF209179
:1021200025042223E9F10C9709F06DC02091ED05FB
:102130003091EE054091EF055091F0056091260435
:102140007091270480912804909129040E94922183
:1021500060931606709317068093180690931906DD
:1021600021E02093990460939A0470939B048093D8
:102170009C0490939D040E94BF0C8CE992E00E9405
:102180008E0C60911606709117068091180690913A
:10219000190642E00E944A0D86ED93E00E943A0C37
:1021A00080912A04882309F4F3CE109299040E94A6
:1021B000BF0C8CE090E09093DF058093DE051092D9
:1021C0001606109217061092180610921906E0CE05
:1021D000892B09F4DDCE69E872E0CE0101960E94F8
:1021E0003C23CE0101960E94470C1092DF0510920D
:1021F000DE0580919F04882309F4CACE10929F04C3
:102200000E94BF0C85CF88EB92E00E94900CC8CF53
:1022100080912404882379F069EF72E0CE01019661
:102220000E943C23CE0101960E94470C61E087E0AA
:102230000E943B01ADCE69E073E0CE0101960E94A1
:102240003C23CE0101960E94470C60E0F0CF0E9433
:1022500096026093590570935A0580935B0590939D
:102260005C0510926E04109260048091AA04882389
:1022700021F010929E040E94BF0C809171049091F5
:1022800024049923E1F0811183CE61E08DE00E9466
:102290003B0180919E04882321F010929E040E94AD
:1022A000BF0C81E0809371046AE173E0CE01019676
:1022B0000E943C23CE0101960E94470C69CE8823E0
:1022C00009F466CE60E08DE00E943B0180919E049F
:1022D000811105C081E080939E040E94BF0C109282
:1022E00071046DE273E0E2CF61E473E0DFCF8091CF
:1022F000240490E020915F053091600582179307D8
:1023000039F09093600580935F0581E080936605C6
:102310008091250490916105891729F080936105CA
:1023200081E0809366058091270490916305891769
:1023300029F08093630581E08093660580912604EF
:1023400090916205891709F423CE8093620581E09C
:10235000809366051DCE6BE673E0CE0101960E9468
:102360003C23CE0101960E94470C81E080936104DA
:102370000FCE809124048823B9F068E773E0CE0182
:1023800001960E943C23CE0101960E94470CE9E988
:10239000F4E082E1DF011D928A95E9F70E94260EA2
:1023A0000E949E0C0E949E0E809126048823B9F004
:1023B0006BE873E0CE0101960E943C23CE010196AA
:1023C0000E94470CEEE9F4E08DE0DF011D928A9552
:1023D000E9F70E94260E0E949E0C0E949E0E80919C
:1023E0002504882309F4D4CD6EE973E0CE0101966B
:1023F0000E943C23CE0101960E94470C86E1E5E94C
:10240000F4E0DF011D928A95E9F70E94260E0E94F2
:102410009E0C0E949E0EBCCD8091DE059091DF0542
:10242000009709F4B5CD20912404211107C08BE059
:1024300090E09093DF058093DE05AACD0B9709F01D
:10244000A7CD8AE090E0F5CF1F920F920FB60F92C2
:1024500011242F933F938F939F93AF93BF938091BA
:102460007F0490918004A0918104B0918204309106
:102470007E0423E0230F2D3758F50196A11DB11DD1
:1024800020937E0480937F0490938004A093810422
:10249000B09382048091830490918404A091850478
:1024A000B09186040196A11DB11D80938304909381
:1024B0008404A0938504B0938604BF91AF919F914B
:1024C0008F913F912F910F900FBE0F901F901895F5
:1024D00026E8230F0296A11DB11DD2CF1F920F92A5
:1024E0000FB60F9211242F933F934F935F936F93E7
:1024F0007F938F939F93AF93BF93EF93FF93E0915D
:102500000201F09103010995FF91EF91BF91AF9105
:102510009F918F917F916F915F914F913F912F91FB
:102520000F900FBE0F901F9018951F920F920FB62D
:102530000F9211242F933F934F935F936F937F9349
:102540008F939F93AF93BF93EF93FF93E09100011D
:10255000F09101010995FF91EF91BF91AF919F918A
:102560008F917F916F915F914F913F912F910F903C
:102570000FBE0F901F9018951F920F920FB60F92DB
:1025800011242F933F934F935F936F937F938F9378
:102590009F93AF93BF93EF93FF938BEA94E00E94D6
:1025A0004308FF91EF91BF91AF919F918F917F91E0
:1025B0006F915F914F913F912F910F900FBE0F90B0
:1025C0001F9018951F920F920FB60F9211242F9300
:1025D0008F939F93EF93FF93E091BB04F091BC0422
:1025E0008081E091C104F091C20482FD1BC0908102
:1025F0008091C4048F5F8F732091C504821741F0CE
:10260000E091C404F0E0E555FB4F958F8093C4043E
:10261000FF91EF919F918F912F910F900FBE0F908F
:102620001F9018958081F4CF0F931F93EBEAF4E08D
:102630001382128288EE93E0A0E0B0E08483958359
:10264000A683B78383E591E09183808385EC90E056
:102650009587848784EC90E09787868780EC90E06C
:10266000918B808B81EC90E0938B828B82EC90E05D
:10267000958B848B86EC90E0978B868B118E128ED7
:10268000138E148EE8E4F5E08FEF808312821182BE
:10269000148613868FEF9FEFDC0187839087A187D5
:1026A000B287E0E8F5E08DEC9CECACE4BDE3808320
:1026B0009183A283B38380E69AEEA0E0B0E08483A6
:1026C0009583A683B7838CE291E0A0E0B0E0808799
:1026D0009187A287B38780E395E7A0E0B0E0848785
:1026E0009587A687B78782EC91E0A0E0B0E0808B69
:1026F000918BA28BB38B8AEF9EE7AAEABEE3848B11
:10270000958BA68BB78B80E090E0A6E9B3E4808F31
:10271000918FA28FB38F8DEC9CECACE4BFE3848FE0
:10272000958FA68FB78F86E696E6A6E6BFE380A3D1
:1027300091A3A2A3B3A383E393E3A3EBBFE384A397
:1027400095A3A6A3B7A380E090E0A0E6B0E480A79D
:1027500091A7A2A7B3A783E393E3A3E8B0E484A778
:1027600095A7A6A7B7A78DEC9CECA4E8B0E480AB36
:1027700091ABA2ABB3AB86E696E6A6E8B0E484AB39
:1027800095ABA6ABB7AB80E090E0A8E8B0E480AF33
:1027900091AFA2AFB3AF4AE057ED63E27CE344AF41
:1027A00055AF66AF77AF8AE999E9A9E1BFE38093B6
:1027B000C0059093C105A093C205B093C3058EE1F7
:1027C0008093C40580E58093C5058CEE91E5A8EB68
:1027D000BEE38093C6059093C705A093C805B09348
:1027E000C9058AE999E9A9E9BEE38093CA059093EE
:1027F000CB05A093CC05B093CD058AE999E9A9E171
:10280000BEE38093CE059093CF05A093D005B093FF
:10281000D1050DEC1CEC2CE43EE30093D2051093A3
:10282000D3052093D4053093D50500E010E028E4CB
:1028300032E40093D6051093D7052093D805309342
:10284000D9054093DA055093DB056093DC0570935E
:10285000DD051092DF051092DE051092E005109262
:10286000E1051092E2051092E3051092E405109242
:10287000E5051092E6051092E7051092E805109222
:10288000E9051092EA051092EB051092EC05109202
:10289000ED051092EE051092EF051092F0051092E2
:1028A000F1051092F2051092F3051092F4051092C2
:1028B000F5051092F6051092F7051092F8051092A2
:1028C000F9051092FA051092FB051092FC05109282
:1028D000FD051092FE051092FF0510920006109261
:1028E000010610920206109203061092040610923E
:1028F000050640E050E060E87FE340930606509311
:102900000706609308067093090680930A06909361
:102910000B06A0930C06B0930D0680930E069093C1
:102920000F06A0931006B093110610921206109293
:1029300013061092140610921506109216061092A5
:102940001706109218061092190610921A06109285
:102950001B0610921C0610921D0610921E06109265
:102960001F06109220061092210610922206109245
:102970002306109224061092250610922606109225
:102980002706109228061092290610922A06109205
:102990002B0610922C0610922D06EDE5F5E0118223
:1029A00010821382128281E08483858316821782CB
:1029B000118610868087168E178E10A211A212A281
:1029C0000E9496026093590570935A0580935B05A7
:1029D00090935C050E94960260935505709356058E
:1029E00080935705909358051F910F910895CF93A9
:1029F000DF93CDB7DEB7CD58D1090FB6F894DEBF5F
:102A00000FBECDBF789484B5826084BD84B58160EB
:102A100084BD85B5826085BD85B5816085BD8091A9
:102A20006E00816080936E00109281008091810021
:102A30008260809381008091810081608093810019
:102A4000809180008160809380008091B1008460DB
:102A50008093B1008091B00081608093B00080913C
:102A60007A00846080937A0080917A0082608093FB
:102A70007A0080917A00816080937A0080917A0058
:102A8000806880937A001092C1000E949E0E80910F
:102A9000720490917304019690937304809372046E
:102AA00021E030E0892B11F430E020E08091A8048F
:102AB0009091A9042817390731F03093A904209385
:102AC000A8040E94BF0C61E088E00E943B0161E025
:102AD00088E00E94690161E088E00E943B0161E0BA
:102AE00085E00E943B0161E085E00E94690161E0B0
:102AF00085E00E943B0161E08DE00E9469016091E8
:102B000071048DE00E943B0161E087E00E94690151
:102B100061E087E00E943B0160E081E10E94690181
:102B200060E086E00E94690161E08FE00E94690137
:102B300070E060E08FE00E949A0161E070E080E068
:102B400090E00E94340260E08FE00E946901E09111
:102B5000BB04F091BC0482E08083E091B704F09163
:102B6000B8041082E091B904F091BA0480E1808346
:102B70001092C304E091BF04F091C00486E080830A
:102B8000E091BD04F091BE04808180618083E0917A
:102B9000BD04F091BE04808188608083E091BD0413
:102BA000F091BE04808180688083E091BD04F09143
:102BB000BE0480818F7D808385E090E0A0E0B0E05E
:102BC0008093AF049093B004A093B104B093B20487
:102BD00080914904811145C010923B0410923A043F
:102BE0008FEF80933E0480933F0480934004809352
:102BF0004104809342048093430481E08093440421
:102C0000109246041092450410923D0410923C0428
:102C100080918D0490918E04892B31F488E394E0A7
:102C200090938E0480938D04E0913604F0913704E4
:102C3000309721F088E394E09583848388E394E0DF
:102C400090933704809336041092480410924704FE
:102C500081E491E0909339048093380481E080937B
:102C60004904529A87E695E090933B0480933A0496
:102C700082E090E0909346048093450480914B0558
:102C800090914C05A0914D05B0914E05843C29E0F2
:102C90009207A105B10520F484EC99E0A0E0B0E032
:102CA00080934B0590934C05A0934D05B0934E0532
:102CB00080915F0590916005892B39F01092600535
:102CC00010925F0581E08093660589E180936D0530
:102CD00080936E0580936F05109270058093710547
:102CE0001092720580916D0590916E05A0916F050F
:102CF0008093670590936805A0936905809170059E
:102D000090917105A091720580936A0590936B056F
:102D1000A0936C05109278051092770510927A05B1
:102D20001092790501E010E010937405009373058B
:102D30001093760500937505809148050E94B006B2
:102D40008DE595E090932F0680932E0683E0809387
:102D5000040161E08AE00E94690161E089E00E946B
:102D6000690160E080E10E94690160E08EE00E94FC
:102D7000690160E083E00E94690183E19CE0909337
:102D800003018093020180916900837F88608093B2
:102D90006900E99A80919F04882309F4F7C0109391
:102DA000DF050093DE0580918100887F816080933C
:102DB000810080E00E9466028FE00E94F7016AE0D5
:102DC00070E080E090E00E9434028FE00E94F70102
:102DD0008095909535E0969587953A95E1F78F71B6
:102DE000992710E000E030E020E0E4E0F0E0AC0102
:102DF000022E02C0569547950A94E2F74170552776
:102E0000BF01621B730B02C0440F551F6A95E2F7A6
:102E1000042B152B2F5F3F4F2530310541F782EBF7
:102E200093E00E948E0CC8010E94FA0C1093750466
:102E30000093740464EC73E08E010F5F1F4FC801B0
:102E40000E943C23C8010E94470C8091050190918B
:102E50000601A0910701B0910801EE968CAF9DAFDD
:102E6000AEAFBFAFEE972091090130910A014091BA
:102E70000B0150910C01C258DF4F288339834A83DC
:102E80005B83CE57D04080910D0190910E01A091AF
:102E90000F01B0911001CE57DF4F88839983AA8329
:102EA000BB83C258D0402091110130911201409152
:102EB000130150911401CA57DF4F288339834A8385
:102EC0005B83C658D0408091150190911601A09166
:102ED0001701B0911801C657DF4F88839983AA83E1
:102EE000BB83CA58D040FF24F39424E0222E312C17
:102EF0008091550481110CC00E9496026093510488
:102F0000709352048093530490935404F0925504A8
:102F100081E10E94F701EE24E3948D3291400CF49C
:102F2000E12C8090510490905204A0905304B090F2
:102F300054040E9496026401BFE0CB0ED11CC61A55
:102F4000D70A412C512C32012FE0820E911CA11C7A
:102F5000B11C0E949602681579058A059B05D8F474
:102F600081E10E94F70121E08D3231E093070CF4FA
:102F700020E02E1571F34FEF441A540A640A740AC4
:102F8000EE24E394892B29F7E12CE3CF1092DF059F
:102F90001092DE0508CFA8EEB3E0A30192010E94D3
:102FA00041219601DD0C440B550B0E94D522CA012C
:102FB000B9010E940C202AE037ED43E25CE30E9455
:102FC0006D204B015C0160916F047091700490E082
:102FD00080E00E940C2024EA30E74DE75FE30E9486
:102FE0006D209B01AC01C501B4010E9493210E9498
:102FF00078227093700460936F040E94960260932D
:1030000051047093520480935304909354040E948B
:10301000990F80917104882369F10E949602809033
:10302000760490907704A0907804B09079046819A1
:1030300079098A099B0961157447874B914020F4EF
:1030400080916004811116C00E94960280905905FB
:1030500090905A05A0905B05B0905C0568197909BD
:103060008A099B0961387E4E8643910508F40BC19D
:10307000F09261048091660481110CC00E94960256
:103080006093620470936304809364049093650476
:10309000F092660488E00E941201892B09F46DC049
:1030A00080916104882309F468C069ED73E0C80168
:1030B0000E943C23C8010E94470C10926104F092C8
:1030C00060048091AA04811104C0F0929E040E94C1
:1030D000BF0C10926E0480916405882321F0109239
:1030E0006405F09266050E949602609362047093F4
:1030F000630480936404909365040E949602609335
:1031000076047093770480937804909379040E94F6
:1031100096026093590570935A0580935B059093CE
:103120005C0580915F048F5F80935F0421E030E055
:10313000811102C030E020E08091A0049091A104B0
:103140002817390731F03093A1042093A0040E947E
:10315000BF0C0E9496028090760490907704A09015
:103160007804B0907904681979098A099B090E944A
:10317000CE0C60E088E00E943B010E9496028090A5
:10318000620490906304A0906404B0906504681990
:1031900079098A099B09613375478105910568F1B1
:1031A00088E00E941201892B41F568EE73E0C801A6
:1031B0000E943C23C8010E94470C80915D049091BD
:1031C0005E04019690935E0480935D0421E030E0FC
:1031D000892B11F430E020E08091A6049091A7049F
:1031E0002817390731F03093A7042093A6040E94D2
:1031F000BF0C61E088E00E943B0180916505882357
:10320000C1F01092780510927705F0927B058091BD
:103210005D0590915E058230910509F476C008F055
:1032200049C0009709F460C0019709F465C0109285
:10323000650580916605882309F48EC010927A0591
:1032400010927905F0927B0580916405882331F016
:1032500041E050E05093600540935F05E0915F05C9
:10326000F0916005E930F10508F0E5C0E65CF64E46
:103270000C9416238B199119D119E919FF19051A04
:103280000B1A131A171A0E949602681979098A09EB
:103290009B096137774C8643910508F4EBCEF09299
:1032A0006E04809164058111E5CEF0926405F09280
:1032B0006605E0CE8330910521F1049709F0B7CF80
:1032C00088EC80936D0580936E0510926F05809158
:1032D0006D0590916E05A0916F05809367059093A1
:1032E0006805A0936905A3CF85E080936D05809361
:1032F0006E0580936F05EBCF10926D0510926E05F1
:10330000E4CF82E380936D05F9CF10926D051092A2
:103310006E0582E3EECF82E3809370051092710513
:103320007FC088EC80937005109271051092720531
:103330008091700590917105A091720580936A0546
:1033400090936B05A0936C0582E090E090937A05D2
:10335000809379051092660580915F0590916005D4
:103360000197029750F080916105811167C087E055
:1033700090E090937A0580937905E0917905F0913A
:103380007A053197E730F10508F089C0E653F64E2B
:103390000C941623721A3A1A2D1A7B1A841A8B1A55
:1033A0009A1A88EC8093700510927105109272053C
:1033B0008091700590917105A091720580936A05C6
:1033C00090936B05A0936C0530927A052092790555
:1033D000C1CF8FEF8093700585E08093710580E504
:1033E000809372058091700590917105A09172058E
:1033F00080936A0590936B05A0936C05ABCF82E335
:103400008093700580937105EBCF10927005109238
:10341000710584E6E5CF88EC809370058093710593
:1034200010927205DFCF1092700589E1F7CF1092EC
:10343000700589E1E7CF1092700570CF8091620529
:10344000811103C086E090E094CF809163058823CA
:1034500009F493CF85E090E08CCFC657DF4F888189
:103460009981AA81BB81CA58D04089839A83AB8352
:10347000BC830CC0CA57DF4F288139814A815B81E8
:10348000C658D04029833A834B835C830E949602BE
:103490009B01AC0162E070E0C8010E948C00809149
:1034A0007B05882331F0809148050E94B006109278
:1034B0007B05E091DE05F091DF05ED30F10508F0C8
:1034C00083C2EB59F54E0C941623A91AB71AC61AE3
:1034D0000C1B6A1B871B9E1BC61BED1BF41B0B1CC6
:1034E000FF1F0220CE57DF4F88819981AA81BB81BF
:1034F000C258D040BACFC258DF4F288139814A81A3
:103500005B81CE57D040BECFEE968CAD9DADAEADBB
:10351000BFADEE97AACF88E0E9E1F1E0D8010190D4
:103520000D928A95E1F70E9496029B01AC0164E03E
:1035300070E0B2CF8CE0E1E2F1E0D80101900D92B1
:103540008A95E1F70E9496029B01AC0166E070E06B
:10355000A3CF80919404882319F080E00E94660232
:1035600061E070E080912E0690912F060CC170E012
:1035700060E080912E0690912F060E942F0C82E031
:1035800090E09093DF058093DE051EC20E94A202A8
:103590001092E8051092E9051092EA051092EB05E9
:1035A0001092EC051092E4051092E5051092E605E4
:1035B0001092E7051092220610922306109224061C
:1035C00010922506109212061092130610921406FD
:1035D0001092150620919C0530919D0540919E0505
:1035E00050919F056091ED057091EE058091EF057A
:1035F0009091F0050E94A72218160CF068C00E9456
:10360000960260931A0670931B0680931C06909393
:103610001D068AE090E076C00E94960280901E0609
:1036200090901F06A0902006B09021066819790995
:103630008A099B0980908C0590908D05A0908E053D
:10364000B0908F0586169706A806B90668F40E9402
:10365000960260931A0670931B0680931C06909343
:103660001D068AE090E08DCF2091BC053091BD050C
:103670004091BE055091BF0560910206709103060E
:1036800080910406909105060E94A7221816DCF48A
:103690000E94960280901E0690901F06A090200621
:1036A000B0902106681979098A099B0980909005D4
:1036B00090909105A0909205B0909305861697067C
:1036C000A806B90620F281E090E00E948F0363E033
:1036D00070E048CF0E94A20220919C0530919D0588
:1036E00040919E0550919F056091ED057091EE050A
:1036F0008091EF059091F0050E94A72218163CF7E3
:1037000082E090E09093DF058093DE05E0CF0E9499
:10371000A20220919C0530919D0540919E055091FB
:103720009F056091ED057091EE058091EF059091F8
:10373000F0050E94072087FFCACFE2CF0E94E50E66
:10374000811185CF83E090E00E948F032091BC051A
:103750003091BD054091BE055091BF0560910206B4
:103760007091030680910406909105060E9407203F
:1037700020912E0630912F0663E070E087FD02C095
:1037800062E070E0C9010E942F0C1EC10E94E50E8C
:1037900081115DCF609198057091990580919A058E
:1037A00090919B059B01AC010E9493219B01AC0170
:1037B000609112067091130680911406909115067F
:1037C0000E94A722181634F485E090E09093DF055C
:1037D0008093DE0582E090E0B7CF0E94E50E811174
:1037E00036CF84E090E0B0CF0E94A2022091B405D1
:1037F0003091B5054091B6055091B7056091ED0542
:103800007091EE058091EF059091F0050E940720E0
:1038100087FF5DCFF4CE0E94A2028091F505882338
:1038200009F4D2C00E94960280901A0690901B065E
:10383000A0901C06B0901D06681979098A099B0999
:103840008090880590908905A0908A05B0908B059E
:1038500086169706A806B90608F0B6C00E9496021A
:1038600060931E0670931F06809320069093210696
:103870008090ED059090EE05A090EF05B090F005DA
:103880002091B8053091B9054091BA055091BB051A
:10389000C501B4010E94A72218163CF489E090E00B
:1038A0009093DF058093DE05A7C3409122065091D7
:1038B0002306609124067091250680918C059091D5
:1038C0008D05A0918E05B0918F05481759076A079D
:1038D0007B0708F44FC04090BC055090BD05609038
:1038E000BE057090BF05A301920160910206709120
:1038F000030680910406909105060E94072087FF29
:1039000039C02091E0053091E1054091E2055091E8
:10391000E305C301B2010E94072087FF2BC020915D
:10392000C0053091C1054091C2055091C305C50144
:10393000B4010E9493219B01AC016091FA05709142
:10394000FB058091FC059091FD050E94A7221816A9
:103950008CF420919C0530919D0540919E055091DD
:103960009F05C501B4010E94A72287FD03C083E023
:1039700090E096CF2091B0053091B1054091B2050D
:103980005091B305C501B4010E94A72287FD68C20A
:103990008091EC05811155C180910E0690910F0622
:1039A000A0911006B09111068093E0059093E10577
:1039B000A093E205B093E30587E090E09093DF05E4
:1039C0008093DE05F092EC050E94960280907A04C6
:1039D00090907B04A0907C04B0907D0468197909D4
:1039E0008A099B09643F71408105910508F41CC157
:1039F0000E94960260937A0470937B0480937C0407
:103A000090937D048090760490907704A090780441
:103A1000B0907904681979098A099B090E94CE0C33
:103A200080E422968FAF229789E090E024969FAFA2
:103A30008EAF249780E525968FAF25978AE0EA968A
:103A40008FAFEA97809174049091750427969FAF89
:103A50008EAF2797809172049091730429969FAF3F
:103A60008EAF299787E00E94120160968FAF609712
:103A70008091710461968FAF61970E9496022F9694
:103A80006CAF7DAF8EAF9FAF2F9780916F049091F9
:103A90007004E9969FAF8EAFE9978091DE0562963C
:103AA0008FAF62978091ED059091EE05A091EF05A3
:103AB000B091F00566968CAF9DAFAEAFBFAF669785
:103AC0008091FA059091FB05A091FC05B091FD0550
:103AD0006A968CAF9DAFAEAFBFAF6A978091F60587
:103AE0009091F705A091F805B091F9056E968CAF0D
:103AF0009DAFAEAFBFAF6E97809102069091030667
:103B0000A0910406B0910506A2968CAF9DAFAEAF12
:103B1000BFAFA2978091E0059091E105A091E205E9
:103B2000B091E305A6968CAF9DAFAEAFBFAFA697A1
:103B30008091120690911306A0911406B09115067B
:103B4000AA968CAF9DAFAEAFBFAFAA978091060685
:103B500090910706A0910806B0910906AE968CAF29
:103B60009DAFAEAFBFAFAE9780910E0690910F069E
:103B7000A0911006B0911106E2968CAF9DAFAEAF4A
:103B8000BFAFE29780919404E3968FAFE397809163
:103B9000220690912306A0912406B0912506E7966F
:103BA0008CAF9DAFAEAFBFAFE79749E350E0BE012A
:103BB0006F5B7F4F8BEA94E00E94C50780916E0493
:103BC000882391F18090590590905A05A0905B054B
:103BD000B0905C050E949602B0E88B0EBEEE9B1E74
:103BE000B6E3AB1EB11CA5019401261B370B480B95
:103BF000590BCA01B90128EE33E040E050E00E94C1
:103C0000D5223F932F9386EF93E09F938F931F933B
:103C10000F930E944323C8010E94470C0F900F90FE
:103C20000F900F900F900F9080E090E0892B09F497
:103C30005FC90E942F08882309F455C90E9400001B
:103C400052C92091B4053091B5054091B605509107
:103C5000B705C501B4010E9492219F772AE037ED94
:103C600043EA5BE30E94072087FF57C06091F1059C
:103C70007091F2058091F3059091F4059F772AE009
:103C800037ED43EA5BE30E94072087FF46C02DEC37
:103C90003CEC4CE45DE36091020670910306809178
:103CA0000406909105060E946D204B015C0123E300
:103CB00033E343E75FE360910E0670910F06809156
:103CC0001006909111060E946D209B01AC01C50168
:103CD000B4010E9493214B015C0120E030E0A90176
:103CE0000E94072087FDAFC02AE939E949E95EE370
:103CF000C501B4010E94A72218163CF49AE9892E46
:103D000099E9992EA92C9EE3B92E80920E069092E5
:103D10000F06A0921006B09211060E9496028090A3
:103D20002A0690902B06A0902C06B0902D066819BC
:103D300079098A099B090E940C204B015C010E94B1
:103D4000960260932A0670932B0680932C0690931C
:103D50002D062091ED053091EE054091EF05509133
:103D6000F0056091B4057091B5058091B60590910C
:103D7000B7050E9492212091DA053091DB05409130
:103D8000DC055091DD050E946D20A50194010E9483
:103D90006D202091E8053091E9054091EA055091A8
:103DA000EB050E9493214B015C0120E030E0A9016A
:103DB0000E94072087FD4BC020E030E04FE753E42E
:103DC000C501B4010E94A722181634F4812C912C4D
:103DD0008FE7A82E83E4B82E8092E8059092E9053B
:103DE000A092EA05B092EB0520E030E0A901C50100
:103DF000B4010E94A72220E030E040E05FE387FDAD
:103E00002AC0C501B4010E9493210E947122862F0D
:103E10000E9466026091940470E08AE00E949A0118
:103E200080910E0690910F06A0911006B091110698
:103E30008093E0059093E105A093E205B093E3053C
:103E400088E090E09ECB812C912C54015ECF812C98
:103E5000912C5401C1CFC501B4010E949221D5CF4C
:103E60002091AC053091AD054091AE055091AF0564
:103E7000C501B4010E94A72287FD1DC020910E0636
:103E800030910F0640911006509111066091CE05B9
:103E90007091CF058091D0059091D1050E9493211A
:103EA0006093E0057093E1058093E2059093E3054C
:103EB00087E090E066CB2091A4053091A505409164
:103EC000A6055091A705C501B4010E94A72287FD50
:103ED0003CC02091A8053091A9054091AA055091B8
:103EE000AB05C501B4010E94072087FF1DC02091CA
:103EF000CA053091CB054091CC055091CD0560911C
:103F00000E0670910F0680911006909111060E9486
:103F100093216093E0057093E1058093E20590930F
:103F2000E3051092EC05C4CF20910E0630910F06E8
:103F300040911006509111066091C6057091C70519
:103F40008091C8059091C905E2CF2091A0053091DC
:103F5000A1054091A2055091A305C501B4010E949D
:103F6000A72287FF17C020919C0530919D054091A5
:103F70009E0550919F056091ED057091EE05809131
:103F8000EF059091F0050E94A72218168CF182E0AF
:103F900090E086CC0E9496028090840590908505E2
:103FA000A0908605B0908705681579058A059B0560
:103FB000D0F620910E0630910F06409110065091D8
:103FC00011066091CA057091CB058091CC05909146
:103FD000CD050E9493216093E0057093E1058093E5
:103FE000E2059093E3051092EC0586E090E0C9CAE3
:103FF0003092DF052092DE051092EC05E5CC0E94A0
:10400000A20265CB0E94A20264E070E0ABCA0E94EB
:10401000492008F481E00895E89409C097FB3EF434
:1040200090958095709561957F4F8F4F9F4F992305
:10403000A9F0F92F96E9BB279395F6958795779583
:104040006795B795F111F8CFFAF4BB0F11F460FF43
:104050001BC06F5F7F4F8F4F9F4F16C0882311F09B
:1040600096E911C0772321F09EE8872F762F05C0AF
:10407000662371F096E8862F70E060E02AF09A954A
:10408000660F771F881FDAF7880F9695879597F93F
:104090000895990F0008550FAA0BE0E8FEEF1616D9
:1040A0001706E807F907C0F012161306E407F5072C
:1040B00098F0621B730B840B950B39F40A2661F0A0
:1040C000232B242B252B21F408950A2609F4A14043
:1040D000A6958FEF811D811D08950E9480200C946C
:1040E000F1200E94E32038F00E94EA2020F095237E
:1040F00011F00C94DA200C94E02011240C9425216A
:104100000E94022170F3959FC1F3950F50E0551F57
:10411000629FF001729FBB27F00DB11D639FAA271C
:10412000F00DB11DAA1F649F6627B00DA11D661F6B
:10413000829F2227B00DA11D621F739FB00DA11D8C
:10414000621F839FA00D611D221F749F3327A00D46
:10415000611D231F849F600D211D822F762F6A2FE2
:1041600011249F5750409AF0F1F088234AF0EE0F47
:10417000FF1FBB1F661F771F881F91505040A9F774
:104180009E3F510580F00C94DA200C9425215F3F6E
:10419000E4F3983ED4F3869577956795B795F795B0
:1041A000E7959F5FC1F7FE2B880F911D9695879528
:1041B00097F9089597F99F6780E870E060E00895A7
:1041C0009FEF80EC089500240A941616170618062F
:1041D0000906089500240A9412161306140605060B
:1041E0000895092E0394000C11F4882352F0BB0F9C
:1041F00040F4BF2B11F460FF04C06F5F7F4F8F4FFF
:104200009F4F089557FD9058440F551F59F05F3F39
:1042100071F04795880F97FB991F61F09F3F79F0E8
:1042200087950895121613061406551FF2CF46956A
:10423000F1DF08C0161617061806991FF1CF8695EC
:104240007105610508940895E894BB2766277727D0
:10425000CB0197F90895F999FECF92BD81BDF89AE7
:10426000992780B50895262FF999FECF1FBA92BDE0
:1042700081BD20BD0FB6F894FA9AF99A0FBE019647
:1042800008950E948321A59F900DB49F900DA49F37
:10429000800D911D112408952F923F924F925F92AD
:1042A0006F927F928F929F92AF92BF92CF92DF9246
:1042B000EF92FF920F931F93CF93DF93CDB7DEB7AB
:1042C000CA1BDB0B0FB6F894DEBF0FBECDBF09943F
:1042D0002A88398848885F846E847D848C849B8496
:1042E000AA84B984C884DF80EE80FD800C811B81A4
:1042F000AA81B981CE0FD11D0FB6F894DEBF0FBED3
:10430000CDBFED010895A29FB001B39FC001A39F4F
:10431000700D811D1124911DB29F700D811D1124FE
:10432000911D08955058BB27AA270E94AA210C94DA
:10433000F1200E94E32038F00E94EA2020F039F4B6
:104340009F3F19F426F40C94E0200EF4E095E7FB6F
:104350000C94DA20E92F0E94022158F3BA17620761
:1043600073078407950720F079F4A6F50C942421AF
:104370000EF4E0950B2EBA2FA02D0B01B901900180
:104380000C01CA01A0011124FF27591B99F0593FC4
:1043900050F4503E68F11A16F040A22F232F342F0C
:1043A0004427585FF3CF469537952795A795F0405A
:1043B0005395C9F77EF41F16BA0B620B730B840B6F
:1043C000BAF09150A1F0FF0FBB1F661F771F881F27
:1043D000C2F70EC0BA0F621F731F841F48F487957F
:1043E00077956795B795F7959E3F08F0B0CF939571
:1043F000880F08F09927EE0F9795879508950E94EA
:1044000013220C94F1200E94EA2058F00E94E3202D
:1044100040F029F45F3F29F00C94DA2051110C94FC
:1044200025210C94E0200E94022168F39923B1F326
:10443000552391F3951B550BBB27AA2762177307CA
:10444000840738F09F5F5F4F220F331F441FAA1F5E
:10445000A9F335D00E2E3AF0E0E832D0915050401A
:10446000E695001CCAF72BD0FE2F29D0660F771FC8
:10447000881FBB1F261737074807AB07B0E809F0AE
:10448000BB0B802DBF01FF2793585F4F3AF09E3F33
:10449000510578F00C94DA200C9425215F3FE4F369
:1044A000983ED4F3869577956795B795F7959F5F76
:1044B000C9F7880F911D9695879597F90895E1E0C2
:1044C000660F771F881FBB1F621773078407BA0721
:1044D00020F0621B730B840BBA0BEE1F88F7E0957C
:1044E00008950E9478226894B1110C9425210895B2
:1044F0000E940A2188F09F5798F0B92F9927B75149
:10450000B0F0E1F0660F771F881F991F1AF0BA9577
:10451000C9F714C0B13091F00E942421B1E0089590
:104520000C942421672F782F8827B85F39F0B93F82
:10453000CCF3869577956795B395D9F73EF490952A
:104540008095709561957F4F8F4F9F4F08950E9482
:10455000492008F48FEF08950E944920880B990B99
:104560000895DB018F939F930E944121BF91AF91EA
:10457000A29F800D911DA39F900DB29F900D1124BD
:10458000089597FB072E16F4009407D077FD09D005
:104590000E94232307FC05D03EF4909581959F4F00
:1045A0000895709561957F4F0895A1E21A2EAA1B78
:1045B000BB1BFD010DC0AA1FBB1FEE1FFF1FA217D3
:1045C000B307E407F50720F0A21BB30BE40BF50BD0
:1045D000661F771F881F991F1A9469F76095709559
:1045E000809590959B01AC01BD01CF010895052EEA
:1045F00097FB1EF400940E940E2357FD07D00E94E3
:10460000D52207FC03D04EF40C940E235095409510
:10461000309521953F4F4F4F5F4F0895909580956E
:10462000709561957F4F8F4F9F4F0895EE0FFF1F3D
:104630000590F491E02D09940E948321B7FF08951D
:10464000821B930B0895AA1BBB1B51E107C0AA1F35
:10465000BB1FA617B70710F0A61BB70B881F991F23
:104660005A95A9F780959095BC01CD01089581E0F8
:1046700090E0F8940C94E425FB01DC0101900D928C
:104680000020E1F70895AEE0B0E0E9E4F3E20C9435
:104690005A210D891E8986E08C831A8309838FEF46
:1046A0009FE79E838D83AE01475E5F4F6F89788D54
:1046B000CE0101960E9466232F813885020F131FB9
:1046C000F80110822E96E4E00C947621ABE0B0E085
:1046D000ECE6F3E20C944C217C013B018A01FC01E5
:1046E00017821682838181FFC8C1CE0101965C01C9
:1046F000F7019381F30193FD859193FF81913F0130
:10470000882309F453C1853239F493FD859193FFD1
:1047100081913F01853229F4B70190E00E9456252E
:10472000E7CF912C212C312CFFE1F31538F08B329F
:1047300011F190F4803209F1833229F137FC3CC049
:1047400020ED280F2A3050F536FE20C08AE0989ED2
:10475000200D1124922E06C08D3291F0803371F716
:10476000689430F8F30193FD859193FF81913F01A7
:104770008111DACF21C0689431F8689432F8F2CF11
:10478000689433F8EFCF689434F8ECCFEAE02E9ECB
:10479000200D1124222E689435F8E4CF8E3229F4AE
:1047A00036FC04C1689436F8DDCF8C3619F4689471
:1047B00037F8D8CF8836B1F2982F9F7D9554933033
:1047C000E0F08336A1F18337C1F1833509F063C08E
:1047D0002801F2E04F0E511CF801C080D180692DF4
:1047E00070E036FC02C06FEF7FEFC6010E944025EB
:1047F0004C01689437F882010AC00C5F1F4FFFE339
:10480000F98388248394912C6501E89437F833FE6A
:104810002DC0522C8114910471F5552009F468CFF4
:10482000B70180E290E00E9456255A94F6CFF80135
:10483000808189830E5F1F4FE4CF2801F2E04F0E85
:10484000511CF801C080D180692D70E036FC02C097
:104850006FEF7FEFC6010E944B254C018201D5CF3F
:10486000B70180E290E00E9456252A94281419048A
:1048700009F0B0F7CECFF60137FC859137FE819174
:104880006F01B70190E00E94562551105A94F1E053
:104890008F1A9108BFCF843619F0893609F077C096
:1048A000F80137FE6BC060817181828193810C5F5A
:1048B0001F4FF32DFF763F2E97FF09C090958095EF
:1048C000709561957F4F8F4F9F4F689437F82AE01E
:1048D00030E0A5010E948625C82ECA188C2C432CD6
:1048E00036FE0CC0E89440F8C91440F434FE05C00C
:1048F00032FC03C0F32DFE7E4F2E892C44FE95C062
:10490000FE01EC0DF11D8081803309F087C0242D5C
:10491000297E422E842D8870582E43FC95C040FE7F
:104920008FC09C2C821418F42C0C922C981844FEE6
:1049300091C0B70180E390E00E94562542FE09C075
:1049400088E790E041FE02C088E590E0B7010E9450
:104950005625C91408F48AC0CA94D12C9FEFC91AED
:10496000D90ACA0CDB1CF60182916F01B70190E0F5
:104970000E945625AC14BD04B1F74FCF6081718100
:10498000072E000C880B990B0E5F1F4F92CFD32C74
:10499000E894D4F82AE030E0853739F1232D297FD7
:1049A000D22E8F3601F148F48835A9F0F7018681BF
:1049B00097812B96E2E10C946821803749F0883783
:1049C000A9F7D4FE02C06894D2F820E130E00DC00F
:1049D0006894D4F8F6CF34FE03C0822F8660D82EB8
:1049E00020E132E002C028E030E0F801D7FE0FC03D
:1049F00060817181828193810C5F1F4FA5010E94AC
:104A00008625C82ECA183D2CE89437F867CF6081F8
:104A1000718190E080E00E5F1F4FF0CF42FC02C03A
:104A2000839478CF8394839475CF842D867809F40A
:104A300071CFF6CFB70180E290E00E9456258394B3
:104A40008214C0F3512C73CF522C5818821408F4DE
:104A50006ECFF8CF842D867809F47BCF8BE241FEB0
:104A600080E247FC8DE2B70190E071CFB70180E3AF
:104A700090E00E9456259A946CCF8FEF9FEF99CFCC
:104A8000FC010590615070400110D8F78095909519
:104A90008E0F9F1F0895FC0161507040019001101E
:104AA000D8F7809590958E0F9F1F08950F931F93B1
:104AB000CF93DF93182F092FEB018B8181FD09C064
:104AC0001FEF0FEF812F902FDF91CF911F910F914B
:104AD000089582FF14C02E813F818C819D8128170B
:104AE00039073CF4E881F981CF01019699838883E5
:104AF00010838E819F8101969F838E83E3CFE8850B
:104B0000F985812F0995892BA1F3DACFFA01AA271C
:104B1000283051F1203181F1E8946F936E7F6E5F00
:104B20007F4F8F4F9F4FAF4FB1E03ED0B4E03CD0AE
:104B3000670F781F891F9A1FA11D680F791F8A1F91
:104B4000911DA11D6A0F711D811D911DA11D20D0F8
:104B500009F468943F912AE0269F11243019305DB2
:104B60003193DEF6CF010895462F4770405D4193A3
:104B7000B3E00FD0C9F7F6CF462F4F70405D4A33F0
:104B800018F0495D31FD4052419302D0A9F7EACFB8
:104B9000B4E0A6959795879577956795BA95C9F7E7
:104BA00000976105710508959B01AC010A2E0694DA
:104BB0005795479537952795BA95C9F7620F731F93
:0C4BC000841F951FA01D0895F894FFCFDE
:104BCC00C407C40701E80364006400E803C800C814
:104BDC0000F401F401E803E803960096009600E85F
:104BEC000396009600960096009600E803000000DD
:104BFC0000970F970F970FF20BEE0BEB0B000000CB
:104C0C0000A80B640B620BF20BEE0BC1070F090033
:104C1C000000006508C507F207B208230801081553
:104C2C00086E616E00696E66006F76660065657071
:104C3C00726F6D5F7772697465732000766F6C7438
:104C4C006167655F63616C6962726174696F6E5FE5
:104C5C00646F6E652000766F6C746167655F63616D
:104C6C006C6962726174696F6E5F76616C756520D8
:104C7C00007761746368646F675F656E61626C6511
:104C8C006420006368617267696E675F656E61625C
:104C9C006C656420007761746368646F675F636F31
:104CAC00756E7420007761746368646F675F7469F4
:104CBC006D652000482028002900776174636864C2
:104CCC006F675F626F6F745F636F756E74200062E5
:104CDC00617365626F6172645F626F6F745F636F43
:104CEC00756E74200073746F705F636861726769AE
:104CFC006E675F696E74657272757074210D0A004F
:104D0C005741524E494E473A20484152445741521E
:104D1C004520524556204D49534D41544348202D72
:104D2C002D3E2044495341424C4544204348415276
:104D3C0047494E470D0A00456E61626C65206368F9
:104D4C00617267696E670D0A0044697361626C6514
:104D5C00206368617267696E670D0A00766F6C7408
:104D6C006167655F63616C6962726174696F6E5FC4
:104D7C0076616C75653A20004572726F723A2063E9
:104D8C00616C696272617465207061636B616765E7
:104D9C00207265636569766564207768696C652047
:104DAC006E6F7420696E2063616C696272617469E4
:104DBC006E67206D6F64652100456E61626C6520C5
:104DCC004952204C45440D0A0044697361626C657C
:104DDC00204952204C45440D0A00576174636864A5
:104DEC006F6720656E61626C65640D0A00576174B3
:104DFC006368646F672064697361626C65640D0A33
:104E0C00005761726E696E672066616E2070616317
:104E1C006B616765206E6F742079657420696D70A5
:104E2C006C656D656E7465640D0A005265626F6F1A
:104E3C0074204E55430D0A00636C65617220636FDC
:104E4C006E66696720616C6C0D0A00636C6561723B
:104E5C0020636F6E666967206C6F670D0A00636C68
:104E6C0065617220636F6E66696720686172640D9C
:104E7C000A004861726477617265207665727369A5
:104E8C006F6E200042617365626F6172642073748F
:104E9C006172746564210D0A005475726E206F6620
:104EAC0066204E55430D0A005475726E206F6E20AD
:104EBC004E55430D0A005761746368646F67207721
:104ECC00696C6C207472696767657220696E202545
:0E4EDC0064207365636F6E6473210D0A00001D
:00000001FF
