:100000000C9462000C94FA140C94D3140C948A008F
:100010000C948A000C948A000C948A000C948A0038
:100020000C948A000C948A000C948A000C948A0028
:100030000C948A000C948A000C948A000C948A0018
:100040000C9489140C948A000C9457140C94311459
:100050000C948A000C948A000C948A000C948A00F8
:100060000C948A000C948A000000000024002700F1
:100070002A0000000000250028002B0000000000DE
:1000800023002600290004040404040404040202DA
:100090000202020203030303030301020408102007
:1000A0004080010204081020010204081020000012
:1000B0000008000201000003040700000000000027
:1000C0000000211511241FBECFEFD8E0DEBFCDBF49
:1000D00026E0AEE1B4E001C01D92AE34B207E1F714
:1000E00014E0A0E0B1E0E4E0F2E502C005900D927A
:1000F000AE31B107D9F710E0C2E6D0E004C02197D5
:10010000FE010E943226C136D107C9F70E9434177A
:100110000C9400290C9400008F929F92AF92BF9292
:10012000CF92DF92EF92FF920F931F93CF93DF93C3
:10013000FC0169017A01E801CC0FDD1FC758DA4FD5
:10014000888199810E94DD25998388834091820569
:100150005091830560918405709185054601570192
:10016000841A950AA60AB70A9C01220F331FE20FD0
:10017000F31F40815181052E000C660B770B48154B
:1001800059056A057B05D0F4019699838883C0924E
:100190008205D0928305E0928405F092850591E076
:1001A00090938105F801EE0FFF1FE00FF11FE15A58
:1001B000FA4F80FF10C016861786108ADF91CF9104
:1001C0001F910F91FF90EF90DF90CF90BF90AF9075
:1001D0009F908F90089584898687858987878689EF
:1001E000808BECCF80E991E00895AF92BF92CF92DF
:1001F000DF92EF92FF920F931F93CF93DF936C01E7
:100200007B018B01040F151FEB015E01AE18BF08C7
:10021000C017D10759F06991D601ED91FC91019079
:10022000F081E02DC6010995892B79F7C501DF9191
:10023000CF911F910F91FF90EF90DF90CF90BF90E3
:10024000AF900895FC01538D448D252F30E0842F0D
:1002500090E0821B930B541710F0CF9608950197EE
:100260000895FC01918D828D981761F0A28DAE0FDB
:10027000BF2FB11D5D968C91928D9F5F9F73928F62
:1002800090E008958FEF9FEF0895FC01918D828D8E
:10029000981731F0828DE80FF11D858D90E008955B
:1002A0008FEF9FEF0895FC01918D228D892F90E0B3
:1002B000805C9F4F821B91098F73992708958DEA67
:1002C00094E00E94530121E0892B09F420E0822F61
:1002D000089580E090E0892B29F00E945F01811150
:1002E0000C9400000895FC01A48DA80FB92FB11D36
:1002F000A35ABF4F2C91848D90E001968F7399275C
:10030000848FA689B7892C93A089B1898C91837039
:1003100080648C93938D848D981306C00288F38932
:10032000E02D80818F7D80830895EF92FF920F935F
:100330001F93CF93DF93EC0181E0888F9B8D8C8D91
:1003400098131AC0E889F989808185FF15C09FB785
:10035000F894EE89FF896083E889F9898081837048
:10036000806480839FBF81E090E0DF91CF911F91F7
:100370000F91FF90EF900895F62E0B8D10E00F5F18
:100380001F4F0F731127E02E8C8D8E110CC00FB6EE
:1003900007FCFACFE889F989808185FFF5CFCE0186
:1003A0000E947301F1CFEB8DEC0FFD2FF11DE35A8D
:1003B000FF4FF0829FB7F8940B8FEA89FB89808109
:1003C0008062CFCFCF93DF93EC01888D8823B9F083
:1003D000AA89BB89E889F9898C9185FD03C0808150
:1003E00086FD0DC00FB607FCF7CF8C9185FFF2CFCD
:1003F000808185FFEDCFCE010E947301E9CFDF91AF
:10040000CF910895833081F028F4813099F08230C3
:10041000A9F008958730A9F08830C9F08430B1F48C
:10042000809180008F7D03C0809180008F778093C2
:100430008000089584B58F7784BD089584B58F7D3D
:10044000FBCF8091B0008F778093B00008958091AA
:10045000B0008F7DF9CFCF93DF93282F30E0F901E3
:10046000E255FF4F8491F901E656FF4FD491F9010F
:10047000EA57FF4FC491CC23A1F081110E940202E0
:10048000EC2FF0E0EE0FFF1FE458FF4FA591B49161
:10049000EC91ED2381E090E009F480E0DF91CF91D1
:1004A000089580E090E0FACF1F93CF93DF93282F39
:1004B00030E0F901E255FF4F8491F901E656FF4F14
:1004C000D491F901EA57FF4FC491CC23A9F0162F1C
:1004D00081110E940202EC2FF0E0EE0FFF1FEE5898
:1004E000FF4FA591B4918FB7F894EC91111108C00A
:1004F000D095DE23DC938FBFDF91CF911F910895BC
:10050000DE2BF8CFCF93DF9390E0FC01E656FF4F50
:1005100024918A579F4FFC0184918823D1F090E069
:10052000880F991FFC01E859FF4FA591B491FC0178
:10053000EE58FF4FC591D49161110EC09FB7F8944A
:100540008C91E22FE0958E238C932881E223E8831F
:100550009FBFDF91CF9108958FB7F894EC91E22B74
:10056000EC938FBFF6CF1F93CF93DF93182FEB0140
:1005700061E00E948202209739F460E0812FDF91D0
:10058000CF911F910C945402CF3FD10511F461E03B
:10059000F5CFE12FF0E0E255FF4FE491E33031F188
:1005A00040F4E130B1F0E230E1F0C038D1057CF741
:1005B000E4CFE73029F1E83059F1E430B1F7809128
:1005C0008000806280938000D0938B00C0938A006B
:1005D00004C084B5806884BDC7BDDF91CF911F91F1
:1005E000089584B5806284BDC8BDF7CF8091800036
:1005F000806880938000D0938900C0938800EDCFFD
:100600008091B00080688093B000C093B300E5CFC4
:100610008091B00080628093B000C093B400DDCFC1
:100620002091040190E4299F900111248E50822B87
:1006300080937C0080917A00806480937A0080911E
:100640007A0086FDFCCF8091780090917900089522
:100650003FB7F89480913D0490913E04A0913F04EF
:10066000B091400426B5A89B05C02F3F19F0019614
:10067000A11DB11D3FBFBA2FA92F982F8827BC01FC
:10068000CD01620F711D811D911D42E0660F771F24
:10069000881F991F4A95D1F708958F929F92AF9224
:1006A000BF92CF92DF92EF92FF924B015C010E94CA
:1006B00028036B017C010E9428036C197D098E09B7
:1006C0009F09683E734081059105A8F321E0821AD5
:1006D0009108A108B10888EEC80E83E0D81EE11C7D
:1006E000F11C81149104A104B10429F7FF90EF904B
:1006F000DF90CF90BF90AF909F908F9008952FB7CD
:10070000F8946091390470913A0480913B0490917F
:100710003C042FBF0895CF93C82F809196048C1767
:1007200051F00E947F0360934806709349068093BE
:100730004A0690934B06C0939604F89480919504D2
:1007400081110CC0CC2369F06091960470E08AE0BE
:100750000E94B30261E089E00E9454027894CF9134
:10076000089570E060E08AE00E94B30261E070E00A
:1007700080E090E00E944D0360E089E00E94540216
:1007800061E070E080E090E00E944D036FEF70E068
:100790008AE00E94B302E2CF8F929F92AF92BF9203
:1007A000CF92DF92EF92FF921092140610921506EC
:1007B000109216061092170683E10E941003BC01E6
:1007C000990F880B990B0E942A2320E030E040E02B
:1007D0005FE30E94AF2420E030E040EA50E40E9452
:1007E000892320E030E040E85AE30E9489236B012E
:1007F0007C0182E10E941003BC01990F880B990BC8
:100800000E942A2320E030E040E05FE30E94AF2412
:1008100020E030E040EA50E40E94892320E030E00C
:1008200040E85AE30E948923A70196010E94AE2462
:1008300020E030E040E850E40E9489234B015C0155
:10084000AC019B016091FB057091FC058091FD0559
:100850009091FE050E94AE246093FF057093000600
:1008600080930106909302069F7720918605309130
:10087000870540918805509189050E942323881F90
:100880008827881F809303068092FB059092FC05C1
:10089000A092FD05B092FE0520E030E040E850E473
:1008A000C701B6010E948923609304067093050670
:1008B0008093060690930706109208061092090688
:1008C00010920A0610920B060E947F03C090400609
:1008D000D0904106E0904206F09043066C197D09E5
:1008E0008E099F090E9428236B017C010E947F03CF
:1008F00060934006709341068093420690934306AE
:10090000209128063091290640912A0650912B0605
:10091000C701B6010E94892320E030E041E655E49A
:100920000E941B259B01AC0160912C0670912D0645
:1009300080912E0690912F060E94AE2460932C0683
:1009400070932D0680932E0690932F061092EA0541
:100950001092EB051092EC051092ED0580E0FF90EF
:10096000EF90DF90CF90BF90AF909F908F900C94BE
:100970008B034F925F926F927F928F929F92AF9272
:10098000BF92CF92DF92EF92FF92CF93DF9300D08E
:1009900000D0CDB7DEB77C018EE00E941003BC0111
:1009A000990F880B990B0E942A2320E030E040E841
:1009B0005AE30E94892320E030E040EA50E40E949C
:1009C00089232DEC3CEC4CE050E40E9489232091DB
:1009D0009A0530919B0540919C0550919D050E9480
:1009E0001B254B015C018092140690921506A09283
:1009F0001606B09217068092180690921906A092D9
:100A00001A06B0921B066091920570919305809131
:100A10009405909195052FE030E040E050E00E9471
:100A2000F125CA01B9010E9428239B01AC0160E0B5
:100A300070E080E090E40E941B252B013C01AC019A
:100A40009B0160E070E080E89FE30E94AE2420916B
:100A50001C0630911D0640911E0650911F060E94F3
:100A6000892369837A838B839C83A3019201C501C7
:100A7000B4010E9489239B01AC0169817A818B8139
:100A80009C810E94AF2460931C0670931D06809386
:100A90001E0690931F0683E10E941003BC01990F6C
:100AA000880B990B0E942A2320E030E040E05FE3AE
:100AB0000E94AF2420E030E040EA50E40E94892305
:100AC00020E030E040E85AE30E9489232B013C01FA
:100AD00082E10E941003BC01990F880B990B0E94C0
:100AE0002A2320E030E040E05FE30E94AF2420E0D2
:100AF00030E040EA50E40E94892320E030E040E802
:100B00005AE30E948923A30192010E94AE2420E0AF
:100B100030E040E850E40E9489234B015C01AC01C5
:100B20009B01609108067091090680910A069091D8
:100B30000B060E94AE2460931006709311068093FA
:100B40001206909313068092080690920906A092CE
:100B50000A06B0920B0680920C0690920D06A092A7
:100B60000E06B0920F0620E030E040E850E4C301EA
:100B7000B2010E9489236093040670930506809356
:100B80000606909307060E947F038090400690908F
:100B90004106A0904206B0904306681979098A0977
:100BA0009B090E9428234B015C010E947F036093F4
:100BB000400670934106809342069093430684E07A
:100BC000E816F10471F12091280630912906409130
:100BD0002A0650912B06609114067091150680919B
:100BE0001606909117060E94AE24A50194010E945A
:100BF000892320E030E041E655E40E941B25209146
:100C00002C0630912D0640912E0650912F060E9401
:100C1000AF2460932C0670932D0680932E0690933C
:100C20002F0660913C0670913D0680913E069091A2
:100C30003F060E942823A50194010E94AF240E9430
:100C4000942560933C0670933D0680933E069093F6
:100C50003F068090140690901506A0901606B0905E
:100C600017062DEC3CEC4CEC5DE3C501B4010E9491
:100C7000C3251816D4F52091FB053091FC05409151
:100C8000FD055091FE05609108067091090680915E
:100C90000A0690910B060E94AE24A50194010E94C1
:100CA0001B252AE037ED43EA5BE30E9489234B01D1
:100CB0005C0122E538EB4EE75FE36091200670911E
:100CC000210680912206909123060E9489239B0190
:100CD000AC01C501B4010E94AF246093200670935B
:100CE0002106809322069093230691E0E916F104F1
:100CF000B1F48091CE050F900F900F900F90DF917F
:100D0000CF91FF90EF90DF90CF90BF90AF909F90EA
:100D10008F907F906F905F904F900C948B03A4E026
:100D2000EA16F10409F4F2C020E030E0A901609174
:100D3000EA057091EB058091EC059091ED050E941C
:100D4000C32518160CF0B6C10E947F030E947F03D2
:100D50006093440670934506809346069093470639
:100D60008091EA059091EB05A091EC05B091ED051D
:100D700089839A83AB83BC83809014069090150678
:100D8000A0901606B09017062091EE053091EF0561
:100D90004091F0055091F105BC01CD010E94AE24B7
:100DA0006B017C0120E030E0A9010E94C3251816E8
:100DB0000CF0BFC0809196048111BBC02091240625
:100DC000309125064091260650912706C701B601AD
:100DD0000E94AE242091E0053091E1054091E205AA
:100DE0005091E3050E9489236B017C016091CE053F
:100DF00070E090E080E00E942A239B01AC01C701D3
:100E0000B6010E94AF246B017C012091280630912D
:100E1000290640912A0650912B066091D0057091C9
:100E2000D1058091D2059091D3050E94AF242B016A
:100E30003C012DEC3CEC4CE45EE30E94AF249B01B2
:100E4000AC01C501B4010E94C32518160CF07EC088
:100E50002091CA053091CB054091CC055091CD052C
:100E60006091FB057091FC058091FD059091FE0558
:100E70000E94AF249B01AC016091080670910906A5
:100E800080910A0690910B060E94C32518160CF05B
:100E90005DC06091CE0570E090E080E00E94282364
:100EA0006093F2057093F3058093F4059093F50534
:100EB000C090F205D090F305E090F405F090F505B0
:100EC00020E030E0A901C701B6010E94C32520E05F
:100ED00030E040E05FE387FDE8C0C701B6010E9453
:100EE000AF240E948D25862F0E948B038091EA05F6
:100EF0009091EB05A091EC05B091ED058093EE0586
:100F00009093EF05A093F005B093F1050F900F902B
:100F10000F900F90DF91CF91FF90EF90DF90CF90E7
:100F2000BF90AF909F908F907F906F905F904F9009
:100F300008952091E0053091E1054091E20550913E
:100F4000E305C701B6010E9489235DCF2DEC3CEC7F
:100F50004CEC5DE3C301B2010E94AF249B01AC01E4
:100F6000C501B4010E94C325181664F52091CA0575
:100F70003091CB054091CC055091CD056091FB059A
:100F80007091FC058091FD059091FE050E94AF24B3
:100F90009B01AC01609108067091090680910A06D8
:100FA00090910B060E94C325181664F46091CE053B
:100FB00070E0660F771F072E000C880B990B0E94BC
:100FC0002A236ECF4090F2055090F3056090F4050F
:100FD0007090F505A501940169817A818B819C81CE
:100FE0000E94AE242091DC053091DD054091DE05A4
:100FF0005091DF050E948923A70196010E94AF242A
:101000006B017C0120E030E04FE753EC0E9423238A
:1010100087FD40C020E030E040E752E4C701B60160
:101020000E94C325181634F4C12CD12C90E7E92E68
:1010300092E4F92EA7019601C301B2010E94AF24E8
:101040006B017C0120E030E0A9010E94232387FD91
:1010500028C0B090CF056B2D70E090E080E00E943A
:101060002A239B01AC01C701B6010E94C3251816B3
:1010700044F46B2D70E090E080E00E9428236B0127
:101080007C01C092F205D092F305E092F405F09253
:10109000F5050ECFC12CD12C8FE7E82E83ECF82E6E
:1010A000C9CFC12CD12C7601ECCFC701B6010E946B
:1010B000AE2417CF80E018CF4F925F926F927F924D
:1010C0009F92AF92BF92CF92DF92EF92FF920F93D7
:1010D0001F93CF93DF9300D01F92CDB7DEB7D82EEA
:1010E00080914D0590914E05A0914F05B09150050E
:1010F000892B8A2B8B2BD9F00E9428030091910415
:10110000109192042091930430919404601B710B10
:10111000820B930B00914D0510914E0520914F05C8
:10112000309150056017710782079307C8F20E943B
:101130002803609391047093920480939304909396
:101140009404E0915505F0915605309759F040917F
:1011500051055091520560915305709154058D2DA4
:101160000995D82EE0908F04F09090044D2C512CCE
:10117000712C612CE114F10409F459C0D7011C96BB
:10118000CC901C9780914B0590914C05843691052D
:1011900010F41C961C92D701ED91FC91A280B380B3
:1011A00019821A821B82DD2079F1F701369610E050
:1011B00000E02191222319F19280992001F130E081
:1011C00050E040E02F5F3F4F4F4F5F4FC301B201F0
:1011D0000E94CD259B01AC01892D90E0B0E0A0E0FC
:1011E000BC01CD016F5F7F4F8F4F9F4F0E94CD2578
:1011F000A1E0B0E0AC0FBD1FA00FB11F8C930F5F3B
:101200001F4F03301105A9F609811A812B81F701BF
:101210004585568562817381C701F5010995D7011E
:101220001C96CC921C971496ED90FC90A3CF8091C5
:101230008D0490918E048C010F5F1F4F10938E04CC
:1012400000938D044997B4F10E947F03C0908904F4
:10125000D0908A04E0908B04F0908C049B01AC0148
:101260002C193D094E095F0921F421E030E040E0EE
:1012700050E088EE93E0089FB001099F700D189F21
:10128000700D1124072E000C880B990B0E94F1257C
:1012900030934C0520934B0510928E0410928D04D0
:1012A0000E947F036093890470938A0480938B0467
:1012B00090938C040F900F900F90DF91CF911F911E
:1012C0000F91FF90EF90DF90CF90BF90AF909F90E5
:1012D0007F906F905F904F9008950F931F93CF93DF
:1012E000DF93CDB7DEB72C970FB6F894DEBF0FBEF5
:1012F000CDBFFC01EE0FFF1FE358FA4F0190F081C4
:10130000E02D3197E730F10510F58C01E657F64FE7
:101310000C943226BB09B2099109C409CD09D6093A
:10132000E6098091050190910601A0910701B09115
:10133000080189839A83AB83BC830E947F039B014E
:10134000AC0162E070E0CE0101960E948C002C9608
:101350000FB6F894DEBF0FBECDBFDF91CF911F91C6
:101360000F9108958091090190910A01A0910B01BC
:10137000B0910C01DECF80910D0190910E01A091F2
:101380000F01B0911001D5CF809111019091120100
:10139000A0911301B0911401CCCF809115019091CF
:1013A0001601A0911701B0911801C3CF88E0E9E1BF
:1013B000F1E0DE01119601900D928A95E1F70E940D
:1013C0007F039B01AC0164E070E0BDCF8CE0E1E203
:1013D000F1E0DE01119601900D928A95E1F70E94ED
:1013E0007F039B01AC0166E070E0ADCF08950F93E1
:1013F0001F93CF93DF93209137042F5F322F3770E5
:101400003093370420FF2BC020E831FD2064347076
:1014100009F02062205FFC01EC01239600E011E05E
:101420006485662329F070E0C8010E94DD256F5FA6
:101430006187322F369F030E30E0311D11243111A8
:1014400010C01682662311F0615061873196EC1747
:10145000FD0731F7DF91CF911F910F91089520E0A3
:10146000D4CF31503683EECF4F925F926F927F92FE
:101470008F92AF92BF92CF92DF92EF920F931F9312
:10148000CF93DF933C01EB010E942803F3012785F2
:101490003089621B730B6A307105B0F3F894E881F0
:1014A000F9817BB174606BB16B7F6BB9CA848F813A
:1014B0002C2D281B822F2F83BF844A805B801D85A3
:1014C0000C85DE841F5F0F5FD3949E813885A984CD
:1014D000EB844181D20120E0C32F522F322F318182
:1014E000442788943111380F08F43FEF8195889490
:1014F00010FD430F4795889411FD430F479588943D
:1015000012FD430F4795889413FD430F4795889428
:1015100014FD430F4795889415FD430F4795889414
:1015200016FD430F4795889417FD430F4795889400
:10153000232F1111242F8C0D422F002C7BB900C0BA
:1015400047FF6BB930812227889400C000C0002C6F
:101550006BB93111390F00C0002C7BB900C046FFB8
:101560006BB908F43FEF9195889400C000C0002C3F
:101570006BB900FD230F00C0002C7BB900C045FFF4
:101580006BB92795889401FD230F00C000C0002C83
:101590006BB92795889400C0002C7BB900C044FF2C
:1015A0006BB902FD230F2795889400C000C0002C62
:1015B0006BB903FD230F00C0002C7BB900C043FFB3
:1015C0006BB92795889404FD230F00C000C0002C40
:1015D0006BB92795889400C0002C7BB900C042FFEE
:1015E0006BB905FD230F2795889400C000C0002C1F
:1015F0006BB906FD230F00C0002C7BB900C041FF72
:101600006BB92795889407FD230F00C000C0002CFC
:101610006BB92795889400C0002C7BB900C040FFAF
:101620006BB9432F0111422F9A0D00C000C0002C4E
:101630006BB900C000C0002C7BB900C047FF6BB97C
:1016400032812227889400C000C0002C6BB9311170
:101650003C0F00C0002C7BB900C046FF6BB908F4FA
:101660003FEFEB0DF11D00C000C0002C6BB9D0FCAA
:10167000230F00C0002C7BB900C045FF6BB9279534
:101680008894D1FC230F00C000C0002C6BB92795B3
:10169000889400C0002C7BB900C044FF6BB9D2FC19
:1016A000230F2795889400C000C0002C6BB9D3FC91
:1016B000230F00C0002C7BB900C043FF6BB92795F6
:1016C0008894D4FC230F00C000C0002C6BB9279570
:1016D000889400C0002C7BB900C042FF6BB9D5FCD8
:1016E000230F2795889400C000C0002C6BB9D6FC4E
:1016F000230F00C0002C7BB900C041FF6BB92795B8
:101700008894D7FC230F00C000C0002C6BB927952C
:10171000889400C0002C7BB900C040FF6BB9432FF8
:10172000D110422FC19500C000C0002C6BB9CE0D66
:1017300000C000C07BB900C047FF6BB931812227D0
:10174000889400C000C0002C6BB93111380F00C064
:10175000002C7BB900C046FF6BB908F43FEF8195C0
:10176000889400C000C0002C6BB910FD230F00C08E
:10177000002C7BB900C045FF6BB92795889411FDFB
:10178000230F00C000C0002C6BB92795889400C0BF
:10179000002C7BB900C044FF6BB912FD230F2795C5
:1017A000889400C000C0002C6BB913FD230F00C04B
:1017B000002C7BB900C043FF6BB92795889414FDBA
:1017C000230F00C000C0002C6BB92795889400C07F
:1017D000002C7BB900C042FF6BB915FD230F279584
:1017E000889400C000C0002C6BB916FD230F00C008
:1017F000002C7BB900C041FF6BB92795889417FD79
:10180000230F00C000C0002C6BB92795889400C03E
:10181000002C7BB900C040FF6BB9432F1111422F40
:101820008C0D00C000C0002C6BB9119709F086CE5A
:1018300020EE31E0D2010E943826DC01CB01F4E039
:10184000B695A79597958795FA95D1F730E020E062
:10185000B901EAE94E9E040C611D5E9E600D711D8A
:101860001124650D711D860F971FA11DB11D893EA5
:1018700043E09407A105B10508F434C0885E9340A5
:10188000A109B10942E0B695A795979587954A9524
:10189000D1F747E0849F080E211D949F200D311D34
:1018A0001124290F311D6091360470E0860F971FB7
:1018B000820F931F4091390450913A0460913B0488
:1018C00070913C04292F3327420F531F611D711D56
:1018D0004093390450933A0460933B0470933C0462
:1018E0008093360478940E942803F301708B6787F5
:1018F000DF91CF911F910F91EF90DF90CF90BF902C
:10190000AF908F907F906F905F904F900895529A14
:101910000895EF92FF920F931F93CF93DF93CDB76C
:10192000DEB762970FB6F894DEBF0FBECDBF7C0165
:10193000DC011C968C917A8369835C834B835E8384
:101940004D830D871E872F87813001F5CE010196CB
:101950000E94F70983E0888B1A8A198AD701ED91D2
:10196000FC910484F585E02DBE016F5F7F4FC701B8
:10197000099562960FB6F894DEBF0FBECDBFDF911A
:10198000CF911F910F91FF90EF9008951C861B86B9
:101990001A86198618861F82DDCFEF92FF920F9369
:1019A0001F93CF93DF93CDB7DEB762970FB6F8944E
:1019B000DEBF0FBECDBF7C01DC011C968C917A830B
:1019C00069835C834B835E834D830D871E872F87DE
:1019D0008130F9F4CE0101960E94F709188A1A8A1B
:1019E000198AD701ED91FC910484F585E02DBE01A3
:1019F0006F5F7F4FC701099562960FB6F894DEBFFF
:101A00000FBECDBFDF91CF911F910F91FF90EF904F
:101A100008951C861B861A86198618861F82DECFBB
:101A200090E080E00895FC018585968508950F93E8
:101A30001F93CF93DF9300D01F92CDB7DEB7AB01DA
:101A400019821A821B82DC01ED91FC910190F081D8
:101A5000E02D00E010E020E0BE016F5F7F4F0995B0
:101A60000F900F900F90DF91CF911F910F910895DC
:101A7000809196048823B9F081E08093950470E00A
:101A800060E08AE00E94B30261E070E080E090E0F4
:101A90000E944D0360E089E00E9454026FEF70E005
:101AA0008AE00C94B3020895FC018081918186172D
:101AB000970721F07183608381E084870895FC019A
:101AC00001900020E9F73197AF01481B590BBC0189
:101AD0008DEA94E00C94F500009711F00C945F0DE2
:101AE00090E080E008958F929F92AF92BF920F9303
:101AF0001F93CF93DF93CDB7DEB7A1970FB6F894BE
:101B0000DEBF0FBECDBF19A2423008F44AE08E01FD
:101B10000F5D1F4F842E912CB12CA12CA501940197
:101B20000E94F125E62FB901CA01EA30D4F4E05D44
:101B3000D801EE938D01232B242B252B79F7CD0192
:101B40000E946C0DA1960FB6F894DEBF0FBECDBFFC
:101B5000DF91CF911F910F91BF90AF909F908F9089
:101B60000895E95CE5CF0C946C0DCF93DF930E9450
:101B70006C0DEC0186ED93E00E945F0D8C0F9D1FB4
:101B8000DF91CF910895FF920F931F93CF93DF932F
:101B900007E914E0D0E0C0E0F801F1908F01CE0138
:101BA0000E944724F81621F06F2DCE010E944F2489
:101BB0002196C631D10581F787E994E0DF91CF9175
:101BC0001F910F91FF900895E7E9F4E080819181E2
:101BD000A281B3810196A11DB11D80839183A2834F
:101BE000B3830C94C30D0F931F936093A40470935D
:101BF000A5048093A6049093A7040E947F030091FC
:101C00003204109133042091340430913504601B68
:101C1000710B820B930B613C77428940910560F018
:101C20000E94E40D0E947F0360933204709333049A
:101C300080933404909335041F910F910895CF93AE
:101C4000DF93BC0190E080E04AE00E94730DEC015C
:101C500086ED93E00E945F0D8C0F9D1FDF91CF9169
:101C60000895CF92DF92EF92FF92CF93DF9397FF89
:101C70001BC06B017C016DE28DEA94E00E9495012E
:101C8000EC0166277727CB016C197D098E099F0926
:101C90004AE00E94730D8C0F9D1FDF91CF91FF9042
:101CA000EF90DF90CF9008954AE0DF91CF91FF90C1
:101CB000EF90DF90CF900C94730DCF93DF93BC0126
:101CC000990F880B990B0E94310EEC0186ED93E081
:101CD0000E945F0D8C0F9D1FDF91CF9108954F9251
:101CE0005F926F927F928F929F92AF92BF92CF92AC
:101CF000DF92EF92FF920F931F93CF936B017C01C2
:101D0000742EAC019B010E94C825882399F081E6BE
:101D100091E0CF911F910F91FF90EF90DF90CF90C6
:101D2000BF90AF909F908F907F906F905F904F90FB
:101D30000C945F0D46015701E894B7F82FEF3FEF81
:101D40004FE75FE7C501B4010E94C82581110DC0AE
:101D50002FEF3FEF4FE75FE7C501B4010E94232358
:101D600018161CF485E691E0D4CF2FEF3FEF4FE734
:101D70005FE4C701B6010E94C32518161CF489E66A
:101D800091E0C7CF2FEF3FEF4FE75FECC701B60100
:101D90000E94232387FDF3CF20E030E0A901C70193
:101DA000B6010E94232310E000E087FF0AC06DE225
:101DB0008DEA94E00E9495018C01F7FAF094F7F80F
:101DC000F094C0E060E070E080E09FE37C1641F0BA
:101DD00020E030E040E251E40E941B25CF5FF6CFC7
:101DE000A70196010E94AF242B013C010E9494257B
:101DF0004B015C014AE00E94730D7C01E00EF11E74
:101E0000CC23C1F1C501B4010E9428239B01AC0180
:101E1000C301B2010E94AE244B015C016EE28DEA67
:101E200094E00E949501E80EF91EC15018F120E0DF
:101E300030E040E251E4C501B4010E9489232B0146
:101E40003C010E9494254B01B12CA12C4AE0C50114
:101E5000B4010E94730DE80EF91EC501B4010E9481
:101E600028239B01AC01C301B2010E94AE244B01A7
:101E70005C01DBCFC701CF911F910F91FF90EF90D5
:101E8000DF90CF90BF90AF909F908F907F906F909A
:101E90005F904F900895CF93DF9388ED93E00E9479
:101EA000B50D8DE691E00E94B30DC7E9D4E06881DD
:101EB00079818A819B814AE00E94730D86ED93E0CF
:101EC0000E945F0D8CE791E00E94B30D8C8190E041
:101ED0000E945D0E86E991E00E94B30D6D817E81C6
:101EE0008F81988542E00E946F0E86ED93E00E94FC
:101EF0005F0D81EB91E00E94B30D898590E00E9417
:101F00005D0E83EC91E00E94B30D8A8590E00E9403
:101F10005D0E85ED91E00E94B30D8B859C850E943E
:101F20001F0E85EE91E00E94B30D6D857E858F8535
:101F3000988920E83EEE46E350E00E941326CA014D
:101F4000B9010E94310E84EF91E00E94B30D6D85BE
:101F50007E858F8598890E94310E88EF91E00E94DE
:101F6000B50D8AEF91E00E94B30D89899A890E948C
:101F70001F0E8FE092E00E94B30D8B899C89DF9148
:101F8000CF910C941F0E0F931F93CF93DF9307E90C
:101F900014E0D0E0C0E0CE010E944724F801819314
:101FA0008F012196C631D105B1F70E944B0F809168
:101FB000A00480937C040E947F030091A4041091EC
:101FC000A5042091A6043091A704601B710B820B1D
:101FD000930B6093810470938204809383049093A5
:101FE00084048091A20480936A048091A804909153
:101FF000A90490936904809368048091AA04909145
:10200000AB0490937E0480937D04DF91CF911F9168
:102010000F910895CF92DF92EF92FF921F93CF938B
:10202000DF93CDB7DEB7C054D1090FB6F894DEBF49
:102030000FBECDBF109195041123E1F010929504CD
:1020400065E272E0CE0101960E945826CE0101960B
:102050000E946C0D812FC05CDF4F0FB6F894DEBF7D
:102060000FBECDBFDF91CF911F91FF90EF90DF901A
:10207000CF9008950E947F03C0903806D090390613
:10208000E0903A06F0903B066C197D098E099F0995
:10209000C0909205D0909305E0909405F09095053E
:1020A000C616D706E806F906C8F42091BA0530919D
:1020B000BB054091BC055091BD056091FB05709139
:1020C000FC058091FD059091FE050E94C325181620
:1020D0001CF481E08093FA0511E0BCCF0E947F03DD
:1020E000C0903806D0903906E0903A06F0903B0652
:1020F0006C197D098E099F09C0909605D0909705AF
:10210000E0909805F0909905C616D706E806F906FE
:1021100008F0A0CF2091C6053091C7054091C805B1
:102120005091C905609114067091150680911606AC
:10213000909117060E94232387FF8CCF0E947F0374
:10214000C0904806D0904906E0904A06F0904B06B1
:102150006C197D098E099F09C0909605D09097054E
:10216000E0909805F0909905C616D706E806F9069E
:1021700008F470CF2091C6053091C7054091C8057D
:102180005091C9056091EA057091EB058091EC05CD
:102190009091ED050E94C32518160CF05BCF20919D
:1021A000CA053091CB054091CC055091CD05609189
:1021B000FB057091FC058091FD059091FE050E9444
:1021C000AF249B01AC0160910806709109068091D3
:1021D0000A0690910B060E94C32518160CF03ACF00
:1021E00080E00E948B0378CF0E9453265F926F920B
:1021F0007F928F929F92AF92BF92CF92DF92EF9297
:10220000FF920F931F93CF93DF93CDB7DEB7C054E8
:10221000D1090FB6F894DEBF0FBECDBF0FEF1FEF91
:1022200083E0D82E94E0C92E2DE0B22E38E0A32E04
:1022300045E0942E56E0852E6CE0762E662463945D
:1022400072E0572EE0E1EE2EF12C8DEA94E00E9430
:102250005301892B09F44FC18DEA94E00E943101AA
:102260002091200430912104F901EE5DFB4F808321
:1022700090911F04923009F460C098F4992309F4F6
:1022800053C0913009F456C08091200490912104EC
:102290000196B7010E94DD259093210480932004CC
:1022A000D4CF933009F453C0943071F72F5F3F4F70
:1022B00040911E0450E02417350709F083C08A308E
:1022C00009F079C010921F0410922104109220048A
:1022D0000E947F03609357057093580580935905BA
:1022E00090935A05E0912504E154E73108F003C1C9
:1022F000F0E0E358FE4E0C943226F2137B12E71105
:102300007B129F135A137B127B127B127B127B1260
:10231000EE127B1291137B127B127B125D137B12E8
:102320007B127B127B120D13803409F046C0609241
:102330001F04AACF50921F04A7CF2F5D3B4FD90196
:102340008C918F3009F037C0D0921F049DCFC0927E
:102350001F048154873108F02CC0E82FF0E0ED54C1
:10236000FE4E0C943226CD11D911CA11D911D311B8
:10237000CD11D911D911D911D911D911CD11D91125
:10238000D011D911D911D911D611D911D911D91109
:10239000D911CD1170921E0477CF80921E0474CF94
:1023A00090921E0471CFA0921E046ECFB0921E04B4
:1023B0006BCF10921E0410921F04109321040093FF
:1023C000200462CF241735070CF45ECFF4CF809140
:1023D0007F0490918004029761F01092260460E4DB
:1023E00072E0CE0101960E945826CE0101960E940D
:1023F0006C0D8091E8059091E90520912604222337
:1024000009F4CCC0009701F567E772E0CE010196B0
:102410000E945826CE0101960E946C0D8091A10465
:10242000811105C081E08093A1040E94E40D81E048
:1024300090E09093E9058093E8058091E8059091FC
:10244000E905009709F457C0209127042223E9F1F8
:102450000C9709F0BEC02091FB053091FC0540911E
:10246000FD055091FE05609128047091290480912A
:102470002A0490912B040E94AE246093300670933E
:102480003106809332069093330621E020939B041B
:1024900060939C0470939D0480939E0490939F048A
:1024A0000E94E40D8CE992E00E94B30D6091300629
:1024B00070913106809132069091330642E00E947D
:1024C0006F0E86ED93E00E945F0D80912C048823AF
:1024D00091F010929B040E94E40D8CE090E09093A8
:1024E000E9058093E80510923006109231061092AB
:1024F0003206109233060E947F0300915705109117
:1025000058052091590530915A05601B710B820BBB
:10251000930B613177428105910548F18091610506
:1025200090916205019741F081E090E090936205FF
:102530008093610580936C0580916305882329F061
:102540001092630581E080936C0580916505882376
:1025500029F01092650581E080936C0580916405F7
:10256000882329F01092640581E080936C05C05C9B
:10257000DF4F0FB6F894DEBF0FBECDBFDF91CF9116
:102580001F910F91FF90EF90DF90CF90BF90AF9091
:102590009F908F907F906F905F900895892B09F4A2
:1025A000AACF69E872E0CE0101960E945826CE01BA
:1025B00001960E946C0D1092E9051092E805809139
:1025C000A104882309F497CF1092A1040E94E40D7E
:1025D00034CF88EB92E00E94B50D77CF809126042E
:1025E000882379F069EF72E0CE0101960E945826A7
:1025F000CE0101960E946C0D61E087E00E945402BA
:102600007ACF69E073E0CE0101960E945826CE0190
:1026100001960E946C0D60E0F0CF0E947F036093F2
:102620005B0570935C0580935D0590935E05109249
:10263000790410926B048091AC04882321F01092ED
:10264000A0040E94E40D80917C04909126049923BB
:10265000E1F0811150CF61E08DE00E945402809141
:10266000A004882321F01092A0040E94E40D81E0D0
:1026700080937C046AE173E0CE0101960E945826A3
:10268000CE0101960E946C0D36CF882309F433CF1A
:1026900060E08DE00E9454028091A004811105C089
:1026A00081E08093A0040E94E40D10927C046DE20E
:1026B00073E0E2CF61E473E0DFCF8091260490E025
:1026C00020916105309162058217930739F090934C
:1026D00062058093610581E080936C0580912B04F5
:1026E00090916305891729F08093630581E08093B9
:1026F0006C0580912D0490916505891729F08093D0
:10270000650581E080936C0580912C0490916405AF
:10271000891709F4F0CE8093640581E080936C05FD
:10272000EACE6BE673E0CE0101960E945826CE01F8
:1027300001960E946C0D81E080936C04DCCE809148
:1027400026048823B9F068E773E0CE0101960E9461
:102750005826CE0101960E946C0DEBE9F4E082E16F
:10276000DF011D928A95E9F70E944B0F0E94C30D6D
:102770000E94C30F809128048823B9F06BE873E0AE
:10278000CE0101960E945826CE0101960E946C0D42
:10279000E0EAF4E08DE0DF011D928A95E9F70E94FE
:1027A0004B0F0E94C30D0E94C30F80912704882302
:1027B00009F4A1CE6EE973E0CE0101960E9458267D
:1027C000CE0101960E946C0D86E1E7E9F4E0DF019D
:1027D0001D928A95E9F70E944B0F0E94C30D0E943B
:1027E000C30F89CE80912604882321F11092F6052B
:1027F0001092F7051092F8051092F9058091E805FE
:102800009091E9058D7F892B09F475CE8091F605AD
:102810009091F705A091F805B091F905892B8A2BC5
:102820008B2B09F468CE8BE090E09093E9058093C0
:10283000E80561CE8091F6059091F705A091F80525
:10284000B091F905892B8A2B8B2BC1F60E947F034F
:102850006093F6057093F7058093F8059093F9055A
:10286000CDCF1F920F920FB60F9211242F933F934B
:102870004F935F936F937F938F939F93AF93BF9388
:10288000EF93FF938DEA94E00E947301FF91EF9123
:10289000BF91AF919F918F917F916F915F914F9178
:1028A0003F912F910F900FBE0F901F9018951F9280
:1028B0000F920FB60F9211242F938F939F93EF9344
:1028C000FF93E091BD04F091BE048081E091C304C8
:1028D000F091C40482FD1BC090818091C6048F5F7B
:1028E0008F732091C704821741F0E091C604F0E095
:1028F000E355FB4F958F8093C604FF91EF919F9115
:102900008F912F910F900FBE0F901F90189580817F
:10291000F4CF1F920F920FB60F9211242F933F9373
:102920008F939F93AF93BF938091390490913A0412
:10293000A0913B04B0913C043091380423E0230F74
:102940002D3758F50196A11DB11D209338048093B1
:10295000390490933A04A0933B04B0933C048091D3
:102960003D0490913E04A0913F04B0914004019633
:10297000A11DB11D80933D0490933E04A0933F049C
:10298000B0934004BF91AF919F918F913F912F9150
:102990000F900FBE0F901F90189526E8230F0296F8
:1029A000A11DB11DD2CF1F920F920FB60F9211240D
:1029B0002F933F934F935F936F937F938F939F9347
:1029C000AF93BF93EF93FF93E0910201F091030166
:1029D0000995FF91EF91BF91AF919F918F917F9159
:1029E0006F915F914F913F912F910F900FBE0F907C
:1029F0001F9018951F920F920FB60F9211242F93CC
:102A00003F934F935F936F937F938F939F93AF9376
:102A1000BF93EF93FF93E0910001F09101010995BD
:102A2000FF91EF91BF91AF919F918F917F916F91A6
:102A30005F914F913F912F910F900FBE0F901F907C
:102A40001895EDEAF4E01382128288EE93E0A0E09C
:102A5000B0E084839583A683B78383E591E0918377
:102A6000808385EC90E09587848784EC90E097875D
:102A7000868780EC90E0918B808B81EC90E0938B4B
:102A8000828B82EC90E0958B848B86EC90E0978B28
:102A9000868B118E128E138E148EEAE4F5E08FEF82
:102AA000808312821182148613868FEF9FEFDC01E0
:102AB00087839087A187B287E6E8F5E08DEC9CECF0
:102AC000ACE4BDE380839183A283B38340E65AEEF6
:102AD00060E070E044835583668377834CE251E085
:102AE00060E070E0408751876287738740E355E775
:102AF00060E070E0448755876687778742EC51E055
:102B000060E070E0408B518B628B738B4AEF5EE725
:102B10006AEA7EE3448B558B668B778B40E050E00E
:102B200066E973E4408F518F628F738F40EE53E9F3
:102B300064E070E0448F558F668F778F4DEC5CECCE
:102B40006CE47FE340A351A362A373A346E656E679
:102B500066E67FE344A355A366A377A343E353E369
:102B600063EB7FE340A751A762A773A740E050E063
:102B700060E670E444A755A766A777A743E353E34D
:102B800063E870E440AB51AB62AB73AB4DEC5CEC13
:102B900064E870E444AB55AB66AB77AB46E656E60B
:102BA00066E870E440AF51AF62AF73AF40E050E011
:102BB00068E870E444AF55AF66AF77AF8093C60561
:102BC0009093C705A093C805B093C9058AE999E910
:102BD000A9E1BFE38093CA059093CB05A093CC05F0
:102BE000B093CD052EE02093CE052CE32093CF05A6
:102BF0008093D0059093D105A093D205B093D305CF
:102C00008AE999E9A9E9BEE38093D4059093D505B3
:102C1000A093D605B093D7058AE999E9A9E1BEE367
:102C20008093D8059093D905A093DA05B093DB057E
:102C30004DEC5CEC6CE47EE34093DC055093DD05E9
:102C40006093DE057093DF0540E050E068E472E4D5
:102C50004093E0055093E1056093E2057093E3052E
:102C60004FE652E163E07AE34093E4055093E505D3
:102C70006093E6057093E7051092E9051092E80568
:102C80001092EA051092EB051092EC051092ED05FA
:102C90001092EE051092EF051092F0051092F105DA
:102CA0001092F2051092F3051092F4051092F505BA
:102CB0001092F6051092F7051092F8051092F9059A
:102CC0001092FA051092FB051092FC051092FD057A
:102CD0001092FE051092FF05109200061092010658
:102CE0001092020610920306109204061092050636
:102CF0001092060610920706109208061092090616
:102D000010920A0610920B0610920C0610920D06F5
:102D100010920E0610920F061092100610921106D5
:102D200010921206109213061092140610921506B5
:102D30001092160610921706109218061092190695
:102D400010921A0610921B0610921C0610921D0675
:102D500010921E0610921F0640E050E060E87FE3EC
:102D60004093200650932106609322067093230619
:102D70008093240690932506A0932606B0932706F9
:102D80008093280690932906A0932A06B0932B06D9
:102D900010922C0610922D0610922E0610922F06DD
:102DA00010923006109231061092320610923306BD
:102DB000109234061092350610923606109237069D
:102DC000109238061092390610923A0610923B067D
:102DD00010923C0610923D0610923E0610923F065D
:102DE000109240061092410610924206109243063D
:102DF000109244061092450610924606109247061D
:102E0000109248061092490610924A0610924B06FC
:102E1000EFE5F5E0118210821382128281E0848353
:102E2000858316821782408751876287738715864C
:102E30001486848712A213A214A215A216A20E94BD
:102E40007F0360935B0570935C0580935D059093B1
:102E50005E050E947F036093570570935805809329
:102E6000590590935A050895CF93DF93CDB7DEB7F8
:102E7000CD57D1090FB6F894DEBF0FBECDBF789401
:102E800084B5826084BD84B5816084BD85B582606F
:102E900085BD85B5816085BD80916E008160809320
:102EA0006E00109281008091810082608093810089
:102EB0008091810081608093810080918000816099
:102EC000809380008091B10084608093B1008091F4
:102ED000B00081608093B00080917A00846080931C
:102EE0007A0080917A00826080937A0080917A00E3
:102EF000816080937A0080917A00806880937A0064
:102F00001092C1000E94C30F80917D0490917E04B5
:102F1000019690937E0480937D0421E030E0892B1C
:102F200011F430E020E08091AA049091AB042817BE
:102F3000390731F03093AB042093AA040E94E40DCA
:102F400061E088E00E94540261E088E00E94820211
:102F500061E088E00E94540261E085E00E94540232
:102F600061E085E00E94820261E085E00E945402F7
:102F700061E08DE00E94820260917C048DE00E94FD
:102F8000540261E087E00E94820261E087E00E94D3
:102F9000540260E081E10E94820260E086E00E94CB
:102FA000820261E08FE00E94820270E060E08FE0C8
:102FB0000E94B30261E070E080E090E00E944D0367
:102FC00060E08FE00E948202E091BD04F091BE04B7
:102FD00082E08083E091B904F091BA041082E0911C
:102FE000BB04F091BC0480E180831092C504E091A1
:102FF000C104F091C20486E08083E091BF04F091A7
:10300000C004808180618083E091BF04F091C0049E
:10301000808188608083E091BF04F091C00480814A
:1030200080688083E091BF04F091C00480818F7D2F
:10303000808385E090E0A0E0B0E08093B1049093BD
:10304000B204A093B304B093B404809154048111EA
:1030500045C010924604109245048FEF80934904B6
:1030600080934A0480934B0480934C0480934D04D6
:1030700080934E0481E080934F041092510410928B
:103080005004109248041092470480918F0490914C
:103090009004892B31F483E494E09093900480931E
:1030A0008F04E0914104F0914204309721F083E4D1
:1030B00094E09583848383E494E090934204809326
:1030C0004104109253041092520481E491E09093D1
:1030D00044048093430481E080935404529A8DE623
:1030E00095E0909346048093450482E090E09093AD
:1030F00051048093500480914D0590914E05A0910C
:103100004F05B0915005843C29E09207A105B10517
:1031100020F484EC99E0A0E0B0E080934D0590931A
:103120004E05A0934F05B093500580916105909195
:103130006205892B39F0109262051092610581E0D9
:1031400080936C0589E18093730580937405809367
:103150007505109276058093770510927805809119
:10316000730590917405A091750580936D059093FA
:103170006E05A0936F058091760590917705A091DB
:1031800078058093700590937105A0937205109255
:103190007E0510927D051092800510927F0501E05A
:1031A00010E010937A050093790510937C05009345
:1031B0007B0580914A050E945C088FE595E090931D
:1031C0004D0680934C0683E08093040161E08AE021
:1031D0000E94820261E089E00E94820260E080E158
:1031E0000E94820260E08EE00E94820260E083E042
:1031F0000E94820288E39DE0909303018093020184
:1032000080916900837F886080936900E99A80914A
:10321000A104882309F4AEC01093E9050093E805E2
:1032200080918100887F81608093810080E00E948E
:103230008B038FE00E9410036AE070E080E090E072
:103240000E944D038FE00E9410038095909535E019
:10325000969587953A95E1F78F71992710E000E0F0
:1032600030E020E0E4E0F0E0AC01022E02C0569530
:1032700047950A94E2F741705527BF01621B730B13
:1032800002C0440F551F6A95E2F7042B152B2F5FE0
:103290003F4F2530310541F782EB93E00E94B30D9B
:1032A000C8010E941F0E1093800400937F0464ECF9
:1032B00073E0AE014F5F5F4F5A01CA010E9458266A
:1032C000C5010E946C0D11E097E0292E312C2AE0F7
:1032D000822E912C8091600481110CC00E947F038A
:1032E00060935C0470935D0480935E0490935F042C
:1032F0001093600481E10E94100301E08D3291403F
:103300000CF400E0C0905C04D0905D04E0905E049A
:10331000F0905F040E947F039601215F3F4FD90127
:10332000A61BB70BEC96BFAFAEAFEC97412C512C60
:103330003201BFE0CB0ED11CE11CF11C0E947F03C7
:103340006C157D058E059F05D0F481E10E94100368
:1033500021E08D32E1E09E070CF420E0201771F3AC
:10336000FFEF4F1A5F0A6F0A7F0A01E0892B31F7DE
:1033700000E0E4CF1092E9051092E80551CFA8EEE5
:10338000B3E0A30192010E945D24EC96AEADBFAD07
:10339000EC979D01BB0F440B550B0E94F125CA0110
:1033A000B9010E9428232AE037ED43E25CE30E9442
:1033B00089236B017C0160917A0470917B0490E019
:1033C00080E00E94282324EA30E74DE75FE30E9473
:1033D00089239B01AC01C701B6010E94AF240E9462
:1033E000942570937B0460937A040E947F0360931A
:1033F0005C0470935D0480935E0490935F040E946C
:10340000F61080917C04882369F10E947F03C090AC
:103410008104D0908204E0908304F09084046C19BD
:103420007D098E099F0961157447874B914020F4EF
:1034300080916B04811116C00E947F03C0905B05D0
:10344000D0905C05E0905D05F0905E056C197D09FB
:103450008E099F0961387E4E8643910508F4E3C0CA
:1034600010936C048091710481110CC00E947F0341
:1034700060936D0470936E0480936F049093700456
:103480001093710488E00E942B02892B09F46DC00F
:1034900080916C04882309F468C069ED73E0C5016C
:1034A0000E945826C5010E946C0D10926C04109366
:1034B0006B048091AC04811104C01093A0040E949D
:1034C000E40D1092790480916605882321F0109212
:1034D000660510936C050E947F0360936D047093E2
:1034E0006E0480936F04909370040E947F03609336
:1034F00081047093820480938304909384040E94D7
:103500007F0360935B0570935C0580935D059093EA
:103510005E0580916A048F5F80936A0421E030E049
:10352000811102C030E020E08091A2049091A304B8
:103530002817390731F03093A3042093A2040E9486
:10354000E40D0E947F03C0908104D0908204E0903B
:103550008304F09084046C197D098E099F090E94F0
:10356000F30D60E088E00E9454020E947F03C09047
:103570006D04D0906E04E0906F04F09070046C19AC
:103580007D098E099F09613375478105910568F1B1
:1035900088E00E942B02892B41F568EE73E0C5019B
:1035A0000E945826C5010E946C0D8091680490917C
:1035B00069040196909369048093680421E030E0E7
:1035C000892B11F430E020E08091A8049091A904A7
:1035D0002817390731F03093A9042093A8040E94DA
:1035E000E40D61E088E00E94540280916B0588231D
:1035F00009F459C010927E0510927D051093810543
:10360000E0915F05F0916005E730F10508F049C0F1
:10361000E45FF44E0C9432262A1B3F1BB71BCE1BD3
:10362000A41BE11B7D1B0E947F036C197D098E0981
:103630009F096137774C8643910508F413CF1093A7
:1036400079048091660581110DCF10936605109362
:103650006C0508CF20E030E04FE753E46091670548
:10366000709168058091690590916A050E9489238F
:103670000E94942560937305609374058CC010922A
:1036800073051092740510927505809173059091E1
:103690007405A091750580936D0590936E05A093B8
:1036A0006F0510926B0580916C05882309F4DFC0CB
:1036B0001092800510927F05109381058091660518
:1036C000882331F041E050E050936205409361055A
:1036D000E0916105F0916205E930F10508F0CAC199
:1036E000EC58F44E0C943226F81B0D1C711C9A1CDD
:1036F000D31CE81CFD1C141D271D20E030E04FE703
:1037000053E4609167057091680580916905909117
:103710006A050E9489230E94942560937305609333
:103720007405109275058091730590917405A091B0
:10373000750580936D0590936E05A0936F0530928B
:103740007E0520927D05ADCF20E030E04FE753E4C9
:1037500060916705709168058091690590916A058F
:103760000E9489230E949425609373058ACF20E0EC
:1037700030E04FE753E460916705709168058091F0
:10378000690590916A050E9489230E9494251092F0
:103790007305109274056093750577CF20E030E0D3
:1037A0004FE753E460916705709168058091690562
:1037B00090916A050E9489230E94942510927305B6
:1037C0005BCF20E030E04FE753E4609167057091F4
:1037D00068058091690590916A050E9489230E947D
:1037E00094251092730510927405609375059BCF14
:1037F00020E030E04FE753E4609167057091680581
:103800008091690590916A050E9489230E94942500
:10381000609376051092770504C120E030E04FE711
:1038200053E46091670570916805809169059091F6
:103830006A050E9489230E94942560937605109260
:103840007705109278058091760590917705A09183
:1038500078058093700590937105A093720582E0BE
:1038600090E09093800580937F0510926C05809185
:103870006105909162050197029740F08091630580
:103880008111FBC03092800520927F0590E080E09E
:103890000E946D0981E090E00E946D098091810590
:1038A000882331F080914A050E945C0810928105BE
:1038B000E091E805F091E905ED30F10508F06AC402
:1038C000EC59F34E0C943226541D5E1D6D1DCD1D1A
:1038D0002B1E4A1E671E8F1EB61EC11EE81EE42246
:1038E000202320E030E04FE753E4609167057091BA
:1038F00068058091690590916A050E9489230E945C
:103900009425609376051092770510927805809142
:10391000760590917705A091780580937005909336
:103920007105A0937205A4E0B0E0B0938005A09368
:103930007F059BCFC0906705D0906805E090690532
:10394000F0906A0520E030E04FE753E4C701B6018C
:103950000E9489230E9494256093760520E030E040
:1039600040EA50E4C701B6010E9489230E949425D1
:103970006093770520E030E040EA52E4C701B601E9
:103980000E9489230E949425609378058091760592
:1039900090917705A09178058093700590937105BB
:1039A000A093720562CF20E030E04FE753E46091CE
:1039B0006705709168058091690590916A050E947C
:1039C00089230E9494256093760560937705DCCF68
:1039D00020E030E04FE753E460916705709168059F
:1039E0008091690590916A050E9489230E9494251F
:1039F0001092760510927705C7CF20E030E04FE7B0
:103A000053E4609167057091680580916905909114
:103A10006A050E9489230E9494256093760560932D
:103A2000770510927805B2CF20E030E04FE753E4FD
:103A300060916705709168058091690590916A05AC
:103A40000E9489230E94942510927605E8CF20E0F9
:103A500030E04FE753E4609167057091680580910D
:103A6000690590916A050E9489230E94942510920D
:103A70007605ABCF10927605CDCE8091640581118D
:103A800007C0E6E0F0E0F0938005E0937F05FECE0E
:103A900080916505882309F4F9CE25E030E0309364
:103AA000800520937F05F2CE80919604882319F03B
:103AB00080E00E948B0361E070E05BC070E060E03A
:103AC00080914C0690914D060E94540D42E050E0CA
:103AD0005093E9054093E8055DC30E94CC03109222
:103AE000F2051092F3051092F4051092F50510926C
:103AF000FA051092EE051092EF051092F005109263
:103B0000F10510923C0610923D0610923E0610926E
:103B10003F0610922C0610922D0610922E0610923F
:103B20002F062091A6053091A7054091A805509138
:103B3000A9056091FB057091FC058091FD059091B0
:103B4000FE050E94C325181694F48091F605909105
:103B5000F705A091F805B091F905892B8A2B8B2BDD
:103B600069F08BE090E09093E9058093E80564E0CC
:103B700070E080914C0690914D06CEC00E947F036C
:103B8000609334067093350680933606909337061B
:103B90009092E9058092E805EACF0E947F03C090E9
:103BA0003806D0903906E0903A06F0903B066C1942
:103BB0007D098E099F09C0909205D0909305E090F1
:103BC0009405F0909505C616D706E806F90678F430
:103BD0000E947F0360933406709335068093360607
:103BE000909337069092E9058092E805D3C2209120
:103BF000C6053091C7054091C8055091C90560912F
:103C000014067091150680911606909117060E9471
:103C1000C3251816DCF40E947F03C0903806D090AC
:103C20003906E0903A06F0903B066C197D098E0942
:103C30009F09C0909605D0909705E0909805F09068
:103C40009905C616D706E806F90610F281E090E05D
:103C50000E94B9048CCF0E94CC032091A60530911C
:103C6000A7054091A8055091A9056091FB057091A9
:103C7000FC058091FD059091FE050E94232387FF9E
:103C800006C082E090E09093E9058093E80566E045
:103C900070E06FCF0E94CC032091A6053091A7055C
:103CA0004091A8055091A9056091FB057091FC0514
:103CB0008091FD059091FE050E94232387FFE7CFA9
:103CC000A2E0B0E0B093E905A093E805E0CF0E9440
:103CD0000A1081117DCF83E090E00E94B904209109
:103CE000C6053091C7054091C8055091C90560913E
:103CF00014067091150680911606909117060E9481
:103D0000232320914C0630914D0664E070E087FD3E
:103D100002C062E070E0C9010E94540D3BC20E94E3
:103D20000A10811155CF60919E0570919F05809179
:103D3000A0059091A1059B01AC010E94AF249B01BD
:103D4000AC0160912C0670912D0680912E06909109
:103D50002F060E94C325181634F4E5E0F0E0F09336
:103D6000E905E093E80582E090E0B7CF0E940A10F1
:103D700081112ECF84E090E00E94B90463E070E0EE
:103D8000F8CE0E94CC032091BE053091BF05409132
:103D9000C0055091C1056091FB057091FC058091B3
:103DA000FD059091FE050E94232387FF0EC00E940F
:103DB0007F036093340670933506809336069093A4
:103DC00037069092E9058092E80565E070E0D1CE73
:103DD0000E94CC0380910306882309F4DBC10E9472
:103DE0007F03C0903406D0903506E0903606F09000
:103DF00037066C197D098E099F09C0908E05D090F9
:103E00008F05E0909005F0909105C616D706E8065C
:103E1000F90608F0BFC10E947F03609338067093D3
:103E2000390680933A0690933B06C090FB05D090EC
:103E3000FC05E090FD05F090FE052091C205309153
:103E4000C3054091C4055091C505C701B6010E9444
:103E5000C32518164CF489E090E09093E90580930F
:103E6000E8051092FA0596C12091180630911906BE
:103E700040911A0650911B06EE962CAF3DAF4EAF07
:103E80005FAFEE974090C6055090C7056090C8059B
:103E90007090C905A3019201EE966CAD7DAD8EAD1B
:103EA0009FADEE970E94232387FF39C02091EE0536
:103EB0003091EF054091F0055091F105C301B20139
:103EC0000E94232387FF2BC02091CA053091CB0588
:103ED0004091CC055091CD05C701B6010E94AF2499
:103EE0009B01AC0160910C0670910D0680910E064D
:103EF00090910F060E94C32518168CF42091A605F8
:103F00003091A7054091A8055091A905C701B601B8
:103F10000E94C32587FD03C083E090E09ECF2091DF
:103F2000BA053091BB054091BC055091BD05C70154
:103F3000B6010E94C32587FD7AC28091FA058111DE
:103F400015C08091280690912906A0912A06B0916B
:103F50002B068093EA059093EB05A093EC05B093B4
:103F6000ED053092E9052092E80514C12091BE05C7
:103F70003091BF054091C0055091C105C701B60100
:103F80000E94AE249F772AE037ED43EA5BE30E946C
:103F9000232387FF64C06091FF0570910006809124
:103FA0000106909102069F772AE037ED43EA5BE332
:103FB0000E94232387FF53C0A3019201EE966CADAC
:103FC0007DAD8EAD9FADEE970E94C32518160CF007
:103FD00046C02FE832EC45EF5CE360911C0670911F
:103FE0001D0680911E0690911F060E9489236B0179
:103FF0007C012CEE31E548E75FE360912806709183
:10400000290680912A0690912B060E9489239B0104
:10401000AC01C701B6010E94AF246B017C0120E016
:1040200030E0A9010E94232387FDF4C12AE939E980
:1040300049E95EE3C701B6010E94C32518163CF4A6
:104040008AE9C82E89E9D82EED2C8EE3F82EC0928D
:104050002806D0922906E0922A06F0922B060E94AA
:104060007F03C0904406D0904506E0904606F0904D
:1040700047066C197D098E099F090E9428236B0150
:104080007C010E947F0360934406709345068093F1
:104090004606909347062091FB053091FC05409120
:1040A000FD055091FE056091BE057091BF058091A0
:1040B000C0059091C1050E94AE242091E405309185
:1040C000E5054091E6055091E7050E948923A70187
:1040D00096010E9489232091F2053091F3054091C9
:1040E000F4055091F5050E94AF246B017C0120E09E
:1040F00030E0A9010E94232387FD90C10091CF05E4
:10410000602F70E090E080E00E942A239B01AC01C8
:10411000C701B6010E94C325181644F4602F70E051
:1041200090E080E00E9428236B017C01C092F205A0
:10413000D092F305E092F405F092F50520E030E02E
:10414000A901C701B6010E94C32520E030E040E08C
:104150005FE387FD67C1C701B6010E94AF240E94DB
:104160008D25862F0E948B03809128069091290629
:10417000A0912A06B0912B068093EA059093EB0557
:10418000A093EC05B093ED0588E090E09093E905ED
:104190008093E8050E947F03C0908504D090860438
:1041A000E0908704F09088046C197D098E099F09BE
:1041B000643F71408105910508F41CC10E947F0392
:1041C0006093850470938604809387049093880499
:1041D000C0908104D0908204E0908304F090840425
:1041E0006C197D098E099F090E94F30D80E42296C7
:1041F0008FAF22978FE090E024969FAF8EAF2497E9
:1042000080E525968FAF25978AE0EA968FAFEA97EB
:1042100080917F049091800427969FAF8EAF27975F
:1042200080917D0490917E0429969FAF8EAF29974F
:1042300087E00E942B0260968FAF609780917C048C
:1042400061968FAF61970E947F032F966CAF7DAF11
:104250008EAF9FAF2F9780917A0490917B04E9965F
:104260009FAF8EAFE9978091E80562968FAF629716
:104270008091FB059091FC05A091FD05B091FE0594
:1042800066968CAF9DAFAEAFBFAF669780910806C4
:1042900090910906A0910A06B0910B066A968CAF20
:1042A0009DAFAEAFBFAF6A978091040690910506AF
:1042B000A0910606B09107066E968CAF9DAFAEAF8B
:1042C000BFAF6E978091140690911506A0911606C7
:1042D000B0911706A2968CAF9DAFAEAFBFAFA297BD
:1042E0008091EA059091EB05A091EC05B091ED0568
:1042F000A6968CAF9DAFAEAFBFAFA69780912C06B0
:1043000090912D06A0912E06B0912F06AA968CAF03
:104310009DAFAEAFBFAFAA978091200690912106C6
:10432000A0912206B0912306AE968CAF9DAFAEAFA2
:10433000BFAFAE978091280690912906A0912A06DA
:10434000B0912B06E2968CAF9DAFAEAFBFAFE297B8
:1043500080919604E3968FAFE39780913C0690910D
:104360003D06A0913E06B0913F06E7968CAF9DAF0B
:10437000AEAFBFAFE79749E350E0BE016F5B7F4F41
:104380008DEA94E00E94F50080917904882391F1F0
:10439000C0905B05D0905C05E0905D05F0905E05F7
:1043A0000E947F03E0E8CE0EEEEEDE1EE6E3EE1E98
:1043B000F11CA7019601261B370B480B590BCA01AC
:1043C000B90128EE33E040E050E00E94F1253F9330
:1043D0002F9386EF93E09F938F93BF92AF920E94AB
:1043E0005F26C5010E946C0D0F900F900F900F90EB
:1043F0000F900F9080E090E0892B11F40C946A19D3
:104400000E945F01882311F40C9464190E9400003B
:104410000C946419C12CD12C760119CEC12CD12C4D
:10442000760184CEC701B6010E94AE2498CE2091B9
:10443000B6053091B7054091B8055091B905C7014F
:10444000B6010E94C32587FD1BC02091280630912C
:10445000290640912A0650912B066091D80570914B
:10446000D9058091DA059091DB050E94AF24609315
:10447000EA057093EB058093EC059093ED0571CD03
:104480002091AE053091AF054091B0055091B10536
:10449000C701B6010E94C32587FD3CC02091B2052B
:1044A0003091B3054091B4055091B505C701B601EF
:1044B0000E94232387FF1DC02091D4053091D5058C
:1044C0004091D6055091D705609128067091290634
:1044D00080912A0690912B060E94AF246093EA05F2
:1044E0007093EB058093EC059093ED051092FA051F
:1044F00038CD209128063091290640912A06509106
:104500002B066091D0057091D1058091D2059091D4
:10451000D305E2CF2091AA053091AB054091AC05BF
:104520005091AD05C701B6010E94C32587FF1BC08E
:104530002091A6053091A7054091A8055091A905A5
:104540006091FB057091FC058091FD059091FE0541
:104550000E94C3251816ACF1A2E0B0E0B093E905C3
:10456000A093E8057ECC0E947F03C0908A05D0907E
:104570008B05E0908C05F0908D056C157D058E0502
:104580009F05B0F6209128063091290640912A0611
:1045900050912B066091D4057091D5058091D60578
:1045A0009091D7050E94AF246093EA057093EB05C4
:1045B0008093EC059093ED051092FA0546E050E0EB
:1045C00087CA84E090E049CC0E94CC0361E070E0AF
:1045D00080914C0690914D060E94540D8091F605F5
:1045E0009091F705A091F805B091F905892B8A2BD8
:1045F0008B2B09F4F7CA0E947F03C090F605D09078
:10460000F705E090F805F090F9056C197D098E0921
:104610009F09C090A205D090A305E090A405F0905A
:10462000A505C616D706E806F90608F0B3CD109220
:10463000F6051092F7051092F8051092F905AACD2B
:104640000E94CC0338CA0E94652308F481E00895D3
:10465000E89409C097FB3EF490958095709561951C
:104660007F4F8F4F9F4F9923A9F0F92F96E9BB27D2
:104670009395F695879577956795B795F111F8CF4E
:10468000FAF4BB0F11F460FF1BC06F5F7F4F8F4FB9
:104690009F4F16C0882311F096E911C0772321F0AF
:1046A0009EE8872F762F05C0662371F096E8862F47
:1046B00070E060E02AF09A95660F771F881FDAF79E
:1046C000880F9695879597F90895990F0008550FCB
:1046D000AA0BE0E8FEEF16161706E807F907C0F088
:1046E00012161306E407F50798F0621B730B840B90
:1046F000950B39F40A2661F0232B242B252B21F46A
:1047000008950A2609F4A140A6958FEF811D811D09
:1047100008950E949C230C940D240E94FF2338F0DE
:104720000E94062420F0952311F00C94F6230C949B
:10473000FC2311240C9441240E941E2470F3959FA5
:10474000C1F3950F50E0551F629FF001729FBB2788
:10475000F00DB11D639FAA27F00DB11DAA1F649F24
:104760006627B00DA11D661F829F2227B00DA11DD7
:10477000621F739FB00DA11D621F839FA00D611D5D
:10478000221F749F3327A00D611D231F849F600D7E
:10479000211D822F762F6A2F11249F5750409AF0A7
:1047A000F1F088234AF0EE0FFF1FBB1F661F771F33
:1047B000881F91505040A9F79E3F510580F00C94FE
:1047C000F6230C9441245F3FE4F3983ED4F386959E
:1047D00077956795B795F795E7959F5FC1F7FE2B9E
:1047E000880F911D9695879597F9089597F99F677A
:1047F00080E870E060E008959FEF80EC0895002469
:104800000A941616170618060906089500240A9435
:1048100012161306140605060895092E0394000CBB
:1048200011F4882352F0BB0F40F4BF2B11F460FF4A
:1048300004C06F5F7F4F8F4F9F4F089557FD905873
:10484000440F551F59F05F3F71F04795880F97FB54
:10485000991F61F09F3F79F087950895121613060E
:104860001406551FF2CF4695F1DF08C0161617063D
:104870001806991FF1CF8695710561050894089572
:10488000E894BB2766277727CB0197F90895F99914
:10489000FECF92BD81BDF89A992780B50895262F45
:1048A000F999FECF1FBA92BD81BD20BD0FB6F89415
:1048B000FA9AF99A0FBE019608950E949F24A59F27
:1048C000900DB49F900DA49F800D911D112408950B
:1048D0002F923F924F925F926F927F928F929F9210
:1048E000AF92BF92CF92DF92EF92FF920F931F93FE
:1048F000CF93DF93CDB7DEB7CA1BDB0B0FB6F894AF
:10490000DEBF0FBECDBF09942A88398848885F84EE
:104910006E847D848C849B84AA84B984C884DF805F
:10492000EE80FD800C811B81AA81B981CE0FD11D43
:104930000FB6F894DEBF0FBECDBFED010895A29F64
:10494000B001B39FC001A39F700D811D1124911D63
:10495000B29F700D811D1124911D08955058BB27E1
:10496000AA270E94C6240C940D240E94FF2338F02D
:104970000E94062420F039F49F3F19F426F40C9489
:10498000FC230EF4E095E7FB0C94F623E92F0E943C
:104990001E2458F3BA17620773078407950720F09F
:1049A00079F4A6F50C9440240EF4E0950B2EBA2F62
:1049B000A02D0B01B90190010C01CA01A001112425
:1049C000FF27591B99F0593F50F4503E68F11A16D1
:1049D000F040A22F232F342F4427585FF3CF469562
:1049E00037952795A795F0405395C9F77EF41F1684
:1049F000BA0B620B730B840BBAF09150A1F0FF0F4E
:104A0000BB1F661F771F881FC2F70EC0BA0F621F39
:104A1000731F841F48F4879577956795B795F79529
:104A20009E3F08F0B0CF9395880F08F09927EE0FBE
:104A30009795879508950E942F250C940D240E9428
:104A4000062458F00E94FF2340F029F45F3F29F02C
:104A50000C94F62351110C9441240C94FC230E94D5
:104A60001E2468F39923B1F3552391F3951B550B3D
:104A7000BB27AA2762177307840738F09F5F5F4F31
:104A8000220F331F441FAA1FA9F335D00E2E3AF070
:104A9000E0E832D091505040E695001CCAF72BD088
:104AA000FE2F29D0660F771F881FBB1F26173707D9
:104AB0004807AB07B0E809F0BB0B802DBF01FF270B
:104AC00093585F4F3AF09E3F510578F00C94F623CF
:104AD0000C9441245F3FE4F3983ED4F38695779598
:104AE0006795B795F7959F5FC9F7880F911D9695C4
:104AF000879597F90895E1E0660F771F881FBB1F20
:104B0000621773078407BA0720F0621B730B840BCC
:104B1000BA0BEE1F88F7E09508950E9494256894DB
:104B2000B1110C94412408950E94262488F09F57C7
:104B300098F0B92F9927B751B0F0E1F0660F771FC1
:104B4000881F991F1AF0BA95C9F714C0B13091F0B7
:104B50000E944024B1E008950C944024672F782FE0
:104B60008827B85F39F0B93FCCF38695779567957C
:104B7000B395D9F73EF490958095709561957F4FE8
:104B80008F4F9F4F08950E94652308F48FEF08957B
:104B90000E946523880B990B0895DB018F939F93E7
:104BA0000E945D24BF91AF91A29F800D911DA39F94
:104BB000900DB29F900D1124089597FB072E16F4C7
:104BC000009407D077FD09D00E943F2607FC05D04E
:104BD0003EF4909581959F4F0895709561957F4F14
:104BE0000895A1E21A2EAA1BBB1BFD010DC0AA1F2E
:104BF000BB1FEE1FFF1FA217B307E407F50720F046
:104C0000A21BB30BE40BF50B661F771F881F991FC0
:104C10001A9469F760957095809590959B01AC0109
:104C2000BD01CF010895052E97FB1EF400940E944C
:104C30002A2657FD07D00E94F12507FC03D04EF429
:104C40000C942A2650954095309521953F4F4F4F13
:104C50005F4F089590958095709561957F4F8F4F28
:104C60009F4F0895EE0FFF1F0590F491E02D0994DA
:104C70000E949F24B7FF0895821B930B0895AA1BDF
:104C8000BB1B51E107C0AA1FBB1FA617B70710F037
:104C9000A61BB70B881F991F5A95A9F78095909569
:104CA000BC01CD01089581E090E0F8940C940029B6
:104CB000FB01DC0101900D920020E1F70895AEE0C8
:104CC000B0E0E5E6F6E20C9476240D891E8986E0D4
:104CD0008C831A8309838FEF9FE79E838D83AE01B8
:104CE000475E5F4F6F89788DCE0101960E948226C4
:104CF0002F813885020F131FF80110822E96E4E0F1
:104D00000C949224ABE0B0E0E8E8F6E20C9468245E
:104D10007C013B018A01FC0117821682838181FF9D
:104D2000C8C1CE0101965C01F7019381F30193FDA7
:104D3000859193FF81913F01882309F453C1853206
:104D400039F493FD859193FF81913F01853229F4D8
:104D5000B70190E00E947228E7CF912C212C312CD2
:104D6000FFE1F31538F08B3211F190F4803209F144
:104D7000833229F137FC3CC020ED280F2A3050F552
:104D800036FE20C08AE0989E200D1124922E06C087
:104D90008D3291F0803371F7689430F8F30193FD10
:104DA000859193FF81913F018111DACF21C06894F1
:104DB00031F8689432F8F2CF689433F8EFCF689402
:104DC00034F8ECCFEAE02E9E200D1124222E6894B8
:104DD00035F8E4CF8E3229F436FC04C1689436F8F5
:104DE000DDCF8C3619F4689437F8D8CF8836B1F215
:104DF000982F9F7D95549330E0F08336A1F183374F
:104E0000C1F1833509F063C02801F2E04F0E511C57
:104E1000F801C080D180692D70E036FC02C06FEFD0
:104E20007FEFC6010E945C284C01689437F882012C
:104E30000AC00C5F1F4FFFE3F98388248394912CF1
:104E40006501E89437F833FE2DC0522C811491048B
:104E500071F5552009F468CFB70180E290E00E9417
:104E600072285A94F6CFF801808189830E5F1F4F14
:104E7000E4CF2801F2E04F0E511CF801C080D18030
:104E8000692D70E036FC02C06FEF7FEFC6010E9413
:104E900067284C018201D5CFB70180E290E00E94E3
:104EA00072282A942814190409F0B0F7CECFF6011D
:104EB00037FC859137FE81916F01B70190E00E9428
:104EC000722851105A94F1E08F1A9108BFCF84369E
:104ED00019F0893609F077C0F80137FE6BC06081A0
:104EE0007181828193810C5F1F4FF32DFF763F2EDE
:104EF00097FF09C090958095709561957F4F8F4F72
:104F00009F4F689437F82AE030E0A5010E94A2285C
:104F1000C82ECA188C2C432C36FE0CC0E89440F8DE
:104F2000C91440F434FE05C032FC03C0F32DFE7EEC
:104F30004F2E892C44FE95C0FE01EC0DF11D8081A1
:104F4000803309F087C0242D297E422E842D88705D
:104F5000582E43FC95C040FE8FC09C2C821418F440
:104F60002C0C922C981844FE91C0B70180E390E07D
:104F70000E94722842FE09C088E790E041FE02C00C
:104F800088E590E0B7010E947228C91408F48AC02D
:104F9000CA94D12C9FEFC91AD90ACA0CDB1CF6019E
:104FA00082916F01B70190E00E947228AC14BD0499
:104FB000B1F74FCF60817181072E000C880B990BE0
:104FC0000E5F1F4F92CFD32CE894D4F82AE030E044
:104FD000853739F1232D297FD22E8F3601F148F400
:104FE0008835A9F0F701868197812B96E2E10C9430
:104FF0008424803749F08837A9F7D4FE02C068942A
:10500000D2F820E130E00DC06894D4F8F6CF34FE39
:1050100003C0822F8660D82E20E132E002C028E053
:1050200030E0F801D7FE0FC06081718182819381E9
:105030000C5F1F4FA5010E94A228C82ECA183D2C44
:10504000E89437F867CF6081718190E080E00E5F6F
:105050001F4FF0CF42FC02C0839478CF8394839497
:1050600075CF842D867809F471CFF6CFB70180E231
:1050700090E00E94722883948214C0F3512C73CF65
:10508000522C5818821408F46ECFF8CF842D8678ED
:1050900009F47BCF8BE241FE80E247FC8DE2B70151
:1050A00090E071CFB70180E390E00E9472289A945B
:1050B0006CCF8FEF9FEF99CFFC010590615070404E
:1050C0000110D8F7809590958E0F9F1F0895FC01D1
:1050D0006150704001900110D8F7809590958E0F27
:1050E0009F1F08950F931F93CF93DF93182F092FBE
:1050F000EB018B8181FD09C01FEF0FEF812F902FF6
:10510000DF91CF911F910F91089582FF14C02E81DE
:105110003F818C819D81281739073CF4E881F98112
:10512000CF0101969983888310838E819F81019698
:105130009F838E83E3CFE885F985812F0995892B9D
:10514000A1F3DACFFA01AA27283051F1203181F1F9
:10515000E8946F936E7F6E5F7F4F8F4F9F4FAF4F7F
:10516000B1E03ED0B4E03CD0670F781F891F9A1F92
:10517000A11D680F791F8A1F911DA11D6A0F711D46
:10518000811D911DA11D20D009F468943F912AE052
:10519000269F11243019305D3193DEF6CF0108953A
:1051A000462F4770405D4193B3E00FD0C9F7F6CF6B
:1051B000462F4F70405D4A3318F0495D31FD405233
:1051C000419302D0A9F7EACFB4E0A69597958795C9
:1051D00077956795BA95C9F70097610571050895A8
:1051E0009B01AC010A2E0694579547953795279554
:1051F000BA95C9F7620F731F841F951FA01D0895EC
:04520000F894FFCF50
:10520400F609F60901E803E803F401F401C800C84B
:10521400006400E803E8036400960096009600E842
:105224000396009600960096009600E8030000009E
:1052340000F410F410F410170D130D100D000000FD
:1052440000CD0C890C870C170D130DF200340A00E5
:105254000000009501F5002201E2015301310145EE
:10526400016E616E00696E66006F7666006565703A
:10527400726F6D5F7772697465732000766F6C74FA
:105284006167655F63616C6962726174696F6E5FA7
:10529400646F6E652000766F6C746167655F63612F
:1052A4006C6962726174696F6E5F76616C7565209A
:1052B400007761746368646F675F656E61626C65D3
:1052C4006420006368617267696E675F656E61621E
:1052D4006C656420007761746368646F675F636FF3
:1052E400756E7420007761746368646F675F7469B6
:1052F4006D65200048202800290077617463686484
:105304006F675F626F6F745F636F756E74200062A6
:10531400617365626F6172645F626F6F745F636F04
:10532400756E74200073746F705F6368617267696F
:105334006E675F696E74657272757074210D0A0010
:105344005741524E494E473A2048415244574152E0
:105354004520524556204D49534D41544348202D34
:105364002D3E2044495341424C4544204348415238
:1053740047494E470D0A00456E61626C65206368BB
:10538400617267696E670D0A0044697361626C65D6
:10539400206368617267696E670D0A00766F6C74CA
:1053A4006167655F63616C6962726174696F6E5F86
:1053B40076616C75653A20004572726F723A2063AB
:1053C400616C696272617465207061636B616765A9
:1053D400207265636569766564207768696C652009
:1053E4006E6F7420696E2063616C696272617469A6
:1053F4006E67206D6F64652100456E61626C652087
:105404004952204C45440D0A0044697361626C653D
:10541400204952204C45440D0A0057617463686466
:105424006F6720656E61626C65640D0A0057617474
:105434006368646F672064697361626C65640D0AF4
:10544400005761726E696E672066616E20706163D9
:105454006B616765206E6F742079657420696D7067
:105464006C656D656E7465640D0A005265626F6FDC
:1054740074204E55430D0A00636C65617220636F9E
:105484006E66696720616C6C0D0A00636C656172FD
:1054940020636F6E666967206C6F670D0A00636C2A
:1054A40065617220636F6E66696720686172640D5E
:1054B4000A00486172647761726520766572736967
:1054C4006F6E200042617365626F61726420737451
:1054D4006172746564210D0A005475726E206F66E2
:1054E40066204E55430D0A005475726E206F6E206F
:1054F4004E55430D0A005761746368646F672077E3
:10550400696C6C207472696767657220696E202506
:0E55140064207365636F6E6473210D0A0000DE
:00000001FF
