:020000040000FA
:100000000C94FD000C9425010C9425010C94250101
:100010000C9425010C9425010C9425010C942501C8
:100020000C9425010C9425010C9425010C942501B8
:100030000C9425010C9425010C9425010C942501A8
:100040000C94660A0C9425010C94340A0C940E0A44
:100050000C9425010C9425010C9425010C94250188
:100060000C9425010C9425014E414E494E4954599A
:10007000494E46CDCCCC3D0AD7233C17B7D1387773
:10008000CC2B329595E6241FB14F0A000020410089
:1000900000C84200401C4620BCBE4CCA1B0E5AAED3
:1000A000C59D7400407A10F35A00A0724E180900E2
:1000B00010A5D4E80000E87648170000E40B5402CD
:1000C0000000CA9A3B000000E1F505000080969808
:1000D00000000040420F000000A086010000001058
:1000E0002700000000E8030000000064000000009A
:1000F000000A00000000000100000000002C76D87B
:1001000088DC674F0823DFC1DFAE59E1B1B796E560
:10011000E3E453C63AE651997696E8E6C28426EBC4
:10012000898C9B62ED407C6FFCEFBC9C9F40F2BAD7
:10013000A56FA5F490055A2AF75C936B6CF9676D6F
:10014000C11BFCE0E40D47FEF520E6B500D0ED90C4
:100150002E0300943577050080841E080000204E91
:100160000A000000C80C333333330F986E1283112A
:1001700041EF8D2114893BE65516CFFEE6DB18D101
:10018000844B381BF77C1D901DA4BBE424203284D3
:10019000725E228100C9F124ECA1E53D2700000038
:1001A00000240027002A0000000000250028002B62
:1001B00000000000002300260029000404040404B9
:1001C0000404040202020202020303030303030104
:1001D00002040810204080010204081020010204DB
:1001E00008102000000008000201000003040700BE
:1001F0000000000000000000B00A11241FBECFEF75
:10020000D8E0DEBFCDBF25E0A8E7B4E001C01D9275
:10021000A537B207E1F714E0A0E0B1E0EAE2FDE3C0
:1002200002C005900D92A837B107D9F710E0CDEFC5
:10023000D0E004C02197FE010E94E51BCC3FD1070E
:10024000C9F70E94E70A0C94931E0C940000AF9229
:10025000BF92CF92DF92EF92FF920F931F93CF93B3
:10026000DF936C017B018B01040F151FEB015E0115
:10027000AE18BF08C017D10759F06991D601ED91AA
:10028000FC910190F081E02DC6010995892B79F749
:10029000C501DF91CF911F910F91FF90EF90DF90FB
:1002A000CF90BF90AF900895FC01538D448D252FC2
:1002B00030E0842F90E0821B930B541710F0CF9600
:1002C000089501970895FC01918D828D981761F032
:1002D000A28DAE0FBF2FB11D5D968C91928D9F5F49
:1002E0009F73928F90E008958FEF9FEF0895FC0128
:1002F000918D828D981731F0828DE80FF11D858DDB
:1003000090E008958FEF9FEF0895FC01918D228D6D
:10031000892F90E0805C9F4F821B91098F739927F2
:10032000089582ED94E00E94850121E0892B09F473
:1003300020E0822F089580E090E0892B29F00E9430
:10034000910181110C9400000895FC01A48DA80F67
:10035000B92FB11DA35ABF4F2C91848D90E0019607
:100360008F739927848FA689B7892C93A089B18927
:100370008C91837080648C93938D848D981306C0C8
:100380000288F389E02D80818F7D80830895EF922C
:10039000FF920F931F93CF93DF93EC0181E0888F3F
:1003A0009B8D8C8D98131AC0E889F989808185FF0F
:1003B00015C09FB7F894EE89FF896083E889F989B1
:1003C00080818370806480839FBF81E090E0DF91B3
:1003D000CF911F910F91FF90EF900895F62E0B8D06
:1003E00010E00F5F1F4F0F731127E02E8C8D8E11C1
:1003F0000CC00FB607FCFACFE889F989808185FF28
:10040000F5CFCE010E94A501F1CFEB8DEC0FFD2FB2
:10041000F11DE35AFF4FF0829FB7F8940B8FEA89E2
:10042000FB8980818062CFCFCF93DF93EC01888DF1
:100430008823B9F0AA89BB89E889F9898C9185FD5F
:1004400003C0808186FD0DC00FB607FCF7CF8C91ED
:1004500085FFF2CF808185FFEDCFCE010E94A501FF
:10046000E9CFDF91CF910895833081F028F4813076
:1004700099F08230A9F008958730A9F08830C9F04A
:100480008430B1F4809180008F7D03C08091800022
:100490008F7780938000089584B58F7784BD089509
:1004A00084B58F7DFBCF8091B0008F778093B000B3
:1004B00008958091B0008F7DF9CFCF93DF93282FDF
:1004C00030E0F901ED51FE4F8491F901E153FE4F07
:1004D000D491F901E554FE4FC491CC23A1F08111D0
:1004E0000E943402EC2FF0E0EE0FFF1FEF54FE4F9E
:1004F000A591B491EC91ED2381E090E009F480E0C6
:10050000DF91CF91089580E090E0FACF1F93CF93D1
:10051000DF93282F30E0F901ED51FE4F8491F9016E
:10052000E153FE4FD491F901E554FE4FC491CC2321
:10053000A9F0162F81110E943402EC2FF0E0EE0F8B
:10054000FF1FE955FE4FA591B4918FB7F894EC9138
:10055000111108C0D095DE23DC938FBFDF91CF91BE
:100560001F910895DE2BF8CFCF93DF9390E0FC012D
:10057000E153FE4F249185549E4FFC0184918823C2
:10058000D1F090E0880F991FFC01E356FE4FA59132
:10059000B491FC01E955FE4FC591D49161110EC093
:1005A0009FB7F8948C91E22FE0958E238C9328814D
:1005B000E223E8839FBFDF91CF9108958FB7F8942E
:1005C000EC91E22BEC938FBFF6CFCF93DF93EC014E
:1005D00061E089E00E94B402209731F460E089E094
:1005E000DF91CF910C948602CF3FD10511F461E0E9
:1005F000F6CFECEEF1E0E491E33029F140F4E130A4
:10060000B1F0E230D9F0C038D1058CF7E7CFE73050
:1006100021F1E83051F1E430B1F78091800080623F
:1006200080938000D0938B00C0938A0004C084B56F
:10063000806884BDC7BDDF91CF91089584B5806285
:1006400084BDC8BDF8CF8091800080688093800011
:10065000D0938900C0938800EECF8091B00080686D
:100660008093B000C093B300E6CF8091B000806269
:100670008093B000C093B400DECF1092700190E080
:1006800080E00C94E5022091000190E4299F900104
:1006900011248E50822B80937C0080917A0080649C
:1006A00080937A0080917A0086FDFCCF809178005B
:1006B0009091790008953FB7F894809181049091CA
:1006C0008204A0918304B091840426B5A89B05C040
:1006D0002F3F19F00196A11DB11D3FBFBA2FA92FC1
:1006E000982F8827BC01CD01620F711D811D911DBE
:1006F00042E0660F771F881F991F4A95D1F708952A
:100700008F929F92AF92BF92CF92DF92EF92FF9221
:100710004B015C010E945B036B017C010E945B0347
:100720006C197D098E099F09683E7340810591050A
:10073000A8F321E0821A9108A108B10888EEC80E3A
:1007400083E0D81EE11CF11C81149104A104B104C2
:1007500029F7FF90EF90DF90CF90BF90AF909F90E0
:100760008F90089580E10E94430363E070E080E091
:1007700090E00E94800380E10E944303BC01990F36
:10078000880B990B0E94FE1820E030E040E05FE308
:100790000E94861A20E030E040EA50E40E945D1991
:1007A00020E030E040E85AE30E945D1908952FB739
:1007B000F89460917D0470917E0480917F04909103
:1007C00080042FBF08954F925F926F927F928F9215
:1007D0009F92AF92BF92CF92DF92EF92FF920F93D0
:1007E0001F93CF93DF9300D000D0CDB7DEB74B017E
:1007F0005C018EE00E944303BC01990F880B990BAA
:100800000E94FE1820E030E040E85AE30E945D19A3
:1008100020E030E040EA50E40E945D19209115018B
:100820003091160140911701509118010E94F21A5F
:100830006B017C01A2E7B1E08D919D910D90BC917F
:10084000A02D89839A83AB83BC830E94B20320913D
:1008500096013091970140919801509199010E9421
:10086000861AA50194010E945D192B013C01A50186
:10087000940160E070E080E89FE30E94851A29817E
:100880003A814B815C810E945D199B01AC01C301DF
:10089000B2010E94861A4B015C01E2E7F1E020817F
:1008A0003181428153810E94851A60937601709351
:1008B00077018093780190937901A2E7B1E08D925E
:1008C0009D92AD92BC92139723E333E343E75FE33A
:1008D000E2E8F1E060817181828193810E945D197B
:1008E0004B015C012DEC3CEC4CE45DE3C701B6012F
:1008F0000E945D199B01AC01C501B4010E94861ADA
:10090000A2E8B1E06D937D938D939C93139706E8D5
:1009100011E022E538EB4EE75FE3F8016081718179
:10092000828193810E945D194B015C012AE037EDC1
:1009300043EA5BE3C701B6010E945D199B01AC016C
:10094000C501B4010E94861AD8016D937D938D93E1
:100950009C9313970E94D70306EA11E0F801C08028
:10096000D180E280F3806C197D098E099F090E9475
:10097000FC186B017C010E94D703D8016D937D9315
:100980008D939C93139702E911E020918E01309191
:100990008F014091900150919101E2E8F1E0608176
:1009A0007181828193810E94851AA70196010E941C
:1009B0005D1920E030E041E655E40E94F21AD801CA
:1009C0002D913D914D915C910E94861AF8016083B2
:1009D000718382839383A2EAB1E06D917D918D91C1
:1009E0009C910E94FC18A70196010E94861A0E9401
:1009F0006B1BE2EAF1E060837183828393830F9043
:100A00000F900F900F90DF91CF911F910F91FF905A
:100A1000EF90DF90CF90BF90AF909F908F907F909E
:100A20006F905F904F9008954F925F926F927F9278
:100A30008F929F92AF92BF92CF92DF92EF92FF92EE
:100A40007C016DEC7CEC8CEC9DE30E94E3038090D8
:100A5000820190908301A0908401B09085012DECDB
:100A60003CEC4CEC5DE3C501B4010E949A1B1816E6
:100A7000D4F520917A0130917B0140917C01509115
:100A80007D01609172017091730180917401909168
:100A900075010E94851AA50194010E94F21A2AE0AC
:100AA00037ED43EA5BE30E945D194B015C0122E5EF
:100AB00038EB4EE75FE360918A0170918B01809182
:100AC0008C0190918D010E945D199B01AC01C501C3
:100AD000B4010E94861A60938A0170938B018093FF
:100AE0008C0190938D0181E0E816F10499F48091D6
:100AF00049018093700190E0FF90EF90DF90CF90DC
:100B0000BF90AF909F908F907F906F905F904F902D
:100B10000C94E50284E0E816F10409F4EFC020E04B
:100B200030E0A901609164017091650180916601D6
:100B3000909167010E949A1B18160CF009C10E943F
:100B4000D7030E94D7036093AA017093AB018093EF
:100B5000AC019093AD01C0906401D0906501E0902C
:100B60006601F090670120918201309183014091EC
:100B7000840150918501C701B6010E94851A209118
:100B800056013091570140915801509159010E94EE
:100B90005D194B015C012091680130916901409120
:100BA0006A0150916B01C701B6010E94851A6B0161
:100BB0007C0120E030E0A9010E949A1B18160CF07D
:100BC000AAC0809170018111A6C02AE939E949E1E2
:100BD0005EE3C701B6010E94851A20915A01309147
:100BE0005B0140915C0150915D010E945D196B01B8
:100BF0007C016091490170E090E080E00E94FE1865
:100C00009B01AC01C701B6010E94861A40906C019D
:100C100050906D0160906E0170906F019B01AC016E
:100C2000C501B4010E94861A6B017C0120E030E00E
:100C300040E752EC0E94F71887FD7AC020E030E0D0
:100C400040E752E4C701B6010E949A1B181634F41B
:100C5000C12CD12C20E7E22E22E4F22EA70196012E
:100C6000C301B2010E94861A6B017C0120E030E0D2
:100C7000A9010E94F71887FD62C020E030E04FE72D
:100C800053E4C701B6010E949A1B181634F4C12C14
:100C9000D12C8FE7E82E83E4F82EC0926C01D0921D
:100CA0006D01E0926E01F0926F0120E030E0A90149
:100CB000C701B6010E949A1B20E030E040E05FE3EC
:100CC00087FD41C0C701B6010E94861A0E94641BBD
:100CD00060937001862F90E00E94E502809164018C
:100CE00090916501A0916601B091670180936801C0
:100CF00090936901A0936A01B0936B01FF90EF900C
:100D0000DF90CF90BF90AF909F908F907F906F902B
:100D10005F904F90089520915A0130915B0140916E
:100D20005C0150915D01C701B6010E945D196ECF53
:100D3000C12CD12C90E7E92E92ECF92E8FCFC12C4B
:100D4000D12C7601AACFC701B6010E94851ABECF69
:100D500090E080E0C1CFCF92DF92EF92FF920E94AD
:100D6000D703C0909E01D0909F01E090A001F09029
:100D7000A1016C197D098E099F09C0900D01D090C9
:100D80000E01E0900F01F0901001C616D706E8069C
:100D9000F90630F481E0FF90EF90DF90CF90089556
:100DA0000E94D703C0909E01D0909F01E090A001C7
:100DB000F090A1016C197D098E099F09C090110165
:100DC000D0901201E0901301F0901401C616D706DE
:100DD000E806F90608F045C0C0904101D0904201F4
:100DE000E0904301F0904401A701960160918201D7
:100DF0007091830180918401909185010E94F71880
:100E000087FF2FC0209164013091650140916601F8
:100E100050916701C701B6010E94F71887FF21C0F2
:100E20002091450130914601409147015091480180
:100E300060917A0170917B0180917C0190917D019C
:100E40000E94861A9B01AC0160917201709173013E
:100E500080917401909175010E949A1B18160CF4F0
:100E600099CF80E098CFFC0101900020E9F73197FD
:100E7000AF01481B590BBC0182ED94E00C94270193
:100E8000009711F00C94330790E080E008958F9262
:100E90009F92AF92BF920F931F93CF93DF93CDB7E3
:100EA000DEB7A1970FB6F894DEBF0FBECDBF19A273
:100EB000423008F44AE08E010F5D1F4F842E912CC2
:100EC000B12CA12CA50194010E94A41BE62FB9010D
:100ED000CA01EA30D4F4E05DD801EE938D01232BF2
:100EE000242B252B79F7CD010E944007A1960FB640
:100EF000F894DEBF0FBECDBFDF91CF911F910F9150
:100F0000BF90AF909F908F900895E95CE5CF0C94CF
:100F10004007CF93DF930E944007EC0184E794E001
:100F20000E9433078C0F9D1FDF91CF910895FB0125
:100F300001900020E9F79F0121503109261B370B52
:100F4000FC0101900020E9F73197E81BF90BE2174B
:100F5000F3078CF02115310571F0FB01DC015D9187
:100F60004191541308C0AD01481B590B4217530758
:100F7000B4F381E0089580E00895FF920F931F93EA
:100F8000CF93DF930CEB14E0D0E0C0E0F801F190D8
:100F90008F01CE010E941E1AF81621F06F2DCE018E
:100FA0000E94261A2196C631D10581F78CEB94E078
:100FB000DF91CF911F910F91FF900895ECEBF4E03A
:100FC00080819181A281B3810196A11DB11D808391
:100FD0009183A283B3830C94BD070F931F936093F7
:100FE000C9047093CA048093CB049093CC040E94EC
:100FF000D703009178041091790420917A043091FC
:101000007B04601B710B820B930B613C7742894020
:10101000910560F00E94DE070E94D7036093780478
:101020007093790480937A0490937B041F910F91BD
:101030000895CF93DF93BC0190E080E04AE00E94E6
:101040004707EC0184E794E00E9433078C0F9D1F53
:10105000DF91CF910895CF92DF92EF92FF92CF93DD
:10106000DF9397FF1BC06B017C016DE282ED94E082
:101070000E94C701EC0166277727CB016C197D0917
:101080008E099F094AE00E9447078C0F9D1FDF9140
:10109000CF91FF90EF90DF90CF9008954AE0DF91DD
:1010A000CF91FF90EF90DF90CF900C944707CF93B4
:1010B000DF93BC01990F880B990B0E942B08EC0160
:1010C00084E794E00E9433078C0F9D1FDF91CF913E
:1010D00008954F925F926F927F928F929F92AF92FC
:1010E000BF92CF92DF92EF92FF920F931F93CF9315
:1010F0006B017C01742EAC019B010E949F1B882315
:1011000099F080EC91E0CF911F910F91FF90EF90BB
:10111000DF90CF90BF90AF909F908F907F906F9017
:101120005F904F900C94330746015701E894B7F84D
:101130002FEF3FEF4FE75FE7C501B4010E949F1B10
:1011400081110DC02FEF3FEF4FE75FE7C501B401FD
:101150000E94F71818161CF484EC91E0D4CF2FEFFE
:101160003FEF4FE75FE4C701B6010E949A1B1816D4
:101170001CF488EC91E0C7CF2FEF3FEF4FE75FEC17
:10118000C701B6010E94F71887FDF3CF20E030E0D9
:10119000A901C701B6010E94F71810E000E087FF1F
:1011A0000AC06DE282ED94E00E94C7018C01F7FA5B
:1011B000F094F7F8F094C0E060E070E080E09FE326
:1011C0007C1641F020E030E040E251E40E94F21A47
:1011D000CF5FF6CFA70196010E94861A2B013C0132
:1011E0000E946B1B4B015C014AE00E9447077C0197
:1011F000E00EF11ECC23C1F1C501B4010E94FC1820
:101200009B01AC01C301B2010E94851A4B015C0134
:101210006EE282ED94E00E94C701E80EF91EC15013
:1012200018F120E030E040E251E4C501B4010E9431
:101230005D192B013C010E946B1B4B01B12CA12CB1
:101240004AE0C501B4010E944707E80EF91EC50136
:10125000B4010E94FC189B01AC01C301B2010E94C1
:10126000851A4B015C01DBCFC701CF911F910F9114
:10127000FF90EF90DF90CF90BF90AF909F908F90B6
:101280007F906F905F904F900895CF93DF9342E0EF
:101290000E946908EC0184E794E00E9433078C0FF8
:1012A0009D1FDF91CF910895CF93DF9386E794E060
:1012B0000E9489078CEC91E00E948707CCEBD4E078
:1012C000688179818A819B814AE00E94470784E78F
:1012D00094E00E9433078BED91E00E9487078C8198
:1012E00090E00E94570884E294E00E9487076D8195
:1012F0007E818F8198850E94450985EF91E00E944B
:101300008707898590E00E94570887E092E00E9455
:1013100087078A8590E00E94570889E192E00E9441
:1013200087078B859C850E94190889E292E00E94BC
:1013300087076D857E858F85988920E83EEE46E398
:1013400050E00E94C61BCA01B9010E942B0888E325
:1013500092E00E9487076D857E858F8598890E941F
:101360002B088CE392E00E9489078EE392E00E94B2
:10137000870789899A890E94190883E592E00E946B
:1013800087078B899C89DF91CF910C9419080F9363
:101390001F93CF93DF930CEB14E0D0E0C0E0CE01BD
:1013A0000E941E1AF80181938F012196C631D10542
:1013B000B1F70E9454098091C5048093B3040E9440
:1013C000D7030091C9041091CA042091CB04309135
:1013D000CC04601B710B820B930B6093B40470936D
:1013E000B5048093B6049093B7048091C7048093AA
:1013F00097048091CD049091CE04909396048093AD
:1014000095048091CF049091D004909386048093AA
:101410008504DF91CF911F910F9108951F920F9234
:101420000FB60F9211242F933F934F935F936F93B7
:101430007F938F939F93AF93BF93EF93FF9382ED2F
:1014400094E00E94A501FF91EF91BF91AF919F9110
:101450008F917F916F915F914F913F912F910F905D
:101460000FBE0F901F9018951F920F920FB60F92FC
:1014700011242F938F939F93EF93FF93E091E204B6
:10148000F091E3048081E091E804F091E90482FDA9
:101490001BC090818091EB048F5F8F732091EC04CF
:1014A000821741F0E091EB04F0E0EE52FB4F958F94
:1014B0008093EB04FF91EF919F918F912F910F906B
:1014C0000FBE0F901F9018958081F4CF1F920F923E
:1014D0000FB60F9211242F933F938F939F93AF9347
:1014E000BF9380917D0490917E04A0917F04B09180
:1014F000800430917C0423E0230F2D3758F50196AA
:10150000A11DB11D20937C0480937D0490937E04E3
:10151000A0937F04B0938004809181049091820411
:10152000A0918304B09184040196A11DB11D809304
:10153000810490938204A0938304B0938404BF91A8
:10154000AF919F918F913F912F910F900FBE0F9070
:101550001F90189526E8230F0296A11DB11DD2CF2A
:10156000E2EDF4E01382128288EE93E0A0E0B0E0B6
:1015700084839583A683B78382EB91E091838083F4
:1015800085EC90E09587848784EC90E09787868748
:1015900080EC90E0918B808B81EC90E0938B828B40
:1015A00082EC90E0958B848B86EC90E0978B868B19
:1015B000118E128E138E148E0E94D70360936F05C6
:1015C0007093700580937105909372050895CF9381
:1015D000DF93CDB7DEB7C45AD1090FB6F894DEBF9A
:1015E0000FBECDBF789484B5826084BD84B5816020
:1015F00084BD85B5826085BD85B5816085BD8091DE
:101600006E00816080936E00109281008091810055
:10161000826080938100809181008160809381004D
:10162000809180008160809380008091B10084600F
:101630008093B1008091B00081608093B000809170
:101640007A00846080937A0080917A00826080932F
:101650007A0080917A00816080937A0080917A008C
:10166000806880937A001092C1000E94C70980911F
:101670008504909186040196909386048093850456
:1016800021E030E0892B11F430E020E08091CF049C
:101690009091D0042817390731F03093D00420936B
:1016A000CF040E94DE0761E088E00E94860261E0CC
:1016B00088E00E94B40261E088E00E948602E09126
:1016C000E204F091E30482E08083E091DE04F09193
:1016D000DF041082E091E004F091E10480E1808376
:1016E0001092EA04E091E604F091E70486E080833A
:1016F000E091E404F091E504808180618083E091D1
:10170000E404F091E504808188608083E091E40442
:10171000F091E504808180688083E091E404F09199
:10172000E50480818F7D808385E090E0A0E0B0E0DB
:101730008093D6049093D704A093D804B093D9048F
:1017400061E08DE00E94B4026091B3048DE00E94DC
:10175000860261E087E00E94B40261E087E00E94B7
:1017600086021092000161E089E00E94B40260E00C
:1017700080E10E94B40260E08EE00E94B402809199
:10178000C604882309F4A0C181E090E0909363012E
:101790008093620169E672E0CE0101960E94EB1B24
:1017A000CE0101960E9440079E012B593F4F7901BF
:1017B00032E0232E312C47E0C42ED12C80918B04B3
:1017C00081110DC00E94D703609387047093880431
:1017D0008093890490938A0481E080938B048090A5
:1017E000870490908804A0908904B0908A040E9495
:1017F000D703240135013FE0430E511C611C711CCD
:10180000A3019201261B370B480B590BDA01C901C2
:101810004097A105B10508F05CC10E94D7033FE0E5
:10182000830E911C861A970A0E94D703609387043F
:10183000709388048093890490938A04181419047F
:1018400034F461E070E080E090E00E948003A090BA
:101850009304B090940444E6A416B1040CF045C17E
:1018600082ED94E00E948501181619060CF041C122
:1018700082ED94E00E946301E1E0F0E0EC0FFD1FD7
:10188000EA0DFB1D80838A3011F0811126C1108280
:1018900010929404109293046DE772E0CE010196C9
:1018A0000E949707882309F42FC20E94D7036093F0
:1018B0006F05709370058093710590937205109277
:1018C000B204109298048091D104882321F01092E0
:1018D000C5040E94DE076DEC72E0CE0101960E9405
:1018E0009707882309F451C268ED72E0C7010E948E
:1018F000EB1BC7010E94400761E087E00E9486025F
:101900006FEF72E0CE0101960E949707882359F08D
:101910006AE073E0C7010E94EB1BC7010E94400709
:1019200081E08093990467E173E0CE0101960E9403
:1019300097078823A1F068E273E0C7010E94EB1BC0
:10194000C7010E94400782E1E0ECF4E011928A9521
:10195000E9F70E9454090E94BD070E94C7096BE382
:1019600073E0CE0101960E9497078823A1F06CE4F2
:1019700073E0C7010E94EB1BC7010E9440078DE086
:10198000E5ECF4E011928A95E9F70E9454090E946F
:10199000BD070E94C7096FE573E0CE0101960E9462
:1019A00097078823A1F061E773E0C7010E94EB1B52
:1019B000C7010E94400786E1ECEBF4E011928A95A2
:1019C000E9F70E9454090E94BD070E94C70984E0FC
:1019D000FE013796D70101900D928A95E1F7F70144
:1019E000148265E873E0CE0101960E949707882370
:1019F00009F4ECC1C7010E944B152B013C018BE897
:101A000093E00E948907C301B2010E944509209119
:101A10007201309173014091740150917501C301BD
:101A2000B2010E94851A2091960130919701409150
:101A30009801509199010E94861A4B015C01809295
:101A4000960190929701A0929801B09299019F7788
:101A50002DEC3CEC4CE45EE30E949A1B18160CF053
:101A6000A7C11092960110929701109298011092BE
:101A7000990187E993E00E9489076091960170912E
:101A8000970180919801909199010E944509C301A5
:101A9000B2010E94450969EB73E0CE0101960E94F4
:101AA0009707882309F4AEC18091C604811105C04F
:101AB00081E08093C6040E94DE0741E050E050932D
:101AC00063014093620115C010926301109262019C
:101AD00061CE2FE0822E912CA7CE5FEFA51AB50A1A
:101AE000B0929404A0929304B2CE109294041092F7
:101AF00093048091B304882371F10E94D7038090EE
:101B0000B4049090B504A090B604B090B7046819DE
:101B100079098A099B0961157447874B914020F424
:101B200080919804811117C00E94D70380906F059F
:101B300090907005A0907105B090720568197909B0
:101B40008A099B0961387E4E8643910508F471C16C
:101B500081E08093990480919E0481110DC00E94C0
:101B6000D70360939A0470939B0480939C04909392
:101B70009D0481E080939E0488E00E945D02892B91
:101B800009F468C080919904882309F463C068ED62
:101B900073E0CE0101960E94EB1BCE0101960E94DC
:101BA00040071092990481E0809398049091D104A9
:101BB000911104C08093C5040E94DE071092B20404
:101BC0000E94D70360939A0470939B0480939C04B3
:101BD00090939D040E94D7036093B4047093B5045E
:101BE0008093B6049093B7040E94D70360936F0567
:101BF000709370058093710590937205809197049E
:101C00008F5F8093970421E030E0811102C030E0C3
:101C100020E08091C7049091C8042817390731F05B
:101C20003093C8042093C7040E94DE070E94D703A4
:101C30008090B4049090B504A090B604B090B7041E
:101C4000681979098A099B090E94ED0760E088E01C
:101C50000E9486020E94D70380909A0490909B0471
:101C6000A0909C04B0909D04681979098A099B0989
:101C7000613375478105910578F188E00E945D0226
:101C8000892B51F567EE73E0CE0101960E94EB1BA4
:101C9000CE0101960E944007809195049091960490
:101CA0000196909396048093950421E030E0892B6F
:101CB00011F430E020E08091CD049091CE042817FB
:101CC000390731F03093CE042093CD040E94DE0713
:101CD00061E088E00E948602E0916201F091630178
:101CE000EC30F10508F0B7C0E858F14F0C94E51B53
:101CF000290F29106110C5101F1149116E1175119E
:101D00009C11A311C811BD1465E872E0CE010196C3
:101D10000E9497078823E1F065E972E0C7010E94FD
:101D2000EB1BC7010E94400711E01093B30461E070
:101D30008DE00E9486028091C504811104C0109339
:101D4000C5040E94DE07CE0101960E948907C3CD1B
:101D500068EA72E0CE0101960E949707882399F302
:101D600069EB72E0C7010E94EB1BC7010E944007AC
:101D70001092B30460E08DE00E9486028091C50459
:101D8000882309F31092C504DCCF65EE72E0CE0122
:101D900001960E949707882309F4B2CD61EF72E0A3
:101DA000C7010E94EB1BC7010E94400760E0A5CD60
:101DB00081E08093C0048092C1049092C204A092FA
:101DC000C304B092C4040E94DE0765CE63EB73E0E7
:101DD000CE0101960E949707882309F45CCE1092E9
:101DE000C0040E94DE072BE030E0309363012093B3
:101DF0006201109296011092970110929801109230
:101E0000990149CE68EC73E0CE0101960E949707D4
:101E1000882309F46ECE10926301109262018091C2
:101E2000C604882309F465CE1092C6040E94DE071A
:101E300060CE0E94D703681979098A099B09613726
:101E4000774C8643910508F486CE81E08093B204F6
:101E500082CE0E943D0380916201909163010B97B5
:101E600009F4EAC00E94D7038090B8049090B904A6
:101E7000A090BA04B090BB04681979098A099B093B
:101E8000643F71408105910508F4D6C00E94D703D4
:101E90006093B8047093B9048093BA049093BB0420
:101EA0008090B4049090B504A090B604B090B704AC
:101EB000681979098A099B090E94ED0780E5F701F5
:101EC0008083328221828AE083A787E00E945D02BC
:101ED000F70183838091B30484830E94D703F701C1
:101EE0006583768387839087809162018187809163
:101EF0007A0190917B01A0917C01B0917D01828754
:101F00009387A487B5878091720190917301A09106
:101F10007401B091750186879787A08BB18B8091F2
:101F2000820190918301A0918401B0918501828BFF
:101F3000938BA48BB58B8091640190916501A091E6
:101F40006601B0916701868B978BA08FB18F8091CE
:101F5000920190919301A0919401B0919501828F8B
:101F6000938FA48FB58F80918A0190918B01A0915E
:101F70008C01B0918D01868F978FA0A3B1A3809122
:101F80008E0190918F01A0919001B091910182A357
:101F900093A3A4A3B5A38091700186A38091A2010D
:101FA0009091A301A091A401B091A50187A390A74E
:101FB000A1A7B2A74CE250E0B70182ED94E00E94E5
:101FC00027018091B2048823B9F180906F05909029
:101FD0007005A0907105B09072050E94D703F0E8DB
:101FE0008F0EFEEE9F1EF6E3AF1EB11CA5019401FD
:101FF000261B370B480B590BCA01B90128EE33E0F9
:1020000040E050E00E94A41B3F932F9380E594E0B2
:102010009F938F9341E050E04C0F5D1F5F934F9370
:102020000E94F21BCE0101960E9440070F900F9074
:102030000F900F900F900F9080E090E0892B09F4A3
:10204000BDCB0E949101882309F4B2CB0E9400000D
:10205000AFCB8091C004811117C14BE050E0509389
:102060006301409362016091C1047091C204809148
:10207000C3049091C4046093960170939701809378
:10208000980190939901870122E044E00E942D1568
:10209000FF92EF9285EF93E09F938F9381E090E022
:1020A0008C0F9D1F9F938F930E94F21BCE01019670
:1020B0000E9440070F900F900F900F900F900F907D
:1020C000CACE0E943D036DEC7CEC8CEC9DE30E943B
:1020D000E30310927A0110927B0110927C0110921E
:1020E0007D0110926C0110926D0110926E011092A0
:1020F0006F0110927001109271011092680110929C
:10210000690110926A0110926B011092A201109263
:10211000A3011092A4011092A501109292011092B5
:102120009301109294011092950180907201909009
:102130007301A0907401B090750120911D01309140
:102140001E0140911F0150912001C501B4010E9460
:102150009A1B18160CF07FCE80927A0190927B0128
:10216000A0927C01B0927D010E94D7036093A601EA
:102170007093A7018093A8019093A9018AE090E051
:10218000909363018093620166CE0E94D703809092
:102190009E0190909F01A090A001B090A1016819AC
:1021A00079098A099B0980900D0190900E01A090F9
:1021B0000F01B090100186169706A806B90658F4CC
:1021C0000E94D70360939A0170939B0180939C01B6
:1021D00090939D01D3CF20914101309142014091D4
:1021E000430150914401609182017091830180917B
:1021F0008401909185010E949A1B1816DCF40E94BC
:10220000D70380909E0190909F01A090A001B09074
:10221000A101681979098A099B09809011019090A0
:102220001201A0901301B090140186169706A8061B
:10223000B90630F281E090E00E9414050CCE0E94B5
:102240003D036DEC7CEC8CEC9DE30E94E30360911C
:102250007201709173018091740190917501609386
:102260007A0170937B0180937C0190937D01209192
:102270001D0130911E0140911F01509120010E94CB
:102280009A1B18160CF0E7CD309263012092620180
:10229000E2CD0E943D036DEC7CEC8CEC9DE30E9452
:1022A000E3036091720170917301809174019091C8
:1022B000750160937A0170937B0180937C01909308
:1022C0007D0120911D0130911E0140911F0150910F
:1022D00020010E94F71887FDD7CFBDCD0E94AB0625
:1022E00081116ECF83E090E0A7CF0E94AB068111F1
:1022F00067CF6091190170911A0180911B01909133
:102300001C019B01AC010E94861A9B01AC016091EB
:1023100092017091930180919401909195010E9496
:102320009A1B181634F485E090E090936301809333
:10233000620182E090E080CF0E94AB06811140CF25
:1023400084E090E079CF0E943D036DEC7CEC8CEC56
:102350009DE30E94E303609172017091730180918B
:1023600074019091750160937A0170937B01809361
:102370007C0190937D01209135013091360140918F
:102380003701509138010E94F71887FF64CDF6CECF
:102390000E943D034090720150907301609074015F
:1023A000709075010E94B2032091960130919701BF
:1023B00040919801509199010E94861A2DEC3CECB5
:1023C0004CEC5DE30E945D194B015C0126E636E6AC
:1023D00046E65FE3C301B2010E945D199B01AC01B7
:1023E000C501B4010E94861A4B015C012091720163
:1023F0003091730140917401509175010E94851ACA
:1024000060937601709377018093780190937901BE
:102410008092720190927301A0927401B092750142
:102420009F77209101013091020140910301509169
:1024300004010E94F71887FF0ECD0E94D7038090F9
:102440009A0190909B01A0909C01B0909D01681909
:1024500079098A099B098090090190900A01A0904E
:102460000B01B0900C0186169706A806B90608F075
:10247000F2CC20917A0130917B0140917C01509106
:102480007D0160917201709173018091740190914E
:1024900075010E94851A60937E0170937F0180937D
:1024A0008001909381010E94D70360939E017093F5
:1024B0009F018093A0019093A10180907201909060
:1024C0007301A0907401B090750120913901309191
:1024D0003A0140913B0150913C01C501B4010E9479
:1024E0009A1B1816BCF489E090E0909363018093E6
:1024F00062018091720190917301A0917401B09179
:10250000750180937A0190937B01A0937C01B09335
:102510007D01A1CC4091A2015091A3016091A40141
:102520007091A50180910D0190910E01A0910F0174
:10253000B0911001481759076A077B0738F140909E
:102540004101509042016090430170904401A30109
:102550009201609182017091830180918401909138
:1025600085010E94F71887FF11C020916401309106
:1025700065014091660150916701C301B2010E945B
:10258000F71887FF03C083E090E0AFCF20913101BF
:10259000309132014091330150913401C501B401B1
:1025A0000E949A1B87FD28C180917101811118C07A
:1025B00080918E0190918F01A0919001B091910135
:1025C0008093640190936501A0936601B0936701C5
:1025D000D0926301C092620181E08093710189CF42
:1025E00020913501309136014091370150913801E9
:1025F00060917A0170917B0180917C0190917D01C5
:102600000E94851A9F772AE037ED43EA5BE30E9438
:10261000F71887FF57C060917E0170917F0180910C
:102620008001909181019F772AE037ED43EA5BE3D7
:102630000E94F71887FF46C02DEC3CEC4CE45DE3AC
:102640006091820170918301809184019091850154
:102650000E945D192B013C0123E333E343E75FE371
:1026600060918E0170918F01809190019091910104
:102670000E945D199B01AC01C301B2010E94861A40
:102680002B013C0120E030E0A9010E94F71887FDF2
:10269000A6C02AE939E949E95EE3C301B2010E9413
:1026A0009A1B18163CF49AE9492E99E9592E652C83
:1026B0009EE3792E40928E0150928F01609290019C
:1026C000709291010E94D7034090AA015090AB01F3
:1026D0006090AC017090AD01641975098609970985
:1026E0000E94FC182B013C010E94D7036093AA01B1
:1026F0007093AB018093AC019093AD01A50194015F
:1027000060913501709136018091370190913801C7
:102710000E94851A20915E0130915F014091600115
:10272000509161010E945D19A30192010E945D19FF
:1027300020916C0130916D0140916E0150916F01BB
:102740000E94861A4B015C0120E030E0A9010E9442
:10275000F71887FD48C020E030E04FE753E4C5019B
:10276000B4010E949A1B181634F4812C912C8FE727
:10277000A82E83E4B82E80926C0190926D01A092F5
:102780006E01B0926F0120E030E0A901C501B401F3
:102790000E949A1B20E030E040E05FE387FD27C005
:1027A000C501B4010E94861A0E94641B60937001E7
:1027B000862F90E00E94E50280918E0190918F011A
:1027C000A0919001B0919101809364019093650173
:1027D000A0936601B093670188E090E086CE412C1B
:1027E000512C320167CF812C912C5401C4CFC501EB
:1027F000B4010E94851AD8CF20912D0130912E016D
:1028000040912F0150913001C501B4010E949A1BE3
:1028100087FD1FC020918E0130918F014091900162
:102820005091910160915201709153018091540136
:10283000909155010E94861A60936401709365011E
:102840008093660190936701D0926301C092620108
:1028500050CE2091250130912601409127015091C1
:102860002801C501B4010E949A1B87FD28C0209150
:10287000290130912A0140912B0150912C01C50171
:10288000B4010E94F71820918E0130918F01409180
:1028900090015091910187FF09C060914E017091A4
:1028A0004F018091500190915101C4CF60914A0134
:1028B00070914B0180914C0190914D01BBCF2091C3
:1028C0002101309122014091230150912401C50141
:1028D000B4010E949A1B87FF19C020911D013091FD
:1028E0001E0140911F015091200160917201709171
:1028F000730180917401909175010E949A1B1816C2
:10290000ACF13092630120926201F3CD0E94D703B3
:102910008090050190900601A0900701B0900801F9
:10292000681579058A059B05C0F620918E013091C6
:102930008F01409190015091910160914E017091F1
:102940004F0180915001909151010E94861A60932D
:102950006401709365018093660190936701E6E0DE
:10296000F0E0F0936301E0936201C3CD24E030E036
:102970003093630120936201BCCD0E943D036AE065
:1029800077ED83EA9CE30E94E3038091AA0481111E
:102990000DC00E94D7036093A6047093A704809390
:1029A000A8049093A90481E08093AA040E94D7030D
:1029B0008090A6049090A704A090A804B090A904C9
:1029C000681979098A099B096B3F71058105910591
:1029D00008F441CA0E94D7036093A6047093A70429
:1029E0008093A8049093A9048CE094E00E94870748
:1029F00080E10E944303BC01990F880B990B0E9450
:102A00002B0888E194E00E9487070E94B20342E00D
:102A10000E94690883E294E00E9487076091960112
:102A200070919701809198019091990142E00E94E4
:102A300069088FE394E00E948707609172017091AA
:102A40007301809174019091750142E00E946908C0
:102A500086E794E00E948907FEC9EF920F931F93C7
:102A6000CF93DF93E80134E047FD34E1042E000CFE
:102A7000550B57FF03C0519541955109E32E022F85
:102A8000242FAE010E944F15CE01DF91CF911F91EF
:102A90000F91EF900895662777270C94AE16A9E062
:102AA000B0E0E5E5F5E10C94451A6A01F22EB02E8E
:102AB000102FFBE3AF2EA01608F41BE31F5F012FBE
:102AC00027E0AE014F5F5F4F0E94FE17BC01898176
:102AD000982F9970913009F43FC09BE2E1FC04C04B
:102AE0009E2D9170E0FC3AC05E2D5071E82FE87089
:102AF00083FF46C084E0911101C083E0EF2DE81B05
:102B00008F1508F0E0E0D6018E2F20E2552351F119
:102B1000992329F0D6019C93C60101966C01960178
:102B20002D5F3F4FE2FE24C08EE4D6018C9391E4EA
:102B300011969C93119712968C93D9018E2F90E247
:102B400081111BC0E20FF32FF11D10828EEF9FEF5A
:102B50002996ECE00C94611A9DE2C6CF90E2C4CFB6
:102B60002D9381508111FCCFCE0ED11CE0E0D0CF4F
:102B70008EE6D6018C9391E6DBCF9D938150E0CF1A
:102B8000482F447082FF3DC084E0911101C083E072
:102B90008F1510F4EF2DE81BD6018E2F20E2552360
:102BA00009F1992329F0D6019C93C60101966C0185
:102BB00096012D5F3F4FE2FE1BC089E4D6018C9346
:102BC0008EE411968C93119786E412968C93D9011A
:102BD0008E2F90E2882309F4B5CF9D938150FACFD0
:102BE0002D9381508111FCCFCE0ED11CE0E0D9CFC6
:102BF00089E6D6018C938EE611968C93119786E622
:102C0000E4CF9B0177FF02C030E020E0A1E0B0E01C
:102C1000911102C0B0E0A0E0F9013196AE0FBF1FE4
:102C20008B2C912CBB2009F461C05401EFEFAE1A3C
:102C3000BE0AAA0DBB1DFA161B0619F014F04F2D83
:102C40004A1B511188C0E3FC59C07601A42FB0E2A1
:102C5000A1114FC0C40ED11C992309F45BC040E000
:102C6000D6011196F60190836D01552309F448C0F1
:102C7000012F060F9A81582F507184FF03C09133A2
:102C800009F4015010160CF047C0093008F008E0B4
:102C9000EEE2FE2E5B01A01AB108850191948194A9
:102CA00091082F3F320729F4D601FC92F6013196A4
:102CB0006F016217730794F1021713077CF5DB01AC
:102CC000A21BB30BAA24A394B12CAC0EBD1EAA0D5B
:102CD000BB1D11968C9121503109D60111962815F2
:102CE0003905F4F0F60180836D01DBCFB12CA12C06
:102CF000A0CFF701B1937F01A150AACF9111B0CF1E
:102D0000D601942F50E302C05D9391509111FCCFF6
:102D1000C40ED11C40E0ACCF01E0BACF80E3DBCFE2
:102D20006217730731F4963388F4953311F4552301
:102D300069F0F6018083FD01842F90E2811108C0C3
:102D4000A40FB11D1C9290E080E002CF81E3F1CF8F
:102D500091938150F3CF911183CF8ACFB0E0A0E05F
:102D6000E4EBF6E10C94451A5C017B0161157105F9
:102D700019F0DB018D939C9385010F5F1F4FF501C7
:102D8000D0818D2F90E00E94D6186C01892BB9F567
:102D9000DD32B9F50F5F1F4FD5011196DC91C1E00F
:102DA0005801F1E0AF1AB10843E050E060E770E08D
:102DB000C5010E94DF18892B69F5680182E0C80E01
:102DC000D11C45E050E06BE670E0C6010E94DF18C0
:102DD000892B21F4680197E0C90ED11CE114F1049C
:102DE00019F0D701CD92DC9260E070E080E89FEFAF
:102DF000C111FFC060E070E080E89FE7FAC05801B1
:102E0000BBCFDB3229F485010E5F1F4FF501D18165
:102E1000C0E0C6CF43E050E068E670E0C5010E9424
:102E2000DF18892BE9F0F80110E000E020E030E045
:102E3000A9015F01B0ED8B2E8D0E89E08815C8F1D8
:102E40009C2E689491F88C2F8870C2FF16C0811157
:102E500002C00F5F1F4F3196D501DC91C92DE9CF1C
:102E6000E114F10429F00E5F1F4FF7011183008375
:102E700060E070E080EC9FE7BCC0882311F0015057
:102E80001109A5E0B0E00E94341A9B01AC01220FA9
:102E9000331F441F551F280D311D411D511D283959
:102EA00099E93907490799E15907A8F2C6609C2EAC
:102EB000D2CFAEEF8A1206C0C3FD3CC09C2E6894F0
:102EC00093F8C9CFDF7DD534A9F580818D3239F4EF
:102ED000C061DF011296818162E070E006C0DF010F
:102EE0008B32C1F3119661E070E080535D01A61A48
:102EF000B70A8A30F8F4E0E8CE16ECE0DE065CF4BF
:102F0000B601660F771F660F771FC60ED71ECC0C53
:102F1000DD1CC80ED11C5D01FFEFAF1ABF0A8C91FA
:102F200080538A30A8F1C4FF03C0D194C194D10862
:102F30000C0D1D1DC1FF09C0E114F10431F081E049
:102F4000A81AB108D701AD92BC92CA01B9010E947A
:102F5000FC18C370C33009F490584B015C0120E0A9
:102F600030E0A9010E94F718882309F440C0CFE996
:102F7000D0E017FF05C0119501951109C7E8D0E011
:102F80006E01B8E1CB1AD10880E2E82EF12C0FC017
:102F9000D501B1CFFE0125913591459154910E197E
:102FA0001F09C501B4010E945D194B015C01D501E7
:102FB000C4010E151F0574F72497F594E794CC16F9
:102FC000DD06A9F78A2F880F8B2F881F8F3F49F0C6
:102FD00020E030E0A901C501B4010E94F718811179
:102FE00006C082E290E09093740580937305C5015A
:102FF000B401CDB7DEB7ECE00C94611A283008F0CC
:1030000027E03327DA01990F311D87FD9160009683
:103010006105710539F432602E5F3D9330E32A95E6
:10302000E1F708959F3F30F080387105610509F0A0
:103030003C5F3C5F3D93913008F08068911DDF93C9
:10304000CF931F930F93FF92EF92192F987F96952E
:10305000E92F96959695E90FFF27E350FF4F9927A3
:103060003327EE24FF24A701E70105900894079475
:1030700028F4360FE71EF81E491F511D660F771FF3
:10308000881F991F0694A1F70590079428F4E70E6E
:10309000F81E491F561FC11D770F881F991F661FF5
:1030A0000694A1F70590079428F4F80E491F561FBF
:1030B000C71FD11D880F991F661F771F0694A1F7A0
:1030C0000590079420F4490F561FC71FD81F990F6A
:1030D000661F771F881F0694A9F7849110951770B3
:1030E00041F0D695C79557954795F794E7941A956B
:1030F000C1F7E3EAF0E06894159015913591659178
:10310000959105907FE27395E118F10A430B560BF8
:10311000C90BD009C0F7E10CF11E431F561FC91F90
:10312000D01D7EF4703311F48A95E6CFE8940150F7
:1031300030F0080F0AF40027021708F4202F239517
:10314000022F7A3328F079E37D932A95E9F710C0AE
:103150007D932A9589F606949795679537951795E7
:103160001794E118F10A430B560BC90BD00998F0DC
:1031700023957E9173957A3308F070E37C93201346
:10318000B8F77E9170617D9330F0839571E37D9304
:1031900070E32A95E1F71124EF90FF900F911F91B2
:1031A000CF91DF91992787FD9095089591110C9407
:1031B000CA19803219F089508550C8F70895FB016B
:1031C000DC014150504088F08D9181341CF08B35EA
:1031D0000CF4805E659161341CF06B350CF4605E1C
:1031E000861B611171F3990B0895881BFCCF0E9417
:1031F000391908F481E00895E89409C097FB3EF47A
:1032000090958095709561957F4F8F4F9F4F992333
:10321000A9F0F92F96E9BB279395F69587957795B1
:103220006795B795F111F8CFFAF4BB0F11F460FF71
:103230001BC06F5F7F4F8F4F9F4F16C0882311F0C9
:1032400096E911C0772321F09EE8872F762F05C0DD
:10325000662371F096E8862F70E060E02AF09A9578
:10326000660F771F881FDAF7880F9695879597F96D
:103270000895990F0008550FAA0BE0E8FEEF161607
:103280001706E807F907C0F012161306E407F5075A
:1032900098F0621B730B840B950B39F40A2661F0CE
:1032A000232B242B252B21F408950A2609F4A14071
:1032B000A6958FEF811D811D08950E9470190C94B1
:1032C000E4190E94D61938F00E94DD1920F09523E8
:1032D00011F00C94CD190C94D31911240C94181AD4
:1032E0000E94F51970F3959FC1F3950F50E0551F9B
:1032F000629FF001729FBB27F00DB11D639FAA274B
:10330000F00DB11DAA1F649F6627B00DA11D661F99
:10331000829F2227B00DA11D621F739FB00DA11DBA
:10332000621F839FA00D611D221F749F3327A00D74
:10333000611D231F849F600D211D822F762F6A2F10
:1033400011249F5750409AF0F1F088234AF0EE0F75
:10335000FF1FBB1F661F771F881F91505040A9F7A2
:103360009E3F510580F00C94CD190C94181A5F3FC4
:10337000E4F3983ED4F3869577956795B795F795DE
:10338000E7959F5FC1F7FE2B880F911D9695879556
:1033900097F9089599278827089597F99F6780E8F6
:1033A00070E060E008959FEF80EC089500240A9497
:1033B0001616170618060906089500240A94121610
:1033C0001306140605060895092E0394000C11F443
:1033D000882352F0BB0F40F4BF2B11F460FF04C0F0
:1033E0006F5F7F4F8F4F9F4F089557FD9058440F49
:1033F000551F59F05F3F71F04795880F97FB991F54
:1034000061F09F3F79F08795089512161306140610
:10341000551FF2CF4695F1DF08C01616170618069D
:10342000991FF1CF86957105610508940895E89478
:10343000BB2766277727CB0197F90895F999FECF27
:1034400092BD81BDF89A992780B50895262FF999E4
:10345000FECF1FBA92BD81BD20BD0FB6F894FA9A77
:10346000F99A0FBE019608950E94761AA59F900DB5
:10347000B49F900DA49F800D911D112408952F924B
:103480003F924F925F926F927F928F929F92AF92F4
:10349000BF92CF92DF92EF92FF920F931F93CF9341
:1034A000DF93CDB7DEB7CA1BDB0B0FB6F894DEBFD8
:1034B0000FBECDBF09942A88398848885F846E84FE
:1034C0007D848C849B84AA84B984C884DF80EE8048
:1034D000FD800C811B81AA81B981CE0FD11D0FB651
:1034E000F894DEBF0FBECDBFED010895A29FB001DD
:1034F000B39FC001A39F700D811D1124911DB29F28
:10350000700D811D1124911D08955058BB27AA27C5
:103510000E949D1A0C94E4190E94D61938F00E945A
:10352000DD1920F039F49F3F19F426F40C94D319D7
:103530000EF4E095E7FB0C94CD19E92F0E94F519E4
:1035400058F3BA17620773078407950720F079F4D8
:10355000A6F50C94171A0EF4E0950B2EBA2FA02D99
:103560000B01B90190010C01CA01A0011124FF2730
:10357000591B99F0593F50F4503E68F11A16F0402B
:10358000A22F232F342F4427585FF3CF469537952A
:103590002795A795F0405395C9F77EF41F16BA0BEF
:1035A000620B730B840BBAF09150A1F0FF0FBB1F9D
:1035B000661F771F881FC2F70EC0BA0F621F731FE6
:1035C000841F48F4879577956795B795F7959E3F43
:1035D00008F0B0CF9395880F08F09927EE0F9795D4
:1035E000879508950E94061B0C94E4190E94DD192A
:1035F00058F00E94D61940F029F45F3F29F00C944E
:10360000CD1951110C94181A0C94D3190E94F51964
:1036100068F39923B1F3552391F3951B550BBB2701
:10362000AA2762177307840738F09F5F5F4F220F46
:10363000331F441FAA1FA9F335D00E2E3AF0E0E83D
:1036400032D091505040E695001CCAF72BD0FE2F87
:1036500029D0660F771F881FBB1F2617370748071B
:10366000AB07B0E809F0BB0B802DBF01FF279358D3
:103670005F4F3AF09E3F510578F00C94CD190C94B1
:10368000181A5F3FE4F3983ED4F3869577956795D3
:10369000B795F7959F5FC9F7880F911D9695879508
:1036A00097F90895E1E0660F771F881FBB1F621727
:1036B00073078407BA0720F0621B730B840BBA0BE5
:1036C000EE1F88F7E09508950E946B1B6894B11176
:1036D0000C94181A08950E94FD1988F09F5798F0CD
:1036E000B92F9927B751B0F0E1F0660F771F881F07
:1036F000991F1AF0BA95C9F714C0B13091F00E9421
:10370000171AB1E008950C94171A672F782F88279D
:10371000B85F39F0B93FCCF3869577956795B39547
:10372000D9F73EF490958095709561957F4F8F4FB6
:103730009F4F08950E94391908F48FEF08950E9451
:103740003919880B990B0895A1E21A2EAA1BBB1BED
:10375000FD010DC0AA1FBB1FEE1FFF1FA217B3075D
:10376000E407F50720F0A21BB30BE40BF50B661F73
:10377000771F881F991F1A9469F760957095809537
:1037800090959B01AC01BD01CF010895052E97FBDB
:103790001EF400940E94DD1B57FD07D00E94A41B5D
:1037A00007FC03D04EF40C94DD1B509540953095EA
:1037B00021953F4F4F4F5F4F08959095809570959D
:1037C00061957F4F8F4F9F4F0895EE0FFF1F05901C
:1037D000F491E02D0994FB01DC0101900D92002091
:1037E000E1F70895AEE0B0E0E8EFFBE10C944D1A8C
:1037F0000D891E8986E08C831A8309838FEF9FE7EA
:103800009E838D83AE01475E5F4F6F89788DCE01B9
:1038100001960E94151C2F813885020F131FF80195
:1038200010822E96E4E00C94691AABE0B0E0EBE174
:10383000FCE10C943F1A7C013B018A01FC011782D8
:103840001682838181FFC8C1CE0101965C01F70118
:103850009381F30193FD859193FF81913F0188232B
:1038600009F453C1853239F493FD859193FF819119
:103870003F01853229F4B70190E00E94051EE7CF91
:10388000912C212C312CFFE1F31538F08B3211F102
:1038900090F4803209F1833229F137FC3CC020EDED
:1038A000280F2A3050F536FE20C08AE0989E200D61
:1038B0001124922E06C08D3291F0803371F76894F6
:1038C00030F8F30193FD859193FF81913F018111C0
:1038D000DACF21C0689431F8689432F8F2CF689456
:1038E00033F8EFCF689434F8ECCFEAE02E9E200D49
:1038F0001124222E689435F8E4CF8E3229F436FC58
:1039000004C1689436F8DDCF8C3619F4689437F822
:10391000D8CF8836B1F2982F9F7D95549330E0F040
:103920008336A1F18337C1F1833509F063C02801E3
:10393000F2E04F0E511CF801C080D180692D70E07B
:1039400036FC02C06FEF7FEFC6010E94EF1D4C01F5
:10395000689437F882010AC00C5F1F4FFFE3F983B8
:1039600088248394912C6501E89437F833FE2DC0A8
:10397000522C8114910471F5552009F468CFB701D8
:1039800080E290E00E94051E5A94F6CFF8018081F3
:1039900089830E5F1F4FE4CF2801F2E04F0E511CC8
:1039A000F801C080D180692D70E036FC02C06FEF55
:1039B0007FEFC6010E94FA1D4C018201D5CFB701ED
:1039C00080E290E00E94051E2A942814190409F050
:1039D000B0F7CECFF60137FC859137FE81916F01AC
:1039E000B70190E00E94051E51105A94F1E08F1A21
:1039F0009108BFCF843619F0893609F077C0F801F5
:103A000037FE6BC060817181828193810C5F1F4F93
:103A1000F32DFF763F2E97FF09C090958095709506
:103A200061957F4F8F4F9F4F689437F82AE030E0C1
:103A3000A5010E94351EC82ECA188C2C432C36FEB8
:103A40000CC0E89440F8C91440F434FE05C032FCC0
:103A500003C0F32DFE7E4F2E892C44FE95C0FE013F
:103A6000EC0DF11D8081803309F087C0242D297E63
:103A7000422E842D8870582E43FC95C040FE8FC086
:103A80009C2C821418F42C0C922C981844FE91C093
:103A9000B70180E390E00E94051E42FE09C088E75E
:103AA00090E041FE02C088E590E0B7010E94051E4B
:103AB000C91408F48AC0CA94D12C9FEFC91AD90A34
:103AC000CA0CDB1CF60182916F01B70190E00E94E5
:103AD000051EAC14BD04B1F74FCF60817181072E74
:103AE000000C880B990B0E5F1F4F92CFD32CE894DC
:103AF000D4F82AE030E0853739F1232D297FD22E02
:103B00008F3601F148F48835A9F0F7018681978155
:103B10002B96E2E10C945B1A803749F08837A9F7BD
:103B2000D4FE02C06894D2F820E130E00DC0689461
:103B3000D4F8F6CF34FE03C0822F8660D82E20E161
:103B400032E002C028E030E0F801D7FE0FC060810B
:103B50007181828193810C5F1F4FA5010E94351EE8
:103B6000C82ECA183D2CE89437F867CF6081718160
:103B700090E080E00E5F1F4FF0CF42FC02C08394C4
:103B800078CF8394839475CF842D867809F471CF90
:103B9000F6CFB70180E290E00E94051E8394821464
:103BA000C0F3512C73CF522C5818821408F46ECFE6
:103BB000F8CF842D867809F47BCF8BE241FE80E23A
:103BC00047FC8DE2B70190E071CFB70180E390E050
:103BD0000E94051E9A946CCF8FEF9FEF99CFFC0146
:103BE0000590615070400110D8F7809590958E0F28
:103BF0009F1F0895FC016150704001900110D8F79B
:103C0000809590958E0F9F1F08950F931F93CF93CC
:103C1000DF93182F092FEB018B8181FD09C01FEF66
:103C20000FEF812F902FDF91CF911F910F9108956A
:103C300082FF14C02E813F818C819D812817390716
:103C40003CF4E881F981CF01019699838883108340
:103C50008E819F8101969F838E83E3CFE885F985CE
:103C6000812F0995892BA1F3DACFFA01AA272830F1
:103C700051F1203181F1E8946F936E7F6E5F7F4F39
:103C80008F4F9F4FAF4FB1E03ED0B4E03CD0670FB5
:103C9000781F891F9A1FA11D680F791F8A1F911D08
:103CA000A11D6A0F711D811D911DA11D20D009F458
:103CB00068943F912AE0269F11243019305D31939A
:103CC000DEF6CF010895462F4770405D4193B3E083
:103CD0000FD0C9F7F6CF462F4F70405D4A3318F02A
:103CE000495D31FD4052419302D0A9F7EACFB4E0DB
:103CF000A6959795879577956795BA95C9F7009793
:103D00006105710508959B01AC010A2E0694579533
:103D1000479537952795BA95C9F7620F731F841F8A
:103D2000951FA01D0895F894FFCF01CDCC4C3D60A8
:103D3000EA00002C01000030750000C2010000C341
:103D4000F5A83E000096430000803F0000C03F0001
:103D50000020400000604033338340CDCC84406677
:103D60006686400000884000004041CDCCCC3DCD6F
:103D7000CCCC3E236766E63E9A99993E9A99193EC5
:103D80000AD7A33C0000C8420AD7233C0000000029
:103D90000000000000000000000000000000000023
:103DA0000000000000000000000000000000000013
:103DB000000000000000803F9A99193E00000000BA
:103DC00000000000000000000000000000000000F3
:103DD000000000000000000000000000C7012701F3
:103DE000540114028501630177016E616E00696EF2
:103DF00066006F766600656570726F6D5F777269D9
:103E00007465732000766F6C746167655F63616CC5
:103E10006962726174696F6E5F646F6E65200077AE
:103E200061746368646F675F656E61626C6564206E
:103E3000006368617267696E675F656E61626C6579
:103E40006420007761746368646F675F636F756E89
:103E50007420007761746368646F675F74696D656F
:103E600020004820280029007761746368646F6728
:103E70005F626F6F745F636F756E74200062617351
:103E800065626F6172645F626F6F745F636F756E9E
:103E900074200062617365626F6172642073746183
:103EA000727465640D0A00486172726F7721006553
:103EB0006E61626C65207761746368646F67005738
:103EC00061746368646F6720656E61626C65640D20
:103ED0000A0064697361626C652077617463686469
:103EE0006F67005761746368646F6720646973610A
:103EF000626C65640D0A00656E61626C65206C65BC
:103F00006400456E61626C65204C45440D0A006496
:103F1000697361626C65206C6564004469736162F9
:103F20006C65204C45440D0A007265626F6F742009
:103F30006E7563005265626F6F74204E55430D0AB3
:103F400000636C65617220636F6E66696720616CE7
:103F50006C00636C65617220636F6E6669672061D7
:103F60006C6C0D0A00636C65617220636F6E66692C
:103F700067206C6F6700636C65617220636F6E66AB
:103F80006967206C6F670D0A00636C65617220635E
:103F90006F6E666967206861726400636C65617248
:103FA00020636F6E66696720686172640D0A006342
:103FB000616C69620063616C6962726174653A2068
:103FC000004552524F523A20696E76616C69642006
:103FD00063616C6962726174696F6E3A00726573D5
:103FE000657400656E61626C652063686172676507
:103FF000720064697361626C6520636861726765F1
:1040000072005475726E206F6666204E55430D0A1D
:10401000005475726E206F6E204E55430D0A007667
:104020006F6C74732063616C6962726174696F6E26
:104030002025730D0A00616E616C6F672076616CDC
:10404000200020766F6C745F726177200020766F9D
:104050006C746167655F63616C6962726174696FDA
:104060006E5F76616C7565200020736D6F6F74688C
:1040700065645F766F6C7473200057617463686465
:104080006F672077696C6C2074726967676572204E
:10409000696E202564207365636F6E6473210D0A59
:0240A00000001E
:107E0000112484B714BE81FFF0D085E080938100F7
:107E100082E08093C00088E18093C10086E0809377
:107E2000C20080E18093C4008EE0C9D0259A86E02C
:107E300020E33CEF91E0309385002093840096BBD3
:107E4000B09BFECF1D9AA8958150A9F7CC24DD24C4
:107E500088248394B5E0AB2EA1E19A2EF3E0BF2EE7
:107E6000A2D0813461F49FD0082FAFD0023811F036
:107E7000013811F484E001C083E08DD089C08234E0
:107E800011F484E103C0853419F485E0A6D080C0E4
:107E9000853579F488D0E82EFF2485D0082F10E0AE
:107EA000102F00270E291F29000F111F8ED06801E7
:107EB0006FC0863521F484E090D080E0DECF843638
:107EC00009F040C070D06FD0082F6DD080E0C81688
:107ED00080E7D80618F4F601B7BEE895C0E0D1E017
:107EE00062D089930C17E1F7F0E0CF16F0E7DF06D8
:107EF00018F0F601B7BEE89568D007B600FCFDCFD4
:107F0000A601A0E0B1E02C9130E011968C91119780
:107F100090E0982F8827822B932B1296FA010C0160
:107F200087BEE89511244E5F5F4FF1E0A038BF0790
:107F300051F7F601A7BEE89507B600FCFDCF97BE46
:107F4000E89526C08437B1F42ED02DD0F82E2BD052
:107F50003CD0F601EF2C8F010F5F1F4F84911BD097
:107F6000EA94F801C1F70894C11CD11CFA94CF0C13
:107F7000D11C0EC0853739F428D08EE10CD085E9AC
:107F80000AD08FE07ACF813511F488E018D01DD067
:107F900080E101D065CF982F8091C00085FFFCCF94
:107FA0009093C60008958091C00087FFFCCF809118
:107FB000C00084FD01C0A8958091C6000895E0E648
:107FC000F0E098E1908380830895EDDF803219F02E
:107FD00088E0F5DFFFCF84E1DECF1F93182FE3DFCA
:107FE0001150E9F7F2DF1F91089580E0E8DFEE27F6
:047FF000FF270994CA
:027FFE00040479
:00000001FF
