:100000000C9462000C9429150C9402150C948A002F
:100010000C948A000C948A000C948A000C948A0038
:100020000C948A000C948A000C948A000C948A0028
:100030000C948A000C948A000C948A000C948A0018
:100040000C94B8140C948A000C9476150C945015EA
:100050000C948A000C948A000C948A000C948A00F8
:100060000C948A000C948A000000000024002700F1
:100070002A0000000000250028002B0000000000DE
:1000800023002600290004040404040404040202DA
:100090000202020203030303030301020408102007
:1000A0004080010204081020010204081020000012
:1000B0000008000201000003040700000000000027
:1000C0000000A81511241FBECFEFD8E0DEBFCDBFC2
:1000D00026E0A2ECB4E001C01D92A83FB207E1F710
:1000E00014E0A0E0B1E0E4EEF5E502C005900D9269
:1000F000A23CB107D9F710E0C2E6D0E004C02197D6
:10010000FE010E942228C136D107C9F70E94BB1701
:100110000C94F02A0C9400008F929F92AF92BF92A1
:10012000CF92DF92EF92FF920F931F93CF93DF93C3
:10013000FC0169017A01E801CC0FDD1FC15ED94FD6
:10014000888199810E94CD279983888340912806D0
:100150005091290660912A0670912B06460157019D
:10016000841A950AA60AB70A9C01220F331FE20FD0
:10017000F31F40815181052E000C660B770B48154B
:1001800059056A057B05D0F4019699838883C0924E
:100190002806D0922906E0922A06F0922B0691E0DA
:1001A00090932706F801EE0FFF1FE00FF11FED5FA0
:1001B000F94F80FF10C0108A118A128ADF91CF9107
:1001C0001F910F91FF90EF90DF90CF90BF90AF9075
:1001D0009F908F9008958689808B8789818B808DF1
:1001E000828BECCF833081F028F4813099F082301B
:1001F000A9F008958730A9F08830C9F08430B1F4AF
:10020000809180008F7D03C0809180008F778093E4
:100210008000089584B58F7784BD089584B58F7D5F
:10022000FBCF8091B0008F778093B00008958091CC
:10023000B0008F7DF9CFCF93DF93282F30E0F90105
:10024000E255FF4F8491F901E656FF4FD491F90131
:10025000EA57FF4FC491CC23A1F081110E94F20014
:10026000EC2FF0E0EE0FFF1FE458FF4FA591B49183
:10027000EC91ED2381E090E009F480E0DF91CF91F3
:10028000089580E090E0FACF1F93CF93DF93282F5B
:1002900030E0F901E255FF4F8491F901E656FF4F36
:1002A000D491F901EA57FF4FC491CC23A9F0162F3E
:1002B00081110E94F200EC2FF0E0EE0FFF1FEE58CC
:1002C000FF4FA591B4918FB7F894EC91111108C02C
:1002D000D095DE23DC938FBFDF91CF911F910895DE
:1002E000DE2BF8CFCF93DF9390E0FC01E656FF4F73
:1002F00024918A579F4FFC0184918823D1F090E08C
:10030000880F991FFC01E859FF4FA591B491FC019A
:10031000EE58FF4FC591D49161110EC09FB7F8946C
:100320008C91E22FE0958E238C932881E223E88341
:100330009FBFDF91CF9108958FB7F894EC91E22B96
:10034000EC938FBFF6CF1F93CF93DF93182FEB0162
:1003500061E00E947201209739F460E0812FDF9103
:10036000CF911F910C944401CF3FD10511F461E06E
:10037000F5CFE12FF0E0E255FF4FE491E33031F1AA
:1003800040F4E130B1F0E230E1F0C038D1057CF763
:10039000E4CFE73029F1E83059F1E430B1F780914A
:1003A0008000806280938000D0938B00C0938A008D
:1003B00004C084B5806884BDC7BDDF91CF911F9113
:1003C000089584B5806284BDC8BDF7CF8091800058
:1003D000806880938000D0938900C0938800EDCF1F
:1003E0008091B00080688093B000C093B300E5CFE7
:1003F0008091B00080628093B000C093B400DDCFE4
:100400002091040190E4299F900111248E50822BA9
:1004100080937C0080917A00806480937A00809140
:100420007A0086FDFCCF8091780090917900089544
:100430003FB7F8948091290590912A05A0912B054A
:10044000B0912C0526B5A89B05C02F3F19F0019649
:10045000A11DB11D3FBFBA2FA92F982F8827BC011E
:10046000CD01620F711D811D911D42E0660F771F46
:10047000881F991F4A95D1F708958F929F92AF9246
:10048000BF92CF92DF92EF92FF924B015C010E94EC
:1004900018026B017C010E9418026C197D098E09FB
:1004A0009F09683E734081059105A8F321E0821AF7
:1004B0009108A108B10888EEC80E83E0D81EE11C9F
:1004C000F11C81149104A104B10429F7FF90EF906D
:1004D000DF90CF90BF90AF909F908F9008952FB7EF
:1004E000F8946091250570912605809127059091DB
:1004F00028052FBF0895CF93C82F80913A058C17F8
:1005000051F00E946F026093F2067093F30680939D
:10051000F4069093F506C0933A05F8948091390556
:1005200081110CC0CC2369F060913A0570E08AE03B
:100530000E94A30161E089E00E9444017894CF9178
:10054000089570E060E08AE00E94A30161E070E03D
:1005500080E090E00E943D0260E089E00E9444015A
:1005600061E070E080E090E00E943D026FEF70E09B
:100570008AE00E94A301E2CF8F929F92AF92BF9236
:10058000CF92DF92EF92FF921092BE061092BF06BA
:100590001092C0061092C10683E10E940002BC01C5
:1005A000990F880B990B0E941A2520E030E040E05B
:1005B0005FE30E949F2620E030E040EA50E40E9482
:1005C000792520E030E040E85AE30E9479256B016C
:1005D0007C0182E10E940002BC01990F880B990BFB
:1005E0000E941A2520E030E040E05FE30E949F2651
:1005F00020E030E040EA50E40E94792520E030E03D
:1006000040E85AE30E947925A70196010E949E26A0
:1006100020E030E040E850E40E9479254B015C0185
:10062000AC019B016091A5067091A6068091A7067A
:100630009091A8060E949E266093A9067093AA0630
:100640008093AB069093AC069F7720912C06309157
:100650002D0640912E0650912F060E941325881FCB
:100660008827881F8093AD068092A5069092A606E3
:10067000A092A706B092A80620E030E040E850E43F
:10068000C701B6010E9479256093AE067093AF064C
:100690008093B0069093B1061092B2061092B30602
:1006A0001092B4061092B5060E946F02C090EA063E
:1006B000D090EB06E090EC06F090ED066C197D0909
:1006C0008E099F090E9418256B017C010E946F0210
:1006D0006093EA067093EB068093EC069093ED0628
:1006E0002091D2063091D3064091D4065091D50680
:1006F000C701B6010E94792520E030E041E655E4CB
:100700000E940B279B01AC016091D6067091D70621
:100710008091D8069091D9060E949E266093D606B5
:100720007093D7068093D8069093D90610929406BA
:1007300010929506109296061092970680E0FF9010
:10074000EF90DF90CF90BF90AF909F908F900C94E0
:100750007B024F925F926F927F928F929F92AF92A5
:10076000BF92CF92DF92EF92FF92CF93DF9300D0B0
:1007700000D0CDB7DEB77C018EE00E940002BC0144
:10078000990F880B990B0E941A2520E030E040E871
:100790005AE30E94792520E030E040EA50E40E94CC
:1007A00079252DEC3CEC4CE050E40E947925209119
:1007B00040063091410640914206509143060E9406
:1007C0000B274B015C018092BE069092BF06A0925F
:1007D000C006B092C1068092C2069092C306A09253
:1007E000C406B092C50660913806709139068091B2
:1007F0003A0690913B062FE030E040E050E00E9446
:10080000E127CA01B9010E9418259B01AC0160E0F3
:1008100070E080E090E40E940B272B013C01AC01CA
:100820009B0160E070E080E89FE30E949E2620919B
:10083000C6063091C7064091C8065091C9060E946D
:10084000792569837A838B839C83A3019201C501F7
:10085000B4010E9479259B01AC0169817A818B8169
:100860009C810E949F266093C6067093C706809362
:10087000C8069093C90683E10E940002BC01990F4B
:10088000880B990B0E941A2520E030E040E05FE3DE
:100890000E949F2620E030E040EA50E40E94792543
:1008A00020E030E040E85AE30E9479252B013C012A
:1008B00082E10E940002BC01990F880B990B0E94F3
:1008C0001A2520E030E040E05FE30E949F2620E010
:1008D00030E040EA50E40E94792520E030E040E832
:1008E0005AE30E947925A30192010E949E2620E0EE
:1008F00030E040E850E40E9479254B015C01AC01F6
:100900009B016091B2067091B3068091B4069091FC
:10091000B5060E949E266093BA067093BB0680932C
:10092000BC069093BD068092B2069092B306A09248
:10093000B406B092B5068092B6069092B706A09221
:10094000B806B092B90620E030E040E850E4C301B8
:10095000B2010E9479256093AE067093AF06809332
:10096000B0069093B1060E946F028090EA069090C4
:10097000EB06A090EC06B090ED06681979098A099B
:100980009B090E9418254B015C010E946F02609335
:10099000EA067093EB068093EC069093ED0684E0F4
:1009A000E816F10471F12091D2063091D3064091FE
:1009B000D4065091D5066091BE067091BF06809115
:1009C000C0069091C1060E949E26A50194010E9436
:1009D000792520E030E041E655E40E940B27209184
:1009E000D6063091D7064091D8065091D9060E947C
:1009F0009F266093D6067093D7068093D80690936F
:100A0000D9066091E6067091E7068091E80690911C
:100A1000E9060E941825A50194010E949F260E94C4
:100A200084276093E6067093E7068093E806909328
:100A3000E9068090BE069090BF06A090C006B090D8
:100A4000C1062DEC3CEC4CEC5DE3C501B4010E9409
:100A5000B3271816D4F52091A5063091A60640912B
:100A6000A7065091A8066091B2067091B3068091D6
:100A7000B4069091B5060E949E26A50194010E949D
:100A80000B272AE037ED43EA5BE30E9479254B010F
:100A90005C0122E538EB4EE75FE36091CA06709196
:100AA000CB068091CC069091CD060E9479259B01C2
:100AB000AC01C501B4010E949F266093CA067093E1
:100AC000CB068093CC069093CD0691E0E916F10415
:100AD000B1F4809178060F900F900F900F90DF91F6
:100AE000CF91FF90EF90DF90CF90BF90AF909F900D
:100AF0008F907F906F905F904F900C947B02A4E05A
:100B0000EA16F10409F4F2C020E030E0A901609196
:100B100094067091950680919606909197060E9492
:100B2000B32718160CF0B6C10E946F020E946F0224
:100B30006093EE067093EF068093F0069093F106B3
:100B40008091940690919506A0919606B091970693
:100B500089839A83AB83BC838090BE069090BF0646
:100B6000A090C006B090C1062091980630919906D9
:100B700040919A0650919B06BC01CD010E949E2691
:100B80006B017C0120E030E0A9010E94B327181618
:100B90000CF0BFC080913A058111BBC02091CE06F8
:100BA0003091CF064091D0065091D106C701B601D1
:100BB0000E949E2620918A0630918B0640918C06D9
:100BC00050918D060E9479256B017C016091780619
:100BD00070E090E080E00E941A259B01AC01C70103
:100BE000B6010E949F266B017C012091D2063091B4
:100BF000D3064091D4065091D50660917A06709143
:100C00007B0680917C0690917D060E949F262B0199
:100C10003C012DEC3CEC4CE45EE30E949F269B01E2
:100C2000AC01C501B4010E94B32718160CF07EC0B8
:100C300020917406309175064091760650917706A2
:100C40006091A5067091A6068091A7069091A806CE
:100C50000E949F269B01AC016091B2067091B30681
:100C60008091B4069091B5060E94B32718160CF037
:100C70005DC06091780670E090E080E00E941825E9
:100C800060939C0670939D0680939E0690939F06AA
:100C9000C0909C06D0909D06E0909E06F0909F0626
:100CA00020E030E0A901C701B6010E94B32720E08F
:100CB00030E040E05FE387FDE8C0C701B6010E9475
:100CC0009F260E947D27862F0E947B02809194069A
:100CD00090919506A0919606B091970680939806FC
:100CE00090939906A0939A06B0939B060F900F904D
:100CF0000F900F90DF91CF91FF90EF90DF90CF900A
:100D0000BF90AF909F908F907F906F905F904F902B
:100D1000089520918A0630918B0640918C0650915F
:100D20008D06C701B6010E9479255DCF2DEC3CEC04
:100D30004CEC5DE3C301B2010E949F269B01AC0114
:100D4000C501B4010E94B327181664F520917406FA
:100D50003091750640917606509177066091A50610
:100D60007091A6068091A7069091A8060E949F26E2
:100D70009B01AC016091B2067091B3068091B406FC
:100D80009091B5060E94B327181664F46091780616
:100D900070E0660F771F072E000C880B990B0E94DE
:100DA0001A256ECF40909C0650909D0660909E063E
:100DB00070909F06A501940169817A818B819C8145
:100DC0000E949E26209186063091870640918806D3
:100DD000509189060E947925A70196010E949F26BD
:100DE0006B017C0120E030E04FE753EC0E941325BB
:100DF00087FD40C020E030E040E752E4C701B60183
:100E00000E94B327181634F4C12CD12C90E7E92E98
:100E100092E4F92EA7019601C301B2010E949F2618
:100E20006B017C0120E030E0A9010E94132587FDC1
:100E300028C0B09079066B2D70E090E080E00E94B1
:100E40001A259B01AC01C701B6010E94B3271816F1
:100E500044F46B2D70E090E080E00E9418256B0157
:100E60007C01C0929C06D0929D06E0929E06F09274
:100E70009F060ECFC12CD12C8FE7E82E83ECF82EE5
:100E8000C9CFC12CD12C7601ECCFC701B6010E948D
:100E90009E2617CF80E018CF4F925F926F927F927D
:100EA0009F92AF92BF92CF92DF92EF92FF920F93F9
:100EB0001F93CF93DF9300D01F92CDB7DEB7D82E0C
:100EC0008091F1059091F205A091F305B091F405A0
:100ED000892B8A2B8B2BD9F00E94180200913505A3
:100EE000109136052091370530913805601B710B44
:100EF000820B930B0091F1051091F2052091F305FF
:100F00003091F4056017710782079307C8F20E94B9
:100F100018026093350570933605809337059093DA
:100F20003805E091F905F091FA05309759F04091B4
:100F3000F5055091F6056091F7057091F8058D2D36
:100F40000995D82EE0903305F09034054D2C512CA6
:100F5000712C612CE114F10409F459C0D7011C96DD
:100F6000CC901C978091EF059091F0058436910507
:100F700010F41C961C92D701ED91FC91A280B380D5
:100F800019821A821B82DD2079F1F701369610E072
:100F900000E02191222319F19280992001F130E0A3
:100FA00050E040E02F5F3F4F4F4F5F4FC301B20112
:100FB0000E94BD279B01AC01892D90E0B0E0A0E02C
:100FC000BC01CD016F5F7F4F8F4F9F4F0E94BD27A8
:100FD000A1E0B0E0AC0FBD1FA00FB11F8C930F5F5D
:100FE0001F4F03301105A9F609811A812B81F701E2
:100FF0004585568562817381C701F5010995D70141
:101000001C96CC921C971496ED90FC90A3CF8091E7
:101010003105909132058C010F5F1F4F10933205FF
:10102000009331054997B4F10E946F02C0902D05DD
:10103000D0902E05E0902F05F09030059B01AC017B
:101040002C193D094E095F0921F421E030E040E010
:1010500050E088EE93E0089FB001099F700D189F43
:10106000700D1124072E000C880B990B0E94E127AC
:101070003093F0052093EF05109232051092310560
:101080000E946F0260932D0570932E0580932F05AB
:10109000909330050F900F900F90DF91CF911F919B
:1010A0000F91FF90EF90DF90CF90BF90AF909F9007
:1010B0007F906F905F904F9008950F931F93CF9301
:1010C000DF93CDB7DEB72C970FB6F894DEBF0FBE17
:1010D000CDBFFC01EE0FFF1FED5DF94F0190F081D8
:1010E000E02D3197E730F10510F58C01E658F74F08
:1010F0000C942228AB08A2088108B408BD08C608D1
:10110000D6088091050190910601A0910701B09148
:10111000080189839A83AB83BC830E946F029B0181
:10112000AC0162E070E0CE0101960E948C002C962A
:101130000FB6F894DEBF0FBECDBFDF91CF911F91E8
:101140000F9108958091090190910A01A0910B01DE
:10115000B0910C01DECF80910D0190910E01A09114
:101160000F01B0911001D5CF809111019091120122
:10117000A0911301B0911401CCCF809115019091F1
:101180001601A0911701B0911801C3CF88E0E9E1E1
:10119000F1E0DE01119601900D928A95E1F70E942F
:1011A0006F029B01AC0164E070E0BDCF8CE0E1E236
:1011B000F1E0DE01119601900D928A95E1F70E940F
:1011C0006F029B01AC0166E070E0ADCF80E991E079
:1011D00008950895AF92BF92CF92DF92EF92FF925F
:1011E0000F931F93CF93DF936C017B018B01040F4F
:1011F000151FEB015E01AE18BF08C017D10759F0EB
:101200006991D601ED91FC910190F081E02DC6012C
:101210000995892B79F7C501DF91CF911F910F9126
:10122000FF90EF90DF90CF90BF90AF900895FC01BA
:10123000538D448D252F30E0842F90E0821B930B3B
:10124000541710F0CF96089501970895FC01918DE1
:10125000828D981761F0A28DAE0FBF2FB11D5D96E4
:101260008C91928D9F5F9F73928F90E008958FEF86
:101270009FEF0895FC01918D828D981731F0828D3A
:10128000E80FF11D858D90E008958FEF9FEF089591
:10129000FC01918D228D892F90E0805C9F4F821BF5
:1012A00091098F739927089581E595E00E94480977
:1012B00021E0892B09F420E0822F089580E090E05E
:1012C000892B29F00E94540981110C940000089583
:1012D000FC01A48DA80FB92FB11DA35ABF4F2C91AB
:1012E000848D90E001968F739927848FA689B789A2
:1012F0002C93A089B1898C91837080648C93938D99
:10130000848D981306C00288F389E02D80818F7D3B
:1013100080830895EF92FF920F931F93CF93DF93F3
:10132000EC0181E0888F9B8D8C8D98131AC0E88921
:10133000F989808185FF15C09FB7F894EE89FF89F0
:101340006083E889F98980818370806480839FBF8E
:1013500081E090E0DF91CF911F910F91FF90EF908E
:101360000895F62E0B8D10E00F5F1F4F0F7311279E
:10137000E02E8C8D8E110CC00FB607FCFACFE889D9
:10138000F989808185FFF5CFCE010E946809F1CFF0
:10139000EB8DEC0FFD2FF11DE35AFF4FF0829FB74D
:1013A000F8940B8FEA89FB8980818062CFCFCF933D
:1013B000DF93EC01888D8823B9F0AA89BB89E8897D
:1013C000F9898C9185FD03C0808186FD0DC00FB623
:1013D00007FCF7CF8C9185FFF2CF808185FFEDCFA1
:1013E000CE010E946809E9CFDF91CF9108950F9354
:1013F0001F93CF93DF932091DB042F5F322F377041
:101400003093DB0420FF2BC020E831FD20643470D2
:1014100009F02062205FFC01EC01239600E011E05E
:101420006485662329F070E0C8010E94CD276F5FB4
:101430006187322F369F030E30E0311D11243111A8
:1014400010C01682662311F0615061873196EC1747
:10145000FD0731F7DF91CF911F910F91089520E0A3
:10146000D4CF31503683EECF4F925F926F927F92FE
:101470008F92AF92BF92CF92DF92EF920F931F9312
:10148000CF93DF933C01EB010E941802F301278503
:101490003089621B730B6A307105B0F3F894E881F0
:1014A000F9817BB174606BB16B7F6BB9CA848F813A
:1014B0002C2D281B822F2F83BF844A805B801D85A3
:1014C0000C85DE841F5F0F5FD3949E813885A984CD
:1014D000EB844181D20120E0C32F522F322F318182
:1014E000442788943111380F08F43FEF8195889490
:1014F00010FD430F4795889411FD430F479588943D
:1015000012FD430F4795889413FD430F4795889428
:1015100014FD430F4795889415FD430F4795889414
:1015200016FD430F4795889417FD430F4795889400
:10153000232F1111242F8C0D422F002C7BB900C0BA
:1015400047FF6BB930812227889400C000C0002C6F
:101550006BB93111390F00C0002C7BB900C046FFB8
:101560006BB908F43FEF9195889400C000C0002C3F
:101570006BB900FD230F00C0002C7BB900C045FFF4
:101580006BB92795889401FD230F00C000C0002C83
:101590006BB92795889400C0002C7BB900C044FF2C
:1015A0006BB902FD230F2795889400C000C0002C62
:1015B0006BB903FD230F00C0002C7BB900C043FFB3
:1015C0006BB92795889404FD230F00C000C0002C40
:1015D0006BB92795889400C0002C7BB900C042FFEE
:1015E0006BB905FD230F2795889400C000C0002C1F
:1015F0006BB906FD230F00C0002C7BB900C041FF72
:101600006BB92795889407FD230F00C000C0002CFC
:101610006BB92795889400C0002C7BB900C040FFAF
:101620006BB9432F0111422F9A0D00C000C0002C4E
:101630006BB900C000C0002C7BB900C047FF6BB97C
:1016400032812227889400C000C0002C6BB9311170
:101650003C0F00C0002C7BB900C046FF6BB908F4FA
:101660003FEFEB0DF11D00C000C0002C6BB9D0FCAA
:10167000230F00C0002C7BB900C045FF6BB9279534
:101680008894D1FC230F00C000C0002C6BB92795B3
:10169000889400C0002C7BB900C044FF6BB9D2FC19
:1016A000230F2795889400C000C0002C6BB9D3FC91
:1016B000230F00C0002C7BB900C043FF6BB92795F6
:1016C0008894D4FC230F00C000C0002C6BB9279570
:1016D000889400C0002C7BB900C042FF6BB9D5FCD8
:1016E000230F2795889400C000C0002C6BB9D6FC4E
:1016F000230F00C0002C7BB900C041FF6BB92795B8
:101700008894D7FC230F00C000C0002C6BB927952C
:10171000889400C0002C7BB900C040FF6BB9432FF8
:10172000D110422FC19500C000C0002C6BB9CE0D66
:1017300000C000C07BB900C047FF6BB931812227D0
:10174000889400C000C0002C6BB93111380F00C064
:10175000002C7BB900C046FF6BB908F43FEF8195C0
:10176000889400C000C0002C6BB910FD230F00C08E
:10177000002C7BB900C045FF6BB92795889411FDFB
:10178000230F00C000C0002C6BB92795889400C0BF
:10179000002C7BB900C044FF6BB912FD230F2795C5
:1017A000889400C000C0002C6BB913FD230F00C04B
:1017B000002C7BB900C043FF6BB92795889414FDBA
:1017C000230F00C000C0002C6BB92795889400C07F
:1017D000002C7BB900C042FF6BB915FD230F279584
:1017E000889400C000C0002C6BB916FD230F00C008
:1017F000002C7BB900C041FF6BB92795889417FD79
:10180000230F00C000C0002C6BB92795889400C03E
:10181000002C7BB900C040FF6BB9432F1111422F40
:101820008C0D00C000C0002C6BB9119709F086CE5A
:1018300020EE31E0D2010E942828DC01CB01F4E047
:10184000B695A79597958795FA95D1F730E020E062
:10185000B901EAE94E9E040C611D5E9E600D711D8A
:101860001124650D711D860F971FA11DB11D893EA5
:1018700043E09407A105B10508F434C0885E9340A5
:10188000A109B10942E0B695A795979587954A9524
:10189000D1F747E0849F080E211D949F200D311D34
:1018A0001124290F311D6091DA0470E0860F971F13
:1018B000820F931F409125055091260560912705C1
:1018C00070912805292F3327420F531F611D711D69
:1018D00040932505509326056093270570932805AE
:1018E0008093DA0478940E941802F301708B678762
:1018F000DF91CF911F910F91EF90DF90CF90BF902C
:10190000AF908F907F906F905F904F900895529A14
:101910000895EF92FF920F931F93CF93DF93CDB76C
:10192000DEB762970FB6F894DEBF0FBECDBF7C0165
:10193000DC011C968C917A8369835C834B835E8384
:101940004D830D871E872F87813001F5CE010196CB
:101950000E94F70983E0888B1A8A198AD701ED91D2
:10196000FC910484F585E02DBE016F5F7F4FC701B8
:10197000099562960FB6F894DEBF0FBECDBFDF911A
:10198000CF911F910F91FF90EF9008951C861B86B9
:101990001A86198618861F82DDCFEF92FF920F9369
:1019A0001F93CF93DF93CDB7DEB762970FB6F8944E
:1019B000DEBF0FBECDBF7C01DC011C968C917A830B
:1019C00069835C834B835E834D830D871E872F87DE
:1019D0008130F9F4CE0101960E94F709188A1A8A1B
:1019E000198AD701ED91FC910484F585E02DBE01A3
:1019F0006F5F7F4FC701099562960FB6F894DEBFFF
:101A00000FBECDBFDF91CF911F910F91FF90EF904F
:101A100008951C861B861A86198618861F82DECFBB
:101A200090E080E00895FC018585968508950F93E8
:101A30001F93CF93DF9300D01F92CDB7DEB7AB01DA
:101A400019821A821B82DC01ED91FC910190F081D8
:101A5000E02D00E010E020E0BE016F5F7F4F0995B0
:101A60000F900F900F90DF91CF911F910F910895DC
:101A700080913A058823B9F081E08093390570E0C0
:101A800060E08AE00E94A30161E070E080E090E005
:101A90000E943D0260E089E00E9444016FEF70E027
:101AA0008AE00C94A3010895FC0180859185823021
:101AB000910561F46330710531F06530710519F0FD
:101AC0006230710589F467E070E004C0059711F495
:101AD0006BE070E0808191818617970721F0718318
:101AE000608381E08687089568E070E0F3CFFC01B1
:101AF00001900020E9F73197AF01481B590BBC0159
:101B000081E595E00C94EA08009711F00C94770DAC
:101B100090E080E008958F929F92AF92BF920F93D2
:101B20001F93CF93DF93CDB7DEB7A1970FB6F8948D
:101B3000DEBF0FBECDBF19A2423008F44AE08E01CD
:101B40000F5D1F4F842E912CB12CA12CA501940167
:101B50000E94E127E62FB901CA01EA30D4F4E05D22
:101B6000D801EE938D01232B242B252B79F7CD0162
:101B70000E94840DA1960FB6F894DEBF0FBECDBFB4
:101B8000DF91CF911F910F91BF90AF909F908F9059
:101B90000895E95CE5CF0C94840DCF93DF930E9408
:101BA000840DEC0186EF93E00E94770D8C0F9D1F52
:101BB000DF91CF910895FF920F931F93CF93DF93FF
:101BC0000BE315E0D0E0C0E0F801F1908F01CE0109
:101BD0000E943726F81621F06F2DCE010E943F2675
:101BE0002196C631D10581F78BE395E0DF91CF9146
:101BF0001F910F91FF900895EBE3F5E080819181B3
:101C0000A281B3810196A11DB11D80839183A2831E
:101C1000B3830C94DB0D0F931F936093480570936F
:101C2000490580934A0590934B050E946F020091ED
:101C3000D6041091D7042091D8043091D904601BA8
:101C4000710B820B930B613C77428940910560F0E8
:101C50000E94FC0D0E946F026093D6047093D7041B
:101C60008093D8049093D9041F910F910895CF9336
:101C7000DF93BC0190E080E04AE00E948B0DEC0114
:101C800086EF93E00E94770D8C0F9D1FDF91CF911F
:101C90000895CF92DF92EF92FF92CF93DF9397FF59
:101CA0001BC06B017C016DE281E595E00E948A0911
:101CB000EC0166277727CB016C197D098E099F09F6
:101CC0004AE00E948B0D8C0F9D1FDF91CF91FF90FA
:101CD000EF90DF90CF9008954AE0DF91CF91FF9091
:101CE000EF90DF90CF900C948B0DCF93DF93BC01DE
:101CF000990F880B990B0E94490EEC0186EF93E037
:101D00000E94770D8C0F9D1FDF91CF9108954F9208
:101D10005F926F927F928F929F92AF92BF92CF927B
:101D2000DF92EF92FF920F931F93CF936B017C0191
:101D3000742EAC019B010E94B827882399F081E69C
:101D400091E0CF911F910F91FF90EF90DF90CF9096
:101D5000BF90AF909F908F907F906F905F904F90CB
:101D60000C94770D46015701E894B7F82FEF3FEF39
:101D70004FE75FE7C501B4010E94B82781110DC08C
:101D80002FEF3FEF4FE75FE7C501B4010E94132536
:101D900018161CF485E691E0D4CF2FEF3FEF4FE704
:101DA0005FE4C701B6010E94B32718161CF489E648
:101DB00091E0C7CF2FEF3FEF4FE75FECC701B601D0
:101DC0000E94132587FDF3CF20E030E0A901C70171
:101DD000B6010E94132510E000E087FF0AC06DE203
:101DE00081E595E00E948A098C01F7FAF094F7F8F2
:101DF000F094C0E060E070E080E09FE37C1641F08A
:101E000020E030E040E251E40E940B27CF5FF6CFA4
:101E1000A70196010E949F262B013C010E94842766
:101E20004B015C014AE00E948B0D7C01E00EF11E2B
:101E3000CC23C1F1C501B4010E9418259B01AC015E
:101E4000C301B2010E949E264B015C016EE281E556
:101E500095E00E948A09E80EF91EC15018F120E0B1
:101E600030E040E251E4C501B4010E9479252B0124
:101E70003C010E9484274B01B12CA12C4AE0C501F2
:101E8000B4010E948B0DE80EF91EC501B4010E9439
:101E900018259B01AC01C301B2010E949E264B0193
:101EA0005C01DBCFC701CF911F910F91FF90EF90A5
:101EB000DF90CF90BF90AF909F908F907F906F906A
:101EC0005F904F900895CF93DF9388EF93E00E9447
:101ED000CD0D8DE691E00E94CB0DCBE3D5E068817E
:101EE00079818A819B814AE00E948B0D86EF93E085
:101EF0000E94770D8CE791E00E94CB0D8C8190E0E1
:101F00000E94750E86E991E00E94CB0D6D817E8165
:101F10008F81988542E00E94870E86EF93E00E94B1
:101F2000770D81EB91E00E94CB0D898590E00E94B6
:101F3000750E83EC91E00E94CB0D8A8590E00E94A3
:101F4000750E85ED91E00E94CB0D8B859C850E94DE
:101F5000370E85EE91E00E94CB0D6D857E858F85D5
:101F6000988920E83EEE46E350E00E940328CA012B
:101F7000B9010E94490E84EF91E00E94CB0D6D855E
:101F80007E858F8598890E94490E88EF91E00E9496
:101F9000CD0D8AEF91E00E94CB0D89899A890E942C
:101FA000370E8FE092E00E94CB0D8B899C89DF91E8
:101FB000CF910C94370E0F931F93CF93DF930BE3C6
:101FC00015E0D0E0C0E0CE010E943726F8018193F1
:101FD0008F012196C631D105B1F70E94630F809120
:101FE0004405809317050E946F02009148051091E7
:101FF000490520914A0530914B05601B710B820BFE
:10200000930B60931C0570931D0580931E059093A0
:102010001F05809146058093050580914C059091A0
:102020004D05909304058093030580914E05909192
:102030004F059093190580931805DF91CF911F915B
:102040000F910895CF92DF92EF92FF921F93CF935B
:10205000DF93CDB7DEB7C054D1090FB6F894DEBF19
:102060000FBECDBF109139051123E1F01092390553
:1020700065E272E0CE0101960E944828CE010196E9
:102080000E94840D812FC05CDF4F0FB6F894DEBF35
:102090000FBECDBFDF91CF911F91FF90EF90DF90EA
:1020A000CF9008950E946F02C090E206D090E306A0
:1020B000E090E406F090E5066C197D098E099F0911
:1020C000C0903806D0903906E0903A06F0903B0672
:1020D000C616D706E806F906A0F5209160063091ED
:1020E000610640916206509163066091A506709169
:1020F000A6068091A7069091A8060E94B3271816FD
:10210000F4F42091D2063091D3064091D406509138
:10211000D5066091BE067091BF068091C006909171
:10212000C1060E949E269F772DEC3CEC4CE45DE3BB
:102130000E94132587FF03C081E08093A40611E06D
:10214000A1CF0E946F02C090E206D090E306E0901B
:10215000E406F090E5066C197D098E099F09C09090
:102160003C06D0903D06E0903E06F0903F06C61635
:10217000D706E806F90608F085CF20917006309161
:10218000710640917206509173066091BE0670917F
:10219000BF068091C0069091C1060E94132587FF5B
:1021A00071CF0E946F02C090F206D090F306E090CB
:1021B000F406F090F5066C197D098E099F09C09010
:1021C0003C06D0903D06E0903E06F0903F06C616D5
:1021D000D706E806F90608F455CF2091700630912D
:1021E0007106409172065091730660919406709149
:1021F000950680919606909197060E94B32718162F
:102200000CF040CF2091740630917506409176060F
:10221000509177066091A5067091A6068091A70659
:102220009091A8060E949F269B01AC016091B20686
:102230007091B3068091B4069091B5060E94B327C1
:1022400018160CF01FCF80E00E947B0278CF0E940E
:1022500043285F926F927F928F929F92AF92BF922C
:10226000CF92DF92EF92FF920F931F93CF93DF9362
:10227000CDB7DEB7C054D1090FB6F894DEBF0FBE9C
:10228000CDBF0FEF1FEF83E0D82E94E0C92E2EE0D4
:10229000B22E38E0A32E45E0942E56E0852E6CE059
:1022A000762E6624639472E0572EE0E1EE2EF12C38
:1022B00081E595E00E944809892B09F450C181E528
:1022C00095E00E9426092091C4043091C504F901CB
:1022D000EA53FB4F80839091C304923009F460C0AD
:1022E00098F4992309F453C0913009F456C08091B1
:1022F000C4049091C5040196B7010E94CD27909324
:10230000C5048093C404D4CF933009F453C09430EF
:1023100071F72F5F3F4F4091C20450E024173507FB
:1023200009F083C08A3009F079C01092C30410927A
:10233000C5041092C4040E946F026093FB05709361
:10234000FC058093FD059093FE05E091C904E154DE
:10235000E73108F004C1F0E0E055FE4E0C9422286D
:102360006F14AF121A12AF121C148613AF12AF12F1
:10237000AF12AF12AF122213AF120E14AF12AF1280
:10238000AF128913AF12AF12AF12AF1241138034E4
:1023900009F046C06092C304AACF5092C304A7CFED
:1023A0002B533B4FD9018C91873109F037C0D09224
:1023B000C3049DCFC092C3048154873108F02CC060
:1023C000E82FF0E0EA51FE4E0C94222800120C1285
:1023D000FD110C12061200120C120C120C120C122F
:1023E0000C1200120C1203120C120C120C12091215
:1023F0000C120C120C120C1200127092C20477CF45
:102400008092C20474CF9092C20471CFA092C20491
:102410006ECFB092C2046BCF1092C2041092C3046C
:102420001093C5040093C40462CF241735070CF43D
:102430005ECFF4CF80911A0590911B050297029709
:1024400060F01092CA0460E472E0CE0101960E942E
:102450004828CE0101960E94840D809192069091A9
:1024600093062091CA04222309F4CCC0009701F5F9
:1024700067E772E0CE0101960E944828CE010196DE
:102480000E94840D80914505811105C081E08093F3
:1024900045050E94FC0D81E090E0909393068093A7
:1024A00092068091920690919306009709F457C086
:1024B0002091CB042223E9F10C9709F0BEC02091B2
:1024C000A5063091A6064091A7065091A8066091F6
:1024D000CC047091CD048091CE049091CF040E94E1
:1024E0009E266093DA067093DB068093DC06909359
:1024F000DD0621E020933F05609340057093410580
:1025000080934205909343050E94FC0D8CE992E074
:102510000E94CB0D6091DA067091DB068091DC069B
:102520009091DD0642E00E94870E86EF93E00E94C4
:10253000770D8091D004882391F010923F050E947E
:10254000FC0D8CE090E0909393068093920610929D
:10255000DA061092DB061092DC061092DD060E946D
:102560006F020091FB051091FC052091FD05309153
:10257000FE05601B710B820B930B61317742810565
:10258000910548F18091050690910606019741F06A
:1025900081E090E0909306068093050680931206F2
:1025A00080910706882329F01092070681E0809326
:1025B000120680910906882329F01092090681E00D
:1025C0008093120680910806882329F0109208064D
:1025D00081E080931206C05CDF4F0FB6F894DEBF37
:1025E0000FBECDBFDF91CF911F910F91FF90EF9064
:1025F000DF90CF90BF90AF909F908F907F906F9023
:102600005F900895892B09F4AACF69E872E0CE01A2
:1026100001960E944828CE0101960E94840D1092D6
:1026200093061092920680914505882309F497CF6E
:10263000109245050E94FC0D34CF88EB92E00E9479
:10264000CD0D77CF8091CA04882379F069EF72E0CD
:10265000CE0101960E944828CE0101960E94840D69
:1026600061E087E00E9444017ACF69E073E0CE0127
:1026700001960E944828CE0101960E94840D60E0D8
:10268000F0CF0E946F026093FF0570930006809365
:10269000010690930206109214051092060580918F
:1026A0005005882321F0109244050E94FC0D809172
:1026B00017059091CA049923C1F0811150CF8091E0
:1026C0004405882321F0109244050E94FC0D81E00E
:1026D000809317056AE173E0CE0101960E944828B5
:1026E000CE0101960E94840D3ACF882309F437CF9A
:1026F00080914405811105C081E0809344050E94CA
:10270000FC0D109217056DE273E0E6CF61E473E013
:10271000E3CF8091CA0490E020910506309106062F
:102720008217930739F0909306068093050681E09F
:10273000809312068091CF0490910706891729F0A3
:102740008093070681E0809312068091D1049091D6
:102750000906891729F08093090681E08093120603
:102760008091D00490910806891729F0809308067B
:1027700081E0809312068091D204282F30E04091AE
:102780000B0650910C0624173507E9F42230310569
:1027900009F0E5CE8091030690910406AC01475004
:1027A000510942305105B0F04B5F5F4F4230510547
:1027B00010F0059751F587E090E090930406809320
:1027C000030681E018C0823029F348F48823B1F071
:1027D000813069F030930C0620930B06C0CE843014
:1027E000D1F0B0F08530B1F78BE090E0E6CF1092F9
:1027F00004061092030680931106ECCF81E090E06E
:102800009093040680930306F6CF88E090E0D5CF3E
:1028100089E090E0D2CF8AE090E0CFCF6BE673E022
:10282000CE0101960E944828CE0101960E94840D97
:1028300081E08093070593CE8091CA048823B9F084
:1028400068E773E0CE0101960E944828CE01019608
:102850000E94840DEFE3F5E082E1DF011D928A958D
:10286000E9F70E94630F0E94DB0D0E94DB0F80914D
:10287000CC048823B9F06BE873E0CE0101960E9486
:102880004828CE0101960E94840DE4E4F5E08DE035
:10289000DF011D928A95E9F70E94630F0E94DB0D0C
:1028A0000E94DB0F8091CB04882309F458CE6EE997
:1028B00073E0CE0101960E944828CE0101960E9445
:1028C000840D86E1EBE3F5E0DF011D928A95E9F7DF
:1028D0000E94630F0E94DB0D0E94DB0F40CE8091AF
:1028E000CA04882371F11092A0061092A1061092DA
:1028F000A2061092A30680919206909193068D7F76
:10290000892B09F42CCE8091A0069091A106A0916C
:10291000A206B091A306892B8A2B8B2B09F41FCE1C
:1029200062EB73E0CE0101960E944828CE01019629
:102930000E94840D8BE090E0909393068093920622
:102940000ECE8091A0069091A106A091A206B09112
:10295000A306892B8A2B8B2B71F60E946F02609342
:10296000A0067093A1068093A2069093A306C3CFFE
:102970001F920F920FB60F9211242F933F938F93B4
:102980009F93AF93BF938091250590912605A091C9
:102990002705B09128053091240523E0230F2D371A
:1029A00058F50196A11DB11D20932405809325059E
:1029B00090932605A0932705B093280580912905BB
:1029C00090912A05A0912B05B0912C050196A11D8F
:1029D000B11D8093290590932A05A0932B05B093F0
:1029E0002C05BF91AF919F918F913F912F910F90A7
:1029F0000FBE0F901F90189526E8230F0296A11D79
:102A0000B11DD2CF1F920F920FB60F9211242F93A8
:102A10003F934F935F936F937F938F939F93AF9366
:102A2000BF93EF93FF93E0910201F09103010995A9
:102A3000FF91EF91BF91AF919F918F917F916F9196
:102A40005F914F913F912F910F900FBE0F901F906C
:102A500018951F920F920FB60F9211242F933F9348
:102A60004F935F936F937F938F939F93AF93BF9396
:102A7000EF93FF93E0910001F09101010995FF911F
:102A8000EF91BF91AF919F918F917F916F915F91E6
:102A90004F913F912F910F900FBE0F901F9018955F
:102AA0001F920F920FB60F9211242F933F934F93C3
:102AB0005F936F937F938F939F93AF93BF93EF93A6
:102AC000FF9381E595E00E946809FF91EF91BF9126
:102AD000AF919F918F917F916F915F914F913F91B6
:102AE0002F910F900FBE0F901F9018951F920F926D
:102AF0000FB60F9211242F938F939F93EF93FF9311
:102B0000E0916105F09162058081E0916705F091A7
:102B1000680582FD1BC0908180916A058F5F8F736D
:102B200020916B05821741F0E0916A05F0E0EF5AC1
:102B3000FA4F958F80936A05FF91EF919F918F9146
:102B40002F910F900FBE0F901F9018958081F4CF9A
:102B5000E1E5F5E01382128288EE93E0A0E0B0E0B8
:102B600084839583A683B78383E591E091838083F3
:102B700085EC90E09587848784EC90E09787868742
:102B800080EC90E0918B808B81EC90E0938B828B3A
:102B900082EC90E0958B848B86EC90E0978B868B13
:102BA000118E128E138E148EEEEEF5E08FEF808371
:102BB00012821182148613868FEF9FEFDC018783C8
:102BC0009087A187B287ECE2F6E08DEC9CECACE458
:102BD000BDE380839183A283B38340E65AEE60E035
:102BE00070E044835583668377834CE251E060E074
:102BF00070E0408751876287738740E355E760E064
:102C000070E0448755876687778742EC51E060E043
:102C100070E0408B518B628B738B40E050E066E933
:102C200073E4408F518F628F738F40EE53E964E0FD
:102C300070E0448F558F668F778F43E353E363E3F0
:102C40007FE340A351A362A373A344A355A366A348
:102C500077A343E353E363EB7FE340A751A762A766
:102C600073A740E050E060E670E444A755A766A76C
:102C700077A743E353E363E870E440AB51AB62AB47
:102C800073AB44EA50E765E870E444AB55AB66AB20
:102C900077AB4BE754E166E870E440AF51AF62AF09
:102CA00073AF46E656E666E870E444AF55AF66AFEC
:102CB00077AF40E050E068E870E440936C065093D2
:102CC0006D0660936E0670936F0680937006909306
:102CD0007106A0937206B09373068AE999E9A9E197
:102CE000BFE38093740690937506A0937606B09325
:102CF00077062EE0209378062CE3209379068093C4
:102D00007A0690937B06A0937C06B0937D068AE9B1
:102D100099E9A9E9BEE380937E0690937F06A0938C
:102D20008006B09381068AE999E9A9E1BEE3809320
:102D3000820690938306A0938406B09385064DEC9B
:102D40005CEC6CE47EE340938606509387066093C8
:102D500088067093890640E050E068E472E440938E
:102D60008A0650938B0660938C0670938D064FE60F
:102D700052E163E07AE340938E0650938F066093AE
:102D800090067093910610929306109292061092FC
:102D9000940610929506109296061092970610923D
:102DA00098061092990610929A0610929B0610921D
:102DB0009C0610929D0610929E0610929F061092FD
:102DC000A0061092A1061092A2061092A3061092DD
:102DD000A4061092A5061092A6061092A7061092BD
:102DE000A8061092A9061092AA061092AB0610929D
:102DF000AC061092AD061092AE061092AF0610927D
:102E0000B0061092B1061092B2061092B30610925C
:102E1000B4061092B5061092B6061092B70610923C
:102E2000B8061092B9061092BA061092BB0610921C
:102E3000BC061092BD061092BE061092BF061092FC
:102E4000C0061092C1061092C2061092C3061092DC
:102E5000C4061092C5061092C6061092C7061092BC
:102E6000C8061092C90640E050E060E87FE3409356
:102E7000CA065093CB066093CC067093CD06809320
:102E8000CE069093CF06A093D006B093D106809340
:102E9000D2069093D306A093D406B093D506109291
:102EA000D6061092D7061092D8061092D906109224
:102EB000DA061092DB061092DC061092DD06109204
:102EC000DE061092DF061092E0061092E1061092E4
:102ED000E2061092E3061092E4061092E5061092C4
:102EE000E6061092E7061092E8061092E9061092A4
:102EF000EA061092EB061092EC061092ED06109284
:102F0000EE061092EF061092F0061092F106109263
:102F1000F2061092F3061092F4061092F506E3E022
:102F2000F6E0118210821382128281E0848385830D
:102F3000168217824287538764877587178616869D
:102F4000868714A215A216A217A210A60E946F02CD
:102F50006093FF057093000680930106909302062C
:102F60000E946F026093FB057093FC058093FD0542
:102F70009093FE050895CF93DF93CDB7DEB7CF577B
:102F8000D1090FB6F894DEBF0FBECDBF789484B5DB
:102F9000826084BD84B5816084BD85B5826085BD55
:102FA00085B5816085BD80916E00816080936E00E3
:102FB00010928100809181008260809381008091D5
:102FC0008100816080938100809180008160809386
:102FD00080008091B10084608093B1008091B00046
:102FE00081608093B00080917A00846080937A0041
:102FF00080917A00826080937A0080917A0081606B
:1030000080937A0080917A00806880937A00109291
:10301000C1000E94DB0F809118059091190501965F
:10302000909319058093180521E030E0892B11F465
:1030300030E020E080914E0590914F052817390728
:1030400031F030934F0520934E050E94FC0D61E056
:1030500088E00E94440161E088E00E94720161E022
:1030600088E00E94440161E085E00E94440161E043
:1030700085E00E94720161E085E00E94440161E008
:1030800087E00E94720161E087E00E94440160E0F5
:1030900081E10E94720160E086E00E94720161E0BD
:1030A0008FE00E94720170E060E08FE00E94A30157
:1030B00061E070E080E090E00E943D0260E08FE01F
:1030C0000E947201E0916105F091620582E08083C7
:1030D000E0915D05F0915E051082E0915F05F09151
:1030E000600580E1808310926905E0916505F091AB
:1030F000660586E08083E0916305F0916405808138
:1031000080618083E0916305F0916405808188602F
:103110008083E0916305F0916405808180688083FD
:10312000E0916305F091640580818F7D808385E067
:1031300090E0A0E0B0E08093550590935605A093F1
:103140005705B09358058091EF04811145C0109246
:10315000E1041092E0048FEF8093E4048093E5048F
:103160008093E6048093E7048093E8048093E90465
:1031700081E08093EA041092EC041092EB04109228
:10318000E3041092E2048091330590913405892B79
:1031900031F48EED94E09093340580933305E09103
:1031A000DC04F091DD04309721F08EED94E09583FE
:1031B00084838EED94E09093DD048093DC04109280
:1031C000EE041092ED0481E491E09093DF0480938B
:1031D000DE0481E08093EF04529A83E196E09093BD
:1031E000E1048093E00482E090E09093EC0480930B
:1031F000EB048091F1059091F205A091F305B09157
:10320000F405843C29E09207A105B10520F484EC83
:1032100099E0A0E0B0E08093F1059093F205A093CF
:10322000F305B093F4058091050690910606892B6D
:1032300039F0109206061092050681E0809312067E
:1032400089E18093190680931A0680931B061092D9
:103250001C0680931D0610921E06809119069091FF
:103260001A06A0911B068093130690931406A09350
:10327000150680911C0690911D06A0911E06809354
:10328000160690931706A093180610922406109223
:103290002306109226061092250681E090E0909376
:1032A000200680931F06909322068093210680912A
:1032B000EE050E944C078FE00E9400026AE070E079
:1032C00080E090E00E943D028FE00E940002809525
:1032D000909535E0969587953A95E1F78F71992706
:1032E00010E000E030E020E0E4E0F0E0AC01022E8D
:1032F00002C0569547950A94E2F741705527BF01E1
:10330000621B730B02C0440F551F6A95E2F7042B32
:10331000152B2F5F3F4F2530310541F782ED93E0AC
:103320000E94CB0DC8010E94370E10931B0500931D
:103330001A050531110531F483E090E090931B05E7
:1033400080931A0580911A0590911B0523E036E0C1
:103350003093F7062093F60623E020930401823091
:10336000910509F0A6C08CE496EAAAEABEE3809330
:10337000400690934106A0934206B093430661E055
:103380008AE00E94720161E089E00E94720160E0BF
:1033900080E10E94720160E08EE00E94720160E0B4
:1033A00083E00E94720188E39DE090930301809383
:1033B000020180916900837F886080936900E99AA7
:1033C00080914505882309F47CC081E090E09093CA
:1033D00093068093920680918100887F816080931C
:1033E000810080E00E947B0264EE73E08E010F5F3B
:1033F0001F4FC8010E944828C8010E94840DFF2465
:10340000F39492E0292E312C2AE0C22ED12C809107
:10341000FB0481110CC00E946F026093F70470934B
:10342000F8048093F9049093FA04F092FB0481E18C
:103430000E940002EE24E3948D3291400CF4E12CC2
:103440008090F7049090F804A090F904B090FA04EA
:103450000E946F029401215F3F4FA901461B570B49
:10346000EE965FAF4EAFEE97412C512C32015FE0EC
:10347000850E911CA11CB11C0E946F026815790574
:103480008A059B0518F581E10E94000221E08D323A
:10349000A1E09A070CF420E02E1571F3BFEF4B1A50
:1034A0005B0A6B0A7B0AEE24E394892B29F7E12C53
:1034B000E3CF039708F463CF83E393E3A3E5B0E49A
:1034C00056CF109293061092920685CFA8EEB3E0E5
:1034D000A30192010E944D26EE96EEADFFADEE9750
:1034E0009F01FF0F440B550B0E94E127CA01B90150
:1034F0000E9418252AE037ED43E25CE30E9479251B
:103500004B015C01609115057091160590E080E01B
:103510000E94182524EA30E74DE75FE30E947925F1
:103520009B01AC01C501B4010E949F260E94842723
:1035300070931605609315050E946F026093F7045F
:103540007093F8048093F9049093FA040E9429116F
:1035500080911705882369F10E946F0280901C05F5
:1035600090901D05A0901E05B0901F05681979095F
:103570008A099B0961157447874B914020F480911B
:103580000605811116C00E946F028090FF05909081
:103590000006A0900106B0900206681979098A0910
:1035A0009B0961387E4E8643910508F4E9C0F0928C
:1035B000070580910C0581110CC00E946F02609379
:1035C00008057093090580930A0590930B05F09206
:1035D0000C0588E00E941B01892B09F46DC08091C5
:1035E0000705882309F468C069EF73E0C8010E94E9
:1035F0004828C8010E94840D10920705F092060524
:1036000080915005811104C0F09244050E94FC0D88
:103610001092140580910A06882321F010920A0660
:10362000F09212060E946F026093080570930905DC
:1036300080930A0590930B050E946F0260931C050E
:1036400070931D0580931E0590931F050E946F02C5
:103650006093FF0570930006809301069093020625
:10366000809105058F5F8093050521E030E0811191
:1036700002C030E020E08091460590914705281770
:10368000390731F030934705209346050E94FC0D21
:103690000E946F0280901C0590901D05A0901E0551
:1036A000B0901F05681979098A099B090E940B0EC1
:1036B00060E088E00E9444010E946F02809008054B
:1036C00090900905A0900A05B0900B05681979093A
:1036D0008A099B09613375478105910568F188E086
:1036E0000E941B01892B41F568E074E0C8010E942B
:1036F0004828C8010E94840D80910305909104051B
:103700000196909304058093030521E030E0892B16
:1037100011F430E020E080914C0590914D05281780
:10372000390731F030934D0520934C050E94FC0D74
:1037300061E088E00E94440180911106882309F429
:103740007CC01092240610922306F0922706E09186
:103750000306F0910406ED30F10508F06CC0ED545D
:10376000F44E0C942228D71BEC1B5B1C7E1C481CBF
:10377000911CF31BBA1CDD1C041D391D4E1DEC1BD6
:103780000E946F02681979098A099B096137774C91
:103790008643910508F40DCFF092140580910A0636
:1037A000811107CFF0920A06F092120602CF20E0B4
:1037B00030E04FE753E460910D0670910E06809162
:1037C0000F06909110060E9479250E94842760932D
:1037D000190660931A0683C01092190610921A06F1
:1037E00010921B067EC020E030E04FE753E460916A
:1037F0000D0670910E0680910F06909110060E94A2
:1038000079250E9484276093190660931A06109206
:103810001B068091190690911A06A0911B068093B1
:10382000130690931406A093150687E090E09093FA
:103830002406809323061092110680911206882395
:1038400009F47EC11092260610922506F0922706F2
:1038500080910A06882331F021E030E0309306069B
:1038600020930506E0910506F0910606EA30F10581
:1038700008F06BC2E25CF34E0C942228631D781DA5
:10388000DC1D051E921E3E1E531E6A1E7D1E921ECC
:1038900020E030E04FE753E460910D0670910E0692
:1038A00080910F06909110060E9479250E9484272E
:1038B0006093190693CF20E030E04FE753E4609126
:1038C0000D0670910E0680910F06909110060E94D1
:1038D00079250E9484271092190610921A06609387
:1038E0001B068091190690911A06A0911B068093E1
:1038F000130690931406A09315069DCF20E030E0A8
:103900004FE753E460910D0670910E0680910F060B
:10391000909110060E9479250E9484271092190622
:1039200058CF20E030E04FE753E460910D067091EE
:103930000E0680910F06909110060E9479250E9434
:1039400084271092190610921A0660931B06809124
:10395000190690911A06A0911B0680931306909366
:103960001406A0931506A7E0B0E0B0932406A09338
:10397000230661CF80900D0690900E06A0900F0652
:10398000B090100620E030E04FE753E4C501B401E9
:103990000E9479250E9484276093190610921A06C6
:1039A00020E030E040E053E4C501B4010E947925F5
:1039B0000E94842760931B0616C020E030E04FE78A
:1039C00053E460910D0670910E0680910F06909160
:1039D00010060E9479250E94842760931906109290
:1039E0001A0610921B068091190690911A06A09152
:1039F0001B068093130690931406A093150630922D
:103A000024062092230617CF80900D0690900E0674
:103A1000A0900F06B090100620E030E04FE753E48E
:103A2000C501B4010E9479250E948427609319067C
:103A300020E030E040E053E4C501B4010E94792564
:103A40000E94842760931A0610921B068091190623
:103A500090911A06A0911B0680931306909314066A
:103A6000A0931506E4E0F0E0F0932406E09323062B
:103A7000E2CE20E030E04FE753E460910D06709114
:103A80000E0680910F06909110060E9479250E94E3
:103A900084276093190660931A068CCF20E030E0EB
:103AA0004FE753E460910D0670910E0680910F066A
:103AB000909110060E9479250E9484271092190681
:103AC00060931A068DCE20E030E04FE753E460911A
:103AD0000D0670910E0680910F06909110060E94BF
:103AE00079250E94842760931C0610921D06EFC062
:103AF00020E030E04FE753E460910D0670910E0630
:103B000080910F06909110060E9479250E948427CB
:103B100060931C0610921D0610921E0680911C06D2
:103B200090911D06A0911E0680931606909317068D
:103B3000A0931806309226062092250610921206AF
:103B400080910506909106060197029750F08091AA
:103B500007068111FDC087E090E0909326068093D0
:103B6000250690E080E00E945D0881E090E00E94E0
:103B70005D0880912706882331F08091EE050E9430
:103B80004C0710922706E0919206F0919306ED30D3
:103B9000F10508F00AC1E153F24E0C942228BF1E31
:103BA000C91E1C208420EA201B2136215E2185218C
:103BB0009021B721BC24102520E030E04FE753E4EA
:103BC00060910D0670910E0680910F06909110067F
:103BD0000E9479250E94842760931C0610921D067E
:103BE00010921E0680911C0690911D06A0911E0643
:103BF0008093160690931706A093180644E050E0B1
:103C0000509326064093250699CF80900D069090FC
:103C10000E06A0900F06B090100620E030E04FE7AF
:103C200053E4C501B4010E9479250E948427609362
:103C30001C0620E030E040EA50E4C501B4010E94D7
:103C400079250E94842760931D0620E030E040EA39
:103C500052E4C501B4010E9479250E948427609333
:103C60001E0680911C0690911D06A0911E06809351
:103C7000160690931706A093180660CF20E030E058
:103C80004FE753E460910D0670910E0680910F0688
:103C9000909110060E9479250E94842710921C069C
:103CA00010921D06DCCF20E030E04FE753E4609136
:103CB0000D0670910E0680910F06909110060E94DD
:103CC00079250E94842760931C0660931D0610923C
:103CD0001E06C7CF20E030E04FE753E460910D06A9
:103CE00070910E0680910F06909110060E94792522
:103CF0000E94842710921C06E8CF20E030E04FE7B6
:103D000053E460910D0670910E0680910F0690911C
:103D100010060E9479250E94842710921C06609349
:103D20001D069DCF20E030E04FE753E460910D0683
:103D300070910E0680910F06909110060E947925D1
:103D40000E94842760931C06EACF10921C06CDCEF9
:103D500080910806811107C0A6E0B0E0B093260666
:103D6000A0932506FECE80910906882309F4F9CE9A
:103D7000E5E0F0E0F0932606E0932506F2CE809190
:103D80003A05882319F080E00E947B0261E070E030
:103D9000A7C170E060E08091F6069091F7060E945E
:103DA000540D30929306209292060E946F028090EA
:103DB000200590902105A0902205B0902305681958
:103DC00079098A099B09643F71408105910508F4CE
:103DD00026C10E946F026093200570932105809395
:103DE00022059093230580901C0590901D05A090BE
:103DF0001E05B0901F05681979098A099B090E9460
:103E00000B0E80E422968FAF229787E190E02496F4
:103E10009FAF8EAF249780E525968FAF25978AE0D8
:103E2000EC968FAFEC9780911A0590911B05279621
:103E30009FAF8EAF2797809118059091190529960D
:103E40009FAF8EAF299787E00E941B0160968FAFCE
:103E500060978091170561968FAF61970E946F02FE
:103E60002F966CAF7DAF8EAF9FAF2F9780911505CA
:103E700090911605E9969FAF8EAFE99780919206D3
:103E800062968FAF62978091A5069091A606A09149
:103E9000A706B091A80666968CAF9DAFAEAFBFAF38
:103EA00066978091B2069091B306A091B406B09146
:103EB000B5066A968CAF9DAFAEAFBFAF6A978091E3
:103EC000AE069091AF06A091B006B091B1066E9685
:103ED0008CAF9DAFAEAFBFAF6E978091BE06909195
:103EE000BF06A091C006B091C106A2968CAF9DAF4F
:103EF000AEAFBFAFA2978091940690919506A09126
:103F00009606B0919706A6968CAF9DAFAEAFBFAFA9
:103F1000A6978091D6069091D706A091D806B09129
:103F2000D906AA968CAF9DAFAEAFBFAFAA978091CE
:103F3000CA069091CB06A091CC06B091CD06AE9664
:103F40008CAF9DAFAEAFBFAFAE978091D2069091D0
:103F5000D306A091D406B091D506E2968CAF9DAF62
:103F6000AEAFBFAFE29780913A05E3968FAFE3978C
:103F70008091E6069091E706A091E806B091E906E7
:103F8000E7968CAF9DAFAEAFBFAFE79780910306CA
:103F9000EA968FAFEA9780910506EB968FAFEB9785
:103FA0004BE350E0BE016F5B7F4F81E595E00E94DF
:103FB000EA0880911405882391F18090FF05909084
:103FC0000006A0900106B09002060E946F02E0E891
:103FD0008E0EEEEE9E1EE6E3AE1EB11CA501940110
:103FE000261B370B480B590BCA01B90128EE33E0E9
:103FF00040E050E00E94E1273F932F938AE994E04C
:104000009F938F931F930F930E944F28C8010E9484
:10401000840D0F900F900F900F900F900F9080E0F5
:1040200090E0892B09F4F3C90E945409882309F40C
:10403000E8C90E940000E5C90E94BC0210929C06DB
:1040400010929D0610929E0610929F061092A40652
:10405000109298061092990610929A0610929B065A
:104060001092E6061092E7061092E8061092E90612
:104070001092D6061092D7061092D8061092D90642
:1040800020914C0630914D0640914E0650914F06BE
:104090006091A5067091A6068091A7069091A8064A
:1040A0000E94B3271816D4F48091A0069091A1061F
:1040B000A091A206B091A306892B8A2B8B2BA9F085
:1040C00066E174E0C8010E944828C8010E94840D7E
:1040D0008BE090E0909393068093920664E070E00A
:1040E0008091F6069091F706E6C00E946F026093F9
:1040F000DE067093DF068093E0069093E106D0928F
:104100009306C0929206EACF0E946F028090E20668
:104110009090E306A090E406B090E506681979094E
:104120008A099B098090380690903906A0903A063B
:10413000B0903B0686169706A806B90678F40E944A
:104140006F026093DE067093DF068093E006909323
:10415000E106D0929306C092920627CE2091700677
:104160003091710640917206509173066091BE06BF
:104170007091BF068091C0069091C1060E94B3273E
:104180001816DCF40E946F028090E2069090E3061D
:10419000A090E406B090E506681979098A099B09A0
:1041A00080903C0690903D06A0903E06B0903F0661
:1041B00086169706A806B90610F21092D606109237
:1041C000D7061092D8061092D90681E090E00E949E
:1041D000A90384CF0E94BC028090A5069090A606F9
:1041E000A090A706B090A80620914C0630914D06ED
:1041F00040914E0650914F06C501B4010E9413250F
:1042000087FF04C0309293062092920620915406B4
:10421000309155064091560650915706C501B4019C
:104220000E94B327181624F4D0929306C0929206E7
:1042300066E070E055CF0E94BC0220914C063091A0
:104240004D0640914E0650914F066091A506709123
:10425000A6068091A7069091A8060E94132587FFC5
:10426000E7CF3092930620929206E2CF0E9422106E
:10427000811165CF83E090E00E94A9032091700630
:104280003091710640917206509173066091BE069E
:104290007091BF068091C0069091C1060E941325BF
:1042A0002091F6063091F70664E070E087FD02C0C9
:1042B00062E070E0C9010E94540D77CD0E94221087
:1042C00081113DCF6091440670914506809146066C
:1042D000909147069B01AC010E949F269B01AC0177
:1042E0006091D6067091D7068091D8069091D90634
:1042F0000E94B327181634F425E030E0309393067B
:104300002093920682E090E0B7CF0E9422108111A4
:1043100016CF84E090E00E94A90363E070E0E0CE55
:104320000E94BC02209168063091690640916A069D
:1043300050916B066091A5067091A6068091A70624
:104340009091A8060E94132587FF0EC00E946F025D
:104350006093DE067093DF068093E0069093E1069B
:10436000D0929306C092920665E070E0B9CE0E94AA
:10437000BC028091AD06882309F417CD0E946F021C
:104380008090DE069090DF06A090E006B090E106F7
:10439000681979098A099B0980903406909035063E
:1043A000A0903606B090370686169706A806B9067E
:1043B00008F0FBCC0E946F026093E2067093E30664
:1043C0008093E4069093E5068090A5069090A6065B
:1043D000A090A706B090A80620916C0630916D06BB
:1043E00040916E0650916F06C501B4010E94B3273B
:1043F00018163CF58090CE069090CF06A090D0067F
:10440000B090D106A50194016091D2067091D306B7
:104410008091D4069091D5060E94B327181644F4D3
:104420008092D2069092D306A092D406B092D5067E
:1044300089E090E090939306809392061092A406F0
:10444000B4CC8091C2069091C306A091C406B091ED
:10445000C506C458DF4F88839983AA83BB83CC5792
:10446000D040409070065090710660907206709037
:104470007306A3019201BC01CD010E94132587FFA1
:1044800033C0209198063091990640919A06509138
:104490009B06C301B2010E94132587FF25C0A50119
:1044A00094016091B6067091B7068091B80690911C
:1044B000B9060E949E2620E030E040E85FE30E94BB
:1044C000B32718168CF420914C0630914D0640917C
:1044D0004E0650914F06C501B4010E94B32787FDD7
:1044E00003C083E090E0A6CF8091A406811125C08F
:1044F00020916406309165064091660650916706EA
:10450000C501B4010E94B32787FD49C18091D2063D
:104510009091D306A091D406B091D50680939406CD
:1045200090939506A0939606B0939706A7E0B0E007
:10453000B0939306A093920638CC209160063091F8
:1045400061064091620650916306C501B4010E9464
:10455000B32787FD24C120916806309169064091F8
:104560006A0650916B06C501B4010E949E269F7792
:104570002AE037ED43EA5BE30E94132587FF66C01C
:104580006091A9067091AA068091AB069091AC0645
:104590009F772AE037ED43EA5BE30E94132587FF0C
:1045A00055C0A3019201C458DF4F688179818A8187
:1045B0009B81CC57D0400E94B32718160CF046C000
:1045C0002FE832EC45EF5CE36091C6067091C706B8
:1045D0008091C8069091C9060E9479254B015C0123
:1045E0002CEE31E548E75FE36091D2067091D30687
:1045F0008091D4069091D5060E9479259B01AC014B
:10460000C501B4010E949F264B015C0120E030E00F
:10461000A9010E94132587FDB5C02AE939E949E9B6
:104620005EE3C501B4010E94B32718163CF48AE981
:10463000882E89E9982EA92C8EE3B82E8092D20676
:104640009092D306A092D406B092D5060E946F0233
:104650008090EE069090EF06A090F006B090F106E4
:10466000681979098A099B090E9418254B015C0188
:104670000E946F026093EE067093EF068093F0063F
:104680009093F1062091A5063091A6064091A706C9
:104690005091A806609168067091690680916A063B
:1046A00090916B060E949E2620918E0630918F0677
:1046B00040919006509191060E947925A5019401A0
:1046C0000E94792520919C0630919D0640919E067E
:1046D00050919F060E949F264B015C0120E030E034
:1046E000A9010E94132587FD51C0E09079066E2D27
:1046F00070E090E080E00E941A259B01AC01C501AA
:10470000B4010E94B327181644F46E2D70E090E0B7
:1047100080E00E9418254B015C0180929C069092DB
:104720009D06A0929E06B0929F0620E030E0A9016F
:10473000C501B4010E94B32720E030E040E05FE310
:1047400087FD28C0C501B4010E949F260E947D27D5
:10475000862F0E947B028091D2069091D306A09171
:10476000D406B091D5068093940690939506A093B5
:104770009606B093970688E090E090939306809316
:10478000920613CB812C912C540158CF812C912C63
:104790005401C3CFC501B4010E949E26D7CF2091FA
:1047A0005C0630915D0640915E0650915F06C50142
:1047B000B4010E94B32787FD21C02091D206309119
:1047C000D3064091D4065091D5066091820670912F
:1047D000830680918406909185060E949F266093AF
:1047E0009406709395068093960690939706E7E05B
:1047F000F0E0F0939306E0939206D7CA2091540616
:10480000309155064091560650915706C501B401A6
:104810000E94B32787FD54C0209158063091590655
:1048200040915A0650915B06C501B4010E941325C0
:1048300087FF23C020917E0630917F06409180063D
:10484000509181066091D2067091D3068091D40672
:104850009091D5060E949F266093940670939506CA
:1048600080939606909397061092A40627E030E076
:10487000309393062093920698CA2091D2063091E5
:10488000D3064091D4065091D50660917A06709176
:104890007B0680917C0690917D060E949F26609306
:1048A00094067093950680939606909397061092BF
:1048B000A40647E050E0509393064093920675CAD1
:1048C0002091500630915106409152065091530666
:1048D000C501B4010E94B32787FF19C020914C067F
:1048E00030914D0640914E0650914F066091A506BD
:1048F0007091A6068091A7069091A8060E94B32702
:1049000018169CF1309293062092920697CD0E9441
:104910006F028090300690903106A0903206B090E1
:104920003306681579058A059B05C0F62091D206E5
:104930003091D3064091D4065091D50660917E0601
:1049400070917F0680918006909181060E949F263B
:1049500060939406709395068093960690939706BD
:104960001092A40686E090E008CFA4E0B0E0B093F7
:104970009306A093920662CD0E94BC021092D606C6
:104980001092D7061092D8061092D9061092A4065B
:1049900061E070E08091F6069091F7060E94540D58
:1049A0008091A0069091A106A091A206B091A306C5
:1049B000892B8A2B8B2B69F4D0929306C092920696
:1049C0006DE474E0C8010E944828C8010E94840D6B
:1049D000ECC90E946F028090A0069090A106A09062
:1049E000A206B090A306681979098A099B098090EC
:1049F000480690904906A0904A06B0904B0686164D
:104A00009706A806B90608F0D0C91092A006109221
:104A1000A1061092A2061092A30664E774E0D2CF1A
:104A20000E94BC02B3C90E94552508F481E0089594
:104A3000E89409C097FB3EF4909580957095619538
:104A40007F4F8F4F9F4F9923A9F0F92F96E9BB27EE
:104A50009395F695879577956795B795F111F8CF6A
:104A6000FAF4BB0F11F460FF1BC06F5F7F4F8F4FD5
:104A70009F4F16C0882311F096E911C0772321F0CB
:104A80009EE8872F762F05C0662371F096E8862F63
:104A900070E060E02AF09A95660F771F881FDAF7BA
:104AA000880F9695879597F90895990F0008550FE7
:104AB000AA0BE0E8FEEF16161706E807F907C0F0A4
:104AC00012161306E407F50798F0621B730B840BAC
:104AD000950B39F40A2661F0232B242B252B21F486
:104AE00008950A2609F4A140A6958FEF811D811D26
:104AF00008950E948C250C94FD250E94EF2538F026
:104B00000E94F62520F0952311F00C94E6250C94D4
:104B1000EC2511240C9431260E940E2670F3959FEB
:104B2000C1F3950F50E0551F629FF001729FBB27A4
:104B3000F00DB11D639FAA27F00DB11DAA1F649F40
:104B40006627B00DA11D661F829F2227B00DA11DF3
:104B5000621F739FB00DA11D621F839FA00D611D79
:104B6000221F749F3327A00D611D231F849F600D9A
:104B7000211D822F762F6A2F11249F5750409AF0C3
:104B8000F1F088234AF0EE0FFF1FBB1F661F771F4F
:104B9000881F91505040A9F79E3F510580F00C941A
:104BA000E6250C9431265F3FE4F3983ED4F38695D6
:104BB00077956795B795F795E7959F5FC1F7FE2BBA
:104BC000880F911D9695879597F9089597F99F6796
:104BD00080E870E060E008959FEF80EC0895002485
:104BE0000A941616170618060906089500240A9452
:104BF00012161306140605060895092E0394000CD8
:104C000011F4882352F0BB0F40F4BF2B11F460FF66
:104C100004C06F5F7F4F8F4F9F4F089557FD90588F
:104C2000440F551F59F05F3F71F04795880F97FB70
:104C3000991F61F09F3F79F087950895121613062A
:104C40001406551FF2CF4695F1DF08C01616170659
:104C50001806991FF1CF869571056105089408958E
:104C6000E894BB2766277727CB0197F90895F99930
:104C7000FECF92BD81BDF89A992780B50895262F61
:104C8000F999FECF1FBA92BD81BD20BD0FB6F89431
:104C9000FA9AF99A0FBE019608950E948F26A59F51
:104CA000900DB49F900DA49F800D911D1124089527
:104CB0002F923F924F925F926F927F928F929F922C
:104CC000AF92BF92CF92DF92EF92FF920F931F931A
:104CD000CF93DF93CDB7DEB7CA1BDB0B0FB6F894CB
:104CE000DEBF0FBECDBF09942A88398848885F840B
:104CF0006E847D848C849B84AA84B984C884DF807C
:104D0000EE80FD800C811B81AA81B981CE0FD11D5F
:104D10000FB6F894DEBF0FBECDBFED010895A29F80
:104D2000B001B39FC001A39F700D811D1124911D7F
:104D3000B29F700D811D1124911D08955058BB27FD
:104D4000AA270E94B6260C94FD250E94EF2538F074
:104D50000E94F62520F039F49F3F19F426F40C94B4
:104D6000EC250EF4E095E7FB0C94E625E92F0E9474
:104D70000E2658F3BA17620773078407950720F0C9
:104D800079F4A6F50C9430260EF4E0950B2EBA2F8C
:104D9000A02D0B01B90190010C01CA01A001112441
:104DA000FF27591B99F0593F50F4503E68F11A16ED
:104DB000F040A22F232F342F4427585FF3CF46957E
:104DC00037952795A795F0405395C9F77EF41F16A0
:104DD000BA0B620B730B840BBAF09150A1F0FF0F6A
:104DE000BB1F661F771F881FC2F70EC0BA0F621F56
:104DF000731F841F48F4879577956795B795F79546
:104E00009E3F08F0B0CF9395880F08F09927EE0FDA
:104E10009795879508950E941F270C94FD250E9461
:104E2000F62558F00E94EF2540F029F45F3F29F065
:104E30000C94E62551110C9431260C94EC250E941B
:104E40000E2668F39923B1F3552391F3951B550B67
:104E5000BB27AA2762177307840738F09F5F5F4F4D
:104E6000220F331F441FAA1FA9F335D00E2E3AF08C
:104E7000E0E832D091505040E695001CCAF72BD0A4
:104E8000FE2F29D0660F771F881FBB1F26173707F5
:104E90004807AB07B0E809F0BB0B802DBF01FF2727
:104EA00093585F4F3AF09E3F510578F00C94E625F9
:104EB0000C9431265F3FE4F3983ED4F386957795C2
:104EC0006795B795F7959F5FC9F7880F911D9695E0
:104ED000879597F90895E1E0660F771F881FBB1F3C
:104EE000621773078407BA0720F0621B730B840BE9
:104EF000BA0BEE1F88F7E09508950E948427689406
:104F0000B1110C94312608950E94162688F09F57FF
:104F100098F0B92F9927B751B0F0E1F0660F771FDD
:104F2000881F991F1AF0BA95C9F714C0B13091F0D3
:104F30000E943026B1E008950C943026672F782F18
:104F40008827B85F39F0B93FCCF386957795679598
:104F5000B395D9F73EF490958095709561957F4F04
:104F60008F4F9F4F08950E94552508F48FEF0895A5
:104F70000E945525880B990B0895DB018F939F9311
:104F80000E944D26BF91AF91A29F800D911DA39FBE
:104F9000900DB29F900D1124089597FB072E16F4E3
:104FA000009407D077FD09D00E942F2807FC05D078
:104FB0003EF4909581959F4F0895709561957F4F30
:104FC0000895A1E21A2EAA1BBB1BFD010DC0AA1F4A
:104FD000BB1FEE1FFF1FA217B307E407F50720F062
:104FE000A21BB30BE40BF50B661F771F881F991FDD
:104FF0001A9469F760957095809590959B01AC0126
:10500000BD01CF010895052E97FB1EF400940E9468
:105010001A2857FD07D00E94E12707FC03D04EF461
:105020000C941A2850954095309521953F4F4F4F3D
:105030005F4F089590958095709561957F4F8F4F44
:105040009F4F0895EE0FFF1F0590F491E02D0994F6
:105050000E948F26B7FF0895821B930B0895AA1B09
:10506000BB1B51E107C0AA1FBB1FA617B70710F053
:10507000A61BB70B881F991F5A95A9F78095909585
:10508000BC01CD01089581E090E0F8940C94F02AE1
:10509000FB01DC0101900D920020E1F70895AEE0E4
:1050A000B0E0E5E5F8E20C9466260D891E8986E0FD
:1050B0008C831A8309838FEF9FE79E838D83AE01D4
:1050C000475E5F4F6F89788DCE0101960E947228EE
:1050D0002F813885020F131FF80110822E96E4E00D
:1050E0000C948226ABE0B0E0E8E7F8E20C94582696
:1050F0007C013B018A01FC0117821682838181FFBA
:10510000C8C1CE0101965C01F7019381F30193FDC3
:10511000859193FF81913F01882309F453C1853222
:1051200039F493FD859193FF81913F01853229F4F4
:10513000B70190E00E94622AE7CF912C212C312CFC
:10514000FFE1F31538F08B3211F190F4803209F160
:10515000833229F137FC3CC020ED280F2A3050F56E
:1051600036FE20C08AE0989E200D1124922E06C0A3
:105170008D3291F0803371F7689430F8F30193FD2C
:10518000859193FF81913F018111DACF21C068940D
:1051900031F8689432F8F2CF689433F8EFCF68941E
:1051A00034F8ECCFEAE02E9E200D1124222E6894D4
:1051B00035F8E4CF8E3229F436FC04C1689436F811
:1051C000DDCF8C3619F4689437F8D8CF8836B1F231
:1051D000982F9F7D95549330E0F08336A1F183376B
:1051E000C1F1833509F063C02801F2E04F0E511C74
:1051F000F801C080D180692D70E036FC02C06FEFED
:105200007FEFC6010E944C2A4C01689437F8820156
:105210000AC00C5F1F4FFFE3F98388248394912C0D
:105220006501E89437F833FE2DC0522C81149104A7
:1052300071F5552009F468CFB70180E290E00E9433
:10524000622A5A94F6CFF801808189830E5F1F4F3E
:10525000E4CF2801F2E04F0E511CF801C080D1804C
:10526000692D70E036FC02C06FEF7FEFC6010E942F
:10527000572A4C018201D5CFB70180E290E00E940D
:10528000622A2A942814190409F0B0F7CECFF60147
:1052900037FC859137FE81916F01B70190E00E9444
:1052A000622A51105A94F1E08F1A9108BFCF8436C8
:1052B00019F0893609F077C0F80137FE6BC06081BC
:1052C0007181828193810C5F1F4FF32DFF763F2EFA
:1052D00097FF09C090958095709561957F4F8F4F8E
:1052E0009F4F689437F82AE030E0A5010E94922A87
:1052F000C82ECA188C2C432C36FE0CC0E89440F8FB
:10530000C91440F434FE05C032FC03C0F32DFE7E08
:105310004F2E892C44FE95C0FE01EC0DF11D8081BD
:10532000803309F087C0242D297E422E842D887079
:10533000582E43FC95C040FE8FC09C2C821418F45C
:105340002C0C922C981844FE91C0B70180E390E099
:105350000E94622A42FE09C088E790E041FE02C036
:1053600088E590E0B7010E94622AC91408F48AC057
:10537000CA94D12C9FEFC91AD90ACA0CDB1CF601BA
:1053800082916F01B70190E00E94622AAC14BD04C3
:10539000B1F74FCF60817181072E000C880B990BFC
:1053A0000E5F1F4F92CFD32CE894D4F82AE030E060
:1053B000853739F1232D297FD22E8F3601F148F41C
:1053C0008835A9F0F701868197812B96E2E10C944C
:1053D0007426803749F08837A9F7D4FE02C0689454
:1053E000D2F820E130E00DC06894D4F8F6CF34FE56
:1053F00003C0822F8660D82E20E132E002C028E070
:1054000030E0F801D7FE0FC0608171818281938105
:105410000C5F1F4FA5010E94922AC82ECA183D2C6E
:10542000E89437F867CF6081718190E080E00E5F8B
:105430001F4FF0CF42FC02C0839478CF83948394B3
:1054400075CF842D867809F471CFF6CFB70180E24D
:1054500090E00E94622A83948214C0F3512C73CF8F
:10546000522C5818821408F46ECFF8CF842D867809
:1054700009F47BCF8BE241FE80E247FC8DE2B7016D
:1054800090E071CFB70180E390E00E94622A9A9485
:105490006CCF8FEF9FEF99CFFC010590615070406A
:1054A0000110D8F7809590958E0F9F1F0895FC01ED
:1054B0006150704001900110D8F7809590958E0F43
:1054C0009F1F08950F931F93CF93DF93182F092FDA
:1054D000EB018B8181FD09C01FEF0FEF812F902F12
:1054E000DF91CF911F910F91089582FF14C02E81FB
:1054F0003F818C819D81281739073CF4E881F9812F
:10550000CF0101969983888310838E819F810196B4
:105510009F838E83E3CFE885F985812F0995892BB9
:10552000A1F3DACFFA01AA27283051F1203181F115
:10553000E8946F936E7F6E5F7F4F8F4F9F4FAF4F9B
:10554000B1E03ED0B4E03CD0670F781F891F9A1FAE
:10555000A11D680F791F8A1F911DA11D6A0F711D62
:10556000811D911DA11D20D009F468943F912AE06E
:10557000269F11243019305D3193DEF6CF01089556
:10558000462F4770405D4193B3E00FD0C9F7F6CF87
:10559000462F4F70405D4A3318F0495D31FD40524F
:1055A000419302D0A9F7EACFB4E0A69597958795E5
:1055B00077956795BA95C9F70097610571050895C4
:1055C0009B01AC010A2E0694579547953795279570
:1055D000BA95C9F7620F731F841F951FA01D089508
:0455E000F894FFCF6D
:1055E400E908E90801E803E803F401F401C800C884
:1055F400006400E803E8036400960096009600E85F
:105604000396009600960096009600E803000000BA
:1056140000271127112711170D130D100D0000007D
:1056240000CD0C890C870C170D130DE608340A0005
:105634000000008A09EA081709D709480926093A27
:10564400096E616E00696E66006F7666006565704E
:10565400726F6D5F7772697465732000766F6C7416
:105664006167655F63616C6962726174696F6E5FC3
:10567400646F6E652000766F6C746167655F63614B
:105684006C6962726174696F6E5F76616C756520B6
:10569400007761746368646F675F656E61626C65EF
:1056A4006420006368617267696E675F656E61623A
:1056B4006C656420007761746368646F675F636F0F
:1056C400756E7420007761746368646F675F7469D2
:1056D4006D652000482028002900776174636864A0
:1056E4006F675F626F6F745F636F756E74200062C3
:1056F400617365626F6172645F626F6F745F636F21
:10570400756E74200073746F705F6368617267698B
:105714006E675F696E74657272757074210D0A002C
:105724005741524E494E473A2048415244574152FC
:105734004520524556204D49534D41544348202D50
:105744002D3E2044495341424C4544204348415254
:1057540047494E470D0A00456E61626C65206368D7
:10576400617267696E670D0A0044697361626C65F2
:10577400206368617267696E670D0A00766F6C74E6
:105784006167655F63616C6962726174696F6E5FA2
:1057940076616C75653A20004572726F723A2063C7
:1057A400616C696272617465207061636B616765C5
:1057B400207265636569766564207768696C652025
:1057C4006E6F7420696E2063616C696272617469C2
:1057D4006E67206D6F64652100456E61626C6520A3
:1057E4004952204C45440D0A0044697361626C655A
:1057F400204952204C45440D0A0057617463686483
:105804006F6720656E61626C65640D0A0057617490
:105814006368646F672064697361626C65640D0A10
:10582400005761726E696E672066616E20706163F5
:105834006B616765206E6F742079657420696D7083
:105844006C656D656E7465640D0A005265626F6FF8
:1058540074204E55430D0A00636C65617220636FBA
:105864006E66696720616C6C0D0A00636C65617219
:1058740020636F6E666967206C6F670D0A00636C46
:1058840065617220636F6E66696720686172640D7A
:105894000A004368617267696E67206469736162B4
:1058A4006C6564206279206578656375746F720D28
:1058B4000A00486172647761726520766572736963
:1058C4006F6E200042617365626F6172642073744D
:1058D4006172746564210D0A005475726E206F66DE
:1058E40066204E55430D0A005475726E206F6E206B
:1058F4004E55430D0A004368617267696E67206400
:105904006973616C6C6F7765642062792065786572
:105914006375746F7220616E6420766F6C74616756
:105924006520746F6F20686967680D0A006E6F7474
:10593400206578656375746F7220646973616C6C3B
:105944006F77206368617267696E672074696D653B
:10595400210D0A006578656375746F72206469733C
:10596400616C6C6F77206368617267696E6720741D
:10597400696D656F7574210D0A00576174636864FD
:105984006F672077696C6C20747269676765722031
:10599400696E202564207365636F6E6473210D0A3C
:0259A400000001
:00000001FF
