:020000040000FA
:100000000C94FD000C9425010C9425010C94250101
:100010000C9425010C9425010C9425010C942501C8
:100020000C9425010C9425010C9425010C942501B8
:100030000C9425010C9425010C9425010C942501A8
:100040000C944B0A0C9425010C94190A0C94F30996
:100050000C9425010C9425010C9425010C94250188
:100060000C9425010C9425014E414E494E4954599A
:10007000494E46CDCCCC3D0AD7233C17B7D1387773
:10008000CC2B329595E6241FB14F0A000020410089
:1000900000C84200401C4620BCBE4CCA1B0E5AAED3
:1000A000C59D7400407A10F35A00A0724E180900E2
:1000B00010A5D4E80000E87648170000E40B5402CD
:1000C0000000CA9A3B000000E1F505000080969808
:1000D00000000040420F000000A086010000001058
:1000E0002700000000E8030000000064000000009A
:1000F000000A00000000000100000000002C76D87B
:1001000088DC674F0823DFC1DFAE59E1B1B796E560
:10011000E3E453C63AE651997696E8E6C28426EBC4
:10012000898C9B62ED407C6FFCEFBC9C9F40F2BAD7
:10013000A56FA5F490055A2AF75C936B6CF9676D6F
:10014000C11BFCE0E40D47FEF520E6B500D0ED90C4
:100150002E0300943577050080841E080000204E91
:100160000A000000C80C333333330F986E1283112A
:1001700041EF8D2114893BE65516CFFEE6DB18D101
:10018000844B381BF77C1D901DA4BBE424203284D3
:10019000725E228100C9F124ECA1E53D2700000038
:1001A00000240027002A0000000000250028002B62
:1001B00000000000002300260029000404040404B9
:1001C0000404040202020202020303030303030104
:1001D00002040810204080010204081020010204DB
:1001E00008102000000008000201000003040700BE
:1001F0000000000000000000950A11241FBECFEF90
:10020000D8E0DEBFCDBF25E0A0E8B4E001C01D927C
:10021000AD37B207E1F714E0A0E0B1E0E2E1FDE3C1
:1002200002C005900D92A038B107D9F710E0CDEFCC
:10023000D0E004C02197FE010E94D91BCC3FD1071A
:10024000C9F70E94CC0A0C94871E0C940000AF9250
:10025000BF92CF92DF92EF92FF920F931F93CF93B3
:10026000DF936C017B018B01040F151FEB015E0115
:10027000AE18BF08C017D10759F06991D601ED91AA
:10028000FC910190F081E02DC6010995892B79F749
:10029000C501DF91CF911F910F91FF90EF90DF90FB
:1002A000CF90BF90AF900895FC01538D448D252FC2
:1002B00030E0842F90E0821B930B541710F0CF9600
:1002C000089501970895FC01918D828D981761F032
:1002D000A28DAE0FBF2FB11D5D968C91928D9F5F49
:1002E0009F73928F90E008958FEF9FEF0895FC0128
:1002F000918D828D981731F0828DE80FF11D858DDB
:1003000090E008958FEF9FEF0895FC01918D228D6D
:10031000892F90E0805C9F4F821B91098F739927F2
:1003200008958AED94E00E94850121E0892B09F46B
:1003300020E0822F089580E090E0892B29F00E9430
:10034000910181110C9400000895FC01A48DA80F67
:10035000B92FB11DA35ABF4F2C91848D90E0019607
:100360008F739927848FA689B7892C93A089B18927
:100370008C91837080648C93938D848D981306C0C8
:100380000288F389E02D80818F7D80830895EF922C
:10039000FF920F931F93CF93DF93EC0181E0888F3F
:1003A0009B8D8C8D98131AC0E889F989808185FF0F
:1003B00015C09FB7F894EE89FF896083E889F989B1
:1003C00080818370806480839FBF81E090E0DF91B3
:1003D000CF911F910F91FF90EF900895F62E0B8D06
:1003E00010E00F5F1F4F0F731127E02E8C8D8E11C1
:1003F0000CC00FB607FCFACFE889F989808185FF28
:10040000F5CFCE010E94A501F1CFEB8DEC0FFD2FB2
:10041000F11DE35AFF4FF0829FB7F8940B8FEA89E2
:10042000FB8980818062CFCFCF93DF93EC01888DF1
:100430008823B9F0AA89BB89E889F9898C9185FD5F
:1004400003C0808186FD0DC00FB607FCF7CF8C91ED
:1004500085FFF2CF808185FFEDCFCE010E94A501FF
:10046000E9CFDF91CF910895833081F028F4813076
:1004700099F08230A9F008958730A9F08830C9F04A
:100480008430B1F4809180008F7D03C08091800022
:100490008F7780938000089584B58F7784BD089509
:1004A00084B58F7DFBCF8091B0008F778093B000B3
:1004B00008958091B0008F7DF9CFCF93DF93282FDF
:1004C00030E0F901ED51FE4F8491F901E153FE4F07
:1004D000D491F901E554FE4FC491CC23A1F08111D0
:1004E0000E943402EC2FF0E0EE0FFF1FEF54FE4F9E
:1004F000A591B491EC91ED2381E090E009F480E0C6
:10050000DF91CF91089580E090E0FACF1F93CF93D1
:10051000DF93282F30E0F901ED51FE4F8491F9016E
:10052000E153FE4FD491F901E554FE4FC491CC2321
:10053000A9F0162F81110E943402EC2FF0E0EE0F8B
:10054000FF1FE955FE4FA591B4918FB7F894EC9138
:10055000111108C0D095DE23DC938FBFDF91CF91BE
:100560001F910895DE2BF8CFCF93DF9390E0FC012D
:10057000E153FE4F249185549E4FFC0184918823C2
:10058000C9F090E0880F991FFC01E356FE4FA5913A
:10059000B491FC01E955FE4FC591D49161110DC094
:1005A0009FB7F8948C91209582238C93888128237F
:1005B00028839FBFDF91CF910895623051F49FB798
:1005C000F8943C91822F809583238C93E8812E2B85
:1005D000EFCF8FB7F894EC912E2B2C938FBFEACFEF
:1005E000CF93DF93EC0161E089E00E94B402209791
:1005F00031F460E089E0DF91CF910C948602CF3F27
:10060000D10511F461E0F6CFECEEF1E0E491E330D6
:1006100029F140F4E130B1F0E230D9F0C038D10531
:100620008CF7E7CFE73021F1E83051F1E430B1F752
:1006300080918000806280938000D0938B00C09373
:100640008A0004C084B5806884BDC7BDDF91CF91A6
:10065000089584B5806284BDC8BDF8CF80918000C4
:10066000806880938000D0938900C0938800EECF8B
:100670008091B00080688093B000C093B300E6CF53
:100680008091B00080628093B000C093B400DECF50
:100690001092700190E080E00C94F0022091000133
:1006A00090E4299F900111248E50822B80937C002E
:1006B00080917A00806480937A0080917A0086FD30
:1006C000FCCF809178009091790008954F925F92CD
:1006D0006F927F928F929F92AF92BF92CF92DF9252
:1006E000EF92FF92CF93DF936B017C01C2E7D1E0E1
:1006F00088809980AA80BB8080E10E944E03BC0163
:10070000990F880B990B0E94F21820E030E040E02E
:100710005FE30E947A1A20E030E040EA50E40E9451
:10072000511920E030E040E85AE30E94511920912D
:100730009E0130919F014091A0015091A1010E9422
:100740007A1AA70196010E9451192B013C01A701B9
:10075000960160E070E080E89FE30E94791AA501AD
:1007600094010E9451199B01AC01C301B2010E9486
:100770007A1A6B017C01288139814A815B810E9450
:10078000791A609376017093770180937801909342
:100790007901C882D982EA82FB82DF91CF91FF90F2
:1007A000EF90DF90CF90BF90AF909F908F907F9011
:1007B0006F905F904F9008953FB7F89480918904AF
:1007C00090918A04A0918B04B0918C0426B5A89BCB
:1007D00005C02F3F19F00196A11DB11D3FBFBA2FD3
:1007E000A92F982F8827BC01CD01620F711D811D93
:1007F000911D42E0660F771F881F991F4A95D1F718
:1008000008952FB7F89460918504709186048091C3
:100810008704909188042FBF08954F925F926F9242
:100820007F928F929F92AF92BF92CF92DF92EF9280
:10083000FF920F931F93CF93DF934B015C018EE0E8
:100840000E944E03BC01990F880B990B0E94F2186D
:1008500020E030E040E85AE30E94511920E030E007
:1008600040EA50E40E94511920911501309116017F
:1008700040911701509118010E94E61A6B017C010A
:10088000C0928601D0928701E0928801F09289019E
:10089000CAE8D1E023E333E343E75FE3688179818A
:1008A0008A819B810E9451192B013C012DEC3CEC6B
:1008B0004CE45DE3C701B6010E9451199B01AC01F4
:1008C000C301B2010E947A1A688379838A839B8369
:1008D0000EE811E022E538EB4EE75FE3F8016081B6
:1008E0007181828193810E9451192B013C012AE080
:1008F00037ED43EA5BE3C701B6010E9451199B0142
:10090000AC01C301B2010E947A1AF80160837183BD
:1009100082839383C501B4010E9466030E9401048F
:100920000EEA11E0F801C080D180E280F3806C19FA
:100930007D098E099F090E94F0186B017C010E94BD
:100940000104F80160837183828393830AE911E0D3
:100950002091960130919701409198015091990111
:10096000688179818A819B810E94791AA701960109
:100970000E94511920E030E041E655E40E94E61A59
:10098000F80120813181428153810E947A1AF80155
:100990006083718382839383CAEAD1E0688179811D
:1009A0008A819B810E94F018A70196010E947A1A01
:1009B0000E945F1B688379838A839B83DF91CF9139
:1009C0001F910F91FF90EF90DF90CF90BF90AF906D
:1009D0009F908F907F906F905F904F9008954F926F
:1009E0005F926F927F928F929F92AF92BF92CF92BF
:1009F000DF92EF92FF927C016DEC7CEC8CEC9DE33E
:100A00000E940D0440907201509073016090740137
:100A1000709075014092820150928301609284012E
:100A20007092850180908A0190908B01A0908C013A
:100A3000B0908D012DEC3CEC4CEC5DE3C501B401B4
:100A40000E948E1B1816A4F520917A0130917B012B
:100A500040917C0150917D01C301B2010E94791A3D
:100A6000A50194010E94E61A2AE037ED43EA5BE310
:100A70000E9451194B015C0122E538EB4EE75FE320
:100A800060919201709193018091940190919501F0
:100A90000E9451199B01AC01C501B4010E947A1A50
:100AA00060939201709393018093940190939501C8
:100AB00081E0E816F10499F4809149018093700176
:100AC00090E0FF90EF90DF90CF90BF90AF909F901D
:100AD0008F907F906F905F904F900C94F00284E025
:100AE000E816F10409F4EFC020E030E0A9016091BC
:100AF00064017091650180916601909167010E9487
:100B00008E1B18160CF009C10E9401040E940104FA
:100B10006093B2017093B3018093B4019093B501D7
:100B2000C0906401D0906501E0906601F09067018B
:100B3000209186013091870140918801509189016F
:100B4000C701B6010E94791A2091560130915701D0
:100B500040915801509159010E9451194B015C017B
:100B6000209168013091690140916A0150916B01B7
:100B7000C701B6010E94791A6B017C0120E030E0C8
:100B8000A9010E948E1B18160CF0AAC0809170015A
:100B90008111A6C02AE939E949E15EE3C701B6013E
:100BA0000E94791A20915A0130915B0140915C01B9
:100BB00050915D010E9451196B017C0160914901C6
:100BC00070E090E080E00E94F2189B01AC01C70148
:100BD000B6010E947A1A40906C0150906D016090AD
:100BE0006E0170906F019B01AC01C501B4010E94C0
:100BF0007A1A6B017C0120E030E040E752EC0E9461
:100C0000EB1887FD7AC020E030E040E752E4C701EE
:100C1000B6010E948E1B181634F4C12CD12C20E78B
:100C2000E22E22E4F22EA7019601C301B2010E9436
:100C30007A1A6B017C0120E030E0A9010E94EB18D8
:100C400087FD62C020E030E04FE753E4C701B60102
:100C50000E948E1B181634F4C12CD12C8FE7E82E7D
:100C600083E4F82EC0926C01D0926D01E0926E0187
:100C7000F0926F0120E030E0A901C701B6010E94A7
:100C80008E1B20E030E040E05FE387FD41C0C701FC
:100C9000B6010E947A1A0E94581B60937001862F39
:100CA00090E00E94F0028091640190916501A09112
:100CB0006601B09167018093680190936901A093E8
:100CC0006A01B0936B01FF90EF90DF90CF90BF90DF
:100CD000AF909F908F907F906F905F904F9008950E
:100CE00020915A0130915B0140915C0150915D016E
:100CF000C701B6010E9451196ECFC12CD12C90E7CB
:100D0000E92E92ECF92E8FCFC12CD12C7601AACFEF
:100D1000C701B6010E94791ABECF90E080E0C1CF32
:100D2000CF92DF92EF92FF920E940104C090A60141
:100D3000D090A701E090A801F090A9016C197D095D
:100D40008E099F09C0900D01D0900E01E0900F0117
:100D5000F0901001C616D706E806F90630F481E0D7
:100D6000FF90EF90DF90CF9008950E940104C09013
:100D7000A601D090A701E090A801F090A9016C19FC
:100D80007D098E099F09C0901101D0901201E09059
:100D90001301F0901401C616D706E806F90608F00C
:100DA00045C0C0904101D0904201E0904301F090D5
:100DB0004401A701960160918A0170918B01809195
:100DC0008C0190918D010E94EB1887FF2FC020911C
:100DD0006401309165014091660150916701C7013E
:100DE000B6010E94EB1887FF21C020914501309188
:100DF0004601409147015091480160917A017091FC
:100E00007B0180917C0190917D010E947A1A9B0167
:100E1000AC016091720170917301809174019091A5
:100E200075010E948E1B18160CF499CF80E098CFA4
:100E3000FC0101900020E9F73197AF01481B590BE5
:100E4000BC018AED94E00C942701009711F00C94FA
:100E5000180790E080E008958F929F92AF92BF9222
:100E60000F931F93CF93DF93CDB7DEB7A1970FB644
:100E7000F894DEBF0FBECDBF19A2423008F44AE09D
:100E80008E010F5D1F4F842E912CB12CA12CA5013A
:100E900094010E94981BE62FB901CA01EA30D4F4EC
:100EA000E05DD801EE938D01232B242B252B79F7C0
:100EB000CD010E942507A1960FB6F894DEBF0FBEA4
:100EC000CDBFDF91CF911F910F91BF90AF909F90B9
:100ED0008F900895E95CE5CF0C942507CF93DF93BD
:100EE0000E942507EC018CE794E00E9418078C0F04
:100EF0009D1FDF91CF910895FB0101900020E9F73C
:100F00009F0121503109261B370BFC010190002065
:100F1000E9F73197E81BF90BE217F3078CF021157D
:100F2000310571F0FB01DC015D914191541308C062
:100F3000AD01481B590B42175307B4F381E00895E4
:100F400080E00895FF920F931F93CF93DF9304ECFB
:100F500014E0D0E0C0E0F801F1908F01CE010E94D2
:100F6000121AF81621F06F2DCE010E941A1A21963E
:100F7000C631D10581F784EC94E0DF91CF911F91C8
:100F80000F91FF900895E4ECF4E080819181A281BB
:100F9000B3810196A11DB11D80839183A283B38388
:100FA0000C94A2070F931F936093D1047093D20403
:100FB0008093D3049093D4040E9401040091800490
:100FC000109181042091820430918304601B710B85
:100FD000820B930B613C77428940910560F00E943F
:100FE000C3070E940104609380047093810480937E
:100FF0008204909383041F910F910895CF93DF9300
:10100000BC0190E080E04AE00E942C07EC018CE7F4
:1010100094E00E9418078C0F9D1FDF91CF910895D7
:10102000CF92DF92EF92FF92CF93DF9397FF1BC097
:101030006B017C016DE28AED94E00E94C701EC0136
:1010400066277727CB016C197D098E099F094AE035
:101050000E942C078C0F9D1FDF91CF91FF90EF9086
:10106000DF90CF9008954AE0DF91CF91FF90EF900D
:10107000DF90CF900C942C07CF93DF93BC01990F96
:10108000880B990B0E941008EC018CE794E00E94F9
:1010900018078C0F9D1FDF91CF9108954F925F929B
:1010A0006F927F928F929F92AF92BF92CF92DF9278
:1010B000EF92FF920F931F93CF936B017C01742EDD
:1010C000AC019B010E94931B882399F088EC91E06E
:1010D000CF911F910F91FF90EF90DF90CF90BF9035
:1010E000AF909F908F907F906F905F904F900C94F7
:1010F000180746015701E894B7F82FEF3FEF4FE785
:101100005FE7C501B4010E94931B81110DC02FEF51
:101110003FEF4FE75FE7C501B4010E94EB181816D7
:101120001CF48CEC91E0D4CF2FEF3FEF4FE75FE45E
:10113000C701B6010E948E1B18161CF480ED91E0C9
:10114000C7CF2FEF3FEF4FE75FECC701B6010E941B
:10115000EB1887FDF3CF20E030E0A901C701B6010D
:101160000E94EB1810E000E087FF0AC06DE28AEDF4
:1011700094E00E94C7018C01F7FAF094F7F8F0941C
:10118000C0E060E070E080E09FE37C1641F020E08A
:1011900030E040E251E40E94E61ACF5FF6CFA701AB
:1011A00096010E947A1A2B013C010E945F1B4B01A1
:1011B0005C014AE00E942C077C01E00EF11ECC236A
:1011C000C1F1C501B4010E94F0189B01AC01C3013B
:1011D000B2010E94791A4B015C016EE28AED94E043
:1011E0000E94C701E80EF91EC15018F120E030E05E
:1011F00040E251E4C501B4010E9451192B013C01A8
:101200000E945F1B4B01B12CA12C4AE0C501B40127
:101210000E942C07E80EF91EC501B4010E94F018C7
:101220009B01AC01C301B2010E94791A4B015C0120
:10123000DBCFC701CF911F910F91FF90EF90DF900F
:10124000CF90BF90AF909F908F907F906F905F9066
:101250004F900895CF93DF9342E00E944E08EC0137
:101260008CE794E00E9418078C0F9D1FDF91CF91AF
:101270000895CF93DF938EE794E00E946E0784ED8C
:1012800091E00E946C07C4ECD4E0688179818A8186
:101290009B814AE00E942C078CE794E00E9418078B
:1012A00083EE91E00E946C078C8190E00E943C08E4
:1012B0008CE294E00E946C076D817E818F8198851D
:1012C0000E942A098DEF91E00E946C07898590E0C9
:1012D0000E943C088FE092E00E946C078A8590E0B3
:1012E0000E943C0881E292E00E946C078B859C85FD
:1012F0000E94FE0781E392E00E946C076D857E8567
:101300008F85988920E83EEE46E350E00E94BA1BA4
:10131000CA01B9010E94100880E492E00E946C07A3
:101320006D857E858F8598890E94100884E492E0FF
:101330000E946E0786E492E00E946C0789899A8970
:101340000E94FE078BE592E00E946C078B899C89C6
:10135000DF91CF910C94FE070F931F93CF93DF93F0
:1013600004EC14E0D0E0C0E0CE010E94121AF801B3
:1013700081938F012196C631D105B1F70E943909B9
:101380008091CD048093BB040E9401040091D1049C
:101390001091D2042091D3043091D404601B710BBE
:1013A000820B930B6093BC047093BD048093BE04C6
:1013B0009093BF048091CF0480939F048091D504C3
:1013C0009091D60490939E0480939D048091D704BD
:1013D0009091D80490938E0480938D04DF91CF91E7
:1013E0001F910F9108951F920F920FB60F92112423
:1013F0002F933F934F935F936F937F938F939F931D
:10140000AF93BF93EF93FF938AED94E00E94A50101
:10141000FF91EF91BF91AF919F918F917F916F91CC
:101420005F914F913F912F910F900FBE0F901F90A2
:1014300018951F920F920FB60F9211242F938F932E
:101440009F93EF93FF93E091EA04F091EB04808186
:10145000E091F004F091F10482FD1BC09081809135
:10146000F3048F5F8F732091F404821741F0E091B1
:10147000F304F0E0E652FB4F958F8093F304FF9165
:10148000EF919F918F912F910F900FBE0F901F9012
:1014900018958081F4CF1F920F920FB60F921124EE
:1014A0002F933F938F939F93AF93BF938091850426
:1014B00090918604A0918704B091880430918404AF
:1014C00023E0230F2D3758F50196A11DB11D209360
:1014D00084048093850490938604A0938704B0933A
:1014E00088048091890490918A04A0918B04B09122
:1014F0008C040196A11DB11D8093890490938A04E8
:10150000A0938B04B0938C04BF91AF919F918F9166
:101510003F912F910F900FBE0F901F90189526E8C6
:10152000230F0296A11DB11DD2CFEAEDF4E0138284
:10153000128288EE93E0A0E0B0E084839583A683D6
:10154000B7838AEB91E09183808385EC90E0958767
:10155000848784EC90E09787868780EC90E0918B7D
:10156000808B81EC90E0938B828B82EC90E0958B6A
:10157000848B86EC90E0978B868B118E128E138E67
:10158000148E0E9401046093770570937805809310
:10159000790590937A050895CF93DF93CDB7DEB7A1
:1015A000C45AD1090FB6F894DEBF0FBECDBF7894F0
:1015B00084B5826084BD84B5816084BD85B5826058
:1015C00085BD85B5816085BD80916E008160809309
:1015D0006E00109281008091810082608093810072
:1015E0008091810081608093810080918000816082
:1015F000809380008091B10084608093B1008091DD
:10160000B00081608093B00080917A008460809304
:101610007A0080917A00826080937A0080917A00CB
:10162000816080937A0080917A00806880937A004C
:101630001092C1000E94AC0980918D0490918E049B
:10164000019690938E0480938D0421E030E0892BE5
:1016500011F430E020E08091D7049091D80428174D
:10166000390731F03093D8042093D7040E94C30780
:1016700061E088E00E94860261E088E00E94B40296
:1016800061E088E00E948602E091EA04F091EB04B8
:1016900082E08083E091E604F091E7041082E0911B
:1016A000E804F091E90480E180831092F204E09173
:1016B000EE04F091EF0486E08083E091EC04F09179
:1016C000ED04808180618083E091EC04F091ED0471
:1016D000808188608083E091EC04F091ED0480814A
:1016E00080688083E091EC04F091ED0480818F7D2F
:1016F000808385E090E0A0E0B0E08093DE049093EA
:10170000DF04A093E004B093E10461E08DE00E9467
:10171000B4026091BB048DE00E94860261E087E024
:101720000E94B40261E087E00E94860262E083E0EA
:101730000E94B4021092000161E089E00E94B402AC
:1017400060E080E10E94B40260E08EE00E94B4029A
:101750008091CE04882309F4A9C181E090E09093A0
:1017600063018093620161E772E0CE0101960E94FD
:10177000DF1BCE0101960E9425079E012B593F4F8A
:10178000790134E0232E312C47E0C42ED12C8091F6
:10179000930481110DC00E94010460938F04709323
:1017A0009004809391049093920481E08093930439
:1017B00080908F0490909004A0909104B090920437
:1017C0000E940104240135013FE0430E511C611CBD
:1017D000711CA3019201261B370B480B590BDA0130
:1017E000C9014097A105B10508F065C10E94010437
:1017F0003FE0830E911C861A970A0E9401046093B1
:101800008F04709390048093910490939204181421
:1018100019047CF40E94DC034B015C010E94DC0390
:10182000681979098A099B09683E73408105910509
:10183000A8F3A0909B04B0909C0454E6A516B104B4
:101840000CF045C18AED94E00E9485011816190636
:101850000CF041C18AED94E00E946301E1E0F0E008
:10186000EC0FFD1FEA0DFB1D80838A3011F0811102
:1018700026C1108210929C0410929B0465E872E0CD
:10188000CE0101960E947C07882309F42FC20E9492
:1018900001046093770570937805809379059093A0
:1018A0007A051092BA041092A0048091D90488237A
:1018B00021F01092CD040E94C30765ED72E0CE01C5
:1018C00001960E947C07882309F451C260EE72E001
:1018D000C7010E94DF1BC7010E94250761E087E066
:1018E0000E94860267E073E0CE0101960E947C07A9
:1018F000882359F062E173E0C7010E94DF1BC70132
:101900000E94250781E08093A1046FE173E0CE017E
:1019100001960E947C078823A1F060E373E0C70171
:101920000E94DF1BC7010E94250782E1E8ECF4E07A
:1019300011928A95E9F70E9439090E94A2070E9434
:10194000AC0963E473E0CE0101960E947C07882312
:10195000A1F064E573E0C7010E94DF1BC7010E948C
:1019600025078DE0EDECF4E011928A95E9F70E94ED
:1019700039090E94A2070E94AC0967E673E0CE0114
:1019800001960E947C078823A1F069E773E0C701F4
:101990000E94DF1BC7010E94250786E1E4ECF4E00A
:1019A00011928A95E9F70E9439090E94A2070E94C4
:1019B000AC0984E0FE013796D70101900D928A951B
:1019C000E1F7F70114826DE873E0CE0101960E9401
:1019D0007C07882309F4ECC1C7010E943F152B0145
:1019E0003C0183E993E00E946E07C301B2010E94AB
:1019F0002A09209172013091730140917401509134
:101A00007501C301B2010E94791A20919E013091A3
:101A10009F014091A0015091A1010E947A1A4B01AF
:101A20005C0180929E0190929F01A092A001B092D1
:101A3000A1019F772DEC3CEC4CE45EE30E948E1BF1
:101A400018160CF0A7C110929E0110929F011092DF
:101A5000A0011092A1018FE993E00E946E076091AE
:101A60009E0170919F018091A0019091A1010E941F
:101A70002A09C301B2010E942A0961EC73E0CE0178
:101A800001960E947C07882309F4AEC18091CE04A0
:101A9000811105C081E08093CE040E94C30741E01C
:101AA00050E0509363014093620115C010926301AE
:101AB0001092620158CE2FE0822E912C9ECE8FEF95
:101AC000A81AB80AB0929C04A0929B04B2CE1092BD
:101AD0009C0410929B048091BB04882371F10E94A6
:101AE00001048090BC049090BD04A090BE04B0900E
:101AF000BF04681979098A099B0961157447874BE6
:101B0000914020F48091A004811117C00E9401042B
:101B10008090770590907805A0907905B0907A052F
:101B2000681979098A099B0961387E4E86439105B7
:101B300008F471C181E08093A1048091A604811111
:101B40000DC00E9401046093A2047093A3048093CB
:101B5000A4049093A50481E08093A60488E00E94E9
:101B60005D02892B09F468C08091A104882309F4DF
:101B700063C060EE73E0CE0101960E94DF1BCE01D0
:101B800001960E9425071092A10481E08093A00491
:101B90009091D904911104C08093CD040E94C30791
:101BA0001092BA040E9401046093A2047093A304EB
:101BB0008093A4049093A5040E9401046093BC0444
:101BC0007093BD048093BE049093BF040E940104EF
:101BD00060937705709378058093790590937A05E3
:101BE00080919F048F5F80939F0421E030E08111FA
:101BF00002C030E020E08091CF049091D0042817FB
:101C0000390731F03093D0042093CF040E94C307EA
:101C10000E9401048090BC049090BD04A090BE047A
:101C2000B090BF04681979098A099B090E94D207FC
:101C300060E088E00E9486020E9401048090A20475
:101C40009090A304A090A404B090A5046819790909
:101C50008A099B09613375478105910578F188E010
:101C60000E945D02892B51F56FEE73E0CE01019663
:101C70000E94DF1BCE0101960E94250780919D04E2
:101C800090919E04019690939E0480939D0421E080
:101C900030E0892B11F430E020E08091D504909160
:101CA000D6042817390731F03093D6042093D50491
:101CB0000E94C30761E088E00E948602E091620111
:101CC000F0916301EC30F10508F0B7C0E659F14F2F
:101CD0000C94D91B1B0F1D105510B5100511311197
:101CE00056115D1184118B11B01198146DE872E0DA
:101CF000CE0101960E947C078823E1F06DE972E035
:101D0000C7010E94DF1BC7010E94250711E0109345
:101D1000BB0461E08DE00E9486028091CD048111B8
:101D200004C01093CD040E94C307CE0101960E9407
:101D30006E07C3CD60EB72E0CE0101960E947C0776
:101D4000882399F361EC72E0C7010E94DF1BC70191
:101D50000E9425071092BB0460E08DE00E9486027D
:101D60008091CD04882309F31092CD04DCCF6DEE71
:101D700072E0CE0101960E947C07882309F4B2CD5F
:101D800069EF72E0C7010E94DF1BC7010E942507AF
:101D900060E0A5CD81E08093C8048092C904909250
:101DA000CA04A092CB04B092CC040E94C30765CEB3
:101DB0006BEB73E0CE0101960E947C07882309F447
:101DC0005CCE1092C8040E94C3072BE030E0309331
:101DD00063012093620110929E0110929F01109264
:101DE000A0011092A10149CE60ED73E0CE010196F1
:101DF0000E947C07882309F46ECE10926301109232
:101E000062018091CE04882309F465CE1092CE043D
:101E10000E94C30760CE0E940104681979098A09EB
:101E20009B096137774C8643910508F486CE81E0A3
:101E30008093BA0482CE0E944803809162019091FF
:101E400063010B9709F4ECC00E9401048090C00468
:101E50009090C104A090C204B090C304681979099D
:101E60008A099B09643F71408105910508F4D8C037
:101E70000E9401046093C0047093C1048093C20463
:101E80009093C3048090BC049090BD04A090BE04C5
:101E9000B090BF04681979098A099B090E94D2078A
:101EA00080E5F7018083328221828AE085A787E07E
:101EB0000E945D02F70183838091BB0484830E94AA
:101EC0000104F701658376838783908714A613A6A0
:101ED00080916201818780917A0190917B01A0912C
:101EE0007C01B0917D0182879387A487B58780911B
:101EF000720190917301A0917401B0917501868770
:101F00009787A08BB18B80918A0190918B01A091D2
:101F10008C01B0918D01828B938BA48BB58B8091BA
:101F2000640190916501A0916601B0916701868B73
:101F3000978BA08FB18F80919A0190919B01A09176
:101F40009C01B0919D01828F938FA48FB58F80915A
:101F5000920190919301A0919401B0919501868F87
:101F6000978FA0A3B1A38091960190919701A09122
:101F70009801B091990182A393A3A4A3B5A38091E2
:101F8000700186A38091AA019091AB01A091AC0150
:101F9000B091AD0187A390A7A1A7B2A74EE250E0F0
:101FA000B7018AED94E00E9427018091BA0488234A
:101FB000B9F18090770590907805A0907905B09060
:101FC0007A050E940104F0E88F0EFEEE9F1EF6E3F4
:101FD000AF1EB11CA5019401261B370B480B590BF2
:101FE000CA01B90128EE33E040E050E00E94981B9E
:101FF0003F932F9388E594E09F938F9341E050E0C7
:102000004C0F5D1F5F934F930E94E61BCE0101961C
:102010000E9425070F900F900F900F900F900F9038
:1020200080E090E0892B09F4B2CB0E9491018823D3
:1020300009F4A7CB0E940000A4CB8091C8048111B1
:1020400009C14BE050E050936301409362016091FD
:10205000C9047091CA048091CB049091CC04609320
:102060009E0170939F018093A0019093A10187012D
:1020700022E044E00E942115FF92EF928DEF93E061
:102080009F938F9381E090E08C0F9D1F9F938F9380
:102090000E94E61BCE0101960E9425070F900F902B
:1020A0000F900F900F900F90C8CE0E94480360E0F1
:1020B00070E080E09FE30E940D04609172017091D6
:1020C0007301809174019091750160937A0170930E
:1020D0007B0180937C0190937D0110926C011092A2
:1020E0006D0110926E0110926F01109271011092A9
:1020F00068011092690110926A0110926B011092AE
:10210000AA011092AB011092AC011092AD01109295
:102110008201109283011092840110928501109225
:102120009A0110929B0110929C0110929D012091A6
:102130001D0130911E0140911F01509120010E940C
:102140008E1B18160CF079CE0E9401046093A20138
:102150007093A3018093A4019093A5018AE090E07D
:10216000909363018093620168CE0E940104809085
:10217000A6019090A701A090A801B090A9016819AC
:1021800079098A099B0980900D0190900E01A09019
:102190000F01B090100186169706A806B906A0F2A6
:1021A00020914101309142014091430150914401FD
:1021B00060918A0170918B0180918C0190918D01C9
:1021C0000E948E1B1816E4F40E9401048090A60160
:1021D0009090A701A090A801B090A9016819790971
:1021E0008A099B098090110190901201A09013011F
:1021F000B090140186169706A806B90608F4A4CF75
:1022000081E090E00E94EF0418CE0E94480360E055
:1022100070E080E09FE30E940D0460917201709174
:102220007301809174019091750160937A017093AC
:102230007B0180937C0190937D0120911D01309161
:102240001E0140911F01509120010E948E1B181603
:102250000CF0F3CDE2E0F0E0F0936301E093620173
:10226000ECCD0E94480360E070E080E09FE30E94B4
:102270000D046091720170917301809174019091CD
:10228000750160937A0170937B0180937C01909338
:102290007D0120911D0130911E0140911F0150913F
:1022A00020010E94EB1887FDD5CFC7CD0E94900674
:1022B00081114ACF83E090E0A5CF0E949006811162
:1022C00043CF6091190170911A0180911B01909187
:1022D0001C019B01AC010E947A1A9B01AC01609128
:1022E0009A0170919B0180919C0190919D010E94A7
:1022F0008E1B181634F485E090E090936301809370
:10230000620182E090E07ECF0E94900681111CCF96
:1023100084E090E077CF0E94480360E070E080E0C6
:102320009FE30E940D04609172017091730180918E
:1023300074019091750160937A0170937B01809391
:102340007C0190937D0120913501309136014091BF
:102350003701509138010E94EB1887FF6ECDF4CE03
:102360000E94480360E070E080E09FE30E94660303
:102370006091760170917701809178019091790157
:102380009F7720910101309102014091030150910A
:1023900004010E94EB1887FF50CD0E940104809039
:1023A000A2019090A301A090A401B090A50168198A
:1023B00079098A099B098090090190900A01A090EF
:1023C0000B01B0900C0186169706A806B90608F016
:1023D00034CD20917A0130917B0140917C01509164
:1023E0007D016091720170917301809174019091EF
:1023F00075010E94791A60937E0170937F0180932A
:102400008001909381010E9401046093A601709362
:10241000A7018093A8019093A901809072019090E8
:102420007301A0907401B090750120913901309131
:102430003A0140913B0150913C01C501B4010E9419
:102440008E1B1816BCF489E090E090936301809392
:1024500062018091720190917301A0917401B09119
:10246000750180937A0190937B01A0937C01B093D6
:102470007D01E3CC4091AA015091AB016091AC0188
:102480007091AD0180910D0190910E01A0910F010D
:10249000B0911001481759076A077B0708F44FC02D
:1024A000409041015090420160904301709044017E
:1024B000A301920160918A0170918B0180918C013E
:1024C00090918D010E94EB1887FF39C02091640123
:1024D000309165014091660150916701C301B201DD
:1024E0000E94EB1887FF2BC02091450130914601D7
:1024F0004091470150914801C501B4010E947A1AE8
:102500009B01AC01609182017091830180918401F3
:10251000909185010E948E1B18168CF420911D014C
:1025200030911E0140911F0150912001C501B4015D
:102530000E948E1B87FD03C083E090E086CF209130
:102540003101309132014091330150913401C50184
:10255000B4010E948E1B87FD28C1809171018111F9
:1025600018C08091960190919701A0919801B09127
:1025700099018093640190936501A0936601B093E3
:102580006701D0926301C092620181E08093710182
:1025900060CF209135013091360140913701509143
:1025A000380160917A0170917B0180917C0190915A
:1025B0007D010E94791A9F772AE037ED43EA5BE3B9
:1025C0000E94EB1887FF57C060917E0170917F01D8
:1025D00080918001909181019F772AE037ED43EA55
:1025E0005BE30E94EB1887FF46C02DEC3CEC4CE40B
:1025F0005DE360918A0170918B0180918C019091D3
:102600008D010E9451192B013C0123E333E343E781
:102610005FE360919601709197018091980190918C
:1026200099010E9451199B01AC01C301B2010E94A2
:102630007A1A2B013C0120E030E0A9010E94EB183E
:1026400087FDA6C02AE939E949E95EE3C301B20181
:102650000E948E1B18163CF49AE9492E99E9592ECE
:10266000652C9EE3792E40929601509297016092DC
:102670009801709299010E9401044090B20150901B
:10268000B3016090B4017090B501641975098609B1
:1026900097090E94F0182B013C010E9401046093ED
:1026A000B2017093B3018093B4019093B501A50179
:1026B00094016091350170913601809137019091BC
:1026C00038010E94791A20915E0130915F0140919A
:1026D0006001509161010E945119A30192010E9471
:1026E000511920916C0130916D0140916E01509112
:1026F0006F010E947A1A4B015C0120E030E0A901D1
:102700000E94EB1887FD48C020E030E04FE753E41B
:10271000C501B4010E948E1B181634F4812C912C33
:102720008FE7A82E83E4B82E80926C0190926D0101
:10273000A0926E01B0926F0120E030E0A901C501C6
:10274000B4010E948E1B20E030E040E05FE387FD93
:1027500027C0C501B4010E947A1A0E94581B6093D9
:102760007001862F90E00E94F00280919601909176
:102770009701A0919801B091990180936401909381
:102780006501A0936601B093670188E090E05DCE9B
:10279000412C512C320167CF812C912C5401C4CF94
:1027A000C501B4010E94791AD8CF20912D01309132
:1027B0002E0140912F0150913001C501B4010E94BA
:1027C0008E1B87FD1FC0209196013091970140918B
:1027D000980150919901609152017091530180913B
:1027E0005401909155010E947A1A6093640170938C
:1027F00065018093660190936701D0926301C09256
:10280000620127CE209125013091260140912701B8
:1028100050912801C501B4010E948E1B87FD2AC07A
:1028200040909601509097016090980170909901A6
:102830002091290130912A0140912B0150912C01C6
:10284000C501B4010E94EB18A301920187FF09C0E2
:1028500060914E0170914F01809150019091510112
:10286000C2CF60914A0170914B0180914C019091CF
:102870004D01B9CF209121013091220140912301D6
:1028800050912401C501B4010E948E1B87FF1BC01B
:1028900020911D0130911E0140911F015091200196
:1028A0006091720170917301809174019091750132
:1028B0000E948E1B1816BCF142E050E05093630159
:1028C00040936201C6CD0E94010480900501909062
:1028D0000601A0900701B0900801681579058A05E6
:1028E0009B05B0F620919601309197014091980197
:1028F0005091990160914E0170914F01809150016A
:10290000909151010E947A1A60936401709365015D
:10291000809366019093670126E030E03093630175
:102920002093620196CD309263012092620191CD95
:102930000E9448036AE077ED83EA9CE30E940D045D
:102940008091B20481110DC00E9401046093AE0415
:102950007093AF048093B0049093B10481E08093AE
:10296000B2040E9401048090AE049090AF04A09045
:10297000B004B090B104681979098A099B096B3FCA
:1029800071058105910508F458CA0E9401046093FD
:10299000AE047093AF048093B0049093B10484E1CB
:1029A00094E00E946C0780E10E944E03BC01990FE5
:1029B000880B990B0E94100880E294E00E946C073B
:1029C00080E10E944E03BC01990F880B990B0E9475
:1029D000F21820E030E040E05FE30E947A1A20E045
:1029E00030E040EA50E40E94511920E030E040E835
:1029F0005AE30E94511942E00E944E088BE294E093
:102A00000E946C0760919E0170919F018091A001CE
:102A10009091A10142E00E944E0887E494E00E9458
:102A20006C076091720170917301809174019091B3
:102A3000750142E00E944E088EE794E00E946E0706
:102A4000FCC9EF920F931F93CF93DF93E80134E01B
:102A500047FD34E1042E000C550B57FF03C0519580
:102A600041955109E32E022F242FAE010E944315F8
:102A7000CE01DF91CF911F910F91EF9008956627BE
:102A800077270C94A216A9E0B0E0E9E4F5E10C94F4
:102A9000391A6A01F22EB02E102FFBE3AF2EA016CA
:102AA00008F41BE31F5F012F27E0AE014F5F5F4F6C
:102AB0000E94F217BC018981982F9970913009F416
:102AC0003FC09BE2E1FC04C09E2D9170E0FC3AC047
:102AD0005E2D5071E82FE87083FF46C084E09111AD
:102AE00001C083E0EF2DE81B8F1508F0E0E0D60170
:102AF0008E2F20E2552351F1992329F0D6019C9382
:102B0000C60101966C0196012D5F3F4FE2FE24C085
:102B10008EE4D6018C9391E411969C9311971296B2
:102B20008C93D9018E2F90E281111BC0E20FF32FFD
:102B3000F11D10828EEF9FEF2996ECE00C94551A50
:102B40009DE2C6CF90E2C4CF2D9381508111FCCF7E
:102B5000CE0ED11CE0E0D0CF8EE6D6018C9391E66C
:102B6000DBCF9D938150E0CF482F447082FF3DC062
:102B700084E0911101C083E08F1510F4EF2DE81B64
:102B8000D6018E2F20E2552309F1992329F0D60191
:102B90009C93C60101966C0196012D5F3F4FE2FEAA
:102BA0001BC089E4D6018C938EE411968C93119707
:102BB00086E412968C93D9018E2F90E2882309F433
:102BC000B5CF9D938150FACF2D9381508111FCCFC9
:102BD000CE0ED11CE0E0D9CF89E6D6018C938EE6EB
:102BE00011968C93119786E6E4CF9B0177FF02C084
:102BF00030E020E0A1E0B0E0911102C0B0E0A0E040
:102C0000F9013196AE0FBF1F8B2C912CBB2009F41C
:102C100061C05401EFEFAE1ABE0AAA0DBB1DFA1631
:102C20001B0619F014F04F2D4A1B511188C0E3FC0C
:102C300059C07601A42FB0E2A1114FC0C40ED11C1F
:102C4000992309F45BC040E0D6011196F601908308
:102C50006D01552309F448C0012F060F9A81582FA2
:102C6000507184FF03C0913309F4015010160CF029
:102C700047C0093008F008E0EEE2FE2E5B01A01A22
:102C8000B10885019194819491082F3F320729F46E
:102C9000D601FC92F60131966F016217730794F129
:102CA000021713077CF5DB01A21BB30BAA24A39424
:102CB000B12CAC0EBD1EAA0DBB1D11968C912150DE
:102CC0003109D601119628153905F4F0F6018083F3
:102CD0006D01DBCFB12CA12CA0CFF701B1937F0107
:102CE000A150AACF9111B0CFD601942F50E302C0CA
:102CF0005D9391509111FCCFC40ED11C40E0ACCF3C
:102D000001E0BACF80E3DBCF6217730731F496336B
:102D100088F4953311F4552369F0F6018083FD01A1
:102D2000842F90E2811108C0A40FB11D1C9290E085
:102D300080E002CF81E3F1CF91938150F3CF9111E5
:102D400083CF8ACFB0E0A0E0E8EAF6E10C94391A2C
:102D50005C017B016115710519F0DB018D939C937A
:102D600085010F5F1F4FF501D0818D2F90E00E94EC
:102D7000CA186C01892BB9F5DD32B9F50F5F1F4F09
:102D8000D5011196DC91C1E05801F1E0AF1AB1080C
:102D900043E050E060E770E0C5010E94D318892B42
:102DA00069F5680182E0C80ED11C45E050E06BE691
:102DB00070E0C6010E94D318892B21F4680197E0C6
:102DC000C90ED11CE114F10419F0D701CD92DC92A7
:102DD00060E070E080E89FEFC111FFC060E070E04C
:102DE00080E89FE7FAC05801BBCFDB3229F48501A8
:102DF0000E5F1F4FF501D181C0E0C6CF43E050E028
:102E000068E670E0C5010E94D318892BE9F0F8014B
:102E100010E000E020E030E0A9015F01B0ED8B2E72
:102E20008D0E89E08815C8F19C2E689491F88C2F3E
:102E30008870C2FF16C0811102C00F5F1F4F31960C
:102E4000D501DC91C92DE9CFE114F10429F00E5F21
:102E50001F4FF7011183008360E070E080EC9FE773
:102E6000BCC0882311F001501109A5E0B0E00E9418
:102E7000281A9B01AC01220F331F441F551F280D38
:102E8000311D411D511D283999E93907490799E13B
:102E90005907A8F2C6609C2ED2CFAEEF8A1206C0A8
:102EA000C3FD3CC09C2E689493F8C9CFDF7DD53418
:102EB000A9F580818D3239F4C061DF0112968181DC
:102EC00062E070E006C0DF018B32C1F3119661E071
:102ED00070E080535D01A61AB70A8A30F8F4E0E882
:102EE000CE16ECE0DE065CF4B601660F771F660FC7
:102EF000771FC60ED71ECC0CDD1CC80ED11C5D0181
:102F0000FFEFAF1ABF0A8C9180538A30A8F1C4FF3B
:102F100003C0D194C194D1080C0D1D1DC1FF09C07F
:102F2000E114F10431F081E0A81AB108D701AD92A3
:102F3000BC92CA01B9010E94F018C370C33009F4F1
:102F400090584B015C0120E030E0A9010E94EB1891
:102F5000882309F440C0CFE9D0E017FF05C01195E0
:102F600001951109C7E8D0E06E01B8E1CB1AD1088C
:102F700080E2E82EF12C0FC0D501B1CFFE012591E2
:102F80003591459154910E191F09C501B4010E9454
:102F900051194B015C01D501C4010E151F0574F7D1
:102FA0002497F594E794CC16DD06A9F78A2F880FAD
:102FB0008B2F881F8F3F49F020E030E0A901C50129
:102FC000B4010E94EB18811106C082E290E0909358
:102FD0007C0580937B05C501B401CDB7DEB7ECE07D
:102FE0000C94551A283008F027E03327DA01990F9E
:102FF000311D87FD916000966105710539F43260DD
:103000002E5F3D9330E32A95E1F708959F3F30F01E
:1030100080387105610509F03C5F3C5F3D9391305C
:1030200008F08068911DDF93CF931F930F93FF9259
:10303000EF92192F987F9695E92F96959695E90F1F
:10304000FF27E350FF4F99273327EE24FF24A701E2
:10305000E70105900894079428F4360FE71EF81E40
:10306000491F511D660F771F881F991F0694A1F7EE
:103070000590079428F4E70EF81E491F561FC11D3E
:10308000770F881F991F661F0694A1F70590079474
:1030900028F4F80E491F561FC71FD11D880F991F0E
:1030A000661F771F0694A1F70590079420F4490F37
:1030B000561FC71FD81F990F661F771F881F0694BA
:1030C000A9F784911095177041F0D695C79557953B
:1030D0004795F794E7941A95C1F7E3EAF0E068940E
:1030E0001590159135916591959105907FE27395B5
:1030F000E118F10A430B560BC90BD009C0F7E10CDC
:10310000F11E431F561FC91FD01D7EF4703311F4EA
:103110008A95E6CFE894015030F0080F0AF40027B2
:10312000021708F4202F2395022F7A3328F079E331
:103130007D932A95E9F710C07D932A9589F6069428
:1031400097956795379517951794E118F10A430BF2
:10315000560BC90BD00998F023957E9173957A335D
:1031600008F070E37C932013B8F77E9170617D9333
:1031700030F0839571E37D9370E32A95E1F7112494
:10318000EF90FF900F911F91CF91DF91992787FDCD
:103190009095089591110C94BE19803219F08950C0
:1031A0008550C8F70895FB01DC014150504088F07C
:1031B0008D9181341CF08B350CF4805E6591613407
:1031C0001CF06B350CF4605E861B611171F3990B7A
:1031D0000895881BFCCF0E942D1908F481E0089502
:1031E000E89409C097FB3EF49095809570956195A1
:1031F0007F4F8F4F9F4F9923A9F0F92F96E9BB2757
:103200009395F695879577956795B795F111F8CFD2
:10321000FAF4BB0F11F460FF1BC06F5F7F4F8F4F3D
:103220009F4F16C0882311F096E911C0772321F033
:103230009EE8872F762F05C0662371F096E8862FCB
:1032400070E060E02AF09A95660F771F881FDAF722
:10325000880F9695879597F90895990F0008550F4F
:10326000AA0BE0E8FEEF16161706E807F907C0F00C
:1032700012161306E407F50798F0621B730B840B14
:10328000950B39F40A2661F0232B242B252B21F4EE
:1032900008950A2609F4A140A6958FEF811D811D8E
:1032A00008950E9464190C94D8190E94CA1938F024
:1032B0000E94D11920F0952311F00C94C1190C949F
:1032C000C71911240C940C1A0E94E91970F3959FE8
:1032D000C1F3950F50E0551F629FF001729FBB270D
:1032E000F00DB11D639FAA27F00DB11DAA1F649FA9
:1032F0006627B00DA11D661F829F2227B00DA11D5C
:10330000621F739FB00DA11D621F839FA00D611DE1
:10331000221F749F3327A00D611D231F849F600D02
:10332000211D822F762F6A2F11249F5750409AF02B
:10333000F1F088234AF0EE0FFF1FBB1F661F771FB7
:10334000881F91505040A9F79E3F510580F00C9482
:10335000C1190C940C1A5F3FE4F3983ED4F38695A0
:1033600077956795B795F795E7959F5FC1F7FE2B22
:10337000880F911D9695879597F908959927882725
:10338000089597F99F6780E870E060E008959FEFE7
:1033900080EC089500240A941616170618060906EC
:1033A000089500240A9412161306140605060895BB
:1033B000092E0394000C11F4882352F0BB0F40F443
:1033C000BF2B11F460FF04C06F5F7F4F8F4F9F4F83
:1033D000089557FD9058440F551F59F05F3F71F005
:1033E0004795880F97FB991F61F09F3F79F087956C
:1033F0000895121613061406551FF2CF4695F1DFF5
:1034000008C0161617061806991FF1CF8695710584
:10341000610508940895E894BB2766277727CB01B8
:1034200097F90895F999FECF92BD81BDF89A992731
:1034300080B50895262FF999FECF1FBA92BD81BDA0
:1034400020BD0FB6F894FA9AF99A0FBE0196089526
:103450000E946A1AA59F900DB49F900DA49F800DA5
:10346000911D112408952F923F924F925F926F9277
:103470007F928F929F92AF92BF92CF92DF92EF9204
:10348000FF920F931F93CF93DF93CDB7DEB7CA1B85
:10349000DB0B0FB6F894DEBF0FBECDBF09942A88B0
:1034A000398848885F846E847D848C849B84AA8458
:1034B000B984C884DF80EE80FD800C811B81AA81E5
:1034C000B981CE0FD11D0FB6F894DEBF0FBECDBFB0
:1034D000ED010895A29FB001B39FC001A39F700D9D
:1034E000811D1124911DB29F700D811D1124911D0C
:1034F00008955058BB27AA270E94911A0C94D819F6
:103500000E94CA1938F00E94D11920F039F49F3F67
:1035100019F426F40C94C7190EF4E095E7FB0C940B
:10352000C119E92F0E94E91958F3BA176207730706
:103530008407950720F079F4A6F50C940B1A0EF485
:10354000E0950B2EBA2FA02D0B01B90190010C01B3
:10355000CA01A0011124FF27591B99F0593F50F4CB
:10356000503E68F11A16F040A22F232F342F442723
:10357000585FF3CF469537952795A795F04053951B
:10358000C9F77EF41F16BA0B620B730B840BBAF0EB
:103590009150A1F0FF0FBB1F661F771F881FC2F756
:1035A0000EC0BA0F621F731F841F48F4879577956A
:1035B0006795B795F7959E3F08F0B0CF9395880F24
:1035C00008F09927EE0F9795879508950E94FA1AAB
:1035D0000C94D8190E94D11958F00E94CA1940F0D1
:1035E00029F45F3F29F00C94C11951110C940C1A65
:1035F0000C94C7190E94E91968F39923B1F3552374
:1036000091F3951B550BBB27AA27621773078407F5
:1036100038F09F5F5F4F220F331F441FAA1FA9F38B
:1036200035D00E2E3AF0E0E832D091505040E69579
:10363000001CCAF72BD0FE2F29D0660F771F881FDA
:10364000BB1F261737074807AB07B0E809F0BB0BCD
:10365000802DBF01FF2793585F4F3AF09E3F5105E1
:1036600078F00C94C1190C940C1A5F3FE4F3983E67
:10367000D4F3869577956795B795F7959F5FC9F7CA
:10368000880F911D9695879597F90895E1E0660F4B
:10369000771F881FBB1F621773078407BA0720F0C4
:1036A000621B730B840BBA0BEE1F88F7E09508952D
:1036B0000E945F1B6894B1110C940C1A08950E942B
:1036C000F11988F09F5798F0B92F9927B751B0F0AA
:1036D000E1F0660F771F881F991F1AF0BA95C9F796
:1036E00014C0B13091F00E940B1AB1E008950C940F
:1036F0000B1A672F782F8827B85F39F0B93FCCF3C2
:10370000869577956795B395D9F73EF49095809512
:10371000709561957F4F8F4F9F4F08950E942D198F
:1037200008F48FEF08950E942D19880B990B0895C6
:10373000A1E21A2EAA1BBB1BFD010DC0AA1FBB1FB5
:10374000EE1FFF1FA217B307E407F50720F0A21B27
:10375000B30BE40BF50B661F771F881F991F1A9494
:1037600069F760957095809590959B01AC01BD01BE
:10377000CF010895052E97FB1EF400940E94D11BE3
:1037800057FD07D00E94981B07FC03D04EF40C9401
:10379000D11B50954095309521953F4F4F4F5F4F2E
:1037A000089590958095709561957F4F8F4F9F4FAD
:1037B0000895EE0FFF1F0590F491E02D0994FB0191
:1037C000DC0101900D920020E1F70895AEE0B0E039
:1037D000ECEEFBE10C94411A0D891E8986E08C8386
:1037E0001A8309838FEF9FE79E838D83AE01475E27
:1037F0005F4F6F89788DCE0101960E94091C2F8141
:103800003885020F131FF80110822E96E4E00C9405
:103810005D1AABE0B0E0EFE0FCE10C94331A7C0100
:103820003B018A01FC0117821682838181FFC8C196
:10383000CE0101965C01F7019381F30193FD85911F
:1038400093FF81913F01882309F453C1853239F4F4
:1038500093FD859193FF81913F01853229F4B70152
:1038600090E00E94F91DE7CF912C212C312CFFE133
:10387000F31538F08B3211F190F4803209F1833274
:1038800029F137FC3CC020ED280F2A3050F536FED8
:1038900020C08AE0989E200D1124922E06C08D3201
:1038A00091F0803371F7689430F8F30193FD8591BE
:1038B00093FF81913F018111DACF21C0689431F8E3
:1038C000689432F8F2CF689433F8EFCF689434F804
:1038D000ECCFEAE02E9E200D1124222E689435F8BC
:1038E000E4CF8E3229F436FC04C1689436F8DDCF7B
:1038F0008C3619F4689437F8D8CF8836B1F2982FFF
:103900009F7D95549330E0F08336A1F18337C1F168
:10391000833509F063C02801F2E04F0E511CF80115
:10392000C080D180692D70E036FC02C06FEF7FEF60
:10393000C6010E94E31D4C01689437F882010AC059
:103940000C5F1F4FFFE3F98388248394912C65015A
:10395000E89437F833FE2DC0522C8114910471F590
:10396000552009F468CFB70180E290E00E94F91D6C
:103970005A94F6CFF801808189830E5F1F4FE4CF00
:103980002801F2E04F0E511CF801C080D180692D52
:1039900070E036FC02C06FEF7FEFC6010E94EE1DA3
:1039A0004C018201D5CFB70180E290E00E94F91D61
:1039B0002A942814190409F0B0F7CECFF60137FC89
:1039C000859137FE81916F01B70190E00E94F91D4A
:1039D00051105A94F1E08F1A9108BFCF843619F034
:1039E000893609F077C0F80137FE6BC060817181BC
:1039F000828193810C5F1F4FF32DFF763F2E97FF3F
:103A000009C090958095709561957F4F8F4F9F4F1E
:103A1000689437F82AE030E0A5010E94291EC82EDC
:103A2000CA188C2C432C36FE0CC0E89440F8C914FC
:103A300040F434FE05C032FC03C0F32DFE7E4F2E51
:103A4000892C44FE95C0FE01EC0DF11D8081803370
:103A500009F087C0242D297E422E842D8870582E8F
:103A600043FC95C040FE8FC09C2C821418F42C0C93
:103A7000922C981844FE91C0B70180E390E00E9418
:103A8000F91D42FE09C088E790E041FE02C088E5CA
:103A900090E0B7010E94F91DC91408F48AC0CA94C5
:103AA000D12C9FEFC91AD90ACA0CDB1CF6018291EE
:103AB0006F01B70190E00E94F91DAC14BD04B1F78D
:103AC0004FCF60817181072E000C880B990B0E5F20
:103AD0001F4F92CFD32CE894D4F82AE030E08537FA
:103AE00039F1232D297FD22E8F3601F148F4883504
:103AF000A9F0F701868197812B96E2E10C944F1A89
:103B0000803749F08837A9F7D4FE02C06894D2F80C
:103B100020E130E00DC06894D4F8F6CF34FE03C045
:103B2000822F8660D82E20E132E002C028E030E00B
:103B3000F801D7FE0FC060817181828193810C5F93
:103B40001F4FA5010E94291EC82ECA183D2CE894BB
:103B500037F867CF6081718190E080E00E5F1F4F82
:103B6000F0CF42FC02C0839478CF8394839475CFC6
:103B7000842D867809F471CFF6CFB70180E290E00A
:103B80000E94F91D83948214C0F3512C73CF522CE0
:103B90005818821408F46ECFF8CF842D867809F473
:103BA0007BCF8BE241FE80E247FC8DE2B70190E0E3
:103BB00071CFB70180E390E00E94F91D9A946CCF19
:103BC0008FEF9FEF99CFFC0105906150704001107D
:103BD000D8F7809590958E0F9F1F0895FC01615036
:103BE000704001900110D8F7809590958E0F9F1F1F
:103BF00008950F931F93CF93DF93182F092FEB0195
:103C00008B8181FD09C01FEF0FEF812F902FDF9176
:103C1000CF911F910F91089582FF14C02E813F8193
:103C20008C819D81281739073CF4E881F981CF0107
:103C300001969983888310838E819F8101969F834B
:103C40008E83E3CFE885F985812F0995892BA1F330
:103C5000DACFFA01AA27283051F1203181F1E89416
:103C60006F936E7F6E5F7F4F8F4F9F4FAF4FB1E06F
:103C70003ED0B4E03CD0670F781F891F9A1FA11D6A
:103C8000680F791F8A1F911DA11D6A0F711D811D6B
:103C9000911DA11D20D009F468943F912AE0269F30
:103CA00011243019305D3193DEF6CF010895462F8F
:103CB0004770405D4193B3E00FD0C9F7F6CF462F70
:103CC0004F70405D4A3318F0495D31FD40524193D9
:103CD00002D0A9F7EACFB4E0A69597958795779596
:103CE0006795BA95C9F700976105710508959B011D
:103CF000AC010A2E06945795479537952795BA95A6
:103D0000C9F7620F731F841F951FA01D0895F894B3
:103D1000FFCF01CDCC4C3D60EA00002C010000300B
:103D2000750000C2010000C3F5A83E0000964300E4
:103D300000803F0000C03F00002040000060403392
:103D4000338340CDCC8440666686400000884000C6
:103D5000004041CDCCCC3DCDCCCC3E23EC51B83E47
:103D60009A99993E9A99193E0AD7A33C0000C842F5
:103D70000AD7233C00000000000000000000000003
:103D80000000000000000000000000000000000033
:103D90000000000000000000000000000000000023
:103DA000000000000000803F9A99193E00000000CA
:103DB0000000000000000000000000000000000003
:103DC000000000000000000000000000C701270103
:103DD000540114028501630177016E616E00696E02
:103DE00066006F766600656570726F6D5F777269E9
:103DF0007465732000766F6C746167655F63616CD6
:103E00006962726174696F6E5F646F6E65200077BE
:103E100061746368646F675F656E61626C6564207E
:103E2000006368617267696E675F656E61626C6589
:103E30006420007761746368646F675F636F756E99
:103E40007420007761746368646F675F74696D657F
:103E500020004820280029007761746368646F6738
:103E60005F626F6F745F636F756E74200062617361
:103E700065626F6172645F626F6F745F636F756EAE
:103E800074200062617365626F6172642073746193
:103E9000727465640D0A00486172726F7721006563
:103EA0006E61626C65207761746368646F67005748
:103EB00061746368646F6720656E61626C65640D30
:103EC0000A0064697361626C652077617463686479
:103ED0006F67005761746368646F6720646973611A
:103EE000626C65640D0A00656E61626C65206C65CC
:103EF0006400456E61626C65204C45440D0A0064A7
:103F0000697361626C65206C656400446973616209
:103F10006C65204C45440D0A007265626F6F742019
:103F20006E7563005265626F6F74204E55430D0AC3
:103F300000636C65617220636F6E66696720616CF7
:103F40006C00636C65617220636F6E6669672061E7
:103F50006C6C0D0A00636C65617220636F6E66693C
:103F600067206C6F6700636C65617220636F6E66BB
:103F70006967206C6F670D0A00636C65617220636E
:103F80006F6E666967206861726400636C65617258
:103F900020636F6E66696720686172640D0A006352
:103FA000616C69620063616C6962726174653A2078
:103FB000004552524F523A20696E76616C69642016
:103FC00063616C6962726174696F6E3A00726573E5
:103FD000657400656E61626C652063686172676517
:103FE000720064697361626C652063686172676501
:103FF00072005475726E206F6666204E55430D0A2E
:10400000005475726E206F6E204E55430D0A007677
:104010006F6C74732063616C6962726174696F6E36
:104020002025730D0A00616E616C6F672076616CEC
:10403000200020766F6C745F726177200020766FAD
:104040006C746167655F63616C6962726174696FEA
:104050006E5F76616C7565200020736D6F6F74689C
:1040600065645F766F6C7473200057617463686475
:104070006F672077696C6C2074726967676572205E
:10408000696E202564207365636F6E6473210D0A69
:0240900000002E
:107E0000112484B714BE81FFF0D085E080938100F7
:107E100082E08093C00088E18093C10086E0809377
:107E2000C20080E18093C4008EE0C9D0259A86E02C
:107E300020E33CEF91E0309385002093840096BBD3
:107E4000B09BFECF1D9AA8958150A9F7CC24DD24C4
:107E500088248394B5E0AB2EA1E19A2EF3E0BF2EE7
:107E6000A2D0813461F49FD0082FAFD0023811F036
:107E7000013811F484E001C083E08DD089C08234E0
:107E800011F484E103C0853419F485E0A6D080C0E4
:107E9000853579F488D0E82EFF2485D0082F10E0AE
:107EA000102F00270E291F29000F111F8ED06801E7
:107EB0006FC0863521F484E090D080E0DECF843638
:107EC00009F040C070D06FD0082F6DD080E0C81688
:107ED00080E7D80618F4F601B7BEE895C0E0D1E017
:107EE00062D089930C17E1F7F0E0CF16F0E7DF06D8
:107EF00018F0F601B7BEE89568D007B600FCFDCFD4
:107F0000A601A0E0B1E02C9130E011968C91119780
:107F100090E0982F8827822B932B1296FA010C0160
:107F200087BEE89511244E5F5F4FF1E0A038BF0790
:107F300051F7F601A7BEE89507B600FCFDCF97BE46
:107F4000E89526C08437B1F42ED02DD0F82E2BD052
:107F50003CD0F601EF2C8F010F5F1F4F84911BD097
:107F6000EA94F801C1F70894C11CD11CFA94CF0C13
:107F7000D11C0EC0853739F428D08EE10CD085E9AC
:107F80000AD08FE07ACF813511F488E018D01DD067
:107F900080E101D065CF982F8091C00085FFFCCF94
:107FA0009093C60008958091C00087FFFCCF809118
:107FB000C00084FD01C0A8958091C6000895E0E648
:107FC000F0E098E1908380830895EDDF803219F02E
:107FD00088E0F5DFFFCF84E1DECF1F93182FE3DFCA
:107FE0001150E9F7F2DF1F91089580E0E8DFEE27F6
:047FF000FF270994CA
:027FFE00040479
:00000001FF
