:100000000C9462000C948A000C948A000C948A0070
:100010000C948A000C948A000C948A000C948A0038
:100020000C948A000C948A000C948A000C948A0028
:100030000C948A000C948A000C948A000C948A0018
:100040000C94A9100C948A000C9477100C94511005
:100050000C948A000C948A000C948A000C948A00F8
:100060000C948A000C948A000000000024002700F1
:100070002A0000000000250028002B0000000000DE
:1000800023002600290004040404040404040202DA
:100090000202020203030303030301020408102007
:1000A0004080010204081020010204081020000012
:1000B0000008000201000003040700000000000027
:1000C0000000F31011241FBECFEFD8E0DEBFCDBF7C
:1000D00025E0A8ECB3E001C01D92A63DB207E1F710
:1000E00013E0A0E0B1E0E6EDF6E402C005900D9269
:1000F000A83CB107D9F710E0C2E6D0E004C02197D0
:10010000FE010E949B20C136D107C9F70E94D01280
:100110000C9469230C940000CF92DF92EF92FF922F
:100120000F931F93FC0189019A018091180590910A
:1001300019050E9446209093190580931805409157
:100140001F055091200560912105709122056801DD
:100150007901C41AD50AE60AF70AAC01440F551F03
:10016000E40FF51F40815181052E000C660B770BC3
:100170004C155D056E057F05C0F401969093190539
:100180008093180500931F051093200520932105E7
:100190003093220591E090931E0580FF0DC01092D0
:1001A0000D0510920E0510920F051F910F91FF90F3
:1001B000EF90DF90CF9008958091130580930D0507
:1001C0008091140580930E058091150580930F058D
:1001D000ECCF80E991E00895AF92BF92CF92DF9289
:1001E000EF92FF920F931F93CF93DF936C017B01EC
:1001F0008B01040F151FEB015E01AE18BF08C0177D
:10020000D10759F06991D601ED91FC910190F081EF
:10021000E02DC6010995892B79F7C501DF91CF91B2
:100220001F910F91FF90EF90DF90CF90BF90AF9014
:100230000895FC01538D448D252F30E0842F90E0EC
:10024000821B930B541710F0CF96089501970895D1
:10025000FC01918D828D981761F0A28DAE0FBF2F9A
:10026000B11D5D968C91928D9F5F9F73928F90E0F0
:1002700008958FEF9FEF0895FC01918D828D98175F
:1002800031F0828DE80FF11D858D90E008958FEF9C
:100290009FEF0895FC01918D228D892F90E0805C65
:1002A0009F4F821B91098F739927089583E594E0EE
:1002B0000E944A0121E0892B09F420E0822F089551
:1002C00080E090E0892B29F00E94560181110C9466
:1002D00000000895FC01A48DA80FB92FB11DA35AE9
:1002E000BF4F2C91848D90E001968F739927848F56
:1002F000A689B7892C93A089B1898C918370806479
:100300008C93938D848D981306C00288F389E02D19
:1003100080818F7D80830895EF92FF920F931F93CA
:10032000CF93DF93EC0181E0888F9B8D8C8D9813A8
:100330001AC0E889F989808185FF15C09FB7F894B4
:10034000EE89FF896083E889F98980818370806400
:1003500080839FBF81E090E0DF91CF911F910F914B
:10036000FF90EF900895F62E0B8D10E00F5F1F4F5A
:100370000F731127E02E8C8D8E110CC00FB607FC69
:10038000FACFE889F989808185FFF5CFCE010E94F7
:100390006A01F1CFEB8DEC0FFD2FF11DE35AFF4FFA
:1003A000F0829FB7F8940B8FEA89FB898081806285
:1003B000CFCFCF93DF93EC01888D8823B9F0AA8942
:1003C000BB89E889F9898C9185FD03C0808186FD10
:1003D0000DC00FB607FCF7CF8C9185FFF2CF80815F
:1003E00085FFEDCFCE010E946A01E9CFDF91CF9169
:1003F0000895833081F028F4813099F08230A9F09B
:1004000008958730A9F08830C9F08430B1F4809124
:1004100080008F7D03C0809180008F778093800063
:10042000089584B58F7784BD089584B58F7DFBCF03
:100430008091B0008F778093B00008958091B000D4
:100440008F7DF9CFCF93DF93282F30E0F901E2556C
:10045000FF4F8491F901E656FF4FD491F901EA5715
:10046000FF4FC491CC23A1F081110E94F901EC2F20
:10047000F0E0EE0FFF1FE458FF4FA591B491EC910F
:10048000ED2381E090E009F480E0DF91CF910895C1
:1004900080E090E0FACF1F93CF93DF93282F30E0D6
:1004A000F901E255FF4F8491F901E656FF4FD491CF
:1004B000F901EA57FF4FC491CC23A9F0162F8111FF
:1004C0000E94F901EC2FF0E0EE0FFF1FEE58FF4FF6
:1004D000A591B4918FB7F894EC91111108C0D09503
:1004E000DE23DC938FBFDF91CF911F910895DE2B28
:1004F000F8CFCF93DF9390E0FC01E656FF4F2491B5
:100500008A579F4FFC0184918823D1F090E0880F97
:10051000991FFC01E859FF4FA591B491FC01EE58D9
:10052000FF4FC591D49161110EC09FB7F8948C9183
:10053000E22FE0958E238C932881E223E8839FBFEE
:10054000DF91CF9108958FB7F894EC91E22BEC9363
:100550008FBFF6CF8E3008F08E502091000190E4CE
:10056000299F900111248770822B80937C008091B9
:100570007A00806480937A0080917A0086FDFCCFB7
:10058000809178009091790008954F925F926F92D8
:100590007F928F929F92AF92BF92CF92DF92EF9213
:1005A000FF92CF93DF936B017C01C0E9D5E0888097
:1005B0009980AA80BB8080E10E94AA02BC01990FA9
:1005C000880B990B0E94931D20E030E040E05FE330
:1005D0000E94181F20E030E040EA50E40E94F21D23
:1005E00020E030E040E85AE30E94F21D2091BC0573
:1005F0003091BD054091BE055091BF050E94181F66
:10060000A70196010E94F21D2B013C01A701960152
:1006100060E070E080E89FE30E94171FA50194014D
:100620000E94F21D9B01AC01C301B2010E94181F80
:100630006B017C01288139814A815B810E94171FEF
:100640006093940570939505809396059093970514
:10065000C882D982EA82FB82DF91CF91FF90EF902E
:10066000DF90CF90BF90AF909F908F907F906F90D2
:100670005F904F9008953FB7F8948091D303909185
:10068000D403A091D503B091D60326B5A89B05C08D
:100690002F3F19F00196A11DB11D3FBFBA2FA92F01
:1006A000982F8827BC01CD01620F711D811D911DFE
:1006B00042E0660F771F881F991F4A95D1F708956A
:1006C0008F929F92AF92BF92CF92DF92EF92FF9262
:1006D0004B015C010E943B036B017C010E943B03C8
:1006E0006C197D098E099F09683E7340810591054B
:1006F000A8F321E0821A9108A108B10888EEC80E7B
:1007000083E0D81EE11CF11C81149104A104B10402
:1007100029F7FF90EF90DF90CF90BF90AF909F9020
:100720008F9008952FB7F8946091CF037091D00304
:100730008091D1039091D2032FBF08954F925F9281
:100740006F927F928F929F92AF92BF92CF92DF92E1
:10075000EF92FF920F931F93CF93DF936B017C0176
:100760008EE00E94AA02BC01990F880B990B0E948F
:10077000931D20E030E040E85AE30E94F21D20E0A3
:1007800030E040EA50E40E94F21D2091370530919C
:1007900038054091390550913A050E94841F4B015C
:1007A0005C018092A4059092A505A092A605B09246
:1007B000A705C8EAD5E022E538EB4EE75FE368819C
:1007C00079818A819B810E94F21D2B013C012AE0E4
:1007D00037ED43EA5BE3C501B4010E94F21D9B01C2
:1007E000AC01C301B2010E94181F688379838A8318
:1007F0009B83C701B6010E94C5020E9492030CECC4
:1008000015E0F801C080D180E280F3806C197D0989
:100810008E099F090E94911D6B017C010E94920329
:10082000F801608371838283938308EB15E0209144
:10083000B4053091B5054091B6055091B705688172
:1008400079818A819B810E94171FA70196010E94CE
:10085000F21D20E030E041E655E40E94841FF801DB
:1008600020813181428153810E94181FF8016083E9
:10087000718382839383C8ECD5E0688179818A8112
:100880009B810E94911DA70196010E94181F0E9442
:10089000FD1F688379838A839B83DF91CF911F91AA
:1008A0000F91FF90EF90DF90CF90BF90AF909F900F
:1008B0008F907F906F905F904F900895CF92DF92CE
:1008C000EF92FF920E949203C090C405D090C5059C
:1008D000E090C605F090C7056C197D098E099F0947
:1008E000C0902F05D0903005E0903105F090320592
:1008F000C616D706E806F90630F481E0FF90EF90BF
:10090000DF90CF9008950E949203C090C405D090CC
:10091000C505E090C605F090C7056C197D098E09E4
:100920009F09C0903305D0903405E0903505F090D4
:100930003605C616D706E806F90608F045C0C09089
:100940005F05D0906005E0906105F0906205A70119
:1009500096016091A8057091A9058091AA059091D2
:10096000AB050E948C1D87FF2FC02091820530911E
:1009700083054091840550918505C701B6010E9409
:100980008C1D87FF21C02091630530916405409143
:100990006505509166056091980570919905809163
:1009A0009A0590919B050E94181F9B01AC016091D4
:1009B00090057091910580919205909193050E9408
:1009C0002C2018160CF499CF80E098CF4F925F92AC
:1009D0006F927F929F92AF92BF92CF92DF92EF92EF
:1009E000FF920F931F93CF93DF9300D01F92CDB749
:1009F000DEB7D82E8091F3049091F404A091F50411
:100A0000B091F604892B8A2B8B2BD9F00E943B03E3
:100A10000091390410913A0420913B0430913C0438
:100A2000601B710B820B930B0091F3041091F40483
:100A30002091F5043091F60460177107820793073F
:100A4000C8F20E943B036093390470933A04809388
:100A50003B0490933C04E091FB04F091FC0430973C
:100A600059F04091F7045091F8046091F9047091A5
:100A7000FA048D2D0995D82EE0903704F0903804B3
:100A80004D2C512C712C612CE114F10409F459C046
:100A9000D7011C96CC901C978091F1049091F204A0
:100AA0008436910510F41C961C92D701ED91FC91AF
:100AB000A280B38019821A821B82DD2079F1F701AE
:100AC000369610E000E02191222319F192809920BE
:100AD00001F130E050E040E02F5F3F4F4F4F5F4F5C
:100AE000C301B2010E9436209B01AC01892D90E028
:100AF000B0E0A0E0BC01CD016F5F7F4F8F4F9F4FF3
:100B00000E943620A1E0B0E0AC0FBD1FA00FB11FC6
:100B10008C930F5F1F4F03301105A9F609811A81CD
:100B20002B81F7014585568562817381C701F501E7
:100B30000995D7011C96CC921C971496ED90FC90C9
:100B4000A3CF80913504909136048C010F5F1F4F25
:100B500010933604009335044997B4F10E94920330
:100B6000C0903104D0903204E0903304F09034040B
:100B70009B01AC012C193D094E095F0921F421E0CC
:100B800030E040E050E088EE93E0089FB001099F1C
:100B9000700D189F700D1124072E000C880B990BF7
:100BA0000E945A203093F2042093F10410923604EC
:100BB000109235040E9492036093310470933204C2
:100BC00080933304909334040F900F900F90DF9133
:100BD000CF911F910F91FF90EF90DF90CF90BF903A
:100BE000AF909F907F906F905F904F9008950F937C
:100BF0001F93CF93DF932091CD032F5F322F377058
:100C00003093CD0320FF2BC020E831FD20643470E9
:100C100009F02062205FFC01EC01239600E011E066
:100C20006485662329F070E0C8010E9446206F5F4A
:100C30006187322F369F030E30E0311D11243111B0
:100C400010C01682662311F0615061873196EC174F
:100C5000FD0731F7DF91CF911F910F91089520E0AB
:100C6000D4CF31503683EECF4F925F927F928F92E6
:100C70009F92AF92BF92CF92DF92EF92FF920F932B
:100C80001F93CF93DF932C01EB010E943B03F201F2
:100C900027853089621B730B6A307105B0F3F894B5
:100CA0008A819B81181619060CF0CDC1E881F98163
:100CB0006BB1862E689482F83BB13B7F3BB9DA84F6
:100CC0008F812D2D281B822F2F834F85042E000C02
:100CD000550BAA81BB817D85FC84EE847F5FF394F4
:100CE000E3949E819884B984AB841181C12C6C2DCE
:100CF0000C2D2C2D2181112788942111280F08F407
:100D00002FEF8195889470FD120F1795889471FDCF
:100D1000120F1795889472FD120F1795889473FD22
:100D2000120F1795889474FD120F1795889475FD0E
:100D3000120F1795889476FD120F1795889477FDFA
:100D4000120F17958894622F7111612F8D0D162F38
:100D5000002C8BB800C017FF3BB920816627889410
:100D600000C000C0002C3BB92111290F00C0002C8D
:100D70008BB800C016FF3BB908F42FEF919588940B
:100D800000C000C0002C3BB9F0FC620F00C0002C7A
:100D90008BB800C015FF3BB967958894F1FC620FD2
:100DA00000C000C0002C3BB96795889400C0002C9F
:100DB0008BB800C014FF3BB9F2FC620F67958894B2
:100DC00000C000C0002C3BB9F3FC620F00C0002C37
:100DD0008BB800C013FF3BB967958894F4FC620F91
:100DE00000C000C0002C3BB96795889400C0002C5F
:100DF0008BB800C012FF3BB9F5FC620F6795889471
:100E000000C000C0002C3BB9F6FC620F00C0002CF3
:100E10008BB800C011FF3BB967958894F7FC620F4F
:100E200000C000C0002C3BB96795889400C0002C1E
:100E30008BB800C010FF3BB9122FF110162F9B0D7D
:100E400000C000C0002C3BB900C000C0002C8BB813
:100E500000C017FF3BB922816627889400C000C0FC
:100E6000002C3BB92111290D00C0002C8BB800C00B
:100E700016FF3BB908F42FEFE40FF51F00C000C0C8
:100E8000002C3BB9E0FC620F00C0002C8BB800C006
:100E900015FF3BB967958894E1FC620F00C000C064
:100EA000002C3BB96795889400C0002C8BB800C01B
:100EB00014FF3BB9E2FC620F6795889400C000C044
:100EC000002C3BB9E3FC620F00C0002C8BB800C0C3
:100ED00013FF3BB967958894E4FC620F00C000C023
:100EE000002C3BB96795889400C0002C8BB800C0DB
:100EF00012FF3BB9E5FC620F6795889400C000C003
:100F0000002C3BB9E6FC620F00C0002C8BB800C07F
:100F100011FF3BB967958894E7FC620F00C000C0E1
:100F2000002C3BB96795889400C0002C8BB800C09A
:100F300010FF3BB9122FE110162F919400C000C092
:100F4000002C3BB99A0C00C000C08BB800C017FF42
:100F50003BB921816627889400C000C0002C3BB9B2
:100F60002111280F00C0002C8BB800C016FF3BB920
:100F700008F42FEF8195889400C000C0002C3BB985
:100F800070FD620F00C0002C8BB800C015FF3BB98C
:100F90006795889471FD620F00C000C0002C3BB9BA
:100FA0006795889400C0002C8BB800C014FF3BB933
:100FB00072FD620F6795889400C000C0002C3BB999
:100FC00073FD620F00C0002C8BB800C013FF3BB94B
:100FD0006795889474FD620F00C000C0002C3BB977
:100FE0006795889400C0002C8BB800C012FF3BB9F5
:100FF00075FD620F6795889400C000C0002C3BB956
:1010000076FD620F00C0002C8BB800C011FF3BB909
:101010006795889477FD620F00C000C0002C3BB933
:101020006795889400C0002C8BB800C010FF3BB9B6
:10103000122F7111162F8D0D00C000C0002C3BB96E
:10104000119709F086CE4A815B8120EE31E0DA010A
:101050000E94A120DC01CB01F4E0B695A7959795FD
:101060008795FA95D1F730E020E0B901EAE94E9F83
:10107000040E611D5E9F600D711D1124650F711DB1
:10108000860F971FA11DB11D893E43E09407A1055E
:10109000B10508F434C0885E9340A109B10942E06B
:1010A000B695A795979587954A95D1F747E0849F80
:1010B000080E211D949F200D311D1124290F311D73
:1010C0006091CC0370E0860F971F820F931F4091B1
:1010D000CF035091D0036091D1037091D203292F97
:1010E0003327420F531F611D711D4093CF0350934F
:1010F000D0036093D1037093D2038093CC03789490
:101100000E943B03F201708B6787DF91CF911F91A3
:101110000F91FF90EF90DF90CF90BF90AF909F9096
:101120008F907F905F904F900895529A08956F929C
:101130007F928F92CF92DF92EF92FF920F931F9345
:10114000CF93DF93CDB7DEB762970FB6F894DEBFCB
:101150000FBECDBF6C017A013801822EDC011C96D6
:101160002C91CA0157FF04C088279927841B950B2F
:101170007A8369839C838B839E838D836D867E8631
:101180008F86213049F5CE0101960E94F70583E054
:10119000888B1A8A198AF7FE02C08DEF888BD601D8
:1011A000ED91FC910484F585E02DBE016F5F7F4FCA
:1011B000C601099562960FB6F894DEBF0FBECDBF8B
:1011C000DF91CF911F910F91FF90EF90DF90CF9023
:1011D0008F907F906F9008951C861B861A861986C3
:1011E00018861F82D4CFEF92FF920F931F93CF9355
:1011F000DF93CDB7DEB762970FB6F894DEBF0FBEB0
:10120000CDBF7C01DC011C968C917A8369835C8361
:101210004B835E834D830D871E872F878130F9F4C2
:10122000CE0101960E94F705188A1A8A198AD701F9
:10123000ED91FC910484F585E02DBE016F5F7F4F39
:10124000C701099562960FB6F894DEBF0FBECDBFF9
:10125000DF91CF911F910F91FF90EF9008951C8621
:101260001B861A86198618861F82DECF90E080E0E2
:101270000895FC018585968508950F931F93CF935C
:10128000DF9300D01F92CDB7DEB7AB0119821A826F
:101290001B82DC01ED91FC910190F081E02D00E0DA
:1012A00010E020E0BE016F5F7F4F09950F900F9017
:1012B0000F90DF91CF911F910F910895FC018081D4
:1012C00091818617970721F07183608381E087837E
:1012D0000895FC0101900020E9F73197AF01481B08
:1012E000590BBC0183E594E00C94EC00009711F0DD
:1012F0000C94690990E080E008958F929F92AF92DC
:10130000BF920F931F93CF93DF93CDB7DEB7A19713
:101310000FB6F894DEBF0FBECDBF19A2423008F45D
:101320004AE08E010F5D1F4F842E912CB12CA12C11
:10133000A50194010E945A20E62FB901CA01EA30A2
:10134000D4F4E05DD801EE938D01232B242B252BC3
:1013500079F7CD010E947609A1960FB6F894DEBF09
:101360000FBECDBFDF91CF911F910F91BF90AF9076
:101370009F908F900895E95CE5CF0C947609CF9308
:10138000DF930E947609EC0180E893E00E946909EE
:101390008C0F9D1FDF91CF910895FF920F931F93A4
:1013A000CF93DF930DE314E0D0E0C0E0F801F190BB
:1013B0008F01CE010E94B01EF81621F06F2DCE01D4
:1013C0000E94B81E2196C631D10581F78DE394E0C5
:1013D000DF91CF911F910F91FF900895EDE3F4E01D
:1013E00080819181A281B3810196A11DB11D80836D
:1013F0009183A283B3830C94CD090F931F936093C1
:101400004A0470934B0480934C0490934D040E94C3
:1014100092030091C8031091C9032091CA0330912F
:10142000CB03601B710B820B930B613C77428940AD
:10143000910560F00E94EE090E9492036093C80338
:101440007093C9038093CA039093CB031F910F91AC
:101450000895CF93DF93BC0190E080E04AE00E94C2
:101460007D09EC0180E893E00E9469098C0F9D1FC3
:10147000DF91CF910895CF92DF92EF92FF92CF93B9
:10148000DF9397FF1BC06B017C016DE283E594E065
:101490000E948C01EC0166277727CB016C197D092E
:1014A0008E099F094AE00E947D098C0F9D1FDF91E4
:1014B000CF91FF90EF90DF90CF9008954AE0DF91B9
:1014C000CF91FF90EF90DF90CF900C947D09CF9358
:1014D000DF93BC01990F880B990B0E943B0AEC012A
:1014E00080E893E00E9469098C0F9D1FDF91CF91E6
:1014F00008954F925F926F927F928F929F92AF92D8
:10150000BF92CF92DF92EF92FF920F931F93CF93F0
:101510006B017C01742EAC019B010E943120882359
:1015200099F08DE591E0CF911F910F91FF90EF9091
:10153000DF90CF90BF90AF909F908F907F906F90F3
:101540005F904F900C94690946015701E894B7F8F1
:101550002FEF3FEF4FE75FE7C501B4010E94312055
:1015600081110DC02FEF3FEF4FE75FE7C501B401D9
:101570000E948C1D18161CF481E691E0D4CF2FEF49
:101580003FEF4FE75FE4C701B6010E942C20181619
:101590001CF485E691E0C7CF2FEF3FEF4FE75FECFC
:1015A000C701B6010E948C1D87FDF3CF20E030E01B
:1015B000A901C701B6010E948C1D10E000E087FF61
:1015C0000AC06DE283E594E00E948C018C01F7FA79
:1015D000F094F7F8F094C0E060E070E080E09FE302
:1015E0007C1641F020E030E040E251E40E94841F8C
:1015F000CF5FF6CFA70196010E94181F2B013C0177
:101600000E94FD1F4B015C014AE00E947D097C01A4
:10161000E00EF11ECC23C1F1C501B4010E94911D61
:101620009B01AC01C301B2010E94171F4B015C0179
:101630006EE283E594E00E948C01E80EF91EC15031
:1016400018F120E030E040E251E4C501B4010E940D
:10165000F21D2B013C010E94FD1F4B01B12CA12C5E
:101660004AE0C501B4010E947D09E80EF91EC501DA
:10167000B4010E94911D9B01AC01C301B2010E9403
:10168000171F4B015C01DBCFC701CF911F910F9159
:10169000FF90EF90DF90CF90BF90AF909F908F9092
:1016A0007F906F905F904F900895CF93DF9382E883
:1016B00093E00E94BF0989E691E00E94BD09CDE355
:1016C000D4E0688179818A819B814AE00E947D090A
:1016D00080E893E00E94690988E791E00E94BD09D3
:1016E0008C8190E00E94670A82E991E00E94BD0926
:1016F0006D817E818F81988542E00E94790A80E821
:1017000093E00E9469098DEA91E00E94BD098985F4
:1017100090E00E94670A8FEB91E00E94BD098A85E4
:1017200090E00E94670A81ED91E00E94BD098B85DF
:101730009C850E94290A81EE91E00E94BD096D8579
:101740007E858F85988920E83EEE46E350E00E9432
:101750007C20CA01B9010E943B0A80EF91E00E94FF
:10176000BD096D857E858F8598890E943B0A84EF2F
:1017700091E00E94BF0986EF91E00E94BD0989892E
:101780009A890E94290A8BE092E00E94BD098B8908
:101790009C89DF91CF910C94290A0F931F93CF93CB
:1017A000DF930DE314E0D0E0C0E0CE010E94B01E54
:1017B000F80181938F012196C631D105B1F70E94BE
:1017C000550B80914604809324040E94920300915B
:1017D0004A0410914B0420914C0430914D04601B3D
:1017E000710B820B930B6093290470932A048093EE
:1017F0002B0490932C0480914804809312048091D0
:101800004E0490914F0490931104809310048091A2
:101810005004909151049093260480932504DF9105
:10182000CF911F910F9108951F93CF93DF938093D2
:101830008E05882309F45FC061E089E00E944B02B5
:1018400010918E05C12FD0E061E08AE00E947902FC
:10185000209711F460E004C0CF3FD10539F461E076
:101860008AE0DF91CF911F910C944B02E8EBF0E0FE
:10187000E491E33031F140F4E130B1F0E230E1F0F5
:10188000C038D10564F7E6CFE73029F1E83059F1E7
:10189000E430B1F780918000806280938000D09323
:1018A0008B00C0938A0004C084B5806884BD17BDD6
:1018B000DF91CF911F91089584B5806284BD18BDDA
:1018C000F7CF80918000806880938000D09389005A
:1018D000C0938800EDCF8091B00080688093B00005
:1018E0001093B300E5CF8091B00080628093B00088
:1018F0001093B400DDCF60E089E00E944B0261E00C
:101900008AE00E947902A6CF80E00C94140C4F92DA
:101910005F926F927F928F929F92AF92BF92CF927F
:10192000DF92EF92FF927C016DEC7CEC8CEC9DE3FE
:101930000E949E0340909005509091056090920502
:10194000709093054092A0055092A1056092A20567
:101950007092A3058090A8059090A905A090AA0573
:10196000B090AB052DEC3CEC4CEC5DE3C501B40153
:101970000E942C201816A4F5209198053091990505
:1019800040919A0550919B05C301B2010E94171F17
:10199000A50194010E94841F2AE037ED43EA5BE32E
:1019A0000E94F21D4B015C0122E538EB4EE75FE33C
:1019B0006091AC057091AD058091AE059091AF0539
:1019C0000E94F21D9B01AC01C501B4010E94181FC9
:1019D0006093AC057093AD058093AE059093AF0511
:1019E00081E0E816F10481F480916705FF90EF90A3
:1019F000DF90CF90BF90AF909F908F907F906F902F
:101A00005F904F900C94140C84E0E816F10409F4F4
:101A1000BBC020E030E0A901609182057091830590
:101A200080918405909185050E942C2018160CF059
:101A300039C10E9492030E9492036093D005709373
:101A4000D1058093D2059093D305C0908205D090A4
:101A50008305E0908405F0908505209186053091FE
:101A600087054091880550918905C701B6010E94FC
:101A7000171F4B015C0120E030E0A9010E942C20DF
:101A800018160CF08EC080918E0581118AC02091AD
:101A9000B0053091B1054091B2055091B305C50133
:101AA000B4010E94171F209178053091790540916B
:101AB0007A0550917B050E94F21D4B015C016091FB
:101AC000670570E090E080E00E94931D9B01AC01EF
:101AD000C501B4010E94181F2B013C012091A805EB
:101AE0003091A9054091AA055091AB05C701B601F7
:101AF0000E94171F2DEC3CEC4CE45EEB0E948C1D09
:101B000087FF5CC06091670580918E05681708F0BB
:101B100055C070E090E080E00E94911D60938A05BE
:101B200070938B0580938C0590938D05C0908A05EA
:101B3000D0908B05E0908C05F0908D0520E030E092
:101B4000A901C701B6010E942C2020E030E040E04E
:101B50005FE387FDA2C0C701B6010E94181F0E9463
:101B6000F61F862F0E94140C8091820590918305A8
:101B7000A0918405B0918505809386059093870593
:101B8000A0938805B0938905FF90EF90DF90CF90E8
:101B9000BF90AF909F908F907F906F905F904F908D
:101BA0000895209178053091790540917A055091FA
:101BB0007B05C501B4010E94F21D8ECF80908A057D
:101BC00090908B05A0908C05B0908D052091A40578
:101BD0003091A5054091A6055091A705C701B60112
:101BE0000E94171F2091740530917505409176056C
:101BF000509177050E94F21DA30192010E94181FC7
:101C00006B017C0120E030E04FE753EC0E948C1D1B
:101C100087FD38C020E030E040E752E4C701B6015C
:101C20000E942C20181634F4C12CD12C20E7E22E6F
:101C300022E4F22EA7019601C501B4010E94181FEB
:101C40006B017C0120E030E0A9010E948C1D87FD22
:101C500020C020E030E048EC52E4C701B6010E9409
:101C60002C20181634F4C12CD12C88ECE82E82E4F8
:101C7000F82EC0928A05D0928B05E0928C05F092E6
:101C80008D0554CFC12CD12C9FE7E92E93ECF92E72
:101C9000D1CFC12CD12C7601ECCFC701B6010E9467
:101CA000171F5DCF80E05ECF0E94BC20CF93DF93F3
:101CB000CDB7DEB7C054D1090FB6F894DEBF0FBE62
:101CC000CDBFE0910304E154E73108F0A6C0F0E095
:101CD000E459F14F0C949B2039100D0F830E0D0F1A
:101CE000E60FA10F0D0F0D0F0D0F0D0F0D0F350F7F
:101CF0000D0FD80F0D0F0D0F0D0FA40F0D0F0D0FA2
:101D00000D0F0D0F540F8091270490912804019717
:101D100011F010920404809180059091810520912A
:101D20000404222309F483C0009701F561E272E004
:101D3000CE0101960E94C120CE0101960E94760933
:101D400080914704811105C081E0809347040E947F
:101D5000EE0981E090E09093810580938005809169
:101D6000800590918105009709F457C020910504E2
:101D70002223E9F10C9709F073C02091900530916E
:101D800091054091920550919305609106047091E0
:101D9000070480910804909109040E94171F609322
:101DA000BC057093BD058093BE059093BF0521E0EF
:101DB000209341046093420470934304809344044D
:101DC000909345040E94EE0986E492E00E94BD09CA
:101DD0006091BC057091BD058091BE059091BF05D5
:101DE00042E00E94790A80E893E00E9469098091AC
:101DF0000A04882391F0109241040E94EE098CE0BD
:101E000090E090938105809380051092BC0510921C
:101E1000BD051092BE051092BF05C05CDF4F0FB626
:101E2000F894DEBF0FBECDBFDF91CF910895892B0F
:101E3000A1F363E372E0CE0101960E94C120CE01BE
:101E400001960E947609109281051092800580917A
:101E50004704882311F3109247040E94EE097FCFB4
:101E600082E692E00E94BF09C2CF809104048823D9
:101E700079F063EA72E0CE0101960E94C120CE01A2
:101E800001960E94760961E087E00E944B02C5CF6F
:101E900063EB72E0CE0101960E94C120CE01019653
:101EA0000E94760960E0F0CF0E9492036093FD04E7
:101EB0007093FE048093FF04909300051092210418
:101EC0001092130480915204882321F0109246044A
:101ED0000E94EE0980912404909104049923E1F07A
:101EE00081119BCF61E08DE00E944B0280914604FE
:101EF000882321F0109246040E94EE0981E080932D
:101F0000240464EC72E0CE0101960E94C120CE014F
:101F100001960E94760981CF882309F47ECF60E084
:101F20008DE00E944B0280914604811105C081E042
:101F3000809346040E94EE091092240467ED72E03B
:101F4000E2CF6BEE72E0DFCF8091040490E020914D
:101F50000305309104058217930739F09093040527
:101F60008093030581E08093090580910504909199
:101F70000505891729F08093050581E080930905FF
:101F80008091070490910705891729F08093070530
:101F900081E08093090580910604909106058917D8
:101FA00009F43BCF8093060581E08093090535CF86
:101FB00065E173E0CE0101960E94C120CE01019639
:101FC0000E94760981E08093140427CF8091040455
:101FD0008823B9F062E273E0CE0101960E94C1202D
:101FE000CE0101960E947609E1E4F4E082E1DF018E
:101FF0001D928A95E9F70E94550B0E94CD090E9417
:10200000CD0B809106048823B9F065E373E0CE011F
:1020100001960E94C120CE0101960E947609E6E455
:10202000F4E08DE0DF011D928A95E9F70E94550BDF
:102030000E94CD090E94CD0B80910504882309F4EC
:10204000ECCE68E473E0CE0101960E94C120CE017F
:1020500001960E94760986E1EDE3F4E0DF011D922E
:102060008A95E9F70E94550B0E94CD090E94CD0B7D
:10207000D4CE8091800590918105009709F4CDCE52
:1020800020910404211107C08BE090E0909381051A
:1020900080938005C2CE0B9709F0BFCE8AE090E016
:1020A000F5CF1F920F920FB60F9211242F933F93EB
:1020B0004F935F936F937F938F939F93AF93BF9350
:1020C000EF93FF9383E594E00E946A01FF91EF9103
:1020D000BF91AF919F918F917F916F915F914F9140
:1020E0003F912F910F900FBE0F901F9018951F9248
:1020F0000F920FB60F9211242F938F939F93EF930C
:10210000FF93E0916304F09164048081E09169049D
:10211000F0916A0482FD1BC0908180916C048F5FF6
:102120008F7320916D04821741F0E0916C04F0E010
:10213000ED5AFB4F958F80936C04FF91EF919F9127
:102140008F912F910F900FBE0F901F901895808147
:10215000F4CF1F920F920FB60F9211242F933F933B
:102160008F939F93AF93BF938091CF039091D003B0
:10217000A091D103B091D2033091CE0323E0230F7D
:102180002D3758F50196A11DB11D2093CE038093E4
:10219000CF039093D003A093D103B093D203809147
:1021A000D3039091D403A091D503B091D6030196A7
:1021B000A11DB11D8093D3039093D403A093D503A5
:1021C000B093D603BF91AF919F918F913F912F9183
:1021D0000F900FBE0F901F90189526E8230F0296C0
:1021E000A11DB11DD2CF0F931F93E3E5F4E013823D
:1021F000128288EE93E0A0E0B0E084839583A6830A
:10220000B7838FE491E09183808385EC90E095879C
:10221000848784EC90E09787868780EC90E0918BB0
:10222000808B81EC90E0938B828B82EC90E0958B9D
:10223000848B86EC90E0978B868B118E128E138E9A
:10224000148EE0EFF4E08FEF808312821182148607
:1022500013868FEF9FEFDC0187839087A187B2877A
:10226000E3E2F5E08DEC9CECACE4BDE3808391838C
:10227000A283B38380E69AEEA0E0B0E084839583E6
:10228000A683B7838CE291E0A0E0B0E080879187DD
:10229000A287B38780E395E7A0E0B0E084879587C5
:1022A000A687B78782EC91E0A0E0B0E0808B918BAD
:1022B000A28BB38B83EC95EFA8EABEE3848B958B5E
:1022C000A68BB78B80E090E0A6E9B3E4808F918F76
:1022D000A28FB38F8DEC9CECACE4BFE3848F958F21
:1022E000A68FB78F86E696E6A6E6BFE380A391A306
:1022F000A2A3B3A380E090E0A0E2B0E484A395A3FE
:10230000A6A3B7A380E090E0A0E6B0E480A791A7E1
:10231000A2A7B3A783E393E3A3E8B0E484A795A7B8
:10232000A6A7B7A78DEC9CECA4E8B0E480AB91AB7A
:10233000A2ABB3AB86E696E6A6E8B0E484AB95AB79
:10234000A6ABB7AB80E090E0A8E8B0E480AF91AF77
:10235000A2AFB3AF8DEC9CECACECBDE384AF95AF1A
:10236000A6AFB7AF8AE999E9A9E1BFE38093630516
:1023700090936405A0936505B09366058AE0809309
:1023800067058CEE91E5A8EBBEE38093680590931A
:102390006905A0936A05B0936B058AE999E9A9E9F3
:1023A000BEE380936C0590936D05A0936E05B0938A
:1023B0006F058AE999E9A9E1BEE3809370059093DE
:1023C0007105A0937205B09373054AE057ED63E27F
:1023D0007CE3409374055093750560937605709384
:1023E000770500E010E028EC32E4009378051093C4
:1023F000790520937A0530937B0540937C055093B3
:102400007D0560937E0570937F0510928105109283
:102410008005109282051092830510928405109217
:1024200085051092860510928705109288051092F6
:10243000890510928A0510928B0510928C051092D6
:102440008D0510928E0510928F05109290051092B6
:102450009105109292051092930510929405109296
:102460009505109296051092970510929805109276
:10247000990510929A0510929B0510929C05109256
:102480009D0510929E0510929F051092A005109236
:10249000A1051092A2051092A3051092A405109216
:1024A000A5051092A6051092A7051092A8051092F6
:1024B000A9051092AA051092AB0540E050E060E833
:1024C0007FE34093AC055093AD056093AE057093E8
:1024D000AF058093B0059093B105A093B205B0937A
:1024E000B3058093B4059093B505A093B605B0935A
:1024F000B7051092B8051092B9051092BA0510925E
:10250000BB051092BC051092BD051092BE0510923D
:10251000BF051092C0051092C1051092C20510921D
:10252000C3051092C4051092C5051092C6051092FD
:10253000C7051092C8051092C9051092CA051092DD
:10254000CB051092CC051092CD051092CE051092BD
:10255000CF051092D0051092D1051092D20510929D
:10256000D305E1E0F5E0118210821382128281E04E
:10257000848385831682108617828783158E168E34
:10258000178E10A211A20E9492036093FD04709313
:10259000FE048093FF04909300051F910F9108950E
:1025A000CF93DF93CDB7DEB7C958D1090FB6F894F2
:1025B000DEBF0FBECDBF789484B5826084BD84B584
:1025C000816084BD85B5826085BD85B5816085BD2E
:1025D00080916E00816080936E00109281008091E6
:1025E000810082608093810080918100816080936E
:1025F0008100809180008160809380008091B10093
:1026000084608093B1008091B00081608093B000BD
:1026100080917A00846080937A0080917A00826051
:1026200080937A0080917A00816080937A00809113
:102630007A00806880937A001092C1000E94CD0BCE
:10264000809125049091260401969093260480930E
:10265000250421E030E0892B11F430E020E0809166
:102660005004909151042817390731F030935104E8
:10267000209350040E94EE0961E088E00E944B0222
:1026800061E088E00E94790261E088E00E944B02EC
:1026900061E085E00E944B0261E085E00E947902E2
:1026A00061E085E00E944B0261E08DE00E947902CA
:1026B000609124048DE00E944B0261E087E00E945B
:1026C000790261E087E00E944B0260E083E00E94B3
:1026D000790260E084E00E94790260E086E00E9476
:1026E000790261E08FE00E94790261E08FE00E9450
:1026F000790260E08FE00E944B0261E070E080E0D0
:1027000090E00E94600360E08FE00E947902E09117
:102710006304F091640482E08083E0915F04F091AF
:1027200060041082E0916104F091620480E1808392
:1027300010926B04E0916704F091680486E0808356
:10274000E0916504F0916604808180618083E0916E
:102750006504F0916604808188608083E09165045F
:10276000F0916604808180688083E0916504F09137
:10277000660480818F7D808385E090E0A0E0B0E0FA
:102780008093570490935804A0935904B0935A042B
:102790008091EA03811145C01092DC031092DB03A3
:1027A0008FEF8093DF038093E0038093E1038093B6
:1027B000E2038093E3038093E40381E08093E503E5
:1027C0001092E7031092E6031092DE031092DD03ED
:1027D0008091370490913804892B31F489ED93E08E
:1027E0009093380480933704E091D703F091D80395
:1027F000309721F089ED93E09583848389ED93E010
:102800009093D8038093D7031092E9031092E803C2
:102810008DE391E09093DA038093D90381E0809374
:10282000EA03529A8AE095E09093DC038093DB03FD
:1028300082E090E09093E7038093E6038091F304B5
:102840009091F404A091F504B091F604843C29E041
:102850009207A105B10520F484EC99E0A0E0B0E076
:102860008093F3049093F404A093F504B093F604DA
:102870008091030590910405892B39F0109204058D
:102880001092030581E08093090589E1809310058A
:1028900080931105809312051092130580931405FF
:1028A000109215058091100590911105A0911205C7
:1028B00080930A0590930B05A0930C058091130556
:1028C00090911405A091150580930D0590930E0528
:1028D000A0930F0510921B0510921A0510921D056A
:1028E00010921C0501E010E01093170500931605E7
:1028F00010931905009318058091F0040E94E604D6
:1029000081E095E09093D5058093D4051092000165
:1029100061E08AE00E94790261E089E00E94790228
:1029200060E080E10E94790260E08EE00E9479021E
:1029300080914704882309F4DAC01093810500933D
:10294000800580918100887F8160809381008FE085
:102950000E94AA026AE070E080E090E00E946003BA
:102960008FE00E94AA028C010095109594E01695C4
:1029700007959A95E1F70F7111270F31110511F4A1
:1029800010E000E08CE593E00E94BD09C8010E94C0
:10299000290A10932804009327046EE673E08E0141
:1029A0000F5F1F4FC8010E94C120C8010E94760915
:1029B0008091010190910201A0910301B091040165
:1029C000EA968CAF9DAFAEAFBFAFEA9720910501FD
:1029D000309106014091070150910801EE962CAF0D
:1029E0003DAF4EAF5FAFEE978091090190910A0124
:1029F000A0910B01B0910C01C258DF4F88839983DD
:102A0000AA83BB83CE57D04020910D0130910E0197
:102A100040910F0150911001CE57DF4F2883398329
:102A20004A835B83C258D04080911101909112017A
:102A3000A0911301B0911401CA57DF4F8883998385
:102A4000AA83BB83C658D040FF24F39485E0282E88
:102A5000312C8091F60381110CC00E949203609387
:102A6000F2037093F3038093F4039093F503F092D1
:102A7000F60383E00E94AA02EE24E3948D32914093
:102A80000CF4E12C8090F2039090F303A090F403F7
:102A9000B090F5030E9492036401BFE0CB0ED11CFD
:102AA000C61AD70A412C512C32012FE0820E911CFC
:102AB000A11CB11C0E949203681579058A059B052B
:102AC000D8F483E00E94AA0221E08D3231E093071E
:102AD0000CF420E02E1571F34FEF441A540A640AE7
:102AE000740AEE24E394892B29F7E12CE3CF1092AA
:102AF00081051092800525CFA8EEB3E0A3019201D5
:102B00000E94C61E9601DD0C440B550B0E945A20F4
:102B1000CA01B9010E94911D2AE037ED43E25CE34E
:102B20000E94F21D4B015C0160912204709123040C
:102B300090E080E00E94911D24EA30E74DE75FE3DA
:102B40000E94F21D9B01AC01C501B4010E94181F37
:102B50000E94FD1F70932304609322040E9492033D
:102B60006093F2037093F3038093F4039093F5035F
:102B7000C090FE03D090FF0350E1C516D10408F0C9
:102B800085C183E594E00E944A0118161906A4F451
:102B900083E594E00E942801F601E050FC4F808319
:102BA0008A3009F06BC11092FF031092FE0384E09B
:102BB000C816D10408F06FC180912404882369F1FC
:102BC0000E9492038090290490902A04A0902B04E4
:102BD000B0902C04681979098A099B09611574471A
:102BE000874B914020F480911304811116C00E94FC
:102BF00092038090FD049090FE04A090FF04B0909A
:102C00000005681979098A099B0961387E4E864357
:102C1000910508F44DC1F0921404809119048111BA
:102C20000CC00E9492036093150470931604809365
:102C3000170490931804F092190488E00E9422026D
:102C4000892B09F465C080911404882309F460C0BD
:102C500063E873E0C8010E94C120C8010E947609A0
:102C600010921404F092130480915204811104C054
:102C7000F09246040E94EE09109221040E949203F1
:102C800060931504709316048093170490931804AE
:102C90000E9492036093290470932A0480932B046A
:102CA00090932C040E9492036093FD047093FE04A1
:102CB0008093FF0490930005809112048F5F8093AE
:102CC000120421E030E0811102C030E020E0809168
:102CD0004804909149042817390731F0309349048A
:102CE000209348040E94EE090E94920380902904D8
:102CF00090902A04A0902B04B0902C0468197909B4
:102D00008A099B090E94FD0960E088E00E944B024D
:102D10000E9492038090150490901604A0901704CE
:102D2000B0901804681979098A099B0961337547BD
:102D30008105910568F188E00E942202892B41F506
:102D400062E973E0C8010E94C120C8010E947609AF
:102D50008091100490911104019690931104809336
:102D6000100421E030E0892B11F430E020E0809164
:102D70004E0490914F042817390731F030934F04D7
:102D800020934E040E94EE0961E088E00E944B020D
:102D90000E9492038090FD049090FE04A090FF0496
:102DA000B0900005681979098A099B0961327E444F
:102DB0008105910530F180910305909104050197FB
:102DC00041F081E090E09093040580930305F09238
:102DD000090580910505882321F010920505F092E0
:102DE000090580910705882321F010920705F092CC
:102DF000090580910605882321F010920605F092BE
:102E00000905809108058823C1F010921B051092D6
:102E10001A05F0921E0580910105909102058230FD
:102E2000910509F47EC008F052C0009709F469C00A
:102E3000019709F46EC01092080520910905809150
:102E4000030590910405222309F492C010921D05F8
:102E500010921C05F0921E058930910508F0F4C00F
:102E6000FC01EB5CF84E0C949B2097179D17D8172C
:102E7000F21708180E1814181C1820189FEFC91AFA
:102E8000D90AD092FF03C092FE0372CE1092FF03C4
:102E90001092FE0391CE80910004803409F08CCE14
:102EA00080910104873009F087CE0E94560E84CEAF
:102EB0000E949203681979098A099B096137774C46
:102EC0008643910508F4A9CEF0922104A6CE833062
:102ED000910509F1049709F0AECF88EC80931005B5
:102EE00080931105109212058091100590911105A3
:102EF000A091120580930A0590930B05A0930C05F1
:102F00009ACF85E080931005809311058093120578
:102F1000EBCF8FE0F7CF82E380931005109211057D
:102F2000E1CF109210051092110582E3EFCF22E35A
:102F300020931305109214057CC028EC20931305F0
:102F40001092140510921505209113053091140567
:102F50004091150520930D0530930E0540930F0504
:102F6000A1E0B0E0B0931D05A0931C0510920905E7
:102F7000019751F080910505811169C087E090E0CB
:102F800090931D0580931C05E0911C05F0911D0593
:102F90003197E730F10508F08DC0EF52F84E0C94F0
:102FA0009B207D184518381886188D189418A3187A
:102FB00028EC20931305109214051092150520910A
:102FC0001305309114054091150520930D0530939C
:102FD0000E0540930F0524E030E030931D0520934B
:102FE0001C05C4CF2FEF2093130525E02093140573
:102FF00020E520931505209113053091140540918B
:10300000150520930D0530930E0540930F05AECFA7
:1030100022E32093130520931405EBCF10921305A0
:103020001092140524E6E5CF28EC20931305209395
:10303000140510921505DFCF1092130529E1F7CF83
:103040001092130529E1E7CF1092130573CF8091F9
:103050000605811103C086E090E092CF80910705BC
:10306000882309F491CF30921D0520921C058CCF46
:10307000CA57DF4F88819981AA81BB81C658D04049
:1030800089839A83AB83BC830CC0CE57DF4F2881E2
:1030900039814A815B81C258D04029833A834B836E
:1030A0005C830E9492039B01AC0162E070E0C80166
:1030B0000E948C0080911E05882331F08091F004DD
:1030C0000E94E60410921E05E0918005F0918105B2
:1030D000ED30F10508F05DC0E059F74E0C949B20EF
:1030E000B218BB18F819541AB21ADD1A021B2A1B9F
:1030F0004F1B561B7B1B681D711DC258DF4F8881FB
:103100009981AA81BB81CE57D040BACFEE962CAD23
:103110003DAD4EAD5FADEE97C0CFEA968CAD9DADA7
:10312000AEADBFADEA97ACCF88E0E5E1F1E0D80104
:1031300001900D928A95E1F70E9492039B01AC01E8
:1031400064E070E0B4CF8CE0EDE1F1E0D8010190F3
:103150000D928A95E1F70E9492039B01AC0166E013
:1031600070E0A5CF0E94840C61E070E08091D405EE
:103170009091D5056CC270E060E08091D40590918B
:10318000D5050E945E0982E090E0909381058093CE
:1031900080050E94920380902D0490902E04A090B0
:1031A0002F04B0903004681979098A099B09643F9B
:1031B00071408105910508F40EC10E94920360934D
:1031C0002D0470932E0480932F04909330048090EC
:1031D000290490902A04A0902B04B0902C04681924
:1031E00079098A099B090E94FD0980E422968FAF24
:1031F000229787E090E024969FAF8EAF249780E5DA
:1032000025968FAF25978AE0E6968FAFE697809157
:1032100027049091280427969FAF8EAF279780911F
:1032200025049091260429969FAF8EAF299787E0B9
:103230000E94220260968FAF60978091240461966D
:103240008FAF61970E9492032F966CAF7DAF8EAFC8
:103250009FAF2F978091220490912304E5969FAF12
:103260008EAFE5978091800562968FAF62978091CF
:10327000980590919905A0919A05B0919B05669645
:103280008CAF9DAFAEAFBFAF669780919005909128
:103290009105A0919205B09193056A968CAF9DAF70
:1032A000AEAFBFAF6A978091A8059091A905A09194
:1032B000AA05B091AB056E968CAF9DAFAEAFBFAF18
:1032C0006E978091820590918305A0918405B091BD
:1032D0008505A2968CAF9DAFAEAFBFAFA297809190
:1032E000B8059091B905A091BA05B091BB05A69615
:1032F0008CAF9DAFAEAFBFAFA6978091AC0590915C
:10330000AD05A091AE05B091AF05AA968CAF9DAF6B
:10331000AEAFBFAFAA978091B4059091B505A091CB
:10332000B605B091B705AE968CAF9DAFAEAFBFAF4F
:10333000AE9780918E05AF968FAFAF978091C805FD
:103340009091C905A091CA05B091CB05E3968CAFC9
:103350009DAFAEAFBFAFE39745E350E0BE016F5BFB
:103360007F4F83E594E00E94EC0080912104882344
:1033700091F18090FD049090FE04A090FF04B09025
:1033800000050E94920320E8820E2EEE921E26E394
:10339000A21EB11CA5019401261B370B480B590B2B
:1033A000CA01B90128EE33E040E050E00E945A2003
:1033B0003F932F9380EA93E09F938F931F930F93F4
:1033C0000E94C820C8010E9476090F900F900F90AC
:1033D0000F900F900F9080E090E0892B09F439CB8B
:1033E0000E945601882309F42FCB0E9400002CCBA9
:1033F0000E94840C60E070E080E09FE30E949E03E6
:10340000609190057091910580919205909193053E
:10341000609398057093990580939A0590939B0506
:1034200010928A0510928B0510928C0510928D05D2
:1034300010928F05109286051092870510928805CC
:10344000109289051092C8051092C9051092CA05FC
:103450001092CB051092A0051092A1051092A20522
:103460001092A3051092B8051092B9051092BA05F2
:103470001092BB0520913F053091400540914105D8
:10348000509142050E942C2018160CF068C00E9432
:1034900092036093C0057093C1058093C205909319
:1034A000C3058AE090E084C00E9492038090C40526
:1034B0009090C505A090C605B090C7056819790918
:1034C0008A099B0980902F0590903005A0903105C6
:1034D000B090320586169706A806B90668F40E94D1
:1034E00092036093C0057093C1058093C2059093C9
:1034F000C3058AE090E049CE20915F0530916005D8
:1035000040916105509162056091A8057091A905EF
:103510008091AA059091AB050E942C201816DCF42E
:103520000E9492038090C4059090C505A090C605A6
:10353000B090C705681979098A099B0980903305FD
:1035400090903405A0903505B09036058616970604
:10355000A806B90620F281E090E00E94870C63E0A3
:1035600070E004CE0E94840C60E070E080E09FE395
:103570000E949E0360919005709191058091920543
:1035800090919305609398057093990580939A059F
:1035900090939B0520913F05309140054091410556
:1035A000509142050E942C201816CCF682E090E043
:1035B0009093810580938005D2CF0E94840C60E0B7
:1035C00070E080E09FE30E949E03609190057091FF
:1035D0009105809192059091930560939805709361
:1035E000990580939A0590939B0520913F05309112
:1035F000400540914105509142050E948C1D87FF76
:10360000AECFD4CF0E945E04811169CF83E090E0F9
:103610000E94870C20915F05309160054091610503
:10362000509162056091A4057091A5058091A60551
:103630009091A7050E948C1D2091D4053091D5054D
:1036400063E070E087FD02C062E070E0C9010E94A3
:103650005E099FCD0E945E04811141CF60913B05C0
:1036600070913C0580913D0590913E059B01AC0118
:103670000E94181F9B01AC016091B8057091B905BB
:103680008091BA059091BB050E942C20181624F455
:10369000309281052092800582E090E0B9CF0E94AF
:1036A0005E0481111CCF84E090E0B2CF0E94840CB4
:1036B00060E070E080E09FE30E949E0360919005CF
:1036C0007091910580919205909193056093980572
:1036D0007093990580939A0590939B0520915705C7
:1036E000309158054091590550915A050E948C1D02
:1036F00087FF35CFCCCE0E94840C6DEC7CEC8CE443
:103700009DE30E94C502609194057091950580919A
:103710009605909197059F77209123053091240578
:1037200040912505509126050E948C1D87FF31CDC3
:103730000E9492038090C0059090C105A090C205A0
:10374000B090C305681979098A099B0980902B05F7
:1037500090902C05A0902D05B0902E05861697060A
:10376000A806B90608F015CD209198053091990565
:1037700040919A0550919B0560919005709191053B
:1037800080919205909193050E94171F60939C056C
:1037900070939D0580939E0590939F050E949203D0
:1037A0006093C4057093C5058093C6059093C705C3
:1037B0008090900590909105A0909205B09093050F
:1037C00020915B0530915C0540915D0550915E054F
:1037D000C501B4010E942C2018163CF489E090E049
:1037E000909381058093800570C14091C8055091E8
:1037F000C9056091CA057091CB0580912F05909104
:103800003005A0913105B0913205481759076A0774
:103810007B0708F459C040905F05509060056090A8
:10382000610570906205A30192016091A8057091F5
:10383000A9058091AA059091AB050E948C1D87FF78
:1038400043C02091820530918305409184055091B9
:103850008505C301B2010E948C1D87FF35C02091F0
:103860006305309164054091650550916605C50179
:10387000B4010E94181F9B01AC016091A0057091DA
:10388000A1058091A2059091A3050E942C201816F5
:10389000DCF420913F053091400540914105509165
:1038A0004205C501B4010E942C2087FD0DC020E017
:1038B00030E040E850E4C501B4010E948C1D87FF50
:1038C00003C083E090E08CCF2091530530915405E4
:1038D0004091550550915605C501B4010E942C2018
:1038E00087FD27C08091B4059091B505A091B605DC
:1038F000B091B7058093820590938305A0938405CA
:10390000B093850587E090E09093810580938005D2
:103910008091900590919105A0919205B0919305A9
:103920008093980590939905A0939A05B0939B0571
:1039300030CC20914F053091500540915105509168
:103940005205C501B4010E942C2087FD1BC02091A7
:10395000B4053091B5054091B6055091B705609119
:1039600070057091710580917205909173050E94A8
:10397000181F60938205709383058093840590934C
:103980008505C0CF209147053091480540914905F4
:1039900050914A05C501B4010E942C2087FD3CC00E
:1039A00020914B0530914C0540914D0550914E05AD
:1039B000C501B4010E948C1D87FF1DC020916C05BC
:1039C00030916D0540916E0550916F056091B40581
:1039D0007091B5058091B6059091B7050E94181FAA
:1039E0006093820570938305809384059093850589
:1039F00010928F0587CF2091B4053091B505409185
:103A0000B6055091B7056091680570916905809180
:103A10006A0590916B05E2CF2091430530914405F2
:103A20004091450550914605C501B4010E942C20E6
:103A300087FF17C020913F05309140054091410517
:103A40005091420560919005709191058091920589
:103A5000909193050E942C2018168CF182E090E042
:103A6000BFCE0E9492038090270590902805A090D9
:103A70002905B0902A05681579058A059B05D0F6B9
:103A80002091B4053091B5054091B6055091B70528
:103A900060916C0570916D0580916E0590916F0538
:103AA0000E94181F6093820570938305809384059C
:103AB0009093850510928F0586E090E025CFA4E0D5
:103AC000B0E0B0938105A093800510928F0520CFC0
:103AD0000E94840C6DEC7CEC8CE49DE30E94C5029A
:103AE0003ECD0E94840C6AE077ED83EA9CE30E945D
:103AF000C5028091900590919105A0919205B09199
:103B000093058093980590939905A0939A05B09397
:103B10009B0564E070E02ACB0E94CE1D08F481E092
:103B20000895E89409C097FB3EF4909580957095B0
:103B300061957F4F8F4F9F4F9923A9F0F92F96E9F9
:103B4000BB279395F695879577956795B795F1116E
:103B5000F8CFFAF4BB0F11F460FF1BC06F5F7F4F0B
:103B60008F4F9F4F16C0882311F096E911C077231D
:103B700021F09EE8872F762F05C0662371F096E826
:103B8000862F70E060E02AF09A95660F771F881FF5
:103B9000DAF7880F9695879597F90895990F000899
:103BA000550FAA0BE0E8FEEF16161706E807F9070F
:103BB000C0F012161306E407F50798F0621B730BAA
:103BC000840B950B39F40A2661F0232B242B252B2B
:103BD00021F408950A2609F4A140A6958FEF811DCE
:103BE000811D08950E94051E0C94761E0E94681E79
:103BF00038F00E946F1E20F0952311F00C945F1E88
:103C00000C94651E11240C94AA1E0E94871E70F34A
:103C1000959FC1F3950F50E0551F629FF001729F71
:103C2000BB27F00DB11D639FAA27F00DB11DAA1F80
:103C3000649F6627B00DA11D661F829F2227B00DCD
:103C4000A11D621F739FB00DA11D621F839FA00D58
:103C5000611D221F749F3327A00D611D231F849FA8
:103C6000600D211D822F762F6A2F11249F575040FF
:103C70009AF0F1F088234AF0EE0FFF1FBB1F661F7A
:103C8000771F881F91505040A9F79E3F510580F043
:103C90000C945F1E0C94AA1E5F3FE4F3983ED4F38D
:103CA000869577956795B795F795E7959F5FC1F7E7
:103CB000FE2B880F911D9695879597F9089597F992
:103CC0009F6780E870E060E008959FEF80EC0895C2
:103CD00000240A94161617061806090608950024EB
:103CE0000A9412161306140605060895092E039465
:103CF000000C11F4882352F0BB0F40F4BF2B11F4D9
:103D000060FF04C06F5F7F4F8F4F9F4F089557FD37
:103D10009058440F551F59F05F3F71F04795880F39
:103D200097FB991F61F09F3F79F0879508951216D0
:103D300013061406551FF2CF4695F1DF08C016167C
:103D400017061806991FF1CF86957105610508942D
:103D50000895E894BB2766277727CB0197F9089544
:103D6000F999FECF92BD81BDF89A992780B5089543
:103D7000262FF999FECF1FBA92BD81BD20BD0FB687
:103D8000F894FA9AF99A0FBE019608950E94081FB6
:103D9000A59F900DB49F900DA49F800D911D11249F
:103DA00008952F923F924F925F926F927F928F92DF
:103DB0009F92AF92BF92CF92DF92EF92FF920F93BA
:103DC0001F93CF93DF93CDB7DEB7CA1BDB0B0FB6C4
:103DD000F894DEBF0FBECDBF09942A883988488881
:103DE0005F846E847D848C849B84AA84B984C88417
:103DF000DF80EE80FD800C811B81AA81B981CE0F0E
:103E0000D11D0FB6F894DEBF0FBECDBFED010895F2
:103E1000A29FB001B39FC001A39F700D811D11240B
:103E2000911DB29F700D811D1124911D0895505850
:103E3000BB27AA270E942F1F0C94761E0E94681E83
:103E400038F00E946F1E20F039F49F3F19F426F4D9
:103E50000C94651E0EF4E095E7FB0C945F1EE92FB1
:103E60000E94871E58F3BA176207730784079507E5
:103E700020F079F4A6F50C94A91E0EF4E0950B2E13
:103E8000BA2FA02D0B01B90190010C01CA01A001AC
:103E90001124FF27591B99F0593F50F4503E68F107
:103EA0001A16F040A22F232F342F4427585FF3CF48
:103EB000469537952795A795F0405395C9F77EF419
:103EC0001F16BA0B620B730B840BBAF09150A1F062
:103ED000FF0FBB1F661F771F881FC2F70EC0BA0FE8
:103EE000621F731F841F48F4879577956795B79570
:103EF000F7959E3F08F0B0CF9395880F08F099276B
:103F0000EE0F9795879508950E94981F0C94761E42
:103F10000E946F1E58F00E94681E40F029F45F3F17
:103F200029F00C945F1E51110C94AA1E0C94651E6E
:103F30000E94871E68F39923B1F3552391F3951BD3
:103F4000550BBB27AA2762177307840738F09F5FBA
:103F50005F4F220F331F441FAA1FA9F335D00E2E27
:103F60003AF0E0E832D091505040E695001CCAF794
:103F70002BD0FE2F29D0660F771F881FBB1F261757
:103F800037074807AB07B0E809F0BB0B802DBF012E
:103F9000FF2793585F4F3AF09E3F510578F00C94FD
:103FA0005F1E0C94AA1E5F3FE4F3983ED4F38695FF
:103FB00077956795B795F7959F5FC9F7880F911D1E
:103FC0009695879597F90895E1E0660F771F881F0A
:103FD000BB1F621773078407BA0720F0621B730BBD
:103FE000840BBA0BEE1F88F7E09508950E94FD1F21
:103FF0006894B1110C94AA1E08950E948F1E88F037
:104000009F5798F0B92F9927B751B0F0E1F0660F9C
:10401000771F881F991F1AF0BA95C9F714C0B130DD
:1040200091F00E94A91EB1E008950C94A91E672F7B
:10403000782F8827B85F39F0B93FCCF3869577950C
:104040006795B395D9F73EF49095809570956195F5
:104050007F4F8F4F9F4F08950E94CE1D08F48FEF22
:1040600008950E94CE1D880B990B0895DB018F9354
:104070009F930E94C61EBF91AF91A29F800D911D7C
:10408000A39F900DB29F900D1124089597FB072ECA
:1040900016F4009407D077FD09D00E94A82007FCF1
:1040A00005D03EF4909581959F4F08957095619548
:1040B0007F4F0895A1E21A2EAA1BBB1BFD010DC064
:1040C000AA1FBB1FEE1FFF1FA217B307E407F507C8
:1040D00020F0A21BB30BE40BF50B661F771F881FA4
:1040E000991F1A9469F760957095809590959B013A
:1040F000AC01BD01CF010895052E97FB1EF400947D
:104100000E94932057FD07D00E945A2007FC03D03D
:104110004EF40C94932050954095309521953F4F47
:104120004F4F5F4F089590958095709561957F4FA3
:104130008F4F9F4F0895EE0FFF1F0590F491E02DD4
:1041400009940E94081FB7FF0895821B930B0895DE
:10415000AA1BBB1B51E107C0AA1FBB1FA617B707AD
:1041600010F0A61BB70B881F991F5A95A9F78095C9
:104170009095BC01CD01089581E090E0F8940C94F5
:104180006923FB01DC0101900D920020E1F7089505
:10419000AEE0B0E0EEECF0E20C94DF1E0D891E897B
:1041A00086E08C831A8309838FEF9FE79E838D833C
:1041B000AE01475E5F4F6F89788DCE0101960E94F8
:1041C000EB202F813885020F131FF80110822E96E5
:1041D000E4E00C94FB1EABE0B0E0E1EFF0E20C9405
:1041E000D11E7C013B018A01FC011782168283816A
:1041F00081FFC8C1CE0101965C01F7019381F301F3
:1042000093FD859193FF81913F01882309F453C168
:10421000853239F493FD859193FF81913F01853279
:1042200029F4B70190E00E94DB22E7CF912C212CEA
:10423000312CFFE1F31538F08B3211F190F480321C
:1042400009F1833229F137FC3CC020ED280F2A30D8
:1042500050F536FE20C08AE0989E200D1124922E43
:1042600006C08D3291F0803371F7689430F8F30115
:1042700093FD859193FF81913F018111DACF21C098
:10428000689431F8689432F8F2CF689433F8EFCF3D
:10429000689434F8ECCFEAE02E9E200D1124222EF3
:1042A000689435F8E4CF8E3229F436FC04C1689462
:1042B00036F8DDCF8C3619F4689437F8D8CF8836C5
:1042C000B1F2982F9F7D95549330E0F08336A1F1A1
:1042D0008337C1F1833509F063C02801F2E04F0E46
:1042E000511CF801C080D180692D70E036FC02C0FD
:1042F0006FEF7FEFC6010E94C5224C01689437F82A
:1043000082010AC00C5F1F4FFFE3F9838824839466
:10431000912C6501E89437F833FE2DC0522C81149E
:10432000910471F5552009F468CFB70180E290E05F
:104330000E94DB225A94F6CFF801808189830E5FB8
:104340001F4FE4CF2801F2E04F0E511CF801C0804E
:10435000D180692D70E036FC02C06FEF7FEFC6019F
:104360000E94D0224C018201D5CFB70180E290E0BB
:104370000E94DB222A942814190409F0B0F7CECF4A
:10438000F60137FC859137FE81916F01B70190E00E
:104390000E94DB2251105A94F1E08F1A9108BFCF8E
:1043A000843619F0893609F077C0F80137FE6BC002
:1043B00060817181828193810C5F1F4FF32DFF76A5
:1043C0003F2E97FF09C090958095709561957F4F1E
:1043D0008F4F9F4F689437F82AE030E0A5010E9484
:1043E0000B23C82ECA188C2C432C36FE0CC0E89424
:1043F00040F8C91440F434FE05C032FC03C0F32D6C
:10440000FE7E4F2E892C44FE95C0FE01EC0DF11D61
:104410008081803309F087C0242D297E422E842D8F
:104420008870582E43FC95C040FE8FC09C2C82148F
:1044300018F42C0C922C981844FE91C0B70180E31C
:1044400090E00E94DB2242FE09C088E790E041FE36
:1044500002C088E590E0B7010E94DB22C91408F48D
:104460008AC0CA94D12C9FEFC91AD90ACA0CDB1C86
:10447000F60182916F01B70190E00E94DB22AC143B
:10448000BD04B1F74FCF60817181072E000C880BFE
:10449000990B0E5F1F4F92CFD32CE894D4F82AE0EB
:1044A00030E0853739F1232D297FD22E8F3601F167
:1044B00048F48835A9F0F701868197812B96E2E1CF
:1044C0000C94ED1E803749F08837A9F7D4FE02C05E
:1044D0006894D2F820E130E00DC06894D4F8F6CFAB
:1044E00034FE03C0822F8660D82E20E132E002C065
:1044F00028E030E0F801D7FE0FC060817181828131
:1045000093810C5F1F4FA5010E940B23C82ECA1870
:104510003D2CE89437F867CF6081718190E080E0AE
:104520000E5F1F4FF0CF42FC02C0839478CF83947C
:10453000839475CF842D867809F471CFF6CFB701B7
:1045400080E290E00E94DB2283948214C0F3512C1D
:1045500073CF522C5818821408F46ECFF8CF842DE4
:10456000867809F47BCF8BE241FE80E247FC8DE246
:10457000B70190E071CFB70180E390E00E94DB22A9
:104580009A946CCF8FEF9FEF99CFFC01059061500B
:1045900070400110D8F7809590958E0F9F1F089559
:1045A000FC016150704001900110D8F78095909502
:1045B0008E0F9F1F08950F931F93CF93DF93182F94
:1045C000092FEB018B8181FD09C01FEF0FEF812FB8
:1045D000902FDF91CF911F910F91089582FF14C00A
:1045E0002E813F818C819D81281739073CF4E88119
:1045F000F981CF0101969983888310838E819F81F1
:1046000001969F838E83E3CFE885F985812F0995F5
:10461000892BA1F3DACFFA01AA27283051F12031F2
:1046200081F1E8946F936E7F6E5F7F4F8F4F9F4F46
:10463000AF4FB1E03ED0B4E03CD0670F781F891F88
:104640009A1FA11D680F791F8A1F911DA11D6A0F56
:10465000711D811D911DA11D20D009F468943F9109
:104660002AE0269F11243019305D3193DEF6CF0108
:104670000895462F4770405D4193B3E00FD0C9F7CE
:10468000F6CF462F4F70405D4A3318F0495D31FD3B
:104690004052419302D0A9F7EACFB4E0A69597958E
:1046A000879577956795BA95C9F700976105710564
:1046B00008959B01AC010A2E0694579547953795AE
:1046C0002795BA95C9F7620F731F841F951FA01D08
:0646D0000895F894FFCFED
:1046D60001E80364006400E803C800C800F401F4BC
:1046E60001E803E803960096009600E80396009614
:1046F60000960096009600E80300000000540E5451
:104706000E540E3D093909360900000000F30897DA
:104716000895083D093909E9003406000000008CB7
:1047260001EC001901D9014A0128013C016E616EB4
:1047360000696E66006F766600656570726F6D5F04
:104746007772697465732000766F6C746167655F54
:1047560063616C6962726174696F6E5F646F6E65C6
:104766002000766F6C746167655F63616C69627265
:104776006174696F6E5F76616C7565200077617430
:104786006368646F675F656E61626C656420006371
:1047960068617267696E675F656E61626C656420E9
:1047A600007761746368646F675F636F756E74200A
:1047B600007761746368646F675F74696D65200074
:1047C6004820280029007761746368646F675F6218
:1047D6006F6F745F636F756E7420006261736562DC
:1047E6006F6172645F626F6F745F636F756E742062
:1047F60000456E61626C65206368617267696E6709
:104806000D0A0044697361626C65206368617267B2
:10481600696E670D0A00766F6C746167655F636128
:104826006C6962726174696F6E5F76616C75653A08
:1048360020004572726F723A2063616C6962726120
:104846007465207061636B61676520726563656975
:10485600766564207768696C65206E6F7420696E72
:104866002063616C6962726174696E67206D6F6442
:10487600652100456E61626C65204952204C4544B5
:104886000D0A0044697361626C65204952204C45EB
:10489600440D0A005761746368646F6720656E6132
:1048A600626C65640D0A005761746368646F672003
:1048B60064697361626C65640D0A005761726E69A2
:1048C6006E672066616E207061636B616765206E3E
:1048D6006F742079657420696D706C656D656E7492
:1048E60065640D0A005265626F6F74204E55430D64
:1048F6000A00636C65617220636F6E66696720618A
:104906006C6C0D0A00636C65617220636F6E66697C
:1049160067206C6F670D0A00636C65617220636FB8
:104926006E66696720686172640D0A004861726488
:10493600776172652076657273696F6E20004261D9
:104946007365626F61726420737461727465642149
:104956000D0A005475726E206F6666204E55430D23
:104966000A005475726E206F6E204E55430D0A0074
:104976005761746368646F672077696C6C20747222
:10498600696767657220696E202564207365636FA9
:084996006E6473210D0A00009C
:00000001FF
