:100000000C9462000C946D150C9446150C948A00A7
:100010000C948A000C948A000C948A000C948A0038
:100020000C948A000C948A000C948A000C948A0028
:100030000C948A000C948A000C948A000C948A0018
:100040000C94FC140C948A000C94CA140C94A41400
:100050000C948A000C948A000C948A000C948A00F8
:100060000C948A000C948A000000000024002700F1
:100070002A0000000000250028002B0000000000DE
:1000800023002600290004040404040404040202DA
:100090000202020203030303030301020408102007
:1000A0004080010204081020010204081020000012
:1000B0000008000201000003040700000000000027
:1000C0000000941511241FBECFEFD8E0DEBFCDBFD6
:1000D00026E0AEE1B4E001C01D92A435B207E1F71D
:1000E00014E0A0E0B1E0EAE6F5E502C005900D926B
:1000F000AE31B107D9F710E0C2E6D0E004C02197D5
:10010000FE010E94E527C136D107C9F70E94A71753
:100110000C94B32A0C9400008F929F92AF92BF92DE
:10012000CF92DF92EF92FF920F931F93CF93DF93C3
:10013000FC0169017A01E801CC0FDD1FC558DA4FD7
:10014000888199810E9490279983888340918405B2
:10015000509185056091860570918705460157018C
:10016000841A950AA60AB70A9C01220F331FE20FD0
:10017000F31F40815181052E000C660B770B48154B
:1001800059056A057B05D0F4019699838883C0924E
:100190008405D0928505E0928605F092870591E06E
:1001A00090938305F801EE0FFF1FE00FF11FE15A56
:1001B000FA4F80FF10C0108A118A128ADF91CF9106
:1001C0001F910F91FF90EF90DF90CF90BF90AF9075
:1001D0009F908F9008958689808B8789818B808DF1
:1001E000828BECCF80E991E00895AF92BF92CF92DD
:1001F000DF92EF92FF920F931F93CF93DF936C01E7
:100200007B018B01040F151FEB015E01AE18BF08C7
:10021000C017D10759F06991D601ED91FC91019079
:10022000F081E02DC6010995892B79F7C501DF9191
:10023000CF911F910F91FF90EF90DF90CF90BF90E3
:10024000AF900895FC01538D448D252F30E0842F0D
:1002500090E0821B930B541710F0CF9608950197EE
:100260000895FC01918D828D981761F0A28DAE0FDB
:10027000BF2FB11D5D968C91928D9F5F9F73928F62
:1002800090E008958FEF9FEF0895FC01918D828D8E
:10029000981731F0828DE80FF11D858D90E008955B
:1002A0008FEF9FEF0895FC01918D228D892F90E0B3
:1002B000805C9F4F821B91098F73992708958DEA67
:1002C00094E00E94530121E0892B09F420E0822F61
:1002D000089580E090E0892B29F00E945F01811150
:1002E0000C9400000895FC01A48DA80FB92FB11D36
:1002F000A35ABF4F2C91848D90E001968F7399275C
:10030000848FA689B7892C93A089B1898C91837039
:1003100080648C93938D848D981306C00288F38932
:10032000E02D80818F7D80830895EF92FF920F935F
:100330001F93CF93DF93EC0181E0888F9B8D8C8D91
:1003400098131AC0E889F989808185FF15C09FB785
:10035000F894EE89FF896083E889F9898081837048
:10036000806480839FBF81E090E0DF91CF911F91F7
:100370000F91FF90EF900895F62E0B8D10E00F5F18
:100380001F4F0F731127E02E8C8D8E110CC00FB6EE
:1003900007FCFACFE889F989808185FFF5CFCE0186
:1003A0000E947301F1CFEB8DEC0FFD2FF11DE35A8D
:1003B000FF4FF0829FB7F8940B8FEA89FB89808109
:1003C0008062CFCFCF93DF93EC01888D8823B9F083
:1003D000AA89BB89E889F9898C9185FD03C0808150
:1003E00086FD0DC00FB607FCF7CF8C9185FFF2CFCD
:1003F000808185FFEDCFCE010E947301E9CFDF91AF
:10040000CF910895833081F028F4813099F08230C3
:10041000A9F008958730A9F08830C9F08430B1F48C
:10042000809180008F7D03C0809180008F778093C2
:100430008000089584B58F7784BD089584B58F7D3D
:10044000FBCF8091B0008F778093B00008958091AA
:10045000B0008F7DF9CFCF93DF93282F30E0F901E3
:10046000E255FF4F8491F901E656FF4FD491F9010F
:10047000EA57FF4FC491CC23A1F081110E940202E0
:10048000EC2FF0E0EE0FFF1FE458FF4FA591B49161
:10049000EC91ED2381E090E009F480E0DF91CF91D1
:1004A000089580E090E0FACF1F93CF93DF93282F39
:1004B00030E0F901E255FF4F8491F901E656FF4F14
:1004C000D491F901EA57FF4FC491CC23A9F0162F1C
:1004D00081110E940202EC2FF0E0EE0FFF1FEE5898
:1004E000FF4FA591B4918FB7F894EC91111108C00A
:1004F000D095DE23DC938FBFDF91CF911F910895BC
:10050000DE2BF8CFCF93DF9390E0FC01E656FF4F50
:1005100024918A579F4FFC0184918823D1F090E069
:10052000880F991FFC01E859FF4FA591B491FC0178
:10053000EE58FF4FC591D49161110EC09FB7F8944A
:100540008C91E22FE0958E238C932881E223E8831F
:100550009FBFDF91CF9108958FB7F894EC91E22B74
:10056000EC938FBFF6CF1F93CF93DF93182FEB0140
:1005700061E00E948202209739F460E0812FDF91D0
:10058000CF911F910C945402CF3FD10511F461E03B
:10059000F5CFE12FF0E0E255FF4FE491E33031F188
:1005A00040F4E130B1F0E230E1F0C038D1057CF741
:1005B000E4CFE73029F1E83059F1E430B1F7809128
:1005C0008000806280938000D0938B00C0938A006B
:1005D00004C084B5806884BDC7BDDF91CF911F91F1
:1005E000089584B5806284BDC8BDF7CF8091800036
:1005F000806880938000D0938900C0938800EDCFFD
:100600008091B00080688093B000C093B300E5CFC4
:100610008091B00080628093B000C093B400DDCFC1
:100620002091040190E4299F900111248E50822B87
:1006300080937C0080917A00806480937A0080911E
:100640007A0086FDFCCF8091780090917900089522
:100650003FB7F89480913D0490913E04A0913F04EF
:10066000B091400426B5A89B05C02F3F19F0019614
:10067000A11DB11D3FBFBA2FA92F982F8827BC01FC
:10068000CD01620F711D811D911D42E0660F771F24
:10069000881F991F4A95D1F708958F929F92AF9224
:1006A000BF92CF92DF92EF92FF924B015C010E94CA
:1006B00028036B017C010E9428036C197D098E09B7
:1006C0009F09683E734081059105A8F321E0821AD5
:1006D0009108A108B10888EEC80E83E0D81EE11C7D
:1006E000F11C81149104A104B10429F7FF90EF904B
:1006F000DF90CF90BF90AF909F908F9008952FB7CD
:10070000F8946091390470913A0480913B0490917F
:100710003C042FBF0895CF93C82F809196048C1767
:1007200051F00E947F0360934E0670934F068093B2
:10073000500690935106C0939604F89480919504C6
:1007400081110CC0CC2369F06091960470E08AE0BE
:100750000E94B30261E089E00E9454027894CF9134
:10076000089570E060E08AE00E94B30261E070E00A
:1007700080E090E00E944D0360E089E00E94540216
:1007800061E070E080E090E00E944D036FEF70E068
:100790008AE00E94B302E2CF8F929F92AF92BF9203
:1007A000CF92DF92EF92FF9210921A0610921B06E0
:1007B00010921C0610921D0683E10E941003BC01DA
:1007C000990F880B990B0E94DD2420E030E040E077
:1007D0005FE30E94622620E030E040EA50E40E949D
:1007E0003C2520E030E040E85AE30E943C256B01C4
:1007F0007C0182E10E941003BC01990F880B990BC8
:100800000E94DD2420E030E040E05FE30E946226A9
:1008100020E030E040EA50E40E943C2520E030E057
:1008200040E85AE30E943C25A70196010E946126F8
:1008300020E030E040E850E40E943C254B015C01A0
:10084000AC019B0160910106709102068091030644
:10085000909104060E946126609305067093060637
:1008600080930706909308069F7720918805309122
:10087000890540918A0550918B050E94D624881FD6
:100880008827881F809309068092010690920206AD
:10089000A0920306B092040620E030E040E850E465
:1008A000C701B6010E943C2560930A0670930B06AF
:1008B00080930C0690930D0610920E0610920F0670
:1008C00010921006109211060E947F03C0904606F7
:1008D000D0904706E0904806F09049066C197D09D3
:1008E0008E099F090E94DB246B017C010E947F031B
:1008F0006093460670934706809348069093490696
:1009000020912E0630912F064091300650913106ED
:10091000C701B6010E943C2520E030E041E655E4E5
:100920000E94CE269B01AC01609132067091330685
:1009300080913406909135060E94612660933206BC
:100940007093330680933406909335061092F00529
:100950001092F1051092F2051092F30580E0FF90DD
:10096000EF90DF90CF90BF90AF909F908F900C94BE
:100970008B034F925F926F927F928F929F92AF9272
:10098000BF92CF92DF92EF92FF92CF93DF9300D08E
:1009900000D0CDB7DEB77C018EE00E941003BC0111
:1009A000990F880B990B0E94DD2420E030E040E88D
:1009B0005AE30E943C2520E030E040EA50E40E94E7
:1009C0003C252DEC3CEC4CE050E40E943C25209171
:1009D0009C0530919D0540919E0550919F050E9478
:1009E000CE264B015C0180921A0690921B06A092C3
:1009F0001C06B0921D0680921E0690921F06A092C1
:100A00002006B09221066091940570919505809121
:100A10009605909197052FE030E040E050E00E946D
:100A2000A427CA01B9010E94DB249B01AC0160E04C
:100A300070E080E090E40E94CE262B013C01AC01E6
:100A40009B0160E070E080E89FE30E9461262091B6
:100A500022063091230640912406509125060E94DB
:100A60003C2569837A838B839C83A3019201C50112
:100A7000B4010E943C259B01AC0169817A818B8184
:100A80009C810E94622660932206709323068093C5
:100A900024069093250683E10E941003BC01990F60
:100AA000880B990B0E94DD2420E030E040E05FE3FA
:100AB0000E94622620E030E040EA50E40E943C259B
:100AC00020E030E040E85AE30E943C252B013C0145
:100AD00082E10E941003BC01990F880B990B0E94C0
:100AE000DD2420E030E040E05FE30E94622620E069
:100AF00030E040EA50E40E943C2520E030E040E84D
:100B00005AE30E943C25A30192010E94612620E045
:100B100030E040E850E40E943C254B015C01AC0110
:100B20009B0160910E0670910F06809110069091C6
:100B300011060E9461266093160670931706809333
:100B400018069093190680920E0690920F06A092B6
:100B50001006B09211068092120690921306A0928F
:100B60001406B092150620E030E040E850E4C301DE
:100B7000B2010E943C2560930A0670930B06809395
:100B80000C0690930D060E947F038090460690907D
:100B90004706A0904806B0904906681979098A0965
:100BA0009B090E94DB244B015C010E947F03609340
:100BB000460670934706809348069093490684E062
:100BC000E816F10471F120912E0630912F06409124
:100BD00030065091310660911A0670911B06809183
:100BE0001C0690911D060E946126A50194010E9499
:100BF0003C2520E030E041E655E40E94CE262091DD
:100C000032063091330640913406509135060E94E9
:100C10006226609332067093330680933406909375
:100C2000350660914206709143068091440690918A
:100C300045060E94DB24A50194010E9462260E94C1
:100C4000472760934206709343068093440690932F
:100C5000450680901A0690901B06A0901C06B09046
:100C60001D062DEC3CEC4CEC5DE3C501B4010E948B
:100C700076271816D4F5209101063091020640918E
:100C800003065091040660910E0670910F06809144
:100C90001006909111060E946126A50194010E9400
:100CA000CE262AE037ED43EA5BE30E943C254B0168
:100CB0005C0122E538EB4EE75FE360912606709118
:100CC000270680912806909129060E943C259B01C9
:100CD000AC01C501B4010E946226609326067093A0
:100CE0002706809328069093290691E0E916F104DF
:100CF000B1F48091D4050F900F900F900F90DF9179
:100D0000CF91FF90EF90DF90CF90BF90AF909F90EA
:100D10008F907F906F905F904F900C948B03A4E026
:100D2000EA16F10409F4F2C020E030E0A901609174
:100D3000F0057091F1058091F2059091F3050E9404
:100D4000762718160CF0B6C10E947F030E947F031D
:100D500060934A0670934B0680934C0690934D0621
:100D60008091F0059091F105A091F205B091F30505
:100D700089839A83AB83BC8380901A0690901B066C
:100D8000A0901C06B0901D062091F4053091F50549
:100D90004091F6055091F705BC01CD010E946126F6
:100DA0006B017C0120E030E0A9010E947627181633
:100DB0000CF0BFC0809196048111BBC020912A061F
:100DC00030912B0640912C0650912D06C701B6019B
:100DD0000E9461262091E6053091E7054091E805E3
:100DE0005091E9050E943C256B017C016091D4057E
:100DF00070E090E080E00E94DD249B01AC01C7011F
:100E0000B6010E9462266B017C0120912E06309172
:100E10002F0640913006509131066091D6057091B1
:100E2000D7058091D8059091D9050E9462262B01A3
:100E30003C012DEC3CEC4CE45EE30E9462269B01FD
:100E4000AC01C501B4010E94762718160CF07EC0D3
:100E50002091D0053091D1054091D2055091D30514
:100E6000609101067091020680910306909104063C
:100E70000E9462269B01AC0160910E0670910F06E4
:100E800080911006909111060E94762718160CF09A
:100E90005DC06091D40570E090E080E00E94DB24AA
:100EA0006093F8057093F9058093FA059093FB051C
:100EB000C090F805D090F905E090FA05F090FB0598
:100EC00020E030E0A901C701B6010E94762720E0AA
:100ED00030E040E05FE387FDE8C0C701B6010E9453
:100EE00062260E944027862F0E948B038091F00586
:100EF0009091F105A091F205B091F3058093F4056E
:100F00009093F505A093F605B093F7050F900F9019
:100F10000F900F90DF91CF91FF90EF90DF90CF90E7
:100F2000BF90AF909F908F907F906F905F904F9009
:100F300008952091E6053091E7054091E80550912C
:100F4000E905C701B6010E943C255DCF2DEC3CECC4
:100F50004CEC5DE3C301B2010E9462269B01AC012F
:100F6000C501B4010E947627181664F52091D005BA
:100F70003091D1054091D2055091D3056091010681
:100F80007091020680910306909104060E946226E9
:100F90009B01AC0160910E0670910F0680911006C6
:100FA000909111060E947627181664F46091D4057A
:100FB00070E0660F771F072E000C880B990B0E94BC
:100FC000DD246ECF4090F8055090F9056090FA0549
:100FD0007090FB05A501940169817A818B819C81C8
:100FE0000E9461262091E2053091E3054091E405DD
:100FF0005091E5050E943C25A70196010E946226BA
:101000006B017C0120E030E04FE753EC0E94D624D6
:1010100087FD40C020E030E040E752E4C701B60160
:101020000E947627181634F4C12CD12C90E7E92EB3
:1010300092E4F92EA7019601C301B2010E94622633
:101040006B017C0120E030E0A9010E94D62487FDDD
:1010500028C0B090D5056B2D70E090E080E00E9434
:10106000DD249B01AC01C701B6010E94762718164A
:1010700044F46B2D70E090E080E00E94DB246B0173
:101080007C01C092F805D092F905E092FA05F09241
:10109000FB050ECFC12CD12C8FE7E82E83ECF82E68
:1010A000C9CFC12CD12C7601ECCFC701B6010E946B
:1010B000612617CF80E018CF4F925F926F927F9298
:1010C0009F92AF92BF92CF92DF92EF92FF920F93D7
:1010D0001F93CF93DF9300D01F92CDB7DEB7D82EEA
:1010E00080914D0590914E05A0914F05B09150050E
:1010F000892B8A2B8B2BD9F00E9428030091910415
:10110000109192042091930430919404601B710B10
:10111000820B930B00914D0510914E0520914F05C8
:10112000309150056017710782079307C8F20E943B
:101130002803609391047093920480939304909396
:101140009404E0915505F0915605309759F040917F
:1011500051055091520560915305709154058D2DA4
:101160000995D82EE0908F04F09090044D2C512CCE
:10117000712C612CE114F10409F459C0D7011C96BB
:10118000CC901C9780914B0590914C05843691052D
:1011900010F41C961C92D701ED91FC91A280B380B3
:1011A00019821A821B82DD2079F1F701369610E050
:1011B00000E02191222319F19280992001F130E081
:1011C00050E040E02F5F3F4F4F4F5F4FC301B201F0
:1011D0000E9480279B01AC01892D90E0B0E0A0E047
:1011E000BC01CD016F5F7F4F8F4F9F4F0E948027C3
:1011F000A1E0B0E0AC0FBD1FA00FB11F8C930F5F3B
:101200001F4F03301105A9F609811A812B81F701BF
:101210004585568562817381C701F5010995D7011E
:101220001C96CC921C971496ED90FC90A3CF8091C5
:101230008D0490918E048C010F5F1F4F10938E04CC
:1012400000938D044997B4F10E947F03C0908904F4
:10125000D0908A04E0908B04F0908C049B01AC0148
:101260002C193D094E095F0921F421E030E040E0EE
:1012700050E088EE93E0089FB001099F700D189F21
:10128000700D1124072E000C880B990B0E94A427C7
:1012900030934C0520934B0510928E0410928D04D0
:1012A0000E947F036093890470938A0480938B0467
:1012B00090938C040F900F900F90DF91CF911F911E
:1012C0000F91FF90EF90DF90CF90BF90AF909F90E5
:1012D0007F906F905F904F9008950F931F93CF93DF
:1012E000DF93CDB7DEB72C970FB6F894DEBF0FBEF5
:1012F000CDBFFC01EE0FFF1FE158FA4F0190F081C6
:10130000E02D3197E730F10510F58C01E657F64FE7
:101310000C94E527BB09B2099109C409CD09D60986
:10132000E6098091050190910601A0910701B09115
:10133000080189839A83AB83BC830E947F039B014E
:10134000AC0162E070E0CE0101960E948C002C9608
:101350000FB6F894DEBF0FBECDBFDF91CF911F91C6
:101360000F9108958091090190910A01A0910B01BC
:10137000B0910C01DECF80910D0190910E01A091F2
:101380000F01B0911001D5CF809111019091120100
:10139000A0911301B0911401CCCF809115019091CF
:1013A0001601A0911701B0911801C3CF88E0E9E1BF
:1013B000F1E0DE01119601900D928A95E1F70E940D
:1013C0007F039B01AC0164E070E0BDCF8CE0E1E203
:1013D000F1E0DE01119601900D928A95E1F70E94ED
:1013E0007F039B01AC0166E070E0ADCF08950F93E1
:1013F0001F93CF93DF93209137042F5F322F3770E5
:101400003093370420FF2BC020E831FD2064347076
:1014100009F02062205FFC01EC01239600E011E05E
:101420006485662329F070E0C8010E9490276F5FF1
:101430006187322F369F030E30E0311D11243111A8
:1014400010C01682662311F0615061873196EC1747
:10145000FD0731F7DF91CF911F910F91089520E0A3
:10146000D4CF31503683EECF4F925F926F927F92FE
:101470008F92AF92BF92CF92DF92EF920F931F9312
:10148000CF93DF933C01EB010E942803F3012785F2
:101490003089621B730B6A307105B0F3F894E881F0
:1014A000F9817BB174606BB16B7F6BB9CA848F813A
:1014B0002C2D281B822F2F83BF844A805B801D85A3
:1014C0000C85DE841F5F0F5FD3949E813885A984CD
:1014D000EB844181D20120E0C32F522F322F318182
:1014E000442788943111380F08F43FEF8195889490
:1014F00010FD430F4795889411FD430F479588943D
:1015000012FD430F4795889413FD430F4795889428
:1015100014FD430F4795889415FD430F4795889414
:1015200016FD430F4795889417FD430F4795889400
:10153000232F1111242F8C0D422F002C7BB900C0BA
:1015400047FF6BB930812227889400C000C0002C6F
:101550006BB93111390F00C0002C7BB900C046FFB8
:101560006BB908F43FEF9195889400C000C0002C3F
:101570006BB900FD230F00C0002C7BB900C045FFF4
:101580006BB92795889401FD230F00C000C0002C83
:101590006BB92795889400C0002C7BB900C044FF2C
:1015A0006BB902FD230F2795889400C000C0002C62
:1015B0006BB903FD230F00C0002C7BB900C043FFB3
:1015C0006BB92795889404FD230F00C000C0002C40
:1015D0006BB92795889400C0002C7BB900C042FFEE
:1015E0006BB905FD230F2795889400C000C0002C1F
:1015F0006BB906FD230F00C0002C7BB900C041FF72
:101600006BB92795889407FD230F00C000C0002CFC
:101610006BB92795889400C0002C7BB900C040FFAF
:101620006BB9432F0111422F9A0D00C000C0002C4E
:101630006BB900C000C0002C7BB900C047FF6BB97C
:1016400032812227889400C000C0002C6BB9311170
:101650003C0F00C0002C7BB900C046FF6BB908F4FA
:101660003FEFEB0DF11D00C000C0002C6BB9D0FCAA
:10167000230F00C0002C7BB900C045FF6BB9279534
:101680008894D1FC230F00C000C0002C6BB92795B3
:10169000889400C0002C7BB900C044FF6BB9D2FC19
:1016A000230F2795889400C000C0002C6BB9D3FC91
:1016B000230F00C0002C7BB900C043FF6BB92795F6
:1016C0008894D4FC230F00C000C0002C6BB9279570
:1016D000889400C0002C7BB900C042FF6BB9D5FCD8
:1016E000230F2795889400C000C0002C6BB9D6FC4E
:1016F000230F00C0002C7BB900C041FF6BB92795B8
:101700008894D7FC230F00C000C0002C6BB927952C
:10171000889400C0002C7BB900C040FF6BB9432FF8
:10172000D110422FC19500C000C0002C6BB9CE0D66
:1017300000C000C07BB900C047FF6BB931812227D0
:10174000889400C000C0002C6BB93111380F00C064
:10175000002C7BB900C046FF6BB908F43FEF8195C0
:10176000889400C000C0002C6BB910FD230F00C08E
:10177000002C7BB900C045FF6BB92795889411FDFB
:10178000230F00C000C0002C6BB92795889400C0BF
:10179000002C7BB900C044FF6BB912FD230F2795C5
:1017A000889400C000C0002C6BB913FD230F00C04B
:1017B000002C7BB900C043FF6BB92795889414FDBA
:1017C000230F00C000C0002C6BB92795889400C07F
:1017D000002C7BB900C042FF6BB915FD230F279584
:1017E000889400C000C0002C6BB916FD230F00C008
:1017F000002C7BB900C041FF6BB92795889417FD79
:10180000230F00C000C0002C6BB92795889400C03E
:10181000002C7BB900C040FF6BB9432F1111422F40
:101820008C0D00C000C0002C6BB9119709F086CE5A
:1018300020EE31E0D2010E94EB27DC01CB01F4E085
:10184000B695A79597958795FA95D1F730E020E062
:10185000B901EAE94E9E040C611D5E9E600D711D8A
:101860001124650D711D860F971FA11DB11D893EA5
:1018700043E09407A105B10508F434C0885E9340A5
:10188000A109B10942E0B695A795979587954A9524
:10189000D1F747E0849F080E211D949F200D311D34
:1018A0001124290F311D6091360470E0860F971FB7
:1018B000820F931F4091390450913A0460913B0488
:1018C00070913C04292F3327420F531F611D711D56
:1018D0004093390450933A0460933B0470933C0462
:1018E0008093360478940E942803F301708B6787F5
:1018F000DF91CF911F910F91EF90DF90CF90BF902C
:10190000AF908F907F906F905F904F900895529A14
:101910000895EF92FF920F931F93CF93DF93CDB76C
:10192000DEB762970FB6F894DEBF0FBECDBF7C0165
:10193000DC011C968C917A8369835C834B835E8384
:101940004D830D871E872F87813001F5CE010196CB
:101950000E94F70983E0888B1A8A198AD701ED91D2
:10196000FC910484F585E02DBE016F5F7F4FC701B8
:10197000099562960FB6F894DEBF0FBECDBFDF911A
:10198000CF911F910F91FF90EF9008951C861B86B9
:101990001A86198618861F82DDCFEF92FF920F9369
:1019A0001F93CF93DF93CDB7DEB762970FB6F8944E
:1019B000DEBF0FBECDBF7C01DC011C968C917A830B
:1019C00069835C834B835E834D830D871E872F87DE
:1019D0008130F9F4CE0101960E94F709188A1A8A1B
:1019E000198AD701ED91FC910484F585E02DBE01A3
:1019F0006F5F7F4FC701099562960FB6F894DEBFFF
:101A00000FBECDBFDF91CF911F910F91FF90EF904F
:101A100008951C861B861A86198618861F82DECFBB
:101A200090E080E00895FC018585968508950F93E8
:101A30001F93CF93DF9300D01F92CDB7DEB7AB01DA
:101A400019821A821B82DC01ED91FC910190F081D8
:101A5000E02D00E010E020E0BE016F5F7F4F0995B0
:101A60000F900F900F90DF91CF911F910F910895DC
:101A7000809196048823B9F081E08093950470E00A
:101A800060E08AE00E94B30261E070E080E090E0F4
:101A90000E944D0360E089E00E9454026FEF70E005
:101AA0008AE00C94B3020895FC0180859185029729
:101AB00059F46330710531F06530710519F0623009
:101AC000710561F467E070E0808191818617970766
:101AD00021F07183608381E08687089568E070E07B
:101AE000F3CFFC0101900020E9F73197AF01481BCB
:101AF000590BBC018DEA94E00C94F500009711F0AD
:101B00000C94710D90E080E008958F929F92AF92B7
:101B1000BF920F931F93CF93DF93CDB7DEB7A197FB
:101B20000FB6F894DEBF0FBECDBF19A2423008F445
:101B30004AE08E010F5D1F4F842E912CB12CA12CF9
:101B4000A50194010E94A427E62FB901CA01EA3039
:101B5000D4F4E05DD801EE938D01232B242B252BAB
:101B600079F7CD010E947E0DA1960FB6F894DEBFE5
:101B70000FBECDBFDF91CF911F910F91BF90AF905E
:101B80009F908F900895E95CE5CF0C947E0DCF93E4
:101B9000DF930E947E0DEC0186ED93E00E94710DB3
:101BA0008C0F9D1FDF91CF910895FF920F931F938C
:101BB000CF93DF9307E914E0D0E0C0E0F801F190A3
:101BC0008F01CE010E94FA25F81621F06F2DCE016B
:101BD0000E9402262196C631D10581F787E994E05B
:101BE000DF91CF911F910F91FF900895E7E9F4E005
:101BF00080819181A281B3810196A11DB11D808355
:101C00009183A283B3830C94D50D0F931F9360939C
:101C1000A4047093A5048093A6049093A7040E9443
:101C20007F030091320410913304209134043091E9
:101C30003504601B710B820B930B613C774289402A
:101C4000910560F00E94F60D0E947F0360933204BC
:101C50007093330480933404909335041F910F9153
:101C60000895CF93DF93BC0190E080E04AE00E94AA
:101C7000850DEC0186ED93E00E94710D8C0F9D1F88
:101C8000DF91CF910895CF92DF92EF92FF92CF93A1
:101C9000DF9397FF1BC06B017C016DE28DEA94E03E
:101CA0000E949501EC0166277727CB016C197D090D
:101CB0008E099F094AE00E94850D8C0F9D1FDF91C0
:101CC000CF91FF90EF90DF90CF9008954AE0DF91A1
:101CD000CF91FF90EF90DF90CF900C94850DCF9334
:101CE000DF93BC01990F880B990B0E94430EEC0106
:101CF00086ED93E00E94710D8C0F9D1FDF91CF91B7
:101D000008954F925F926F927F928F929F92AF92BF
:101D1000BF92CF92DF92EF92FF920F931F93CF93D8
:101D20006B017C01742EAC019B010E947B278823F0
:101D300099F081E691E0CF911F910F91FF90EF9084
:101D4000DF90CF90BF90AF909F908F907F906F90DB
:101D50005F904F900C94710D46015701E894B7F8CD
:101D60002FEF3FEF4FE75FE7C501B4010E947B27EC
:101D700081110DC02FEF3FEF4FE75FE7C501B401C1
:101D80000E94D62418161CF485E691E0D4CF2FEFDC
:101D90003FEF4FE75FE4C701B6010E9476271816B0
:101DA0001CF489E691E0C7CF2FEF3FEF4FE75FECE0
:101DB000C701B6010E94D62487FDF3CF20E030E0B2
:101DC000A901C701B6010E94D62410E000E087FFF8
:101DD0000AC06DE28DEA94E00E9495018C01F7FA49
:101DE000F094F7F8F094C0E060E070E080E09FE3EA
:101DF0007C1641F020E030E040E251E40E94CE2623
:101E0000CF5FF6CFA70196010E9462262B013C010D
:101E10000E9447274B015C014AE00E94850D7C012E
:101E2000E00EF11ECC23C1F1C501B4010E94DB24F8
:101E30009B01AC01C301B2010E9461264B015C0110
:101E40006EE28DEA94E00E949501E80EF91EC15001
:101E500018F120E030E040E251E4C501B4010E94F5
:101E60003C252B013C010E9447274B01B12CA12CA2
:101E70004AE0C501B4010E94850DE80EF91EC501B6
:101E8000B4010E94DB249B01AC01C301B2010E949A
:101E900061264B015C01DBCFC701CF911F910F91F0
:101EA000FF90EF90DF90CF90BF90AF909F908F907A
:101EB0007F906F905F904F900895CF93DF9388ED60
:101EC00093E00E94C70D8DE691E00E94C50DC7E921
:101ED000D4E0688179818A819B814AE00E94850DE6
:101EE00086ED93E00E94710D8CE791E00E94C50D94
:101EF0008C8190E00E946F0E86E991E00E94C50DF2
:101F00006D817E818F81988542E00E94810E86EDF1
:101F100093E00E94710D81EB91E00E94C50D8985CF
:101F200090E00E946F0E83EC91E00E94C50D8A85BF
:101F300090E00E946F0E85ED91E00E94C50D8B85AB
:101F40009C850E94310E85EE91E00E94C50D6D8545
:101F50007E858F85988920E83EEE46E350E00E941A
:101F6000C627CA01B9010E94430E84EF91E00E9486
:101F7000C50D6D857E858F8598890E94430E88EFFB
:101F800091E00E94C70D8AEF91E00E94C50D8989FA
:101F90009A890E94310E8FE092E00E94C50D8B89D4
:101FA0009C89DF91CF910C94310E0F931F93CF93A7
:101FB000DF9307E914E0D0E0C0E0CE010E94FA25EB
:101FC000F80181938F012196C631D105B1F70E94A6
:101FD0005D0F8091A00480937C040E947F03009198
:101FE000A4041091A5042091A6043091A704601BBD
:101FF000710B820B930B6093810470938204809326
:102000008304909384048091A20480936A04809155
:10201000A8049091A9049093690480936804809126
:10202000AA049091AB0490937E0480937D04DF9189
:10203000CF911F910F910895CF92DF92EF92FF926F
:102040001F93CF93DF93CDB7DEB7C054D1090FB63E
:10205000F894DEBF0FBECDBF109195041123E1F0BF
:102060001092950465E272E0CE0101960E940B2861
:10207000CE0101960E947E0D812FC05CDF4F0FB60E
:10208000F894DEBF0FBECDBFDF91CF911F91FF90BF
:10209000EF90DF90CF9008950E947F03C0903E069E
:1020A000D0903F06E0904006F09041066C197D0903
:1020B0008E099F09C0909405D0909505E0909605F3
:1020C000F0909705C616D706E806F906A0F5209108
:1020D000BC053091BD054091BE055091BF05609192
:1020E00001067091020680910306909104060E94F9
:1020F00076271816F4F420912E0630912F06409181
:1021000030065091310660911A0670911B0680913D
:102110001C0690911D060E9461269F772DEC3CECD9
:102120004CE45DE30E94D62487FF03C081E08093E6
:10213000000611E0A1CF0E947F03C0903E06D09020
:102140003F06E0904006F09041066C197D098E092B
:102150009F09C0909805D0909905E0909A05F0905D
:102160009B05C616D706E806F90608F085CF20912C
:10217000CC053091CD054091CE055091CF056091B1
:102180001A0670911B0680911C0690911D060E94F4
:10219000D62487FF71CF0E947F03C0904E06D09057
:1021A0004F06E0905006F09051066C197D098E099B
:1021B0009F09C0909805D0909905E0909A05F090FD
:1021C0009B05C616D706E806F90608F455CF2091F8
:1021D000CC053091CD054091CE055091CF05609151
:1021E000F0057091F1058091F2059091F3050E9440
:1021F000762718160CF040CF2091D0053091D105EC
:102200004091D2055091D30560910106709102066C
:1022100080910306909104060E9462269B01AC0106
:1022200060910E0670910F06809110069091110634
:102230000E94762718160CF01FCF80E00E948B03B7
:1022400078CF0E9406285F926F927F928F929F9222
:10225000AF92BF92CF92DF92EF92FF920F931F93B4
:10226000CF93DF93CDB7DEB7C054D1090FB6F89442
:10227000DEBF0FBECDBF0FEF1FEF83E0D82E94E07F
:10228000C92E2EE0B22E38E0A32E45E0942E56E063
:10229000852E6CE0762E6624639472E0572EE0E182
:1022A000EE2EF12C8DEA94E00E945301892B09F463
:1022B00050C18DEA94E00E943101209120043091B8
:1022C0002104F901EE5DFB4F808390911F04923051
:1022D00009F460C098F4992309F453C0913009F4CB
:1022E00056C080912004909121040196B7010E946C
:1022F00090279093210480932004D4CF933009F445
:1023000053C0943071F72F5F3F4F40911E0450E04F
:102310002417350709F083C08A3009F079C010927C
:102320001F0410922104109220040E947F036093E6
:102330005705709358058093590590935A05E0917D
:102340002504E154E73108F004C1F0E0E655FE4E03
:102350000C94E5276514A9121412A9121214801303
:10236000A912A912A912A912A9121C13A9120414C4
:10237000A912A912A9128313A912A912A912A912AA
:102380003B13803409F046C060921F04AACF5092DC
:102390001F04A7CF2F5D3B4FD9018C91853109F0E8
:1023A00037C0D0921F049DCFC0921F048154873143
:1023B00008F02CC0E82FF0E0E052FE4E0C94E52728
:1023C000FA110612F71106120012FA11061206127D
:1023D000061206120612FA110612FD110612061254
:1023E000061203120612061206120612FA11709253
:1023F0001E0477CF80921E0474CF90921E0471CF7A
:10240000A0921E046ECFB0921E046BCF10921E04D9
:1024100010921F04109321040093200462CF24170C
:1024200035070CF45ECFF4CF80917F049091800447
:102430000297029760F01092260460E472E0CE01E9
:1024400001960E940B28CE0101960E947E0D80917C
:10245000EE059091EF0520912604222309F4CCC0CB
:10246000009701F567E772E0CE0101960E940B2804
:10247000CE0101960E947E0D8091A104811105C0BC
:1024800081E08093A1040E94F60D81E090E090939A
:10249000EF058093EE058091EE059091EF05009792
:1024A00009F457C0209127042223E9F10C9709F081
:1024B000BEC0209101063091020640910306509162
:1024C0000406609128047091290480912A04909157
:1024D0002B040E9461266093360670933706809322
:1024E00038069093390621E020939B0460939C0466
:1024F00070939D0480939E0490939F040E94F60D18
:102500008CE992E00E94C50D609136067091370605
:10251000809138069091390642E00E94810E86ED46
:1025200093E00E94710D80912C04882391F0109209
:102530009B040E94F60D8CE090E09093EF05809351
:10254000EE05109236061092370610923806109259
:1025500039060E947F03009157051091580520917C
:10256000590530915A05601B710B820B930B613139
:1025700077428105910548F180916105909162054E
:10258000019741F081E090E09093620580936105AE
:1025900080936E0580916305882329F0109263056E
:1025A00081E080936E0580916505882329F0109263
:1025B000650581E080936E0580916405882329F08C
:1025C0001092640581E080936E05C05CDF4F0FB60A
:1025D000F894DEBF0FBECDBFDF91CF911F910F9159
:1025E000FF90EF90DF90CF90BF90AF909F908F9033
:1025F0007F906F905F900895892B09F4AACF69E8C6
:1026000072E0CE0101960E940B28CE0101960E9435
:102610007E0D1092EF051092EE058091A1048823A3
:1026200009F497CF1092A1040E94F60D34CF88EBE5
:1026300092E00E94C70D77CF80912604882379F01D
:1026400069EF72E0CE0101960E940B28CE0101963F
:102650000E947E0D61E087E00E9454027ACF69E01B
:1026600073E0CE0101960E940B28CE0101960E94D4
:102670007E0D60E0F0CF0E947F0360935B05709356
:102680005C0580935D0590935E051092790410922D
:102690006B048091AC04882321F01092A0040E9466
:1026A000F60D80917C04909126049923C1F081114C
:1026B00050CF8091A004882321F01092A0040E94A2
:1026C000F60D81E080937C046AE173E0CE0101960F
:1026D0000E940B28CE0101960E947E0D3ACF8823DE
:1026E00009F437CF8091A004811105C081E0809367
:1026F000A0040E94F60D10927C046DE273E0E6CF18
:1027000061E473E0E3CF8091260490E020916105BD
:10271000309162058217930739F090936205809398
:10272000610581E080936E0580912B049091630593
:10273000891729F08093630581E080936E0580916D
:102740002D0490916505891729F08093650581E036
:1027500080936E0580912C0490916405891729F06F
:102760008093640581E080936E0580912E04282F6C
:1027700030E0409167055091680524173507E9F46A
:102780002230310509F0E5CE80915F05909160051A
:10279000AC014750510942305105B0F04B5F5F4FDB
:1027A0004230510510F0059749F587E090E090938D
:1027B000600580935F0581E017C0823029F348F4FB
:1027C0008823A9F0813061F0309368052093670574
:1027D000C0CE8330B1F08430B9F78AE090E0E7CF23
:1027E0001092600510925F0580936D05EDCF81E03A
:1027F00090E09093600580935F05F6CF88E090E0CD
:10280000D6CF89E090E0D3CF6BE673E0CE0101969E
:102810000E940B28CE0101960E947E0D81E08093DC
:102820006C0497CE809126048823B9F068E773E0A2
:10283000CE0101960E940B28CE0101960E947E0DCA
:10284000EBE9F4E082E1DF011D928A95E9F70E944D
:102850005D0F0E94D50D0E94D50F8091280488231A
:10286000B9F06BE873E0CE0101960E940B28CE010F
:1028700001960E947E0DE0EAF4E08DE0DF011D92FA
:102880008A95E9F70E945D0F0E94D50D0E94D50F31
:1028900080912704882309F45CCE6EE973E0CE01B1
:1028A00001960E940B28CE0101960E947E0D86E1C2
:1028B000E7E9F4E0DF011D928A95E9F70E945D0FD8
:1028C0000E94D50D0E94D50F44CE80912604882306
:1028D00021F11092FC051092FD051092FE05109258
:1028E000FF058091EE059091EF058D7F892B09F40E
:1028F00030CE8091FC059091FD05A091FE05B09130
:10290000FF05892B8A2B8B2B09F423CE8BE090E0DB
:102910009093EF058093EE051CCE8091FC0590917D
:10292000FD05A091FE05B091FF05892B8A2B8B2B0D
:10293000C1F60E947F036093FC057093FD058093B0
:10294000FE059093FF05CDCF1F920F920FB60F9209
:1029500011242F933F934F935F936F937F938F93A4
:102960009F93AF93BF93EF93FF938DEA94E00E9400
:102970007301FF91EF91BF91AF919F918F917F91E3
:102980006F915F914F913F912F910F900FBE0F90DC
:102990001F9018951F920F920FB60F9211242F932C
:1029A0008F939F93EF93FF93E091BD04F091BE044A
:1029B0008081E091C304F091C40482FD1BC090812A
:1029C0008091C6048F5F8F732091C704821741F0F6
:1029D000E091C604F0E0E355FB4F958F8093C60469
:1029E000FF91EF919F918F912F910F900FBE0F90BC
:1029F0001F9018958081F4CF1F920F920FB60F92FF
:102A000011242F933F938F939F93AF93BF93809104
:102A1000390490913A04A0913B04B0913C04309168
:102A2000380423E0230F2D3758F50196A11DB11D61
:102A3000209338048093390490933A04A0933B0484
:102A4000B0933C0480913D0490913E04A0913F04DA
:102A5000B09140040196A11DB11D80933D04909357
:102A60003E04A0933F04B0934004BF91AF919F9167
:102A70008F913F912F910F900FBE0F901F9018953F
:102A800026E8230F0296A11DB11DD2CF1F920F92EF
:102A90000FB60F9211242F933F934F935F936F9331
:102AA0007F938F939F93AF93BF93EF93FF93E091A7
:102AB0000201F09103010995FF91EF91BF91AF9150
:102AC0009F918F917F916F915F914F913F912F9146
:102AD0000F900FBE0F901F9018951F920F920FB678
:102AE0000F9211242F933F934F935F936F937F9394
:102AF0008F939F93AF93BF93EF93FF93E091000168
:102B0000F09101010995FF91EF91BF91AF919F91D4
:102B10008F917F916F915F914F913F912F910F9086
:102B20000FBE0F901F901895EDEAF4E01382128209
:102B300088EE93E0A0E0B0E084839583A683B7831A
:102B400083E591E09183808385EC90E0958784878D
:102B500084EC90E09787868780EC90E0918B808B67
:102B600081EC90E0938B828B82EC90E0958B848B50
:102B700086EC90E0978B868B118E128E138E148EBE
:102B8000EAE4F5E08FEF80831282118214861386C7
:102B90008FEF9FEFDC0187839087A187B287E8E8FA
:102BA000F5E08DEC9CECACE4BDE380839183A283E3
:102BB000B38340E65AEE60E070E044835583668359
:102BC00077834CE251E060E070E040875187628794
:102BD000738740E355E760E070E044875587668778
:102BE000778742EC51E060E070E0408B518B628B64
:102BF000738B40E050E066E973E4408F518F628F41
:102C0000738F40EE53E964E070E0448F558F668F18
:102C1000778F43E353E363E37FE340A351A362A3CE
:102C200073A344A355A366A377A343E353E363EBE2
:102C30007FE340A751A762A773A740E050E060E69A
:102C400070E444A755A766A777A743E353E363E877
:102C500070E440AB51AB62AB73AB44EA50E765E85C
:102C600070E444AB55AB66AB77AB4BE754E166E839
:102C700070E440AF51AF62AF73AF46E656E666E828
:102C800070E444AF55AF66AF77AF40E050E068E81E
:102C900070E44093C8055093C9056093CA057093CA
:102CA000CB058093CC059093CD05A093CE05B09332
:102CB000CF058AE999E9A9E1BFE38093D005909314
:102CC000D105A093D205B093D3052EE02093D4056F
:102CD0002CE32093D5058093D6059093D705A09338
:102CE000D805B093D9058AE999E9A9E9BEE38093AB
:102CF000DA059093DB05A093DC05B093DD058AE946
:102D000099E9A9E1BEE38093DE059093DF05A093E6
:102D1000E005B093E1054DEC5CEC6CE47EE34093A0
:102D2000E2055093E3056093E4057093E50540E008
:102D300050E068E472E44093E6055093E705609341
:102D4000E8057093E9054FE652E163E07AE34093CA
:102D5000EA055093EB056093EC057093ED05109236
:102D6000EF051092EE051092F0051092F105109209
:102D7000F2051092F3051092F4051092F5051092E9
:102D8000F6051092F7051092F8051092F9051092C9
:102D9000FA051092FB051092FC051092FD051092A9
:102DA000FE051092FF051092000610920106109287
:102DB0000206109203061092040610920506109265
:102DC0000606109207061092080610920906109245
:102DD0000A0610920B0610920C0610920D06109225
:102DE0000E0610920F061092100610921106109205
:102DF00012061092130610921406109215061092E5
:102E000016061092170610921806109219061092C4
:102E10001A0610921B0610921C0610921D061092A4
:102E20001E0610921F061092200610922106109284
:102E3000220610922306109224061092250640E0E6
:102E400050E060E87FE340932606509327066093A6
:102E500028067093290680932A0690932B06A09348
:102E60002C06B0932D0680932E0690932F06A093E8
:102E70003006B0933106109232061092330610924B
:102E800034061092350610923606109237061092CC
:102E900038061092390610923A0610923B061092AC
:102EA0003C0610923D0610923E0610923F0610928C
:102EB000400610924106109242061092430610926C
:102EC000440610924506109246061092470610924C
:102ED00048061092490610924A0610924B0610922C
:102EE0004C0610924D0610924E0610924F0610920C
:102EF000500610925106EFE5F5E011821082138220
:102F0000128281E0848385831682178242875387E9
:102F10006487758717861686868714A215A216A25F
:102F200017A210A60E947F0360935B0570935C0557
:102F300080935D0590935E050E947F036093570523
:102F4000709358058093590590935A050895CF932F
:102F5000DF93CDB7DEB7CF57D1090FB6F894DEBFF8
:102F60000FBECDBF789484B5826084BD84B5816086
:102F700084BD85B5826085BD85B5816085BD809144
:102F80006E00816080936E001092810080918100BC
:102F900082608093810080918100816080938100B4
:102FA000809180008160809380008091B100846076
:102FB0008093B1008091B00081608093B0008091D7
:102FC0007A00846080937A0080917A008260809396
:102FD0007A0080917A00816080937A0080917A00F3
:102FE000806880937A001092C1000E94D50F809172
:102FF0007D0490917E04019690937E0480937D04DD
:1030000021E030E0892B11F430E020E08091AA0427
:103010009091AB042817390731F03093AB0420931B
:10302000AA040E94F60D61E088E00E94540261E06B
:1030300088E00E94820261E088E00E94540261E020
:1030400085E00E94540261E085E00E94820261E016
:1030500085E00E94540261E087E00E94820261E004
:1030600087E00E94540260E081E10E94820260E0F9
:1030700086E00E94820261E08FE00E94820270E09E
:1030800060E08FE00E94B30261E070E080E090E0D9
:103090000E944D0360E08FE00E948202E091BD0437
:1030A000F091BE0482E08083E091B904F091BA040B
:1030B0001082E091BB04F091BC0480E18083109207
:1030C000C504E091C104F091C20486E08083E091E0
:1030D000BF04F091C004808180618083E091BF04CF
:1030E000F091C004808188608083E091BF04F091FA
:1030F000C004808180688083E091BF04F091C004A7
:1031000080818F7D808385E090E0A0E0B0E08093B7
:10311000B1049093B204A093B304B093B40480912B
:103120005404811145C010924604109245048FEF5B
:103130008093490480934A0480934B0480934C0409
:1031400080934D0480934E0481E080934F0410924D
:103150005104109250041092480410924704809138
:103160008F0490919004892B31F483E494E0909340
:10317000900480938F04E0914104F09142043097D1
:1031800021F083E494E09583848383E494E0909336
:10319000420480934104109253041092520481E43B
:1031A00091E0909344048093430481E0809354041D
:1031B000529A8FE695E0909346048093450482E00E
:1031C00090E0909351048093500480914D0590912C
:1031D0004E05A0914F05B0915005843C29E092071F
:1031E000A105B10520F484EC99E0A0E0B0E0809363
:1031F0004D0590934E05A0934F05B09350058091D7
:10320000610590916205892B39F010926205109248
:10321000610581E080936E0589E180937505809357
:103220007605809377051092780580937905109242
:103230007A058091750590917605A0917705809328
:103240006F0590937005A09371058091780590911A
:103250007905A0917A058093720590937305A093E8
:1032600074051092800510927F05109282051092CD
:10327000810581E090E090937C0580937B0590939D
:103280007E0580937D0580914A050E945C088FE051
:103290000E9410036AE070E080E090E00E944D031D
:1032A0008FE00E9410038095909535E09695879564
:1032B0003A95E1F78F71992710E000E030E020E0C7
:1032C000E4E0F0E0AC01022E02C0569547950A9466
:1032D000E2F741705527BF01621B730B02C0440F18
:1032E000551F6A95E2F7042B152B2F5F3F4F2530B2
:1032F000310541F782EB93E00E94C50DC8010E94A1
:10330000310E1093800400937F040531110531F4D0
:1033100083E090E09093800480937F0480917F0409
:10332000909180042FE535E03093530620935206A8
:1033300023E0209304018230910509F0A4C08CE4BD
:1033400096EAAAEABEE380939C0590939D05A0931C
:103350009E05B0939F0561E08AE00E94820261E0D1
:1033600089E00E94820260E080E10E94820260E0C7
:103370008EE00E94820260E083E00E94820288E385
:103380009DE0909303018093020180916900837F07
:10339000886080936900E99A8091A104882309F4E8
:1033A0007AC081E090E09093EF058093EE058091E4
:1033B0008100887F81608093810080E00E948B0380
:1033C00064EC73E0AE014F5F5F4F1A01CA010E94C7
:1033D0000B28C1010E947E0D11E092E0892E912CF4
:1033E0002AE0A22EB12C8091600481110CC00E94B1
:1033F0007F0360935C0470935D0480935E049093FC
:103400005F041093600481E10E94100301E08D329B
:1034100091400CF400E0C0905C04D0905D04E0901A
:103420005E04F0905F040E947F039601215F3F4F8E
:10343000D901A61BB70BEE96BFAFAEAFEE97412CEE
:10344000512C3201BFE0CB0ED11CE11CF11C0E94BB
:103450007F036C157D058E059F0510F581E10E94A7
:10346000100321E08D32E1E09E070CF420E02017EC
:1034700071F3FFEF4F1A5F0A6F0A7F0A01E0892B91
:1034800031F700E0E4CF039708F465CF83E393E3DB
:10349000A3E5B0E458CF1092EF051092EE0587CF68
:1034A000A8EEB3E0A30192010E941026EE96AEAD05
:1034B000BFADEE979D01BB0F440B550B0E94A42797
:1034C000CA01B9010E94DB242AE037ED43E25CE344
:1034D0000E943C256B017C0160917A0470917B0411
:1034E00090E080E00E94DB2424EA30E74DE75FE3D0
:1034F0000E943C259B01AC01C701B6010E946226D7
:103500000E94472770937B0460937A040E947F0394
:1035100060935C0470935D0480935E0490935F04F9
:103520000E94231180917C04882369F10E947F030B
:10353000C0908104D0908204E0908304F0908404D1
:103540006C197D098E099F0961157447874B91405D
:1035500020F480916B04811116C00E947F03C090FB
:103560005B05D0905C05E0905D05F0905E056C1900
:103570007D098E099F0961387E4E8643910508F4C6
:10358000E8C010936C048091710481110CC00E94FA
:103590007F0360936D0470936E0480936F04909327
:1035A00070041093710488E00E942B02892B09F4A7
:1035B0006DC080916C04882309F468C069ED73E0E4
:1035C000C1010E940B28C1010E947E0D10926C0463
:1035D00010936B048091AC04811104C01093A0047B
:1035E0000E94F60D1092790480916605882321F0DF
:1035F0001092660510936E050E947F0360936D0420
:1036000070936E0480936F04909370040E947F0304
:103610006093810470938204809383049093840464
:103620000E947F0360935B0570935C0580935D054A
:1036300090935E0580916A048F5F80936A0421E015
:1036400030E0811102C030E020E08091A20490912E
:10365000A3042817390731F03093A3042093A20460
:103660000E94F60D0E947F03C0908104D0908204D6
:10367000E0908304F09084046C197D098E099F0901
:103680000E94050E60E088E00E9454020E947F03C1
:10369000C0906D04D0906E04E0906F04F0907004C0
:1036A0006C197D098E099F09613375478105910564
:1036B00068F188E00E942B02892B41F568EE73E0E7
:1036C000C1010E940B28C1010E947E0D80916804F7
:1036D000909169040196909369048093680421E0B5
:1036E00030E0892B11F430E020E08091A804909123
:1036F000A9042817390731F03093A9042093A804AE
:103700000E94F60D61E088E00E94540280916D05F0
:10371000882309F45EC01092800510927F051093F3
:103720008305E0915F05F0916005EC30F10508F04C
:103730004EC0E356F44E0C94E527C01BD51B4F1C1E
:10374000661C3C1C791C131CA21CC51CEC1C211DF6
:10375000D51B0E947F036C197D098E099F09613773
:10376000774C8643910508F40ECF1093790480912D
:103770006605811108CF1093660510936E0503CF7F
:1037800020E030E04FE753E46091690570916A05ED
:1037900080916B0590916C050E943C250E94472703
:1037A00060937505609376058EC010927505109232
:1037B0007605109277058091750590917605A09118
:1037C000770580936F0590937005A0937105109213
:1037D0006D0580916E05882309F485C110928205DC
:1037E000109281051093830580916605882331F03E
:1037F000E1E0F0E0F0936205E0936105E09161059E
:10380000F0916205E930F10508F072C2E65FF34E0F
:103810000C94E527361D4B1DAF1DD81D111E261E0D
:103820003B1E521E651E20E030E04FE753E46091DE
:10383000690570916A0580916B0590916C050E94F5
:103840003C250E944727609375056093760510928A
:1038500077058091750590917605A0917705809305
:103860006F0590937005A093710547E050E0509369
:10387000800540937F05ABCF20E030E04FE753E475
:103880006091690570916A0580916B0590916C0556
:103890000E943C250E9447276093750588CF20E051
:1038A00030E04FE753E46091690570916A058091BB
:1038B0006B0590916C050E943C250E944727109251
:1038C0007505109276056093770575CF20E030E09E
:1038D0004FE753E46091690570916A0580916B052B
:1038E00090916C050E943C250E9447271092750517
:1038F00059CF20E030E04FE753E4609169057091C3
:103900006A0580916B0590916C050E943C250E9490
:103910004727109275051092760560937705809180
:10392000750590917605A091770580936F0590932A
:103930007005A093710587E090E0909380058093D7
:103940007F0545CFC0906905D0906A05E0906B0572
:10395000F0906C0520E030E04FE753E4C701B6017A
:103960000E943C250E9447276093750510927605BA
:1039700020E030E040E053E4C701B6010E943C255E
:103980000E9447276093770516C020E030E04FE79C
:1039900053E46091690570916A0580916B0590917F
:1039A0006C050E943C250E94472760937505109284
:1039B0007605109277058091750590917605A09116
:1039C000770580936F0590937005A0937105909291
:1039D000800580927F05FBCEC0906905D0906A0576
:1039E000E0906B05F0906C0520E030E04FE753E489
:1039F000C701B6010E943C250E94472760937505C8
:103A000020E030E040E053E4C701B6010E943C25CD
:103A10000E9447276093760510927705809175057F
:103A200090917605A091770580936F05909370052E
:103A3000A0937105A4E0B0E0B0938005A0937F054A
:103A4000C6CE20E030E04FE753E460916905709105
:103A50006A0580916B0590916C050E943C250E943F
:103A6000472760937505609376058CCF20E030E0A2
:103A70004FE753E46091690570916A0580916B0589
:103A800090916C050E943C250E9447276093780521
:103A90001092790504C120E030E04FE753E46091D3
:103AA000690570916A0580916B0590916C050E9483
:103AB0003C250E9447276093780510927905109263
:103AC0007A058091780590917905A0917A05809387
:103AD000720590937305A09374059092820580926D
:103AE000810510926E0580916105909162050197A4
:103AF000029750F0809163058111FDC047E050E0CE
:103B0000509382054093810590E080E00E946D090A
:103B100081E090E00E946D0980918305882331F057
:103B200080914A050E945C0810928305E091EE05A1
:103B3000F091EF05ED30F10508F00AC1EE55F24EB7
:103B40000C94E527921E9C1EEF1F4F20B520E62007
:103B50000121292150215B2182218D24D32420E0C1
:103B600030E04FE753E46091690570916A058091F8
:103B70006B0590916C050E943C250E94472760933D
:103B800078051092790510927A05809178059091C8
:103B90007905A0917A058093720590937305A0939F
:103BA000740524E030E0309382052093810599CF9D
:103BB000C0906905D0906A05E0906B05F0906C05A7
:103BC00020E030E04FE753E4C701B6010E943C25F6
:103BD0000E9447276093780520E030E040EA50E4F7
:103BE000C701B6010E943C250E94472760937905D2
:103BF00020E030E040EA52E4C701B6010E943C25D3
:103C00000E94472760937A05809178059091790505
:103C1000A0917A058093720590937305A093740523
:103C200060CF20E030E04FE753E460916905709188
:103C30006A0580916B0590916C050E943C250E945D
:103C400047276093780560937905DCCF20E030E06A
:103C50004FE753E46091690570916A0580916B05A7
:103C600090916C050E943C250E9447271092780590
:103C700010927905C7CF20E030E04FE753E4609120
:103C8000690570916A0580916B0590916C050E94A1
:103C90003C250E9447276093780560937905109230
:103CA0007A05B2CF20E030E04FE753E46091690538
:103CB00070916A0580916B0590916C050E943C257E
:103CC0000E94472710927805E8CF20E030E04FE7C8
:103CD00053E46091690570916A0580916B0590913C
:103CE0006C050E943C250E94472710927805ABCFB7
:103CF00010927805CDCE80916405811107C086E0D1
:103D000090E09093820580938105FECE80916505B9
:103D1000882309F4F9CEA5E0B0E0B0938205A09322
:103D20008105F2CE80919604882319F080E00E94EC
:103D30008B0361E070E09FC170E060E0809152060B
:103D4000909153060E94540D9092EF058092EE05DB
:103D50000E947F03C0908504D0908604E090870481
:103D6000F09088046C197D098E099F09643F7140A9
:103D70008105910508F426C10E947F0360938504A4
:103D8000709386048093870490938804C090810484
:103D9000D0908204E0908304F09084046C197D0933
:103DA0008E099F090E94050E80E422968FAF22970C
:103DB00085E190E024969FAF8EAF249780E525960D
:103DC0008FAF25978AE0EC968FAFEC9780917F04B8
:103DD0009091800427969FAF8EAF279780917D04A6
:103DE00090917E0429969FAF8EAF299787E00E941D
:103DF0002B0260968FAF609780917C0461968FAFA5
:103E000061970E947F032F966CAF7DAF8EAF9FAFFF
:103E10002F9780917A0490917B04E9969FAF8EAFA3
:103E2000E9978091EE0562968FAF629780910106C7
:103E300090910206A0910306B091040666968CAF9D
:103E40009DAFAEAFBFAF669780910E0690910F0603
:103E5000A0911006B09111066A968CAF9DAFAEAFDF
:103E6000BFAF6A9780910A0690910B06A0910C064D
:103E7000B0910D066E968CAF9DAFAEAFBFAF6E9793
:103E800080911A0690911B06A0911C06B0911D0608
:103E9000A2968CAF9DAFAEAFBFAFA2978091F00559
:103EA0009091F105A091F205B091F305A6968CAF23
:103EB0009DAFAEAFBFAFA69780913206909133060B
:103EC000A0913406B0913506AA968CAF9DAFAEAFE7
:103ED000BFAFAA978091260690912706A091280649
:103EE000B0912906AE968CAF9DAFAEAFBFAFAE9787
:103EF00080912E0690912F06A0913006B091310648
:103F0000E2968CAF9DAFAEAFBFAFE29780919604C3
:103F1000E3968FAFE3978091420690914306A0917C
:103F20004406B0914506E7968CAF9DAFAEAFBFAFEC
:103F3000E79780915F05EA968FAFEA9780916105D8
:103F4000EB968FAFEB974BE350E0BE016F5B7F4F7B
:103F50008DEA94E00E94F50080917904882391F124
:103F6000C0905B05D0905C05E0905D05F0905E052B
:103F70000E947F03A0E8CA0EAEEEDA1EA6E3EA1E98
:103F8000F11CA7019601261B370B480B590BCA01E0
:103F9000B90128EE33E040E050E00E94A4273F93AF
:103FA0002F9386EF93E09F938F933F922F920E94DF
:103FB0001228C1010E947E0D0F900F900F900F905C
:103FC0000F900F9080E090E0892B09F40CCA0E94BA
:103FD0005F01882309F401CA0E940000FEC90E9403
:103FE000CC031092F8051092F9051092FA05109280
:103FF000FB05109200061092F4051092F505109240
:10400000F6051092F70510924206109243061092A0
:104010004406109245061092320610923306109212
:104020003406109235062091A8053091A9054091DB
:10403000AA055091AB05609101067091020680912E
:104040000306909104060E947627181694F4809136
:10405000FC059091FD05A091FE05B091FF05892B0F
:104060008A2B8B2B69F08BE090E09093EF05809387
:10407000EE0564E070E08091520690915306E6C030
:104080000E947F0360933A0670933B0680933C0640
:1040900090933D06B092EF05A092EE05EACF0E9404
:1040A0007F03C0903E06D0903F06E0904006F0901F
:1040B00041066C197D098E099F09C0909405D09026
:1040C0009505E0909605F0909705C616D706E80688
:1040D000F90678F40E947F0360933A0670933B06DA
:1040E00080933C0690933D06B092EF05A092EE05BA
:1040F0002FCE2091CC053091CD054091CE05509129
:10410000CF0560911A0670911B0680911C06909154
:104110001D060E9476271816DCF40E947F03C090CB
:104120003E06D0903F06E0904006F09041066C19A4
:104130007D098E099F09C0909805D0909905E0905F
:104140009A05F0909B05C616D706E806F90610F208
:1041500010923206109233061092340610923506F1
:1041600081E090E00E94B90484CF0E94CC03C0900B
:104170000106D0900206E0900306F090040620911C
:10418000A8053091A9054091AA055091AB05C7013A
:10419000B6010E94D62487FF04C09092EF0580925A
:1041A000EE052091B0053091B1054091B2055091D6
:1041B000B305C701B6010E947627181624F4B09201
:1041C000EF05A092EE0566E070E055CF0E94CC03AB
:1041D0002091A8053091A9054091AA055091AB0501
:1041E0006091010670910206809103069091040689
:1041F0000E94D62487FFE7CF9092EF058092EE05CC
:10420000E2CF0E941C10811165CF83E090E00E94F4
:10421000B9042091CC053091CD054091CE05509147
:10422000CF0560911A0670911B0680911C06909133
:104230001D060E94D624209152063091530664E058
:1042400070E087FD02C062E070E0C9010E94540D79
:104250007FCD0E941C1081113DCF6091A00570910F
:10426000A1058091A2059091A3059B01AC010E943C
:1042700062269B01AC0160913206709133068091F9
:104280003406909135060E947627181634F4E5E03E
:10429000F0E0F093EF05E093EE0582E090E0B7CF19
:1042A0000E941C10811116CF84E090E00E94B90496
:1042B00063E070E0E0CE0E94CC032091C405309111
:1042C000C5054091C6055091C705609101067091E2
:1042D000020680910306909104060E94D62487FF6F
:1042E0000EC00E947F0360933A0670933B06809352
:1042F0003C0690933D06B092EF05A092EE0565E076
:1043000070E0B9CE0E94CC0380910906882309F49D
:104310001FCD0E947F03C0903A06D0903B06E090EC
:104320003C06F0903D066C197D098E099F09C090EE
:104330009005D0909105E0909205F0909305C616F7
:10434000D706E806F90608F003CD0E947F036093C4
:104350003E0670933F068093400690934106C090BE
:104360000106D0900206E0900306F090040620912A
:10437000C8053091C9054091CA055091CB05C701C8
:10438000B6010E94762718163CF5C0902A06D090F8
:104390002B06E0902C06F0902D06A7019601609167
:1043A0002E0670912F0680913006909131060E9462
:1043B0007627181644F4C0922E06D0922F06E0926B
:1043C0003006F092310689E090E09093EF058093FB
:1043D000EE0510920006BCCC20911E0630911F06FF
:1043E0004091200650912106C458DF4F288339831D
:1043F0004A835B83CC57D0404090CC055090CD058C
:104400006090CE057090CF05A3019201C458DF4F94
:10441000688179818A819B81CC57D0400E94D624C3
:1044200087FF33C02091F4053091F5054091F605E2
:104430005091F705C301B2010E94D62487FF25C021
:10444000A7019601609112067091130680911406DF
:10445000909115060E94612620E030E040E85FE37D
:104460000E94762718168CF42091A8053091A90592
:104470004091AA055091AB05C701B6010E9476276D
:1044800087FD03C083E090E0A0CF809100068111FA
:1044900025C02091C0053091C1054091C2055091C1
:1044A000C305C701B6010E94762787FD49C18091E7
:1044B0002E0690912F06A0913006B0913106809380
:1044C000F0059093F105A093F205B093F30547E052
:1044D00050E05093EF054093EE053ACC2091BC0597
:1044E0003091BD054091BE055091BF05C701B60191
:1044F0000E94762787FD24C12091C4053091C5050F
:104500004091C6055091C705C701B6010E946126BA
:104510009F772AE037ED43EA5BE30E94D62487FFCA
:1045200066C060910506709106068091070690911D
:1045300008069F772AE037ED43EA5BE30E94D62422
:1045400087FF55C0A3019201C458DF4F688179816C
:104550008A819B81CC57D0400E94762718160CF098
:1045600046C02FE832EC45EF5CE360912206709183
:10457000230680912406909125060E943C256B011C
:104580007C012CEE31E548E75FE360912E067091E7
:104590002F0680913006909131060E943C259B01A8
:1045A000AC01C701B6010E9462266B017C0120E0CC
:1045B00030E0A9010E94D62487FDB5C02AE939E977
:1045C00049E95EE3C701B6010E94762718163CF45C
:1045D0008AE9C82E89E9D82EED2C8EE3F82EC092F8
:1045E0002E06D0922F06E0923006F09231060E94FD
:1045F0007F03C0904A06D0904B06E0904C06F090A6
:104600004D066C197D098E099F090E94DB246B0100
:104610007C010E947F0360934A0670934B0680934F
:104620004C0690934D062091010630910206409170
:104630000306509104066091C4057091C5058091F0
:10464000C6059091C7050E9461262091EA05309128
:10465000EB054091EC055091ED050E943C25A7012A
:1046600096010E943C252091F8053091F905409172
:10467000FA055091FB050E9462266B017C0120E047
:1046800030E0A9010E94D62487FD51C00091D505D4
:10469000602F70E090E080E00E94DD249B01AC017F
:1046A000C701B6010E947627181644F4602F70E007
:1046B00090E080E00E94DB246B017C01C092F80551
:1046C000D092F905E092FA05F092FB0520E030E087
:1046D000A901C701B6010E94762720E030E040E042
:1046E0005FE387FD28C0C701B6010E9462260E94D1
:1046F0004027862F0E948B0380912E0690912F06D3
:10470000A0913006B09131068093F0059093F105A9
:10471000A093F205B093F30588E090E09093EF0545
:104720008093EE0515CBC12CD12C760158CFC12C2E
:10473000D12C7601C3CFC701B6010E946126D7CF25
:104740002091B8053091B9054091BA055091BB054B
:10475000C701B6010E94762787FD1DC020912E0655
:1047600030912F0640913006509131066091DE0560
:104770007091DF058091E0059091E1050E9462262D
:104780006093F0057093F1058093F2059093F30523
:1047900087E090E0C3CF2091B0053091B105409102
:1047A000B2055091B305C701B6010E94762787FD77
:1047B00054C02091B4053091B5054091B605509193
:1047C000B705C701B6010E94D62487FF23C02091F8
:1047D000DA053091DB054091DC055091DD056091F3
:1047E0002E0670912F0680913006909131060E941E
:1047F00062266093F0057093F1058093F205909323
:10480000F30510920006A7E0B0E0B093EF05A09387
:10481000EE059ECA20912E0630912F06409130065B
:10482000509131066091D6057091D7058091D805D9
:104830009091D9050E9462266093F0057093F1056E
:104840008093F2059093F30510920006E7E0F0E004
:10485000F093EF05E093EE057BCA2091AC05309113
:10486000AD054091AE055091AF05C701B6010E945C
:10487000762787FF19C02091A8053091A90540919E
:10488000AA055091AB0560910106709102068091D6
:104890000306909104060E9476271816BCF19092A8
:1048A000EF058092EE0595CD0E947F03C0908C05A8
:1048B000D0908D05E0908E05F0908F056C157D05EC
:1048C0008E059F05C0F620912E0630912F0640914F
:1048D0003006509131066091DA057091DB058091C8
:1048E000DC059091DD050E9462266093F0057093CF
:1048F000F1058093F2059093F3051092000626E0EF
:1049000030E03093EF052093EE0522CA44E050E0FA
:104910005093EF054093EE055CCD0E94CC031092BE
:104920003206109233061092340610923506109219
:10493000000661E070E080915206909153060E945B
:10494000540D8091FC059091FD05A091FE05B0915C
:10495000FF05892B8A2B8B2B09F4C6CB0E947F0382
:10496000C090FC05D090FD05E090FE05F090FF059D
:104970006C197D098E099F09C090A405D090A505EA
:10498000E090A605F090A705C616D706E806F9063A
:1049900008F0DEC91092FC051092FD051092FE058C
:1049A0001092FF05D5C90E94CC03C3C90E941825E7
:1049B00008F481E00895E89409C097FB3EF49095CF
:1049C0008095709561957F4F8F4F9F4F9923A9F0E8
:1049D000F92F96E9BB279395F69587957795679577
:1049E000B795F111F8CFFAF4BB0F11F460FF1BC0BB
:1049F0006F5F7F4F8F4F9F4F16C0882311F096E94E
:104A000011C0772321F09EE8872F762F05C06623FB
:104A100071F096E8862F70E060E02AF09A95660FB4
:104A2000771F881FDAF7880F9695879597F908956D
:104A3000990F0008550FAA0BE0E8FEEF16161706AF
:104A4000E807F907C0F012161306E407F50798F017
:104A5000621B730B840B950B39F40A2661F0232B30
:104A6000242B252B21F408950A2609F4A140A695AC
:104A70008FEF811D811D08950E944F250C94C02544
:104A80000E94B22538F00E94B92520F0952311F03C
:104A90000C94A9250C94AF2511240C94F4250E94A4
:104AA000D12570F3959FC1F3950F50E0551F629F7C
:104AB000F001729FBB27F00DB11D639FAA27F00D77
:104AC000B11DAA1F649F6627B00DA11D661F829F9E
:104AD0002227B00DA11D621F739FB00DA11D621F83
:104AE000839FA00D611D221F749F3327A00D611DA0
:104AF000231F849F600D211D822F762F6A2F112482
:104B00009F5750409AF0F1F088234AF0EE0FFF1FB4
:104B1000BB1F661F771F881F91505040A9F79E3F0B
:104B2000510580F00C94A9250C94F4255F3FE4F323
:104B3000983ED4F3869577956795B795F795E79561
:104B40009F5FC1F7FE2B880F911D9695879597F96A
:104B5000089597F99F6780E870E060E008959FEFFF
:104B600080EC089500240A94161617061806090604
:104B7000089500240A9412161306140605060895D3
:104B8000092E0394000C11F4882352F0BB0F40F45B
:104B9000BF2B11F460FF04C06F5F7F4F8F4F9F4F9B
:104BA000089557FD9058440F551F59F05F3F71F01D
:104BB0004795880F97FB991F61F09F3F79F0879584
:104BC0000895121613061406551FF2CF4695F1DF0D
:104BD00008C0161617061806991FF1CF869571059D
:104BE000610508940895E894BB2766277727CB01D1
:104BF00097F90895F999FECF92BD81BDF89A99274A
:104C000080B50895262FF999FECF1FBA92BD81BDB8
:104C100020BD0FB6F894FA9AF99A0FBE019608953E
:104C20000E945226A59F900DB49F900DA49F800DC9
:104C3000911D112408952F923F924F925F926F928F
:104C40007F928F929F92AF92BF92CF92DF92EF921C
:104C5000FF920F931F93CF93DF93CDB7DEB7CA1B9D
:104C6000DB0B0FB6F894DEBF0FBECDBF09942A88C8
:104C7000398848885F846E847D848C849B84AA8470
:104C8000B984C884DF80EE80FD800C811B81AA81FD
:104C9000B981CE0FD11D0FB6F894DEBF0FBECDBFC8
:104CA000ED010895A29FB001B39FC001A39F700DB5
:104CB000811D1124911DB29F700D811D1124911D24
:104CC00008955058BB27AA270E9479260C94C02526
:104CD0000E94B22538F00E94B92520F039F49F3F98
:104CE00019F426F40C94AF250EF4E095E7FB0C9430
:104CF000A925E92F0E94D12558F3BA176207730737
:104D00008407950720F079F4A6F50C94F3250EF4AA
:104D1000E0950B2EBA2FA02D0B01B90190010C01CB
:104D2000CA01A0011124FF27591B99F0593F50F4E3
:104D3000503E68F11A16F040A22F232F342F44273B
:104D4000585FF3CF469537952795A795F040539533
:104D5000C9F77EF41F16BA0B620B730B840BBAF003
:104D60009150A1F0FF0FBB1F661F771F881FC2F76E
:104D70000EC0BA0F621F731F841F48F48795779582
:104D80006795B795F7959E3F08F0B0CF9395880F3C
:104D900008F09927EE0F9795879508950E94E226CF
:104DA0000C94C0250E94B92558F00E94B22540F00D
:104DB00029F45F3F29F00C94A92551110C94F42596
:104DC0000C94AF250E94D12568F39923B1F35523A4
:104DD00091F3951B550BBB27AA276217730784070E
:104DE00038F09F5F5F4F220F331F441FAA1FA9F3A4
:104DF00035D00E2E3AF0E0E832D091505040E69592
:104E0000001CCAF72BD0FE2F29D0660F771F881FF2
:104E1000BB1F261737074807AB07B0E809F0BB0BE5
:104E2000802DBF01FF2793585F4F3AF09E3F5105F9
:104E300078F00C94A9250C94F4255F3FE4F3983E98
:104E4000D4F3869577956795B795F7959F5FC9F7E2
:104E5000880F911D9695879597F90895E1E0660F63
:104E6000771F881FBB1F621773078407BA0720F0DC
:104E7000621B730B840BBA0BEE1F88F7E095089545
:104E80000E9447276894B1110C94F42508950E945C
:104E9000D92588F09F5798F0B92F9927B751B0F0CE
:104EA000E1F0660F771F881F991F1AF0BA95C9F7AE
:104EB00014C0B13091F00E94F325B1E008950C9434
:104EC000F325672F782F8827B85F39F0B93FCCF3E7
:104ED000869577956795B395D9F73EF4909580952B
:104EE000709561957F4F8F4F9F4F08950E941825B1
:104EF00008F48FEF08950E941825880B990B0895E8
:104F0000DB018F939F930E941026BF91AF91A29FC8
:104F1000800D911DA39F900DB29F900D11240895B7
:104F200097FB072E16F4009407D077FD09D00E9456
:104F3000F22707FC05D03EF4909581959F4F089588
:104F4000709561957F4F0895A1E21A2EAA1BBB1B95
:104F5000FD010DC0AA1FBB1FEE1FFF1FA217B30745
:104F6000E407F50720F0A21BB30BE40BF50B661F5B
:104F7000771F881F991F1A9469F76095709580951F
:104F800090959B01AC01BD01CF010895052E97FBC3
:104F90001EF400940E94DD2757FD07D00E94A4272D
:104FA00007FC03D04EF40C94DD27509540953095C6
:104FB00021953F4F4F4F5F4F089590958095709585
:104FC00061957F4F8F4F9F4F0895EE0FFF1F059004
:104FD000F491E02D09940E945226B7FF0895821B98
:104FE000930B0895AA1BBB1B51E107C0AA1FBB1F4F
:104FF000A617B70710F0A61BB70B881F991F5A9565
:10500000A9F780959095BC01CD01089581E090E0CD
:10501000F8940C94B32AFB01DC0101900D9200205E
:10502000E1F70895AEE0B0E0E8E1F8E20C9429265B
:105030000D891E8986E08C831A8309838FEF9FE791
:105040009E838D83AE01475E5F4F6F89788DCE0161
:1050500001960E9435282F813885020F131FF80111
:1050600010822E96E4E00C944526ABE0B0E0EBE332
:10507000F8E20C941B267C013B018A01FC0117829B
:105080001682838181FFC8C1CE0101965C01F701C0
:105090009381F30193FD859193FF81913F018823D3
:1050A00009F453C1853239F493FD859193FF8191C1
:1050B0003F01853229F4B70190E00E94252AE7CF0D
:1050C000912C212C312CFFE1F31538F08B3211F1AA
:1050D00090F4803209F1833229F137FC3CC020ED95
:1050E000280F2A3050F536FE20C08AE0989E200D09
:1050F0001124922E06C08D3291F0803371F768949E
:1051000030F8F30193FD859193FF81913F01811167
:10511000DACF21C0689431F8689432F8F2CF6894FD
:1051200033F8EFCF689434F8ECCFEAE02E9E200DF0
:105130001124222E689435F8E4CF8E3229F436FCFF
:1051400004C1689436F8DDCF8C3619F4689437F8CA
:10515000D8CF8836B1F2982F9F7D95549330E0F0E8
:105160008336A1F18337C1F1833509F063C028018B
:10517000F2E04F0E511CF801C080D180692D70E023
:1051800036FC02C06FEF7FEFC6010E940F2A4C0170
:10519000689437F882010AC00C5F1F4FFFE3F98360
:1051A00088248394912C6501E89437F833FE2DC050
:1051B000522C8114910471F5552009F468CFB70180
:1051C00080E290E00E94252A5A94F6CFF80180816F
:1051D00089830E5F1F4FE4CF2801F2E04F0E511C70
:1051E000F801C080D180692D70E036FC02C06FEFFD
:1051F0007FEFC6010E941A2A4C018201D5CFB70168
:1052000080E290E00E94252A2A942814190409F0CB
:10521000B0F7CECFF60137FC859137FE81916F0153
:10522000B70190E00E94252A51105A94F1E08F1A9C
:105230009108BFCF843619F0893609F077C0F8019C
:1052400037FE6BC060817181828193810C5F1F4F3B
:10525000F32DFF763F2E97FF09C0909580957095AE
:1052600061957F4F8F4F9F4F689437F82AE030E069
:10527000A5010E94552AC82ECA188C2C432C36FE34
:105280000CC0E89440F8C91440F434FE05C032FC68
:1052900003C0F32DFE7E4F2E892C44FE95C0FE01E7
:1052A000EC0DF11D8081803309F087C0242D297E0B
:1052B000422E842D8870582E43FC95C040FE8FC02E
:1052C0009C2C821418F42C0C922C981844FE91C03B
:1052D000B70180E390E00E94252A42FE09C088E7DA
:1052E00090E041FE02C088E590E0B7010E94252AC7
:1052F000C91408F48AC0CA94D12C9FEFC91AD90ADC
:10530000CA0CDB1CF60182916F01B70190E00E948C
:10531000252AAC14BD04B1F74FCF60817181072EEF
:10532000000C880B990B0E5F1F4F92CFD32CE89483
:10533000D4F82AE030E0853739F1232D297FD22EA9
:105340008F3601F148F48835A9F0F70186819781FD
:105350002B96E2E10C943726803749F08837A9F77D
:10536000D4FE02C06894D2F820E130E00DC0689409
:10537000D4F8F6CF34FE03C0822F8660D82E20E109
:1053800032E002C028E030E0F801D7FE0FC06081B3
:105390007181828193810C5F1F4FA5010E94552A64
:1053A000C82ECA183D2CE89437F867CF6081718108
:1053B00090E080E00E5F1F4FF0CF42FC02C083946C
:1053C00078CF8394839475CF842D867809F471CF38
:1053D000F6CFB70180E290E00E94252A83948214E0
:1053E000C0F3512C73CF522C5818821408F46ECF8E
:1053F000F8CF842D867809F47BCF8BE241FE80E2E2
:1054000047FC8DE2B70190E071CFB70180E390E0F7
:105410000E94252A9A946CCF8FEF9FEF99CFFC01C1
:105420000590615070400110D8F7809590958E0FCF
:105430009F1F0895FC016150704001900110D8F742
:10544000809590958E0F9F1F08950F931F93CF9374
:10545000DF93182F092FEB018B8181FD09C01FEF0E
:105460000FEF812F902FDF91CF911F910F91089512
:1054700082FF14C02E813F818C819D8128173907BE
:105480003CF4E881F981CF010196998388831083E8
:105490008E819F8101969F838E83E3CFE885F98576
:1054A000812F0995892BA1F3DACFFA01AA27283099
:1054B00051F1203181F1E8946F936E7F6E5F7F4FE1
:1054C0008F4F9F4FAF4FB1E03ED0B4E03CD0670F5D
:1054D000781F891F9A1FA11D680F791F8A1F911DB0
:1054E000A11D6A0F711D811D911DA11D20D009F400
:1054F00068943F912AE0269F11243019305D319342
:10550000DEF6CF010895462F4770405D4193B3E02A
:105510000FD0C9F7F6CF462F4F70405D4A3318F0D1
:10552000495D31FD4052419302D0A9F7EACFB4E082
:10553000A6959795879577956795BA95C9F700973A
:105540006105710508959B01AC010A2E06945795DB
:10555000479537952795BA95C9F7620F731F841F32
:0A556000951FA01D0895F894FFCFD9
:10556A00F609F60901E803E803F401F401C800C8E2
:10557A00006400E803E8036400960096009600E8D9
:10558A000396009600960096009600E80300000035
:10559A0000211121112111170D130D100D0000000A
:1055AA0000CD0C890C870C170D130DF200340A007C
:1055BA000000009501F5002201E201530131014585
:1055CA00016E616E00696E66006F766600656570D1
:1055DA00726F6D5F7772697465732000766F6C7491
:1055EA006167655F63616C6962726174696F6E5F3E
:1055FA00646F6E652000766F6C746167655F6361C6
:10560A006C6962726174696F6E5F76616C75652030
:10561A00007761746368646F675F656E61626C6569
:10562A006420006368617267696E675F656E6162B4
:10563A006C656420007761746368646F675F636F89
:10564A00756E7420007761746368646F675F74694C
:10565A006D6520004820280029007761746368641A
:10566A006F675F626F6F745F636F756E742000623D
:10567A00617365626F6172645F626F6F745F636F9B
:10568A00756E74200073746F705F63686172676906
:10569A006E675F696E74657272757074210D0A00A7
:1056AA005741524E494E473A204841524457415277
:1056BA004520524556204D49534D41544348202DCB
:1056CA002D3E2044495341424C45442043484152CF
:1056DA0047494E470D0A00456E61626C6520636852
:1056EA00617267696E670D0A0044697361626C656D
:1056FA00206368617267696E670D0A00766F6C7461
:10570A006167655F63616C6962726174696F6E5F1C
:10571A0076616C75653A20004572726F723A206341
:10572A00616C696272617465207061636B6167653F
:10573A00207265636569766564207768696C65209F
:10574A006E6F7420696E2063616C6962726174693C
:10575A006E67206D6F64652100456E61626C65201D
:10576A004952204C45440D0A0044697361626C65D4
:10577A00204952204C45440D0A00576174636864FD
:10578A006F6720656E61626C65640D0A005761740B
:10579A006368646F672064697361626C65640D0A8B
:1057AA00005761726E696E672066616E2070616370
:1057BA006B616765206E6F742079657420696D70FE
:1057CA006C656D656E7465640D0A005265626F6F73
:1057DA0074204E55430D0A00636C65617220636F35
:1057EA006E66696720616C6C0D0A00636C65617294
:1057FA0020636F6E666967206C6F670D0A00636CC1
:10580A0065617220636F6E66696720686172640DF4
:10581A000A004861726477617265207665727369FD
:10582A006F6E200042617365626F617264207374E7
:10583A006172746564210D0A005475726E206F6678
:10584A0066204E55430D0A005475726E206F6E2005
:10585A004E55430D0A005761746368646F67207779
:10586A00696C6C207472696767657220696E20259D
:0E587A0064207365636F6E6473210D0A000075
:00000001FF
