:100000000C94F8000C9420010C9420010C94200115
:100010000C9420010C9420010C9420010C943F0CB2
:100020000C9420010C9420010C9420010C942001CC
:100030000C9420010C9420010C9420010C942001BC
:100040000C94F50B0C9420010C94C10C0C949B0C9B
:100050000C9420010C9420010C9420010C9420019C
:100060000C94F30C0C9420014E414E494E495459C6
:10007000494E46CDCCCC3D0AD7233C17B7D1387773
:10008000CC2B329595E6241FB14F0A000020410089
:1000900000C84200401C4620BCBE4CCA1B0E5AAED3
:1000A000C59D7400407A10F35A00A0724E180900E2
:1000B00010A5D4E80000E87648170000E40B5402CD
:1000C0000000CA9A3B000000E1F505000080969808
:1000D00000000040420F000000A086010000001058
:1000E0002700000000E8030000000064000000009A
:1000F000000A00000000000100000000002C76D87B
:1001000088DC674F0823DFC1DFAE59E1B1B796E560
:10011000E3E453C63AE651997696E8E6C28426EBC4
:10012000898C9B62ED407C6FFCEFBC9C9F40F2BAD7
:10013000A56FA5F490055A2AF75C936B6CF9676D6F
:10014000C11BFCE0E40D47FEF520E6B500D0ED90C4
:100150002E0300943577050080841E080000204E91
:100160000A000000C80C333333330F986E1283112A
:1001700041EF8D2114893BE65516CFFEE6DB18D101
:10018000844B381BF77C1D901DA4BBE424203284D3
:10019000725E228100C9F124ECA1E53D2700000038
:1001A00000240027002A00000000080002010000CF
:1001B0000304070000000000000000010204081012
:1001C00020408001020408102001020408102000D1
:1001D000000000250028002B00040404040404048B
:1001E00004020202020202030303030303020E0ECF
:1001F00011241FBECFEFD8E0DEBFCDBF24E0A2E8C0
:10020000B2E001C01D92AB37B207E1F712E0A0E007
:10021000B1E0E8E9F5E402C005900D92A238B1071B
:10022000D9F710E0C8EFD0E004C02197FE010E948A
:10023000281EC73FD107C9F70E943B0E0C94CA2263
:100240000C94000090E0FC01E955FE4F2491FC0164
:10025000E554FE4F3491FC01E752FE4FE491EE234A
:10026000C9F0222339F0233001F1A8F4213019F12B
:10027000223029F1F0E0EE0FFF1FE153FE4FA59170
:10028000B4918FB7F894EC91611126C030953E235C
:100290003C938FBF08952730A9F02830C9F024304F
:1002A00049F7809180008F7D03C0809180008F7717
:1002B00080938000DFCF84B58F7784BDDBCF84B59A
:1002C0008F7DFBCF8091B0008F778093B000D2CF2D
:1002D0008091B0008F7DF9CF3E2BDACFCF93DF93A3
:1002E00090E0FC01E554FE4F249187529E4FFC01A3
:1002F00084918823D1F090E0880F991FFC01E35688
:10030000FE4FA591B491FC01E153FE4FC591D491EC
:1003100061110EC09FB7F8948C91E22FE0958E2367
:100320008C932881E223E8839FBFDF91CF910895CA
:100330008FB7F894EC91E22BEC938FBFF6CF8F92AE
:100340009F92AF92BF92CF92DF92EF92FF92CF93A4
:100350006C0180910E01833069F08F3F09F470C009
:10036000CF91FF90EF90DF90CF90BF90AF909F9094
:100370008F900895EDEEF1E0C491C7FDF1CF61E0FB
:1003800083E00E946E01CC2319F0C23009F022C133
:10039000F12CE12C60E072E18AE790E0A701960180
:1003A0000E94091E49015A01DA01C9010197A109F8
:1003B000B1098F3F9105A105B10509F00CF4EEC01C
:1003C00060E472E48FE090E0A70196010E94091EAC
:1003D0002150310941095109C23009F0A0C082E021
:1003E0002F3F31054105510509F00CF488C160E942
:1003F00070ED83E090E0A70196010E94091E215054
:1004000031094109510983E02F3F3105410551056B
:1004100009F00CF474C168E478EE81E090E0A70183
:1004200096010E94091E21503109410951092F3FAF
:1004300031054105510511F00CF08FC084E05FC11A
:1004400083E080930E01EDEEF1E0C491CF3F09F41B
:1004500087CFC13021F150F0C23009F43EC0C7FD52
:100460007FCF61E083E00E946E018FCF14BC15BC8A
:1004700084B5826084BD85B5816085BDECEDF1E019
:10048000E491F0E0EE0FFF1FE153FE4F8591949150
:10049000EEEBF1E0E491E093CB03C0E070CF10927B
:1004A000800010928100809181008860809381009B
:1004B00080918100816080938100ECEDF1E0E49116
:1004C000F0E0EE0FFF1FE153FE4F85919491EEEBAC
:1004D000F1E0E491E093CA0352CF1092B000109281
:1004E000B1008091B00082608093B0008091B10033
:1004F00081608093B100ECEDF1E0E491F0E0EE0F6B
:10050000FF1FE153FE4F859194919093C90380930F
:10051000C803EEEBF1E0E491E093C70330CF2F3F47
:1005200031054105510509F00CF452C068E478EE3C
:1005300081E090E0A70196010E94091E2150310937
:1005400041095109CC2309F4AFC02F3F31054105C2
:10055000510511F00CF0B0C071CF64E274EF80E08F
:1005600090E0A70196010E94091E2150310941091E
:10057000510985E02F3F31054105510509F008F487
:10058000BEC062E17AE780E090E0A70196010E9498
:10059000091E21503109410951099CC09C0181E08B
:1005A000C111ADC095B5987F892B85BD27BD8FEF53
:1005B0009FEFDC018093D4039093D503A093D603DF
:1005C000B093D70380916E00826080936E00C8CE96
:1005D00082E0E6CFF12CE12C60E072E18AE790E066
:1005E000A70196010E94091E2150310941095109B4
:1005F00091E02115310581E0480751056CF068E470
:1006000078EE81E090E0A70196010E94091E21503A
:1006100031094109510993E0C13009F076C0809158
:100620008100887F892B80938100309389002093FB
:1006300088008FEF9FEFDC018093D0039093D1036C
:10064000A093D203B093D30380916F008260809314
:100650006F0086CE2093B3008FEF9FEFDC01809375
:10066000CC039093CD03A093CE03B093CF0380919E
:10067000700082608093700073CE84E02F3F31055C
:100680004105510509F008F48DCF9AE0B594A7947F
:10069000979487949A95D1F7A50194012150310937
:1006A0004109510985E07ECF83E02F3F31054105A7
:1006B000510509F00CF476CF62E17AE780E090E032
:1006C000A70196010E94091E2150310941095109D3
:1006D000CC2399F286E02F3F31054105510579F091
:1006E00070F08AE0B594A794979487948A95D1F78F
:1006F000A5019401215031094109510987E09091E8
:10070000B100987F892B8093B100C13009F48DCF5F
:10071000C23009F49FCFC11123CE48CF1F93CF938E
:10072000DF93182FEB0161E00E946E01209739F4EE
:1007300060E0812FDF91CF911F910C942201CF3F78
:10074000D10511F461E0F5CFE12FF0E0E955FE4F5E
:10075000E491E33031F140F4E130B1F0E230E1F026
:10076000C038D1057CF7E4CFE73029F1E83059F102
:10077000E430B1F780918000806280938000D09354
:100780008B00C0938A0004C084B5806884BDC7BD57
:10079000DF91CF911F91089584B5806284BDC8BD5B
:1007A000F7CF80918000806880938000D09389008B
:1007B000C0938800EDCF8091B00080688093B00036
:1007C000C093B300E5CF8091B00080628093B00009
:1007D000C093B400DDCF20910D0190E4299F9001DA
:1007E00011248E50822B80937C0080917A0080644B
:1007F00080937A0080917A0086FDFCCF809178000A
:100800009091790008953FB7F8948091B803909142
:10081000B903A091BA03B091BB0326B5A89B05C04C
:100820002F3F19F00196A11DB11D3FBFBA2FA92F6F
:10083000982F8827BC01CD01620F711D811D911D6C
:1008400042E0660F771F881F991F4A95D1F70895D8
:100850008F929F92AF92BF92CF92DF92EF92FF92D0
:100860004B015C010E9403046B017C010E940304A4
:100870006C197D098E099F09683E734081059105B9
:10088000A8F321E0821A9108A108B10888EEC80EE9
:1008900083E0D81EE11CF11C81149104A104B10471
:1008A00029F7FF90EF90DF90CF90BF90AF909F908F
:1008B0008F9008952FB7F8946091B4037091B503A9
:1008C0008091B6039091B7032FBF08950F931F93A4
:1008D0000E945A040091FE021091FF022091000331
:1008E00030910103601B710B820B930B1F910F91D1
:1008F0000895089590910E0189130BC0EDEEF1E07B
:10090000E4919FEF90930E01E13049F028F0E2303E
:1009100061F060E00C94220110926E00FACF909189
:100920006F009D7F90936F00F4CF909170009D7F3A
:100930009093700091E09093B0009091B100987FF7
:1009400094609093B1001092B300E3CFAF92BF9246
:10095000CF92DF92EF92FF920F931F93CF93DF938B
:100960006C017B018B01040F151FEB015E01AE18BA
:10097000BF08C017D10759F06991D601ED91FC91DC
:100980000190F081E02DC6010995892B79F7C50109
:10099000DF91CF911F910F91FF90EF90DF90CF905B
:1009A000BF90AF900895FC01538D448D252F30E00A
:1009B000842F90E0821B930B541710F0CF9608956C
:1009C00001970895FC01918D828D981761F0A28D99
:1009D000AE0FBF2FB11D5D968C91928D9F5F9F735F
:1009E000928F90E008958FEF9FEF0895FC01918D15
:1009F000828D981731F0828DE80FF11D858D90E082
:100A000008958FEF9FEF0895FC01918D228D892F1E
:100A100090E0805C9F4F821B91098F739927089506
:100A200088ED93E00E94040521E0892B09F420E081
:100A3000822F089580E090E0892B29F00E94100514
:100A400081110C9400000895FC01A48DA80FB92F0A
:100A5000B11DA35ABF4F2C91848D90E001968F73E6
:100A60009927848FA689B7892C93A089B1898C9105
:100A7000837080648C93938D848D981306C0028854
:100A8000F389E02D80818F7D80830895EF92FF921E
:100A90000F931F93CF93DF93EC0181E0888F9B8DA1
:100AA0008C8D98131AC0E889F989808185FF15C05B
:100AB0009FB7F894EE89FF896083E889F98980817E
:100AC0008370806480839FBF81E090E0DF91CF914D
:100AD0001F910F91FF90EF900895F62E0B8D10E06F
:100AE0000F5F1F4F0F731127E02E8C8D8E110CC0DE
:100AF0000FB607FCFACFE889F989808185FFF5CF29
:100B0000CE010E942405F1CFEB8DEC0FFD2FF11DDE
:100B1000E35AFF4FF0829FB7F8940B8FEA89FB8965
:100B200080818062CFCFCF93DF93EC01888D8823C3
:100B3000B9F0AA89BB89E889F9898C9185FD03C040
:100B4000808186FD0DC00FB607FCF7CF8C9185FF25
:100B5000F2CF808185FFEDCFCE010E942405E9CF41
:100B6000DF91CF9108952091AB02260F3327331FD9
:100B700021323105ECF42091CF02FC0190E080E0BD
:100B8000243069F082E00895A091AB022191AC017C
:100B900045575D4FA40FB52FB11D2C9301968617B5
:100BA00098F38091AB02680F6093AB0280E00895E8
:100BB00081E0089508958FEF9FEF08958FEF9FEFE5
:100BC00008958091840290E091958195910908950E
:100BD000CF93DF93CB01EA01642F0E94B305CE01CE
:100BE000DF91CF910895CF93DF931F92CDB7DEB7FA
:100BF000698361E0CE0101960E94B30581E090E037
:100C00000F90DF91CF91089590E080E008954F928A
:100C10005F926F927F928F929F92AF92BF92CF928C
:100C2000DF92EF92FF92CF93DF9300D000D0CDB749
:100C3000DEB76B017C0180917F0390918003A091CE
:100C40008103B091820389839A83AB83BC83A7011C
:100C50009B01BC01CD010E94C81C2B013C01AC01D1
:100C60009B0160918B0370918C0380918D03909117
:100C70008E030E94C81C4B015C0126E636E646E660
:100C80005FE369817A818B819C810E94DD1D18164A
:100C90000CF473C080928B0390928C03A0928D030E
:100CA000B0928E0320E030E04FE753E460918B0375
:100CB00070918C0380918D0390918E030E94DD1DB5
:100CC000181664F480E090E0AFE7B3E480938B0300
:100CD00090938C03A0938D03B0938E0320E030E0BB
:100CE000A90160918B0370918C0380918D03909189
:100CF0008E030E943A1B87FF08C010928B0310924C
:100D00008C0310928D0310928E0380908B03909031
:100D10008C03A0908D03B0908E0320E030E0A901F9
:100D2000C701B6010E943A1B70E060E0882321F001
:100D3000C501B4010E94A71D20910001309101015D
:100D400081E090E0821B930B90930101809300015E
:100D500089E00F900F900F900F90DF91CF91FF904F
:100D6000EF90DF90CF90BF90AF909F908F907F904B
:100D70006F905F904F900C948E0320E030E040E243
:100D800051E4C301B2010E94A01B9B01AC01C5014B
:100D9000B4010E94C81C60938B0370938C038093F2
:100DA0008D0390938E037ECFCF93DF9320918202A9
:100DB000309183022817390749F0EC01009749F078
:100DC0000E949F01D0938302C0938202DF91CF9152
:100DD000089583E00E947A04F5CFFC010190002081
:100DE000E9F73197AF01481B590BBC0188ED93E03F
:100DF0000C94A604009711F00C94ED0690E080E0AE
:100E00000895CF93DF930E94FA06EC018AEB91E0FC
:100E10000E94ED068C0F9D1FDF91CF9108952F92B8
:100E20003F924F925F926F927F928F929F92AF927A
:100E3000BF92CF92DF92EF92FF920F931F93CF93C7
:100E4000DF93CDB7DEB7A4970FB6F894DEBF0FBE21
:100E5000CDBF4B015C01AC019B010E94E21D8823C8
:100E600021F187E291E00E94ED068C018AEB91E08E
:100E70000E94ED06800F911FA4960FB6F894DEBF76
:100E80000FBECDBFDF91CF911F910F91FF90EF90DB
:100E9000DF90CF90BF90AF909F908F907F906F909A
:100EA0005F904F903F902F90089575016401E894F2
:100EB000F7F82FEF3FEF4FE75FE7C701B6010E945A
:100EC000E21D81110DC02FEF3FEF4FE75FE7C70134
:100ED000B6010E943A1B18161CF48BE291E0C3CFB6
:100EE0002FEF3FEF4FE75FE4C501B4010E94DD1D26
:100EF00018161CF48FE291E0B6CF2FEF3FEF4FE7CB
:100F00005FECC501B4010E943A1B87FDF3CF20E0DE
:100F100030E0A901C501B4010E943A1BD12CC12CBB
:100F200087FF0AC06DE288ED93E00E9446056C01E0
:100F3000B7FAB094B7F8B0942AE037ED43EA5BE330
:100F4000C501B4010E94C91C4B015C010E94AE1D89
:100F50002B013C010E943F1B9B01AC01C501B40168
:100F60000E94C81C4B015C0119A27E0181E2E80EBF
:100F7000F11CEAA2FBA2C301B2012AE030E040E08A
:100F800050E00E94E71D29013A01605DF70162937C
:100F90007F01411451046104710469F7CF010E947B
:100FA000FA068C016EE288ED93E00E944605080F78
:100FB000191F0C0D1D1D83E0F82E9AE0292E312CEF
:100FC000412C512CFA94FF2009F450CF20E030E05E
:100FD00040E251E4C501B4010E94A01B4B015C0139
:100FE0000E94AE1D9B0150E040E019A26AA07BA0C8
:100FF0006CA3C32ED42EE52ECA01B901A201910122
:101000000E94E71D605DF30162933F0121153105E8
:101010004105510589F7CF010E94FA06080F191FF3
:101020006CA17C2D8D2D9E2D0E943F1B9B01AC0140
:10103000C501B4010E94C81C4B015C01C3CF60E034
:1010400082E00E94220170E060E083E00E948E0353
:1010500083E00C947A044F925F926F927F928F920A
:101060009F92AF92BF92CF92DF92EF92FF920F9337
:101070001F93CF93DF93CDB7DEB7C054D1090FB61E
:10108000F894DEBF0FBECDBF05E010E080E10E9406
:10109000EB0361E070E080E090E00E9428040150E2
:1010A0001109A1F780E10E94EB03BC01990F880BA5
:1010B000990B0E94411B20E030E040E05FE30E947A
:1010C000C91C20E030E040EA50E40E94A01B20E070
:1010D00030E040E85AE30E94A01B6B017C01809144
:1010E000C1039091C20301969093C2038093C10300
:1010F000893E9340CCF180E10E94EB039F938F9354
:1011000083E391E09F938F938E010F5F1F4F1F9397
:101110000F930E942920C8010E94FA0620E030E0C7
:101120004AE754E46091BD037091BE038091BF0310
:101130009091C0030E94A01B9F938F937F936F9306
:1011400084E491E09F938F931F930F930E94292033
:10115000C8010E94FA061092C2031092C1030FB692
:10116000F894DEBF0FBECDBF1091BC03111108C0B3
:10117000A7019601C701B6010E94C91C6B017C0141
:101180002EEA37E441E050E4C701B6010E94A01BFB
:101190002091BD033091BE034091BF035091C00325
:1011A0000E94C91C2B013C019AE0C92E97EDD92E53
:1011B00093EAE92E9CE3F92E111107C08DECC82E9D
:1011C0008CECD82EED2C8DE3F82EA701960160E073
:1011D00070E080E89FE30E94C81C2091C303309117
:1011E000C4034091C5035091C6030E94A01B4B014C
:1011F0005C01A7019601C301B2010E94A01B9B01E3
:10120000AC01C501B4010E94C91C6093C303709373
:10121000C4038093C5039093C603C05CDF4F0FB631
:10122000F894DEBF0FBECDBFDF91CF911F910F911C
:10123000FF90EF90DF90CF90BF90AF909F908F90F6
:101240007F906F905F904F900895EF92FF920F9371
:101250001F93CF93DF93CDB7DEB7C054D1090FB63C
:10126000F894DEBF0FBECDBF8C01809179039091C1
:101270007A0380179107C9F01F930F939F938F9361
:101280008DE591E09F938F93CE0101967C019F9312
:101290008F930E942920C7010E94FA060E945A04D7
:1012A0000FB6F894DEBF0FBECDBF10937A03009344
:1012B0007903C05CDF4F0FB6F894DEBF0FBECDBF21
:1012C000DF91CF911F910F91FF90EF9008958F9232
:1012D0009F92AF92BF92CF92DF92EF92FF920F93C5
:1012E0001F93CF93DF93CDB7DEB76E970FB6F89409
:1012F000DEBF0FBECDBF49015A0175956795FC0150
:1013000050E040E030E020E08F01081B190BA28183
:10131000B3812A0F3B1F6901032E000CEE08FF0862
:101320003496C814D904EA04FB0440F44F5F5F4FBD
:101330006417750749F790E080E029C0080F191F6E
:101340003F932F939F928F92F80181818F93808199
:101350008F9383E891E09F938F93CE0101969F93A3
:101360008F930E942920F801808191810FB6F89413
:10137000DEBF0FBECDBF0097F1F2C818D908EA084A
:10138000FB0839E2C316D104E104F104A0F20E9483
:10139000D4066E960FB6F894DEBF0FBECDBFDF91B8
:1013A000CF911F910F91FF90EF90DF90CF90BF9062
:1013B000AF909F908F900895CF93DF93CDB7DEB716
:1013C000A8970FB6F894DEBF0FBECDBF23E932E079
:1013D0003A8329838DE790E09C838B833E832D8322
:1013E00098878F831A8619869C878B873E872D87DF
:1013F000988B8F871A8A198A9C8B8B8B4BE052E0D3
:101400005E8B4D8B988F8F8B3A8F298F8AEF90E070
:101410009C8F8B8F20E133E03E8F2D8F98A38F8F91
:101420001AA219A29CA38BA328E831E03EA32DA306
:1014300098A78FA30E94660420E63AEE40E050E0B1
:101440000E94E71D9B01AC0164E170E0CE010196B2
:101450000E946709A8960FB6F894DEBF0FBECDBFF5
:10146000DF91CF910895CF93DF93CDB7DEB7689723
:101470000FB6F894DEBF0FBECDBF83E992E09A832A
:1014800089838DE790E09C838B8320E133E03E836A
:101490002D8398878F8327E235E03A8729879C87B9
:1014A0008B8727E134E03E872D87988B8F8727E94C
:1014B00034E03A8B298B9C8B8B8B20E236E03E8B81
:1014C0002D8B988F8F8B0E9466049B01AC016CE082
:1014D00070E0CE0101960E94670968960FB6F894F5
:1014E000DEBF0FBECDBFDF91CF9108950F931F9345
:1014F000CF93DF938C01EB01FC01808191810097F8
:10150000E1F06881798161157105A9F0428153810B
:101510002C813D814217530770F00E9422208C815C
:101520009D81F801958384831D821C82DF91CF9178
:101530001F910F9108950E94CA1E88819981F80118
:10154000918380838A819B81938382838C819D8117
:1015500095838483198218821B821A82E5CFFC014D
:1015600080819181009711F00C94CA1E08950F9309
:101570001F93CF93DF93EC0188819981009759F0F5
:101580002A813B812617370730F081E0DF91CF9128
:101590001F910F9108958B016F5F7F4F0E94531F22
:1015A000009759F0998388831B830A832C813D819E
:1015B000232B59F7FC011082E8CF80E0E7CFEF92B0
:1015C000FF920F931F93CF93DF93EC017B018A016E
:1015D000BA010E94B70A28813981811114C02115EE
:1015E000310519F0C9010E94CA1E198218821D8294
:1015F0001C821B821A82CE01DF91CF911F910F9125
:10160000FF90EF9008951D830C83B701C9010E94DC
:101610002220F1CFFC0111821082138212821582E6
:10162000148250E040E06CEB71E00C94DF0AAF9262
:10163000BF92CF92DF92EF92FF920F931F93CF93BF
:10164000DF93EC017B016A0159012417350730F45F
:1016500086E0A82EB12C95E0C92ED12C19821882D3
:101660001B821A821D821C8250E040E06CEB71E00C
:10167000CE010E94DF0AD70114960D911C91C0166D
:10168000D10628F5A016B10608F48501D701ED9121
:10169000FC911197E00FF11FB08010826D917C9149
:1016A0006C0D7D1D61157105F1F0FB0101900020AD
:1016B000E9F73197AF01461B570BCE010E94DF0AB5
:1016C000F70180819181080F191FD801BC92CE01CA
:1016D000DF91CF911F910F91FF90EF90DF90CF900E
:1016E000BF90AF90089588819981009711F00E9472
:1016F000CA1E198218821D821C821B821A82E0CFA8
:101700001F93CF93DF9385ED8093BC008091870278
:1017100090918802A0918902B0918A020796A11D3A
:10172000B11D23E0B695A795979587952A95D1F792
:101730002091BC0024FD03C01092CF0252C0409102
:101740008702509188026091890270918A02452B2C
:10175000462B472B69F30097A105B10541F025E31E
:101760002A95F1F700000197A109B109E1CF809115
:101770008602C1E0C0938502882399F1D091B80018
:101780001091BA008091BC008A7B8093BC0060E01D
:1017900082E10E94220160E083E10E942201109216
:1017A000CF02C093D1021092D00261E082E10E9488
:1017B000220161E083E10E9422018091B9008E7FC5
:1017C0008093B9008091B9008D7F8093B90088E43F
:1017D0008093B80085E48093BC001093BA00D09346
:1017E000B800DF91CF911F9108951F920F920FB60D
:1017F0000F9211242F933F938F939F93AF93BF9397
:101800008091B4039091B503A091B603B091B70352
:101810003091B30323E0230F2D3758F50196A11D16
:10182000B11D2093B3038093B4039093B503A093A9
:10183000B603B093B7038091B8039091B903A09118
:10184000BA03B091BB030196A11DB11D8093B803EB
:101850009093B903A093BA03B093BB03BF91AF9128
:101860009F918F913F912F910F900FBE0F901F90DE
:10187000189526E8230F0296A11DB11DD2CF1F9205
:101880000F920FB60F9211242F933F934F935F93B4
:101890006F937F938F939F93AF93BF93EF93FF9338
:1018A0008091CC039091CD03A091CE03B091CF0352
:1018B000892B8A2B8B2BD1F19091C703E091C80320
:1018C000F091C9038081892780838091CC03909116
:1018D000CD03A091CE03B091CF03181619061A06B6
:1018E0001B069CF48091CC039091CD03A091CE0374
:1018F000B091CF030197A109B1098093CC039093D4
:10190000CD03A093CE03B093CF03FF91EF91BF918E
:10191000AF919F918F917F916F915F914F913F9187
:101920002F910F900FBE0F901F90189580910E0170
:101930000E947A04EACF1F920F920FB60F921124E1
:101940002F933F934F935F936F937F938F939F93C7
:10195000AF93BF93EF93FF9388ED93E00E9424052C
:10196000FF91EF91BF91AF919F918F917F916F9177
:101970005F914F913F912F910F900FBE0F901F904D
:1019800018951F920F920FB60F9211242F938F93D9
:101990009F93EF93FF93E091E803F091E903808137
:1019A000E091EE03F091EF0382FD1BC090818091E6
:1019B000F1038F5F8F732091F203821741F0E09162
:1019C000F103F0E0E852FC4F958F8093F103FF9113
:1019D000EF919F918F912F910F900FBE0F901F90BD
:1019E00018958081F4CF1F920F920FB60F92112499
:1019F0002F933F934F935F936F937F938F939F9317
:101A0000AF93BF93EF93FF938091B900887F8036A7
:101A100009F44AC0F0F5883209F4A5C018F5803100
:101A200009F499C0B8F4882309F4F5C0883009F4A2
:101A300092C0FF91EF91BF91AF919F918F917F9154
:101A40006F915F914F913F912F910F900FBE0F902B
:101A50001F901895883109F486C0803251F7809321
:101A6000CE0214C0803409F49BC040F48033B9F333
:101A70008833F9F68093CE0285ECAEC0803509F448
:101A800083C0883509F494C0883499F60E94800B8D
:101A9000D0CF883909F48AC038F5883729F050F456
:101AA000883611F0803729F683E08093CF021092B8
:101AB000CD0255C0883809F479C0803919F08038D2
:101AC00009F0B7CF8091CD02803208F06FC0E0916D
:101AD000CD0281E08E0F8093CD028091BB00F0E0BB
:101AE000E355FD4F80833BC0803B39F0D0F4803A12
:101AF00009F477C0883A09F09CCF84E08093CF0244
:101B00001092AC021092AB02F0E0E0E009958091F7
:101B1000AB0281110FC081E08093AB0210928B0267
:101B200009C0803C09F4A8CF883C09F4A5CF883BC4
:101B300009F07FCFE091AC0281E08E0F8093AC0280
:101B4000F0E0E557FD4F80818093BB009091AC029F
:101B50008091AB0229C08091F4028093BB0085EC98
:101B60008093BC0066CF9091F3028091F2029817A7
:101B700058F5E091F30281E08E0F8093F302F0E0DC
:101B8000EE52FD4F8081E9CFE091F30281E08E0FAC
:101B90008093F3028091BB00F0E0EE52FD4F808312
:101BA0009091F3028091F2029817C8F285E8D8CF9D
:101BB000E091F30281E08E0F8093F3028091BB00ED
:101BC000F0E0EE52FD4F80838091D10281115ECF13
:101BD00081E08093D00284EA8093BC001092CF020F
:101BE00028CF85EC8093BC001092CF028091CD026B
:101BF000803230F4E091CD02F0E0E355FD4F1082E9
:101C00006091CD0270E08DEA92E0F0E0E0E00995AD
:101C10001092CD020ECF1092CE0238CFE8EDF3E055
:101C20001382128288EE93E0A0E0B0E08483958373
:101C3000A683B78389E191E09183808385EC90E06E
:101C40009587848784EC90E09787868780EC90E086
:101C5000918B808B81EC90E0938B828B82EC90E077
:101C6000958B848B86EC90E0978B868B118E128EF1
:101C7000138E148E0895CF93DF93CDB7DEB7C2567F
:101C8000D1090FB6F894DEBF0FBECDBF789484B5EE
:101C9000826084BD84B5816084BD85B5826085BD68
:101CA00085B5816085BD80916E00816080936E00F6
:101CB00010928100809181008260809381008091E8
:101CC0008100816080938100809180008160809399
:101CD00080008091B10084608093B1008091B00059
:101CE00081608093B00080917A00846080937A0054
:101CF00080917A00826080937A0080917A0081607E
:101D000080937A0080917A00806880937A001092A4
:101D1000C100E091E803F091E90382E08083E09163
:101D2000E403F091E5031082E091E603F091E7030C
:101D300080E180831092F003E091EC03F091ED03D9
:101D400086E08083E091EA03F091EB03808180617B
:101D50008083E091EA03F091EB03808188608083C7
:101D6000E091EA03F091EB03808180688083E09149
:101D7000EA03F091EB0380818F7D808310920D0147
:101D800061E089E00E946E0161E083E00E946E01E3
:101D900061E082E00E946E0160E080E10E946E01DD
:101DA00060E085E10E946E0160E08EE00E946E01BD
:101DB00060E082E10E946E0160E083E10E946E01BA
:101DC0000E942B0882E090E090937A03809379033D
:101DD00010927F031092800310928103109282036D
:101DE00070E060E083E00E948E0383EC95EFA8EA48
:101DF000BEE38093FA029093FB02A093FC02B0939F
:101E0000FD020E941F0860ED77E080E090E00E94F4
:101E100028040E941F0864EF71E080E090E00E94B7
:101E200028049E012F5F3F4F1901CE018F5B9F4F0A
:101E30006B969FAF8EAF6B970E942B080E945A043F
:101E40000091AF031091B0032091B1033091B20320
:101E5000061717072807390708F081C10E945A049E
:101E60000E943F1BA3966CAF7DAF8EAF9FAFA39731
:101E70000E945A04672B682B692B61F08DEC9CEC57
:101E8000ACE4B0E48093020190930301A0930401B9
:101E9000B09305018091790390917A038230910586
:101EA00009F426C28530910509F47AC2019709F038
:101EB00012C2C0900901D0900A01E0900B01F0908D
:101EC0000C0120E030E040EA50E4C701B6010E9476
:101ED0003A1B87FF8DC18AE999E9A9E9BEE380939E
:101EE000A7039093A803A093A903B093AA0326E69F
:101EF00036E646E051E4C701B6010E94DD1D181622
:101F00000CF4B1C12AE939E949E95EE36091A7031C
:101F10007091A8038091A9039091AA030E94C91C03
:101F20006093A7037093A8038093A9039093AA03D7
:101F3000C0907F03D0908003E0908103F0908203F3
:101F400020E030E040E85EE3C701B6010E94DD1DFD
:101F500018161CF481E08093F9028091F90288231D
:101F600069F12AE037ED43E25CE3C701B6010E9464
:101F70003A1B87FF23C010928B0310928C031092A0
:101F80008D0310928E031092A7031092A803109253
:101F9000A9031092AA0360E070E0CB010E9407063B
:101FA0001092F90261E971E0C1010E942220C10191
:101FB0000E94FA0682E090E00E942509C0908B03FF
:101FC000D0908C03E0908D03F0908E0320E030E001
:101FD0004EE753E4C701B6010E94DD1D18160CF050
:101FE0004BC12DEC3CEC4CE45DE360917F037091C0
:101FF000800380918103909182030E943A1B87FFA6
:102000003BC18091F7029091F80201969093F802FB
:102010008093F7028090090190900A01A0900B0133
:10202000B0900C01409002015090030160900401B7
:1020300070900501A091F702B091F8026D96BFAFC4
:10204000AEAF6D97A3019201C501B4010E943A1B86
:1020500087FF17C16091F5027091F6026E5C7F4FA9
:10206000072E000C880B990B0E94411B9B01AC01B1
:1020700011E000E0C701B6010E94DD1D18160CF04A
:1020800010E00E945A040F931F936D96BFAD6D9799
:10209000BF936C96EFAD6C97EF9320EC34ED41E07D
:1020A00050E00E94E71D21E06C32714081059105EE
:1020B00008F020E01F922F9320E030E048EC52E43B
:1020C000C301B2010E94A01B0E94A71D7F936F93C2
:1020D00020E030E048EC52E4C501B4010E94A01BAE
:1020E0000E94A71D7F936F938EE991E09F938F933A
:1020F0003F922F920E942920C1010E94FA0682E09D
:1021000090E00E9425091092A7031092A803109254
:10211000A9031092AA0360E070E0CB010E940706B9
:102120002DB73EB7225F3F4F0FB6F8943EBF0FBEAC
:102130002DBF20E030E046E953E4A3966CAD7DADC1
:102140008EAD9FADA3970E94C91C0E94A71D6093EE
:10215000AF037093B0038093B1039093B203CE01A9
:102160008D5A9F4F0E940A0BCE01835B9F4F0E94A6
:102170000A0BCE01895B9F4F0E940A0B88ED93E00A
:102180000E940405892B09F43BC163E070E080E004
:1021900090E00E94280488ED93E00E940405181640
:1021A000190664F788ED93E00E94E20489831A829D
:1021B00069960EAD1FAD69970F5F1F4FB801CE0135
:1021C0008D5A9F4F0E94B70A8823C1F265962EADA3
:1021D0003FAD659769968EAD9FAD6997B101820F4E
:1021E000931F0E94222069961FAF0EAF6997C6CF3A
:1021F00020E030E040E051E4C701B6010E943A1B04
:1022000087FF05C086E696E6A6EEBEE368CE2DEC17
:102210003CEC44E051E4C701B6010E943A1B87FF41
:1022200005C08DEC9CECACECBEE359CE26E636E660
:1022300046E051E4C701B6010E943A1B87FD4BCE30
:1022400020E030E048E051E4C701B6010E943A1BAB
:1022500087FD41CE1092A7031092A8031092A90304
:102260001092AA0344CE1092A7031092A8031092D2
:10227000A9031092AA035CCE1092F8021092F70202
:10228000C9CE0E945A0420EC34ED41E050E00E9497
:10229000E71D6C3271408105910508F4DBCE6D9627
:1022A0008EAD9FAD6D97893E9340D4F46091F50259
:1022B0007091F6026E5C7F4F072E000C880B990B15
:1022C0000E94411B9B01AC01C701B6010E94DD1DAC
:1022D00018160CF4BFCE20E030E040E85FE32DCFCD
:1022E0000E945A0461367A4E81059105F8F2B2CE09
:1022F00060918B0370918C0380918D0390918E037C
:102300000E94A71D7093F6026093F50260E070E0F2
:10231000CB010E9407060E942B086B017C0120E084
:1023200030E0A9010E943A1B882309F1C0920901FB
:10233000D0920A01E0920B01F0920C01209102016F
:102340003091030140910401509105016091090110
:1023500070910A0180910B0190910C010E943A1B2F
:1023600087FF12C0109208030E945A04B4CF8AE07B
:1023700097EDA3E2BCE38093090190930A01A09337
:102380000B01B0930C01DACF81E08093080385E064
:1023900090E00E94250920E030E04AEF54E4CDCEE1
:1023A0001092A7031092A8031092A9031092AA03F7
:1023B00060E070E0CB010E9407060E942B0860934A
:1023C000090170930A0180930B0190930C012091F5
:1023D00002013091030140910401509105010E94D6
:1023E0003A1B87FF04C082E090E00E94250981E04B
:1023F00090E00E9425091092F8021092F7026BCF2C
:1024000069964EAD5FAD69974115510509F4B6C0A7
:1024100065966EAD7FAD659788ED93E00E94A6044A
:102420008AEB91E00E94ED0625E030E050E040E0CC
:10243000BE016D5A7F4FC1010E94170BB101CE0141
:10244000835B9F4F0E94760AC1010E94AF0A2AE077
:1024500030E046E050E0BE016D5A7F4FC1010E945E
:10246000170BB101CE01895B9F4F0E94760AC10113
:102470000E94AF0A63968EAD9FAD6397892B09F4D6
:1024800057C06DEB71E02F968EAD9FAD2F970E94D8
:102490001920892B09F04CC029968EAD9FAD299744
:1024A000C12CD12C7601009721F00E948E176B0170
:1024B0007C0183EC91E00E940107C701B6010E94F4
:1024C0000F070E942B089B01AC01C701B6010E94B7
:1024D000C81C2091BD033091BE034091BF035091B1
:1024E000C0030E94C91C4B015C012DEC3CEC4CE488
:1024F0005EE30E94DD1D18160CF025C21092BD038C
:102500001092BE031092BF031092C0038FEC91E0B3
:102510000E9401076091BD037091BE038091BF03CB
:102520009091C0030E940F07C701B6010E940F07D8
:1025300063968EAD9FAD6397892B01F16BEE71E0D1
:102540002F968EAD9FAD2F970E941920892BB1F445
:1025500001E010E060E0C8010E94691C0F5F1F4F9E
:102560000B301105B9F781E08093BC031092BD03D5
:102570001092BE031092BF031092C0038091060117
:10258000882369F001E010E0C8010E94611C9FEF00
:10259000900F891709F400C281E08093BC03CE013B
:1025A000895B9F4F0E94AF0ACE01835B9F4F0E94C1
:1025B000AF0ACE018D5A9F4F0E94AF0A8091BC0393
:1025C000882309F42EC270E060E089E00E948E0347
:1025D0000E945A0428E833E140E050E00E94E71DE1
:1025E000643671058105910508F018C261E082E04A
:1025F0000E94220188EE93E00E949F010E945A04EB
:102600000091AB031091AC032091AD033091AE0368
:10261000601B710B820B930B693E73408105910522
:1026200070F10E942B080E942B088E010F5B1F4F38
:1026300022E044E00E9470176B96EFAD6B97EF932A
:102640006A96FFAD6A97FF938AE092E09F938F931B
:102650003F922F920E942920C1010E94FA060E94F7
:102660005A046093AB037093AC038093AD039093D3
:10267000AE030F900F900F900F900F900F900E944D
:102680005A040091A3031091A4032091A503309153
:10269000A603061717072807390708F011C180900D
:1026A000930390909403A0909503B09096030E949A
:1026B0002B0820E030E040E05FE30E94A01B6B01AC
:1026C0007C0120E030E040E05FE3C501B4010E94FE
:1026D000A01B9B01AC01C701B6010E94C91C6093FD
:1026E00093037093940380939503909396030E94B1
:1026F0005A0400918F03109190032091910330911F
:102700009203061717072807390708F054C080916D
:10271000090190910A01A0910B01B0910C018093E5
:10272000870390938803A0938903B0938A030E9440
:102730002B0820E030E040E05FE30E94A01B6093A4
:10274000830370938403809385039093860320E032
:1027500030E040E05FE360918703709188038091EF
:10276000890390918A030E94A01B60938703709352
:1027700088038093890390938A0380917F039091CB
:102780008003A0918103B091820380937B03909397
:102790007C03A0937D03B0937E030E945A04685388
:1027A0007F4F8F4F9F4F60938F0370939003809361
:1027B0009103909392038091BC03811173C0609147
:1027C0008B0370918C0380918D0390918E030E94F6
:1027D000A71D7F936F9380917A038F9380917903E4
:1027E0008F9320E030E04AE754E46091A7037091B2
:1027F000A8038091A9039091AA030E94A01B0E94A4
:10280000A71D7F936F9320E030E04AE754E4609186
:102810007B0370917C0380917D0390917E030E94E5
:10282000A01B0E94A71D7F936F9320E030E048EC2F
:1028300052E460918703709188038091890390919D
:102840008A030E94A01B0E94A71D7F936F9320E024
:1028500030E048EC52E460918303709184038091EE
:102860008503909186030E94A01B0E94A71D7F9361
:102870006F931F928DE78F9387E292E09F938F93E0
:1028800085E193E09F938F930E94292085E193E057
:102890000E940107EDB7FEB772960FB6F894FEBF1F
:1028A0000FBEEDBF0E945A04645D7E4F8F4F9F4F55
:1028B0006093A3037093A4038093A5039093A6034E
:1028C00080919B0381110DC00E945A04609397036D
:1028D000709398038093990390939A0381E0809377
:1028E0009B03C0909703D0909803E0909903F090D9
:1028F0009A03FAE0CF0ED11CE11CF11C0E945A048D
:10290000C61AD70AE80AF90A2BE0C216D104E10474
:10291000F10410F40E945A040E945A046093970331
:10292000709398038093990390939A0380E090E0CA
:10293000892B09F481CA0E941005882309F471CA01
:102940000E9400006ECA8092BD039092BE03A092C6
:10295000BF03B092C00301E010E06FEF600FC80149
:102960000E94691C0F5F1F4F0B301105B1F720E06B
:1029700030E048EC52E46091BD037091BE03809159
:10298000BF039091C0030E94A01B0E94A71D90E06E
:1029900080E00E94691CCCCD0F5F1F4F0B301105EA
:1029A00009F0F2CD90E080E00E94611C682F880F52
:1029B000770B880B990B0E94411B20E030E048EC1C
:1029C00052E40E94351D6093BD037093BE03809353
:1029D000BF039093C0038E010F5B1F4F22E044E0C2
:1029E0000E9470176B969FAD6B979F936A96AFADE1
:1029F0006A97AF9381EF91E09F938F933F922F92CD
:102A00000E942920C1010E94FA06109206010F902F
:102A10000F900F900F900F900F90C1CD0E941F0844
:102A2000EDCD6091A7037091A8038091A9039091C7
:102A3000AA030E94070680907F0390908003A090D5
:102A40008103B09082038EE00E94EB03BC01990FDA
:102A5000880B990B0E94411B20E030E040E85AE3CC
:102A60000E94A01B20E030E040EA50E40E94A01B3E
:102A700026E636E646EA5FE30E94A01B2091FA02B2
:102A80003091FB024091FC025091FD020E94351DE5
:102A90002AE037ED43E25CE30E94A01B6B017C015E
:102AA00024EA30E74DE75FE3C501B4010E94A01BB3
:102AB0009B01AC01C701B6010E94C91C2B013C015E
:102AC00040927F0350928003609281037092820350
:102AD0000E945A046B017C018091110390911203B2
:102AE000A0911303B09114036F968CAF9DAFAEAF5E
:102AF000BFAF6F970E945A044B015C0100917903AC
:102B000010917A030130110509F0BEC0109208013E
:102B1000109207010E945A046093110370931203EC
:102B200080931303909314032DEC3CEC4CE45EE390
:102B3000C301B2010E94DD1D181684F02AE939E9AB
:102B400045E051E46091090170910A0180910B0107
:102B500090910C010E94DD1D87FD0AC00E945A045D
:102B600060930D0370930E0380930F0390931003F3
:102B70000E945A046B0101301105C1F52DEC3CECAB
:102B80004CE45EE3C301B2010E943A1B87FF2EC0F2
:102B900026E636E646E051E46091090170910A01AB
:102BA00080910B0190910C010E943A1B87FF1EC07F
:102BB0008091040390910503C81AD90A0D2C000CCA
:102BC000EE08FF088091090390910A03A0910B037E
:102BD000B0910C038C0D9D1DAE1DBF1D809309038C
:102BE00090930A03A0930B03B0930C032DEC3CECE1
:102BF0004CE45EE3C301B2010E94DD1D181644F4EB
:102C00001092090310920A0310920B0310920C0306
:102C10000E945A0460930403709305038093060393
:102C200090930703209107013091080180910203DE
:102C3000909103032817390771F00E945A0460939A
:102C4000FE027093FF02809300039093010387E1DB
:102C500092E00E9401078091070190910801823063
:102C6000910509F4AEC00CF06CC0009709F470C077
:102C7000019709F470C08091070190910801909329
:102C8000030380930203FBCC6F968CAD9DADAEAD7C
:102C9000BFAD6F97C81AD90AEA0AFB0A80910903E7
:102CA00090910A03A0910B03B0910C03813D9740D2
:102CB000A105B105F0F0F0EDCF16F7E0DF06E10475
:102CC000F104B8F426E636E646E051E460910901E5
:102CD00070910A0180910B0190910C010E943A1BA6
:102CE00087FF07C081E090E090930801809307017F
:102CF0001BCF80910D0390910E03A0910F03B09113
:102D00001003881A990AAA0ABB0A20ED821627E046
:102D10009206A104B10428F4109208011092070150
:102D200003CF83E090E031E1C31637E2D306E1043C
:102D3000F104D0F6809108038111F6CE82E090E094
:102D4000D3CF8330910509F4C8C0049709F093CF1D
:102D50000E94330A90CF83E890E09A8389838DE7BD
:102D600090E09C838B8326E031E03E832D8398871F
:102D70008F832CED30E03A8729879C878B8728EB5F
:102D800031E03E872D87988B8F8729EE30E03A8B94
:102D9000298B9C8B8B8B22ED31E03E8B2D8B988F7A
:102DA0008F8B0E94660420E335E740E050E00E94EC
:102DB000E71D9B01AC016CE070E0C1010E94670956
:102DC0005ACF86E694E08031974208F086C0EDB68F
:102DD000FEB6EDB7FEB7BC970FB6F894FEBF0FBEB8
:102DE000EDBF0DB71EB70F5F1F4F8EEE91E09283C0
:102DF00081832DE730E0D80113963C932E931297F0
:102E00008AEB92E015969C938E93149717963C93B9
:102E10002E93169719961C921E9218971B963C9308
:102E20002E931A971D969C938E931C971F963C93F6
:102E30002E931E9751969C938E93509786EA90E01E
:102E400053969C938E93529743E952E055965C9328
:102E50004E93549757969C938E9356974BE452E01B
:102E600059965C934E9358975B969C938E935A9782
:102E70004BE052E05D965C934E935C974AEF50E0D6
:102E80005F965C934E935E9741E450E091965C931D
:102E90004E93909793969C938E93929795965C936E
:102EA0004E93949797963C932E93969799965C930E
:102EB0004E9398979B969C938E939A970E94660444
:102EC0009B01AC0166E170E0C8010E9467090FB682
:102ED000F894FEBE0FBEEDBECECE0E94DC09CBCE76
:102EE000EF920F931F93CF93DF93E80134E047FDF8
:102EF00034E1042E000C550B57FF03C0519541954A
:102F00005109E32E022F242FAE010E949217CE0109
:102F1000DF91CF911F910F91EF900895662777274A
:102F20000C94F118A9E0B0E0E8E9F7E10C94881CF2
:102F30006A01F22EB02E102FFBE3AF2EA01608F47C
:102F40001BE31F5F012F27E0AE014F5F5F4F0E9421
:102F5000411ABC018981982F9970913009F43FC0C2
:102F60009BE2E1FC04C09E2D9170E0FC3AC05E2D16
:102F70005071E82FE87083FF46C084E0911101C0D2
:102F800083E0EF2DE81B8F1508F0E0E0D6018E2FCF
:102F900020E2552351F1992329F0D6019C93C601D3
:102FA00001966C0196012D5F3F4FE2FE24C08EE436
:102FB000D6018C9391E411969C93119712968C9361
:102FC000D9018E2F90E281111BC0E20FF32FF11D6A
:102FD00010828EEF9FEF2996ECE00C94A41C9DE2EA
:102FE000C6CF90E2C4CF2D9381508111FCCFCE0E7D
:102FF000D11CE0E0D0CF8EE6D6018C9391E6DBCFFA
:103000009D938150E0CF482F447082FF3DC084E003
:10301000911101C083E08F1510F4EF2DE81BD6014C
:103020008E2F20E2552309F1992329F0D6019C9394
:10303000C60101966C0196012D5F3F4FE2FE1BC059
:1030400089E4D6018C938EE411968C93119786E4D3
:1030500012968C93D9018E2F90E2882309F4B5CF74
:103060009D938150FACF2D9381508111FCCFCE0ECC
:10307000D11CE0E0D9CF89E6D6018C938EE611967B
:103080008C93119786E6E4CF9B0177FF02C030E076
:1030900020E0A1E0B0E0911102C0B0E0A0E0F901B1
:1030A0003196AE0FBF1F8B2C912CBB2009F461C051
:1030B0005401EFEFAE1ABE0AAA0DBB1DFA161B068D
:1030C00019F014F04F2D4A1B511188C0E3FC59C070
:1030D0007601A42FB0E2A1114FC0C40ED11C9923D8
:1030E00009F45BC040E0D6011196F60190836D01B2
:1030F000552309F448C0012F060F9A81582F5071AB
:1031000084FF03C0913309F4015010160CF047C03E
:10311000093008F008E0EEE2FE2E5B01A01AB108CB
:1031200085019194819491082F3F320729F4D601AB
:10313000FC92F60131966F016217730794F1021742
:1031400013077CF5DB01A21BB30BAA24A394B12CBB
:10315000AC0EBD1EAA0DBB1D11968C9121503109DC
:10316000D601119628153905F4F0F60180836D011A
:10317000DBCFB12CA12CA0CFF701B1937F01A150DF
:10318000AACF9111B0CFD601942F50E302C05D9326
:1031900091509111FCCFC40ED11C40E0ACCF01E0A6
:1031A000BACF80E3DBCF6217730731F4963388F42C
:1031B000953311F4552369F0F6018083FD01842FC6
:1031C00090E2811108C0A40FB11D1C9290E080E034
:1031D00002CF81E3F1CF91938150F3CF911183CF4F
:1031E0008ACFB0E0A0E0E7EFF8E10C94881C5C0126
:1031F0007B016115710519F0DB018D939C938501AD
:103200000F5F1F4FF501D0818D2F90E00E94191B99
:103210006C01892BB9F5DD32B9F50F5F1F4FD50170
:103220001196DC91C1E05801F1E0AF1AB10843E01A
:1032300050E060E770E0C5010E94221B892B69F510
:10324000680182E0C80ED11C45E050E06BE670E0FA
:10325000C6010E94221B892B21F4680197E0C90E48
:10326000D11CE114F10419F0D701CD92DC9260E099
:1032700070E080E89FEFC111FFC060E070E080E87F
:103280009FE7FAC05801BBCFDB3229F485010E5FFE
:103290001F4FF501D181C0E0C6CF43E050E068E6A2
:1032A00070E0C5010E94221B892BE9F0F80110E0B3
:1032B00000E020E030E0A9015F01B0ED8B2E8D0E23
:1032C00089E08815C8F19C2E689491F88C2F88703D
:1032D000C2FF16C0811102C00F5F1F4F3196D5018A
:1032E000DC91C92DE9CFE114F10429F00E5F1F4FE5
:1032F000F7011183008360E070E080EC9FE7BCC0C1
:10330000882311F001501109A5E0B0E00E94771C5C
:103310009B01AC01220F331F441F551F280D311D87
:10332000411D511D283999E93907490799E1590784
:10333000A8F2C6609C2ED2CFAEEF8A1206C0C3FDA3
:103340003CC09C2E689493F8C9CFDF7DD534A9F595
:1033500080818D3239F4C061DF011296818162E093
:1033600070E006C0DF018B32C1F3119661E070E0BE
:1033700080535D01A61AB70A8A30F8F4E0E8CE1649
:10338000ECE0DE065CF4B601660F771F660F771F70
:10339000C60ED71ECC0CDD1CC80ED11C5D01FFEF84
:1033A000AF1ABF0A8C9180538A30A8F1C4FF03C0C2
:1033B000D194C194D1080C0D1D1DC1FF09C0E114A9
:1033C000F10431F081E0A81AB108D701AD92BC92A6
:1033D000CA01B9010E943F1BC370C33009F4905861
:1033E0004B015C0120E030E0A9010E943A1B8823D8
:1033F00009F440C0CFE9D0E017FF05C01195019551
:103400001109C7E8D0E06E01B8E1CB1AD10880E21B
:10341000E82EF12C0FC0D501B1CFFE0125913591D9
:10342000459154910E191F09C501B4010E94A01BBA
:103430004B015C01D501C4010E151F0574F72497DB
:10344000F594E794CC16DD06A9F78A2F880F8B2F09
:10345000881F8F3F49F020E030E0A901C501B40189
:103460000E943A1B811106C082E290E0909376049C
:1034700080937504C501B401CDB7DEB7ECE00C94C0
:10348000A41C283008F027E03327DA01990F311DFA
:1034900087FD916000966105710539F432602E5FF9
:1034A0003D9330E32A95E1F708959F3F30F080384F
:1034B0007105610509F03C5F3C5F3D93913008F078
:1034C0008068911DDF93CF931F930F93FF92EF922C
:1034D000192F987F9695E92F96959695E90FFF27D6
:1034E000E350FF4F99273327EE24FF24A701E7017C
:1034F00005900894079428F4360FE71EF81E491F1C
:10350000511D660F771F881F991F0694A1F705901C
:10351000079428F4E70EF81E491F561FC11D770FA8
:10352000881F991F661F0694A1F70590079428F439
:10353000F80E491F561FC71FD11D880F991F661F00
:10354000771F0694A1F70590079420F4490F561FA2
:10355000C71FD81F990F661F771F881F0694A9F7EA
:1035600084911095177041F0D695C795579547955A
:10357000F794E7941A95C1F7E3EAF0E068941590A0
:10358000159135916591959105907FE27395E118BC
:10359000F10A430B560BC90BD009C0F7E10CF11E21
:1035A000431F561FC91FD01D7EF4703311F48A9536
:1035B000E6CFE894015030F0080F0AF40027021714
:1035C00008F4202F2395022F7A3328F079E37D9396
:1035D0002A95E9F710C07D932A9589F60694979568
:1035E0006795379517951794E118F10A430B560B19
:1035F000C90BD00998F023957E9173957A3308F022
:1036000070E37C932013B8F77E9170617D9330F066
:10361000839571E37D9370E32A95E1F71124EF9090
:10362000FF900F911F91CF91DF91992787FD909582
:10363000089591110C940D1C803219F08950855019
:10364000C8F70895FB01DC014150504088F08D918E
:1036500081341CF08B350CF4805E659161341CF074
:103660006B350CF4605E861B611171F3990B089544
:10367000881BFCCF0E947C1B08F481E00895E8942D
:1036800009C097FB3EF490958095709561957F4FAA
:103690008F4F9F4F9923A9F0F92F96E9BB27939558
:1036A000F695879577956795B795F111F8CFFAF468
:1036B000BB0F11F460FF1BC06F5F7F4F8F4F9F4F99
:1036C00016C0882311F096E911C0772321F09EE8F7
:1036D000872F762F05C0662371F096E8862F70E05D
:1036E00060E02AF09A95660F771F881FDAF7880F37
:1036F0009695879597F90895990F0008550FAA0B8D
:10370000E0E8FEEF16161706E807F907C0F01216F4
:103710001306E407F50798F0621B730B840B950BF7
:1037200039F40A2661F0232B242B252B21F408954C
:103730000A2609F4A140A6958FEF811D811D0895E9
:103740000E94B31B0C94271C0E94191C38F00E9485
:10375000201C20F0952311F00C94101C0C94161CC6
:1037600011240C945B1C0E94381C70F3959FC1F3CC
:10377000950F50E0551F629FF001729FBB27F00D1F
:10378000B11D639FAA27F00DB11DAA1F649F662774
:10379000B00DA11D661F829F2227B00DA11D621FC3
:1037A000739FB00DA11D621F839FA00D611D221F7D
:1037B000749F3327A00D611D231F849F600D211D61
:1037C000822F762F6A2F11249F5750409AF0F1F0E4
:1037D00088234AF0EE0FFF1FBB1F661F771F881F4D
:1037E00091505040A9F79E3F510580F00C94101C59
:1037F0000C945B1C5F3FE4F3983ED4F38695779579
:103800006795B795F795E7959F5FC1F7FE2B880FF2
:10381000911D9695879597F908959927882708957A
:1038200097F99F6780E870E060E008959FEF80EC73
:10383000089500240A941616170618060906089516
:1038400000240A9412161306140605060895092E7C
:103850000394000C11F4882352F0BB0F40F4BF2BEB
:1038600011F460FF04C06F5F7F4F8F4F9F4F08952B
:1038700057FD9058440F551F59F05F3F71F0479521
:10388000880F97FB991F61F09F3F79F08795089506
:10389000121613061406551FF2CF4695F1DF08C025
:1038A000161617061806991FF1CF86957105610542
:1038B00008940895E894BB2766277727CB0197F9EA
:1038C0000895F999FECF92BD81BDF89A992780B5E8
:1038D0000895262FF999FECF1FBA92BD81BD20BD54
:1038E0000FB6F894FA9AF99A0FBE019608950E94BD
:1038F000B91CA59F900DB49F900DA49F800D911DA4
:10390000112408952F923F924F925F926F927F926F
:103910008F929F92AF92BF92CF92DF92EF92FF92DF
:103920000F931F93CF93DF93CDB7DEB7CA1BDB0B8B
:103930000FB6F894DEBF0FBECDBF09942A88398830
:1039400048885F846E847D848C849B84AA84B98437
:10395000C884DF80EE80FD800C811B81AA81B98143
:10396000CE0FD11D0FB6F894DEBF0FBECDBFED0157
:103970000895A29FB001B39FC001A39F700D811D48
:103980001124911DB29F700D811D1124911D089568
:103990005058BB27AA270E94E01C0C94271C0E94A9
:1039A000191C38F00E94201C20F039F49F3F19F4B4
:1039B00026F40C94161C0EF4E095E7FB0C94101CF6
:1039C000E92F0E94381C58F3BA176207730784075F
:1039D000950720F079F4A6F50C945A1C0EF4E095A6
:1039E0000B2EBA2FA02D0B01B90190010C01CA01B9
:1039F000A0011124FF27591B99F0593F50F4503E64
:103A000068F11A16F040A22F232F342F4427585F55
:103A1000F3CF469537952795A795F0405395C9F76D
:103A20007EF41F16BA0B620B730B840BBAF0915025
:103A3000A1F0FF0FBB1F661F771F881FC2F70EC0C4
:103A4000BA0F621F731F841F48F487957795679597
:103A5000B795F7959E3F08F0B0CF9395880F08F083
:103A60009927EE0F9795879508950E94491D0C940C
:103A7000271C0E94201C58F00E94191C40F029F4B9
:103A80005F3F29F00C94101C51110C945B1C0C949A
:103A9000161C0E94381C68F39923B1F3552391F347
:103AA000951B550BBB27AA2762177307840738F0AD
:103AB0009F5F5F4F220F331F441FAA1FA9F335D00A
:103AC0000E2E3AF0E0E832D091505040E695001CBE
:103AD000CAF72BD0FE2F29D0660F771F881FBB1F78
:103AE000261737074807AB07B0E809F0BB0B802D56
:103AF000BF01FF2793585F4F3AF09E3F510578F082
:103B00000C94101C0C945B1C5F3FE4F3983ED4F3C0
:103B1000869577956795B795F7959F5FC9F7880F55
:103B2000911D9695879597F90895E1E0660F771FA7
:103B3000881FBB1F621773078407BA0720F0621B38
:103B4000730B840BBA0BEE1F88F7E09508950E9463
:103B5000AE1D6894B1110C945B1C08950E94401C2A
:103B600088F09F5798F0B92F9927B751B0F0E1F03E
:103B7000660F771F881F991F1AF0BA95C9F714C0EE
:103B8000B13091F00E945A1CB1E008950C945A1C77
:103B9000672F782F8827B85F39F0B93FCCF3869527
:103BA00077956795B395D9F73EF490958095709584
:103BB00061957F4F8F4F9F4F08950E947C1B08F4A3
:103BC0008FEF08950E947C1B880B990B0895A1E24A
:103BD0001A2EAA1BBB1BFD010DC0AA1FBB1FEE1F87
:103BE000FF1FA217B307E407F50720F0A21BB30BD2
:103BF000E40BF50B661F771F881F991F1A9469F74E
:103C000060957095809590959B01AC01BD01CF01A9
:103C10000895052E97FB1EF400940E94201E57FD68
:103C200007D00E94E71D07FC03D04EF40C94201E21
:103C300050954095309521953F4F4F4F5F4F0895D8
:103C400090958095709561957F4F8F4F9F4F089508
:103C5000EE0FFF1F0590F491E02D09940F931F9331
:103C6000CF93DF938230910510F482E090E0E091F1
:103C70007904F0917A0430E020E0B0E0A0E03097E1
:103C800099F42115310509F44AC0281B390B243059
:103C90003105D8F58A819B816115710589F1FB0198
:103CA00093838283FE0111C040815181028113817F
:103CB00048175907E0F04817590799F4109761F031
:103CC00012960C93129713961C933296CF01DF91A4
:103CD000CF911F910F9108950093790410937A0466
:103CE000F4CF2115310551F04217530738F0A901DF
:103CF000DB019A01BD01DF01F801C1CFEF01F9CF6E
:103D000090937A0480937904CDCFFE01E20FF31FE4
:103D1000819391932250310939832883D7CF209101
:103D2000770430917804232B41F4209111013091D4
:103D30001201309378042093770420910F01309181
:103D400010012115310541F42DB73EB74091130103
:103D500050911401241B350BE0917704F091780405
:103D6000E217F307A0F42E1B3F0B2817390778F052
:103D7000AC014E5F5F4F2417350748F04E0F5F1FB1
:103D80005093780440937704819391939FCFF0E010
:103D9000E0E09CCFCF93DF930097E9F0FC013297EE
:103DA00013821282A0917904B0917A04ED0130E07F
:103DB00020E01097A1F420813181820F931F209180
:103DC0007704309178042817390709F061C0F0931F
:103DD0007804E0937704DF91CF910895EA01CE173C
:103DE000DF07E8F54A815B819E0141155105B1F776
:103DF000E901FB83EA8349915991C40FD51FEC1760
:103E0000FD0761F4808191810296840F951FE9017D
:103E100099838883828193819B838A83F0E0E0E0A9
:103E200012968D919C9113970097B9F52D913C9125
:103E30001197CD010296820F931F20917704309144
:103E400078042817390739F6309751F510927A041B
:103E500010927904B0937804A0937704BCCFD383F5
:103E6000C28340815181840F951FC817D90761F41F
:103E70004E5F5F4F88819981480F591F518340835E
:103E80008A819B81938382832115310509F0B0CF0C
:103E9000F0937A04E09379049ECFFD01DC01C0CF5A
:103EA00013821282D7CFB0E0A0E0E9E5FFE10C94E5
:103EB000841C8C01009751F4CB010E942E1E8C01B2
:103EC000C801CDB7DEB7E0E10C94A01CFC01E60F01
:103ED000F71F9C0122503109E217F30708F49DC037
:103EE000D901CD91DC911197C617D70798F0C5304D
:103EF000D10530F3CE0104978617970708F3C61B48
:103F0000D70B2297C193D1936D937C93CF010E94DD
:103F1000CA1ED6CF5B01AC1ABD0A4C018C0E9D1E89
:103F2000A0917904B0917A04512C412CF12CE12C10
:103F3000109731F580917704909178048815990550
:103F400009F05CC04616570608F058C080910F0172
:103F500090911001009741F48DB79EB740911301E5
:103F600050911401841B950BE817F90708F055C010
:103F7000F0937804E0937704F90171836083A0CF14
:103F80008D919C91119712966C90129713967C903C
:103F90001397A815B90559F56C0142E0C40ED11C60
:103FA000CA14DB0420F1AC014A195B09DA0112964C
:103FB000159780F06282738251834083D9016D939B
:103FC0007C93E114F10471F0D7011396FC93EE9306
:103FD000129776CF22968C0F9D1FF90191838083D3
:103FE000F301EFCFF0937A04E093790469CF481698
:103FF000590608F42C017D01D3019ACFCB010E9410
:104000002E1E7C01009749F0AE01B8010E941020DD
:10401000C8010E94CA1E870153CF10E000E050CFB4
:10402000FB01DC0102C001900D9241505040D8F7D5
:104030000895FB01DC018D91019080190110D9F3E5
:10404000990B0895FB01DC0101900D920020E1F72E
:104050000895AEE0B0E0EFE2F0E20C94901C0D8920
:104060001E8986E08C831A8309838FEF9FE79E83E6
:104070008D83AE01475E5F4F6F89788DCE010196CB
:104080000E944C202F813885020F131FF8011082E7
:104090002E96E4E00C94AC1CABE0B0E0E2E5F0E27C
:1040A0000C94821C7C013B018A01FC011782168260
:1040B000838181FFC8C1CE0101965C01F701938124
:1040C000F30193FD859193FF81913F01882309F4CA
:1040D00053C1853239F493FD859193FF81913F015E
:1040E000853229F4B70190E00E943C22E7CF912C61
:1040F000212C312CFFE1F31538F08B3211F190F4C3
:10410000803209F1833229F137FC3CC020ED280FC1
:104110002A3050F536FE20C08AE0989E200D1124EA
:10412000922E06C08D3291F0803371F7689430F88A
:10413000F30193FD859193FF81913F018111DACFC6
:1041400021C0689431F8689432F8F2CF689433F85B
:10415000EFCF689434F8ECCFEAE02E9E200D1124C6
:10416000222E689435F8E4CF8E3229F436FC04C14F
:10417000689436F8DDCF8C3619F4689437F8D8CFC8
:104180008836B1F2982F9F7D95549330E0F08336B6
:10419000A1F18337C1F1833509F063C02801F2E052
:1041A0004F0E511CF801C080D180692D70E036FCA3
:1041B00002C06FEF7FEFC6010E9426224C01689477
:1041C00037F882010AC00C5F1F4FFFE3F983882490
:1041D0008394912C6501E89437F833FE2DC0522C5E
:1041E0008114910471F5552009F468CFB70180E27C
:1041F00090E00E943C225A94F6CFF8018081898396
:104200000E5F1F4FE4CF2801F2E04F0E511CF80162
:10421000C080D180692D70E036FC02C06FEF7FEF67
:10422000C6010E9431224C018201D5CFB70180E244
:1042300090E00E943C222A942814190409F0B0F757
:10424000CECFF60137FC859137FE81916F01B70122
:1042500090E00E943C2251105A94F1E08F1A91088C
:10426000BFCF843619F0893609F077C0F80137FEE0
:104270006BC060817181828193810C5F1F4FF32D30
:10428000FF763F2E97FF09C09095809570956195B8
:104290007F4F8F4F9F4F689437F82AE030E0A50199
:1042A0000E946C22C82ECA188C2C432C36FE0CC0DF
:1042B000E89440F8C91440F434FE05C032FC03C051
:1042C000F32DFE7E4F2E892C44FE95C0FE01EC0D91
:1042D000F11D8081803309F087C0242D297E422E74
:1042E000842D8870582E43FC95C040FE8FC09C2CB6
:1042F000821418F42C0C922C981844FE91C0B7012B
:1043000080E390E00E943C2242FE09C088E790E0F2
:1043100041FE02C088E590E0B7010E943C22C9142A
:1043200008F48AC0CA94D12C9FEFC91AD90ACA0CC2
:10433000DB1CF60182916F01B70190E00E943C22E4
:10434000AC14BD04B1F74FCF60817181072E000C12
:10435000880B990B0E5F1F4F92CFD32CE894D4F8A3
:104360002AE030E0853739F1232D297FD22E8F3690
:1043700001F148F48835A9F0F701868197812B96E1
:10438000E2E10C949E1C803749F08837A9F7D4FEEF
:1043900002C06894D2F820E130E00DC06894D4F8EF
:1043A000F6CF34FE03C0822F8660D82E20E132E0A3
:1043B00002C028E030E0F801D7FE0FC060817181B3
:1043C000828193810C5F1F4FA5010E946C22C82E31
:1043D000CA183D2CE89437F867CF6081718190E06E
:1043E00080E00E5F1F4FF0CF42FC02C0839478CF75
:1043F0008394839475CF842D867809F471CFF6CF9A
:10440000B70180E290E00E943C2283948214C0F3C2
:10441000512C73CF522C5818821408F46ECFF8CF59
:10442000842D867809F47BCF8BE241FE80E247FC45
:104430008DE2B70190E071CFB70180E390E00E9478
:104440003C229A946CCF8FEF9FEF99CFFC0105909F
:10445000615070400110D8F7809590958E0F9F1F86
:104460000895FC016150704001900110D8F78095CB
:1044700090958E0F9F1F08950F931F93CF93DF93F7
:10448000182F092FEB018B8181FD09C01FEF0FEF62
:10449000812F902FDF91CF911F910F91089582FF6F
:1044A00014C02E813F818C819D81281739073CF4EF
:1044B000E881F981CF0101969983888310838E81E9
:1044C0009F8101969F838E83E3CFE885F985812FB5
:1044D0000995892BA1F3DACFFA01AA27283051F1E7
:1044E000203181F1E8946F936E7F6E5F7F4F8F4F25
:1044F0009F4FAF4FB1E03ED0B4E03CD0670F781F84
:10450000891F9A1FA11D680F791F8A1F911DA11D68
:104510006A0F711D811D911DA11D20D009F46894A1
:104520003F912AE0269F11243019305D3193DEF649
:10453000CF010895462F4770405D4193B3E00FD0FF
:10454000C9F7F6CF462F4F70405D4A3318F0495DEA
:1045500031FD4052419302D0A9F7EACFB4E0A695CD
:104560009795879577956795BA95C9F700976105EF
:10457000710508959B01AC010A2E06945795479545
:1045800037952795BA95C9F7620F731F841F951F3A
:08459000A01D0895F894FFCF6F
:1045980001000000C03F01020017B7D13801FF0039
:1045A800007B048000000000004605A604D30493A5
:1045B800050405E204F6046E616E00696E66006F1C
:1045C8007666007261775F766F6C74616765202527
:1045D800640D0A00766F6C746167655F63616C696E
:1045E80062726174696F6E2025640D0A00737769C1
:1045F800746368696E6720666F726D207374617486
:104608006520256420746F207374617465202564A7
:104618000D0A00746F6E65202564202564202564CA
:10462800006E6F2063757272656E740D0A006E6F8E
:104638002063686172676520256420202564202036
:10464800256420202564202025640D0A0063616C00
:1046580069620063616C6962726174653A20004541
:1046680052524F523A20696E76616C6964206361D8
:104678006C6962726174696F6E3A00726573657411
:1046880000766F6C746167652063616C6962726142
:1046980074696F6E2025730D0A00766F6C746167FC
:1046A800652025730D0A0072657365745F62656520
:1046B800705F74696D6500646973703A206C656E2B
:1046C8002C2036352C207665722C20253033642C2E
:1046D80020766C742C20253033642C206C766C2C5E
:1046E80020253033642C206375722C2025303364E8
:1046F8002C206373702C20253033642C2073747441
:104708002C20253033642C206F75742C20253033F1
:0247180064003B
:00000001FF
